{
	"New/A8.sol": {
		"MemoryTypes": {
			"abi": [
				{
					"inputs": [],
					"name": "getNumber",
					"outputs": [
						{
							"internalType": "uint256",
							"name": "",
							"type": "uint256"
						}
					],
					"stateMutability": "view",
					"type": "function"
				},
				{
					"inputs": [],
					"name": "myNumber",
					"outputs": [
						{
							"internalType": "uint256",
							"name": "",
							"type": "uint256"
						}
					],
					"stateMutability": "view",
					"type": "function"
				},
				{
					"inputs": [],
					"name": "names",
					"outputs": [
						{
							"internalType": "string",
							"name": "firstname",
							"type": "string"
						},
						{
							"internalType": "string",
							"name": "lastname",
							"type": "string"
						}
					],
					"stateMutability": "view",
					"type": "function"
				},
				{
					"inputs": [
						{
							"internalType": "uint256[]",
							"name": "values",
							"type": "uint256[]"
						}
					],
					"name": "processData",
					"outputs": [],
					"stateMutability": "nonpayable",
					"type": "function"
				},
				{
					"inputs": [
						{
							"internalType": "uint256",
							"name": "newValue",
							"type": "uint256"
						}
					],
					"name": "setNumber",
					"outputs": [],
					"stateMutability": "nonpayable",
					"type": "function"
				},
				{
					"inputs": [
						{
							"internalType": "string",
							"name": "_firstname",
							"type": "string"
						},
						{
							"internalType": "string",
							"name": "_lastname",
							"type": "string"
						}
					],
					"name": "strg",
					"outputs": [],
					"stateMutability": "nonpayable",
					"type": "function"
				}
			],
			"devdoc": {
				"kind": "dev",
				"methods": {},
				"version": 1
			},
			"evm": {
				"assembly": "    /* \"New/A8.sol\":60:1829  contract MemoryTypes{... */\n  mstore(0x40, 0x80)\n  callvalue\n  dup1\n  iszero\n  tag_1\n  jumpi\n  0x00\n  dup1\n  revert\ntag_1:\n  pop\n  dataSize(sub_0)\n  dup1\n  dataOffset(sub_0)\n  0x00\n  codecopy\n  0x00\n  return\nstop\n\nsub_0: assembly {\n        /* \"New/A8.sol\":60:1829  contract MemoryTypes{... */\n      mstore(0x40, 0x80)\n      callvalue\n      dup1\n      iszero\n      tag_1\n      jumpi\n      0x00\n      dup1\n      revert\n    tag_1:\n      pop\n      jumpi(tag_2, lt(calldatasize, 0x04))\n      shr(0xe0, calldataload(0x00))\n      dup1\n      0x056da048\n      eq\n      tag_3\n      jumpi\n      dup1\n      0x23fd0e40\n      eq\n      tag_4\n      jumpi\n      dup1\n      0x3fb5c1cb\n      eq\n      tag_5\n      jumpi\n      dup1\n      0x8ed80c66\n      eq\n      tag_6\n      jumpi\n      dup1\n      0xf2c9ecd8\n      eq\n      tag_7\n      jumpi\n      dup1\n      0xfcb1c2a2\n      eq\n      tag_8\n      jumpi\n    tag_2:\n      0x00\n      dup1\n      revert\n        /* \"New/A8.sol\":199:217  Names public names */\n    tag_3:\n      tag_9\n      tag_10\n      jump\t// in\n    tag_9:\n      mload(0x40)\n      tag_11\n      swap3\n      swap2\n      swap1\n      tag_12\n      jump\t// in\n    tag_11:\n      mload(0x40)\n      dup1\n      swap2\n      sub\n      swap1\n      return\n        /* \"New/A8.sol\":1471:1494  uint256 public myNumber */\n    tag_4:\n      tag_13\n      tag_14\n      jump\t// in\n    tag_13:\n      mload(0x40)\n      tag_15\n      swap2\n      swap1\n      tag_16\n      jump\t// in\n    tag_15:\n      mload(0x40)\n      dup1\n      swap2\n      sub\n      swap1\n      return\n        /* \"New/A8.sol\":1537:1677  function setNumber(uint256 newValue) external {... */\n    tag_5:\n      tag_17\n      0x04\n      dup1\n      calldatasize\n      sub\n      dup2\n      add\n      swap1\n      tag_18\n      swap2\n      swap1\n      tag_19\n      jump\t// in\n    tag_18:\n      tag_20\n      jump\t// in\n    tag_17:\n      stop\n        /* \"New/A8.sol\":1195:1318  function processData(uint256[] calldata values) external {... */\n    tag_6:\n      tag_21\n      0x04\n      dup1\n      calldatasize\n      sub\n      dup2\n      add\n      swap1\n      tag_22\n      swap2\n      swap1\n      tag_23\n      jump\t// in\n    tag_22:\n      tag_24\n      jump\t// in\n    tag_21:\n      stop\n        /* \"New/A8.sol\":1683:1826  function getNumber() external view returns (uint256) {... */\n    tag_7:\n      tag_25\n      tag_26\n      jump\t// in\n    tag_25:\n      mload(0x40)\n      tag_27\n      swap2\n      swap1\n      tag_16\n      jump\t// in\n    tag_27:\n      mload(0x40)\n      dup1\n      swap2\n      sub\n      swap1\n      return\n        /* \"New/A8.sol\":531:696  function strg (string memory _firstname, string memory _lastname) public{... */\n    tag_8:\n      tag_28\n      0x04\n      dup1\n      calldatasize\n      sub\n      dup2\n      add\n      swap1\n      tag_29\n      swap2\n      swap1\n      tag_30\n      jump\t// in\n    tag_29:\n      tag_31\n      jump\t// in\n    tag_28:\n      stop\n        /* \"New/A8.sol\":199:217  Names public names */\n    tag_10:\n      0x00\n      dup1\n      0x00\n      add\n      dup1\n      sload\n      tag_32\n      swap1\n      tag_33\n      jump\t// in\n    tag_32:\n      dup1\n      0x1f\n      add\n      0x20\n      dup1\n      swap2\n      div\n      mul\n      0x20\n      add\n      mload(0x40)\n      swap1\n      dup2\n      add\n      0x40\n      mstore\n      dup1\n      swap3\n      swap2\n      swap1\n      dup2\n      dup2\n      mstore\n      0x20\n      add\n      dup3\n      dup1\n      sload\n      tag_34\n      swap1\n      tag_33\n      jump\t// in\n    tag_34:\n      dup1\n      iszero\n      tag_35\n      jumpi\n      dup1\n      0x1f\n      lt\n      tag_36\n      jumpi\n      0x0100\n      dup1\n      dup4\n      sload\n      div\n      mul\n      dup4\n      mstore\n      swap2\n      0x20\n      add\n      swap2\n      jump(tag_35)\n    tag_36:\n      dup3\n      add\n      swap2\n      swap1\n      0x00\n      mstore\n      keccak256(0x00, 0x20)\n      swap1\n    tag_37:\n      dup2\n      sload\n      dup2\n      mstore\n      swap1\n      0x01\n      add\n      swap1\n      0x20\n      add\n      dup1\n      dup4\n      gt\n      tag_37\n      jumpi\n      dup3\n      swap1\n      sub\n      0x1f\n      and\n      dup3\n      add\n      swap2\n    tag_35:\n      pop\n      pop\n      pop\n      pop\n      pop\n      swap1\n      dup1\n      0x01\n      add\n      dup1\n      sload\n      tag_38\n      swap1\n      tag_33\n      jump\t// in\n    tag_38:\n      dup1\n      0x1f\n      add\n      0x20\n      dup1\n      swap2\n      div\n      mul\n      0x20\n      add\n      mload(0x40)\n      swap1\n      dup2\n      add\n      0x40\n      mstore\n      dup1\n      swap3\n      swap2\n      swap1\n      dup2\n      dup2\n      mstore\n      0x20\n      add\n      dup3\n      dup1\n      sload\n      tag_39\n      swap1\n      tag_33\n      jump\t// in\n    tag_39:\n      dup1\n      iszero\n      tag_40\n      jumpi\n      dup1\n      0x1f\n      lt\n      tag_41\n      jumpi\n      0x0100\n      dup1\n      dup4\n      sload\n      div\n      mul\n      dup4\n      mstore\n      swap2\n      0x20\n      add\n      swap2\n      jump(tag_40)\n    tag_41:\n      dup3\n      add\n      swap2\n      swap1\n      0x00\n      mstore\n      keccak256(0x00, 0x20)\n      swap1\n    tag_42:\n      dup2\n      sload\n      dup2\n      mstore\n      swap1\n      0x01\n      add\n      swap1\n      0x20\n      add\n      dup1\n      dup4\n      gt\n      tag_42\n      jumpi\n      dup3\n      swap1\n      sub\n      0x1f\n      and\n      dup3\n      add\n      swap2\n    tag_40:\n      pop\n      pop\n      pop\n      pop\n      pop\n      swap1\n      pop\n      dup3\n      jump\t// out\n        /* \"New/A8.sol\":1471:1494  uint256 public myNumber */\n    tag_14:\n      sload(0x02)\n      dup2\n      jump\t// out\n        /* \"New/A8.sol\":1537:1677  function setNumber(uint256 newValue) external {... */\n    tag_20:\n        /* \"New/A8.sol\":1661:1669  newValue */\n      dup1\n        /* \"New/A8.sol\":1650:1658  myNumber */\n      0x02\n        /* \"New/A8.sol\":1650:1669  myNumber = newValue */\n      dup2\n      swap1\n      sstore\n      pop\n        /* \"New/A8.sol\":1537:1677  function setNumber(uint256 newValue) external {... */\n      pop\n      jump\t// out\n        /* \"New/A8.sol\":1195:1318  function processData(uint256[] calldata values) external {... */\n    tag_24:\n      pop\n      pop\n      jump\t// out\n        /* \"New/A8.sol\":1683:1826  function getNumber() external view returns (uint256) {... */\n    tag_26:\n        /* \"New/A8.sol\":1727:1734  uint256 */\n      0x00\n        /* \"New/A8.sol\":1810:1818  myNumber */\n      sload(0x02)\n        /* \"New/A8.sol\":1803:1818  return myNumber */\n      swap1\n      pop\n        /* \"New/A8.sol\":1683:1826  function getNumber() external view returns (uint256) {... */\n      swap1\n      jump\t// out\n        /* \"New/A8.sol\":531:696  function strg (string memory _firstname, string memory _lastname) public{... */\n    tag_31:\n        /* \"New/A8.sol\":614:633  Names memory _names */\n      0x00\n        /* \"New/A8.sol\":636:663  Names(_firstname,_lastname) */\n      mload(0x40)\n      dup1\n      0x40\n      add\n      0x40\n      mstore\n      dup1\n        /* \"New/A8.sol\":642:652  _firstname */\n      dup5\n        /* \"New/A8.sol\":636:663  Names(_firstname,_lastname) */\n      dup2\n      mstore\n      0x20\n      add\n        /* \"New/A8.sol\":653:662  _lastname */\n      dup4\n        /* \"New/A8.sol\":636:663  Names(_firstname,_lastname) */\n      dup2\n      mstore\n      pop\n        /* \"New/A8.sol\":614:663  Names memory _names = Names(_firstname,_lastname) */\n      swap1\n      pop\n        /* \"New/A8.sol\":682:688  _names */\n      dup1\n        /* \"New/A8.sol\":674:679  names */\n      0x00\n        /* \"New/A8.sol\":674:688  names = _names */\n      dup1\n      dup3\n      add\n      mload\n      dup2\n      0x00\n      add\n      swap1\n      dup2\n      tag_47\n      swap2\n      swap1\n      tag_48\n      jump\t// in\n    tag_47:\n      pop\n      0x20\n      dup3\n      add\n      mload\n      dup2\n      0x01\n      add\n      swap1\n      dup2\n      tag_49\n      swap2\n      swap1\n      tag_48\n      jump\t// in\n    tag_49:\n      pop\n      swap1\n      pop\n      pop\n        /* \"New/A8.sol\":603:696  {... */\n      pop\n        /* \"New/A8.sol\":531:696  function strg (string memory _firstname, string memory _lastname) public{... */\n      pop\n      pop\n      jump\t// out\n        /* \"#utility.yul\":7:106   */\n    tag_50:\n        /* \"#utility.yul\":59:65   */\n      0x00\n        /* \"#utility.yul\":93:98   */\n      dup2\n        /* \"#utility.yul\":87:99   */\n      mload\n        /* \"#utility.yul\":77:99   */\n      swap1\n      pop\n        /* \"#utility.yul\":7:106   */\n      swap2\n      swap1\n      pop\n      jump\t// out\n        /* \"#utility.yul\":112:281   */\n    tag_51:\n        /* \"#utility.yul\":196:207   */\n      0x00\n        /* \"#utility.yul\":230:236   */\n      dup3\n        /* \"#utility.yul\":225:228   */\n      dup3\n        /* \"#utility.yul\":218:237   */\n      mstore\n        /* \"#utility.yul\":270:274   */\n      0x20\n        /* \"#utility.yul\":265:268   */\n      dup3\n        /* \"#utility.yul\":261:275   */\n      add\n        /* \"#utility.yul\":246:275   */\n      swap1\n      pop\n        /* \"#utility.yul\":112:281   */\n      swap3\n      swap2\n      pop\n      pop\n      jump\t// out\n        /* \"#utility.yul\":287:533   */\n    tag_52:\n        /* \"#utility.yul\":368:369   */\n      0x00\n        /* \"#utility.yul\":378:491   */\n    tag_94:\n        /* \"#utility.yul\":392:398   */\n      dup4\n        /* \"#utility.yul\":389:390   */\n      dup2\n        /* \"#utility.yul\":386:399   */\n      lt\n        /* \"#utility.yul\":378:491   */\n      iszero\n      tag_96\n      jumpi\n        /* \"#utility.yul\":477:478   */\n      dup1\n        /* \"#utility.yul\":472:475   */\n      dup3\n        /* \"#utility.yul\":468:479   */\n      add\n        /* \"#utility.yul\":462:480   */\n      mload\n        /* \"#utility.yul\":458:459   */\n      dup2\n        /* \"#utility.yul\":453:456   */\n      dup5\n        /* \"#utility.yul\":449:460   */\n      add\n        /* \"#utility.yul\":442:481   */\n      mstore\n        /* \"#utility.yul\":414:416   */\n      0x20\n        /* \"#utility.yul\":411:412   */\n      dup2\n        /* \"#utility.yul\":407:417   */\n      add\n        /* \"#utility.yul\":402:417   */\n      swap1\n      pop\n        /* \"#utility.yul\":378:491   */\n      jump(tag_94)\n    tag_96:\n        /* \"#utility.yul\":525:526   */\n      0x00\n        /* \"#utility.yul\":516:522   */\n      dup5\n        /* \"#utility.yul\":511:514   */\n      dup5\n        /* \"#utility.yul\":507:523   */\n      add\n        /* \"#utility.yul\":500:527   */\n      mstore\n        /* \"#utility.yul\":349:533   */\n      pop\n        /* \"#utility.yul\":287:533   */\n      pop\n      pop\n      pop\n      jump\t// out\n        /* \"#utility.yul\":539:641   */\n    tag_53:\n        /* \"#utility.yul\":580:586   */\n      0x00\n        /* \"#utility.yul\":631:633   */\n      0x1f\n        /* \"#utility.yul\":627:634   */\n      not\n        /* \"#utility.yul\":622:624   */\n      0x1f\n        /* \"#utility.yul\":615:620   */\n      dup4\n        /* \"#utility.yul\":611:625   */\n      add\n        /* \"#utility.yul\":607:635   */\n      and\n        /* \"#utility.yul\":597:635   */\n      swap1\n      pop\n        /* \"#utility.yul\":539:641   */\n      swap2\n      swap1\n      pop\n      jump\t// out\n        /* \"#utility.yul\":647:1024   */\n    tag_54:\n        /* \"#utility.yul\":735:738   */\n      0x00\n        /* \"#utility.yul\":763:802   */\n      tag_99\n        /* \"#utility.yul\":796:801   */\n      dup3\n        /* \"#utility.yul\":763:802   */\n      tag_50\n      jump\t// in\n    tag_99:\n        /* \"#utility.yul\":818:889   */\n      tag_100\n        /* \"#utility.yul\":882:888   */\n      dup2\n        /* \"#utility.yul\":877:880   */\n      dup6\n        /* \"#utility.yul\":818:889   */\n      tag_51\n      jump\t// in\n    tag_100:\n        /* \"#utility.yul\":811:889   */\n      swap4\n      pop\n        /* \"#utility.yul\":898:963   */\n      tag_101\n        /* \"#utility.yul\":956:962   */\n      dup2\n        /* \"#utility.yul\":951:954   */\n      dup6\n        /* \"#utility.yul\":944:948   */\n      0x20\n        /* \"#utility.yul\":937:942   */\n      dup7\n        /* \"#utility.yul\":933:949   */\n      add\n        /* \"#utility.yul\":898:963   */\n      tag_52\n      jump\t// in\n    tag_101:\n        /* \"#utility.yul\":988:1017   */\n      tag_102\n        /* \"#utility.yul\":1010:1016   */\n      dup2\n        /* \"#utility.yul\":988:1017   */\n      tag_53\n      jump\t// in\n    tag_102:\n        /* \"#utility.yul\":983:986   */\n      dup5\n        /* \"#utility.yul\":979:1018   */\n      add\n        /* \"#utility.yul\":972:1018   */\n      swap2\n      pop\n        /* \"#utility.yul\":739:1024   */\n      pop\n        /* \"#utility.yul\":647:1024   */\n      swap3\n      swap2\n      pop\n      pop\n      jump\t// out\n        /* \"#utility.yul\":1030:1544   */\n    tag_12:\n        /* \"#utility.yul\":1191:1195   */\n      0x00\n        /* \"#utility.yul\":1229:1231   */\n      0x40\n        /* \"#utility.yul\":1218:1227   */\n      dup3\n        /* \"#utility.yul\":1214:1232   */\n      add\n        /* \"#utility.yul\":1206:1232   */\n      swap1\n      pop\n        /* \"#utility.yul\":1278:1287   */\n      dup2\n        /* \"#utility.yul\":1272:1276   */\n      dup2\n        /* \"#utility.yul\":1268:1288   */\n      sub\n        /* \"#utility.yul\":1264:1265   */\n      0x00\n        /* \"#utility.yul\":1253:1262   */\n      dup4\n        /* \"#utility.yul\":1249:1266   */\n      add\n        /* \"#utility.yul\":1242:1289   */\n      mstore\n        /* \"#utility.yul\":1306:1384   */\n      tag_104\n        /* \"#utility.yul\":1379:1383   */\n      dup2\n        /* \"#utility.yul\":1370:1376   */\n      dup6\n        /* \"#utility.yul\":1306:1384   */\n      tag_54\n      jump\t// in\n    tag_104:\n        /* \"#utility.yul\":1298:1384   */\n      swap1\n      pop\n        /* \"#utility.yul\":1431:1440   */\n      dup2\n        /* \"#utility.yul\":1425:1429   */\n      dup2\n        /* \"#utility.yul\":1421:1441   */\n      sub\n        /* \"#utility.yul\":1416:1418   */\n      0x20\n        /* \"#utility.yul\":1405:1414   */\n      dup4\n        /* \"#utility.yul\":1401:1419   */\n      add\n        /* \"#utility.yul\":1394:1442   */\n      mstore\n        /* \"#utility.yul\":1459:1537   */\n      tag_105\n        /* \"#utility.yul\":1532:1536   */\n      dup2\n        /* \"#utility.yul\":1523:1529   */\n      dup5\n        /* \"#utility.yul\":1459:1537   */\n      tag_54\n      jump\t// in\n    tag_105:\n        /* \"#utility.yul\":1451:1537   */\n      swap1\n      pop\n        /* \"#utility.yul\":1030:1544   */\n      swap4\n      swap3\n      pop\n      pop\n      pop\n      jump\t// out\n        /* \"#utility.yul\":1550:1627   */\n    tag_55:\n        /* \"#utility.yul\":1587:1594   */\n      0x00\n        /* \"#utility.yul\":1616:1621   */\n      dup2\n        /* \"#utility.yul\":1605:1621   */\n      swap1\n      pop\n        /* \"#utility.yul\":1550:1627   */\n      swap2\n      swap1\n      pop\n      jump\t// out\n        /* \"#utility.yul\":1633:1751   */\n    tag_56:\n        /* \"#utility.yul\":1720:1744   */\n      tag_108\n        /* \"#utility.yul\":1738:1743   */\n      dup2\n        /* \"#utility.yul\":1720:1744   */\n      tag_55\n      jump\t// in\n    tag_108:\n        /* \"#utility.yul\":1715:1718   */\n      dup3\n        /* \"#utility.yul\":1708:1745   */\n      mstore\n        /* \"#utility.yul\":1633:1751   */\n      pop\n      pop\n      jump\t// out\n        /* \"#utility.yul\":1757:1979   */\n    tag_16:\n        /* \"#utility.yul\":1850:1854   */\n      0x00\n        /* \"#utility.yul\":1888:1890   */\n      0x20\n        /* \"#utility.yul\":1877:1886   */\n      dup3\n        /* \"#utility.yul\":1873:1891   */\n      add\n        /* \"#utility.yul\":1865:1891   */\n      swap1\n      pop\n        /* \"#utility.yul\":1901:1972   */\n      tag_110\n        /* \"#utility.yul\":1969:1970   */\n      0x00\n        /* \"#utility.yul\":1958:1967   */\n      dup4\n        /* \"#utility.yul\":1954:1971   */\n      add\n        /* \"#utility.yul\":1945:1951   */\n      dup5\n        /* \"#utility.yul\":1901:1972   */\n      tag_56\n      jump\t// in\n    tag_110:\n        /* \"#utility.yul\":1757:1979   */\n      swap3\n      swap2\n      pop\n      pop\n      jump\t// out\n        /* \"#utility.yul\":1985:2060   */\n    tag_57:\n        /* \"#utility.yul\":2018:2024   */\n      0x00\n        /* \"#utility.yul\":2051:2053   */\n      0x40\n        /* \"#utility.yul\":2045:2054   */\n      mload\n        /* \"#utility.yul\":2035:2054   */\n      swap1\n      pop\n        /* \"#utility.yul\":1985:2060   */\n      swap1\n      jump\t// out\n        /* \"#utility.yul\":2066:2183   */\n    tag_58:\n        /* \"#utility.yul\":2175:2176   */\n      0x00\n        /* \"#utility.yul\":2172:2173   */\n      dup1\n        /* \"#utility.yul\":2165:2177   */\n      revert\n        /* \"#utility.yul\":2189:2306   */\n    tag_59:\n        /* \"#utility.yul\":2298:2299   */\n      0x00\n        /* \"#utility.yul\":2295:2296   */\n      dup1\n        /* \"#utility.yul\":2288:2300   */\n      revert\n        /* \"#utility.yul\":2312:2434   */\n    tag_60:\n        /* \"#utility.yul\":2385:2409   */\n      tag_115\n        /* \"#utility.yul\":2403:2408   */\n      dup2\n        /* \"#utility.yul\":2385:2409   */\n      tag_55\n      jump\t// in\n    tag_115:\n        /* \"#utility.yul\":2378:2383   */\n      dup2\n        /* \"#utility.yul\":2375:2410   */\n      eq\n        /* \"#utility.yul\":2365:2428   */\n      tag_116\n      jumpi\n        /* \"#utility.yul\":2424:2425   */\n      0x00\n        /* \"#utility.yul\":2421:2422   */\n      dup1\n        /* \"#utility.yul\":2414:2426   */\n      revert\n        /* \"#utility.yul\":2365:2428   */\n    tag_116:\n        /* \"#utility.yul\":2312:2434   */\n      pop\n      jump\t// out\n        /* \"#utility.yul\":2440:2579   */\n    tag_61:\n        /* \"#utility.yul\":2486:2491   */\n      0x00\n        /* \"#utility.yul\":2524:2530   */\n      dup2\n        /* \"#utility.yul\":2511:2531   */\n      calldataload\n        /* \"#utility.yul\":2502:2531   */\n      swap1\n      pop\n        /* \"#utility.yul\":2540:2573   */\n      tag_118\n        /* \"#utility.yul\":2567:2572   */\n      dup2\n        /* \"#utility.yul\":2540:2573   */\n      tag_60\n      jump\t// in\n    tag_118:\n        /* \"#utility.yul\":2440:2579   */\n      swap3\n      swap2\n      pop\n      pop\n      jump\t// out\n        /* \"#utility.yul\":2585:2914   */\n    tag_19:\n        /* \"#utility.yul\":2644:2650   */\n      0x00\n        /* \"#utility.yul\":2693:2695   */\n      0x20\n        /* \"#utility.yul\":2681:2690   */\n      dup3\n        /* \"#utility.yul\":2672:2679   */\n      dup5\n        /* \"#utility.yul\":2668:2691   */\n      sub\n        /* \"#utility.yul\":2664:2696   */\n      slt\n        /* \"#utility.yul\":2661:2780   */\n      iszero\n      tag_120\n      jumpi\n        /* \"#utility.yul\":2699:2778   */\n      tag_121\n      tag_58\n      jump\t// in\n    tag_121:\n        /* \"#utility.yul\":2661:2780   */\n    tag_120:\n        /* \"#utility.yul\":2819:2820   */\n      0x00\n        /* \"#utility.yul\":2844:2897   */\n      tag_122\n        /* \"#utility.yul\":2889:2896   */\n      dup5\n        /* \"#utility.yul\":2880:2886   */\n      dup3\n        /* \"#utility.yul\":2869:2878   */\n      dup6\n        /* \"#utility.yul\":2865:2887   */\n      add\n        /* \"#utility.yul\":2844:2897   */\n      tag_61\n      jump\t// in\n    tag_122:\n        /* \"#utility.yul\":2834:2897   */\n      swap2\n      pop\n        /* \"#utility.yul\":2790:2907   */\n      pop\n        /* \"#utility.yul\":2585:2914   */\n      swap3\n      swap2\n      pop\n      pop\n      jump\t// out\n        /* \"#utility.yul\":2920:3037   */\n    tag_62:\n        /* \"#utility.yul\":3029:3030   */\n      0x00\n        /* \"#utility.yul\":3026:3027   */\n      dup1\n        /* \"#utility.yul\":3019:3031   */\n      revert\n        /* \"#utility.yul\":3043:3160   */\n    tag_63:\n        /* \"#utility.yul\":3152:3153   */\n      0x00\n        /* \"#utility.yul\":3149:3150   */\n      dup1\n        /* \"#utility.yul\":3142:3154   */\n      revert\n        /* \"#utility.yul\":3166:3283   */\n    tag_64:\n        /* \"#utility.yul\":3275:3276   */\n      0x00\n        /* \"#utility.yul\":3272:3273   */\n      dup1\n        /* \"#utility.yul\":3265:3277   */\n      revert\n        /* \"#utility.yul\":3306:3874   */\n    tag_65:\n        /* \"#utility.yul\":3379:3387   */\n      0x00\n        /* \"#utility.yul\":3389:3395   */\n      dup1\n        /* \"#utility.yul\":3439:3442   */\n      dup4\n        /* \"#utility.yul\":3432:3436   */\n      0x1f\n        /* \"#utility.yul\":3424:3430   */\n      dup5\n        /* \"#utility.yul\":3420:3437   */\n      add\n        /* \"#utility.yul\":3416:3443   */\n      slt\n        /* \"#utility.yul\":3406:3528   */\n      tag_127\n      jumpi\n        /* \"#utility.yul\":3447:3526   */\n      tag_128\n      tag_62\n      jump\t// in\n    tag_128:\n        /* \"#utility.yul\":3406:3528   */\n    tag_127:\n        /* \"#utility.yul\":3560:3566   */\n      dup3\n        /* \"#utility.yul\":3547:3567   */\n      calldataload\n        /* \"#utility.yul\":3537:3567   */\n      swap1\n      pop\n        /* \"#utility.yul\":3590:3608   */\n      0xffffffffffffffff\n        /* \"#utility.yul\":3582:3588   */\n      dup2\n        /* \"#utility.yul\":3579:3609   */\n      gt\n        /* \"#utility.yul\":3576:3693   */\n      iszero\n      tag_129\n      jumpi\n        /* \"#utility.yul\":3612:3691   */\n      tag_130\n      tag_63\n      jump\t// in\n    tag_130:\n        /* \"#utility.yul\":3576:3693   */\n    tag_129:\n        /* \"#utility.yul\":3726:3730   */\n      0x20\n        /* \"#utility.yul\":3718:3724   */\n      dup4\n        /* \"#utility.yul\":3714:3731   */\n      add\n        /* \"#utility.yul\":3702:3731   */\n      swap2\n      pop\n        /* \"#utility.yul\":3780:3783   */\n      dup4\n        /* \"#utility.yul\":3772:3776   */\n      0x20\n        /* \"#utility.yul\":3764:3770   */\n      dup3\n        /* \"#utility.yul\":3760:3777   */\n      mul\n        /* \"#utility.yul\":3750:3758   */\n      dup4\n        /* \"#utility.yul\":3746:3778   */\n      add\n        /* \"#utility.yul\":3743:3784   */\n      gt\n        /* \"#utility.yul\":3740:3868   */\n      iszero\n      tag_131\n      jumpi\n        /* \"#utility.yul\":3787:3866   */\n      tag_132\n      tag_64\n      jump\t// in\n    tag_132:\n        /* \"#utility.yul\":3740:3868   */\n    tag_131:\n        /* \"#utility.yul\":3306:3874   */\n      swap3\n      pop\n      swap3\n      swap1\n      pop\n      jump\t// out\n        /* \"#utility.yul\":3880:4439   */\n    tag_23:\n        /* \"#utility.yul\":3966:3972   */\n      0x00\n        /* \"#utility.yul\":3974:3980   */\n      dup1\n        /* \"#utility.yul\":4023:4025   */\n      0x20\n        /* \"#utility.yul\":4011:4020   */\n      dup4\n        /* \"#utility.yul\":4002:4009   */\n      dup6\n        /* \"#utility.yul\":3998:4021   */\n      sub\n        /* \"#utility.yul\":3994:4026   */\n      slt\n        /* \"#utility.yul\":3991:4110   */\n      iszero\n      tag_134\n      jumpi\n        /* \"#utility.yul\":4029:4108   */\n      tag_135\n      tag_58\n      jump\t// in\n    tag_135:\n        /* \"#utility.yul\":3991:4110   */\n    tag_134:\n        /* \"#utility.yul\":4177:4178   */\n      0x00\n        /* \"#utility.yul\":4166:4175   */\n      dup4\n        /* \"#utility.yul\":4162:4179   */\n      add\n        /* \"#utility.yul\":4149:4180   */\n      calldataload\n        /* \"#utility.yul\":4207:4225   */\n      0xffffffffffffffff\n        /* \"#utility.yul\":4199:4205   */\n      dup2\n        /* \"#utility.yul\":4196:4226   */\n      gt\n        /* \"#utility.yul\":4193:4310   */\n      iszero\n      tag_136\n      jumpi\n        /* \"#utility.yul\":4229:4308   */\n      tag_137\n      tag_59\n      jump\t// in\n    tag_137:\n        /* \"#utility.yul\":4193:4310   */\n    tag_136:\n        /* \"#utility.yul\":4342:4422   */\n      tag_138\n        /* \"#utility.yul\":4414:4421   */\n      dup6\n        /* \"#utility.yul\":4405:4411   */\n      dup3\n        /* \"#utility.yul\":4394:4403   */\n      dup7\n        /* \"#utility.yul\":4390:4412   */\n      add\n        /* \"#utility.yul\":4342:4422   */\n      tag_65\n      jump\t// in\n    tag_138:\n        /* \"#utility.yul\":4324:4422   */\n      swap3\n      pop\n      swap3\n      pop\n        /* \"#utility.yul\":4120:4432   */\n      pop\n        /* \"#utility.yul\":3880:4439   */\n      swap3\n      pop\n      swap3\n      swap1\n      pop\n      jump\t// out\n        /* \"#utility.yul\":4445:4562   */\n    tag_66:\n        /* \"#utility.yul\":4554:4555   */\n      0x00\n        /* \"#utility.yul\":4551:4552   */\n      dup1\n        /* \"#utility.yul\":4544:4556   */\n      revert\n        /* \"#utility.yul\":4568:4748   */\n    tag_67:\n        /* \"#utility.yul\":4616:4693   */\n      0x4e487b7100000000000000000000000000000000000000000000000000000000\n        /* \"#utility.yul\":4613:4614   */\n      0x00\n        /* \"#utility.yul\":4606:4694   */\n      mstore\n        /* \"#utility.yul\":4713:4717   */\n      0x41\n        /* \"#utility.yul\":4710:4711   */\n      0x04\n        /* \"#utility.yul\":4703:4718   */\n      mstore\n        /* \"#utility.yul\":4737:4741   */\n      0x24\n        /* \"#utility.yul\":4734:4735   */\n      0x00\n        /* \"#utility.yul\":4727:4742   */\n      revert\n        /* \"#utility.yul\":4754:5035   */\n    tag_68:\n        /* \"#utility.yul\":4837:4864   */\n      tag_142\n        /* \"#utility.yul\":4859:4863   */\n      dup3\n        /* \"#utility.yul\":4837:4864   */\n      tag_53\n      jump\t// in\n    tag_142:\n        /* \"#utility.yul\":4829:4835   */\n      dup2\n        /* \"#utility.yul\":4825:4865   */\n      add\n        /* \"#utility.yul\":4967:4973   */\n      dup2\n        /* \"#utility.yul\":4955:4965   */\n      dup2\n        /* \"#utility.yul\":4952:4974   */\n      lt\n        /* \"#utility.yul\":4931:4949   */\n      0xffffffffffffffff\n        /* \"#utility.yul\":4919:4929   */\n      dup3\n        /* \"#utility.yul\":4916:4950   */\n      gt\n        /* \"#utility.yul\":4913:4975   */\n      or\n        /* \"#utility.yul\":4910:4998   */\n      iszero\n      tag_143\n      jumpi\n        /* \"#utility.yul\":4978:4996   */\n      tag_144\n      tag_67\n      jump\t// in\n    tag_144:\n        /* \"#utility.yul\":4910:4998   */\n    tag_143:\n        /* \"#utility.yul\":5018:5028   */\n      dup1\n        /* \"#utility.yul\":5014:5016   */\n      0x40\n        /* \"#utility.yul\":5007:5029   */\n      mstore\n        /* \"#utility.yul\":4797:5035   */\n      pop\n        /* \"#utility.yul\":4754:5035   */\n      pop\n      pop\n      jump\t// out\n        /* \"#utility.yul\":5041:5170   */\n    tag_69:\n        /* \"#utility.yul\":5075:5081   */\n      0x00\n        /* \"#utility.yul\":5102:5122   */\n      tag_146\n      tag_57\n      jump\t// in\n    tag_146:\n        /* \"#utility.yul\":5092:5122   */\n      swap1\n      pop\n        /* \"#utility.yul\":5131:5164   */\n      tag_147\n        /* \"#utility.yul\":5159:5163   */\n      dup3\n        /* \"#utility.yul\":5151:5157   */\n      dup3\n        /* \"#utility.yul\":5131:5164   */\n      tag_68\n      jump\t// in\n    tag_147:\n        /* \"#utility.yul\":5041:5170   */\n      swap2\n      swap1\n      pop\n      jump\t// out\n        /* \"#utility.yul\":5176:5484   */\n    tag_70:\n        /* \"#utility.yul\":5238:5242   */\n      0x00\n        /* \"#utility.yul\":5328:5346   */\n      0xffffffffffffffff\n        /* \"#utility.yul\":5320:5326   */\n      dup3\n        /* \"#utility.yul\":5317:5347   */\n      gt\n        /* \"#utility.yul\":5314:5370   */\n      iszero\n      tag_149\n      jumpi\n        /* \"#utility.yul\":5350:5368   */\n      tag_150\n      tag_67\n      jump\t// in\n    tag_150:\n        /* \"#utility.yul\":5314:5370   */\n    tag_149:\n        /* \"#utility.yul\":5388:5417   */\n      tag_151\n        /* \"#utility.yul\":5410:5416   */\n      dup3\n        /* \"#utility.yul\":5388:5417   */\n      tag_53\n      jump\t// in\n    tag_151:\n        /* \"#utility.yul\":5380:5417   */\n      swap1\n      pop\n        /* \"#utility.yul\":5472:5476   */\n      0x20\n        /* \"#utility.yul\":5466:5470   */\n      dup2\n        /* \"#utility.yul\":5462:5477   */\n      add\n        /* \"#utility.yul\":5454:5477   */\n      swap1\n      pop\n        /* \"#utility.yul\":5176:5484   */\n      swap2\n      swap1\n      pop\n      jump\t// out\n        /* \"#utility.yul\":5490:5636   */\n    tag_71:\n        /* \"#utility.yul\":5587:5593   */\n      dup3\n        /* \"#utility.yul\":5582:5585   */\n      dup2\n        /* \"#utility.yul\":5577:5580   */\n      dup4\n        /* \"#utility.yul\":5564:5594   */\n      calldatacopy\n        /* \"#utility.yul\":5628:5629   */\n      0x00\n        /* \"#utility.yul\":5619:5625   */\n      dup4\n        /* \"#utility.yul\":5614:5617   */\n      dup4\n        /* \"#utility.yul\":5610:5626   */\n      add\n        /* \"#utility.yul\":5603:5630   */\n      mstore\n        /* \"#utility.yul\":5490:5636   */\n      pop\n      pop\n      pop\n      jump\t// out\n        /* \"#utility.yul\":5642:6067   */\n    tag_72:\n        /* \"#utility.yul\":5720:5725   */\n      0x00\n        /* \"#utility.yul\":5745:5811   */\n      tag_154\n        /* \"#utility.yul\":5761:5810   */\n      tag_155\n        /* \"#utility.yul\":5803:5809   */\n      dup5\n        /* \"#utility.yul\":5761:5810   */\n      tag_70\n      jump\t// in\n    tag_155:\n        /* \"#utility.yul\":5745:5811   */\n      tag_69\n      jump\t// in\n    tag_154:\n        /* \"#utility.yul\":5736:5811   */\n      swap1\n      pop\n        /* \"#utility.yul\":5834:5840   */\n      dup3\n        /* \"#utility.yul\":5827:5832   */\n      dup2\n        /* \"#utility.yul\":5820:5841   */\n      mstore\n        /* \"#utility.yul\":5872:5876   */\n      0x20\n        /* \"#utility.yul\":5865:5870   */\n      dup2\n        /* \"#utility.yul\":5861:5877   */\n      add\n        /* \"#utility.yul\":5910:5913   */\n      dup5\n        /* \"#utility.yul\":5901:5907   */\n      dup5\n        /* \"#utility.yul\":5896:5899   */\n      dup5\n        /* \"#utility.yul\":5892:5908   */\n      add\n        /* \"#utility.yul\":5889:5914   */\n      gt\n        /* \"#utility.yul\":5886:5998   */\n      iszero\n      tag_156\n      jumpi\n        /* \"#utility.yul\":5917:5996   */\n      tag_157\n      tag_66\n      jump\t// in\n    tag_157:\n        /* \"#utility.yul\":5886:5998   */\n    tag_156:\n        /* \"#utility.yul\":6007:6061   */\n      tag_158\n        /* \"#utility.yul\":6054:6060   */\n      dup5\n        /* \"#utility.yul\":6049:6052   */\n      dup3\n        /* \"#utility.yul\":6044:6047   */\n      dup6\n        /* \"#utility.yul\":6007:6061   */\n      tag_71\n      jump\t// in\n    tag_158:\n        /* \"#utility.yul\":5726:6067   */\n      pop\n        /* \"#utility.yul\":5642:6067   */\n      swap4\n      swap3\n      pop\n      pop\n      pop\n      jump\t// out\n        /* \"#utility.yul\":6087:6427   */\n    tag_73:\n        /* \"#utility.yul\":6143:6148   */\n      0x00\n        /* \"#utility.yul\":6192:6195   */\n      dup3\n        /* \"#utility.yul\":6185:6189   */\n      0x1f\n        /* \"#utility.yul\":6177:6183   */\n      dup4\n        /* \"#utility.yul\":6173:6190   */\n      add\n        /* \"#utility.yul\":6169:6196   */\n      slt\n        /* \"#utility.yul\":6159:6281   */\n      tag_160\n      jumpi\n        /* \"#utility.yul\":6200:6279   */\n      tag_161\n      tag_62\n      jump\t// in\n    tag_161:\n        /* \"#utility.yul\":6159:6281   */\n    tag_160:\n        /* \"#utility.yul\":6317:6323   */\n      dup2\n        /* \"#utility.yul\":6304:6324   */\n      calldataload\n        /* \"#utility.yul\":6342:6421   */\n      tag_162\n        /* \"#utility.yul\":6417:6420   */\n      dup5\n        /* \"#utility.yul\":6409:6415   */\n      dup3\n        /* \"#utility.yul\":6402:6406   */\n      0x20\n        /* \"#utility.yul\":6394:6400   */\n      dup7\n        /* \"#utility.yul\":6390:6407   */\n      add\n        /* \"#utility.yul\":6342:6421   */\n      tag_72\n      jump\t// in\n    tag_162:\n        /* \"#utility.yul\":6333:6421   */\n      swap2\n      pop\n        /* \"#utility.yul\":6149:6427   */\n      pop\n        /* \"#utility.yul\":6087:6427   */\n      swap3\n      swap2\n      pop\n      pop\n      jump\t// out\n        /* \"#utility.yul\":6433:7267   */\n    tag_30:\n        /* \"#utility.yul\":6521:6527   */\n      0x00\n        /* \"#utility.yul\":6529:6535   */\n      dup1\n        /* \"#utility.yul\":6578:6580   */\n      0x40\n        /* \"#utility.yul\":6566:6575   */\n      dup4\n        /* \"#utility.yul\":6557:6564   */\n      dup6\n        /* \"#utility.yul\":6553:6576   */\n      sub\n        /* \"#utility.yul\":6549:6581   */\n      slt\n        /* \"#utility.yul\":6546:6665   */\n      iszero\n      tag_164\n      jumpi\n        /* \"#utility.yul\":6584:6663   */\n      tag_165\n      tag_58\n      jump\t// in\n    tag_165:\n        /* \"#utility.yul\":6546:6665   */\n    tag_164:\n        /* \"#utility.yul\":6732:6733   */\n      0x00\n        /* \"#utility.yul\":6721:6730   */\n      dup4\n        /* \"#utility.yul\":6717:6734   */\n      add\n        /* \"#utility.yul\":6704:6735   */\n      calldataload\n        /* \"#utility.yul\":6762:6780   */\n      0xffffffffffffffff\n        /* \"#utility.yul\":6754:6760   */\n      dup2\n        /* \"#utility.yul\":6751:6781   */\n      gt\n        /* \"#utility.yul\":6748:6865   */\n      iszero\n      tag_166\n      jumpi\n        /* \"#utility.yul\":6784:6863   */\n      tag_167\n      tag_59\n      jump\t// in\n    tag_167:\n        /* \"#utility.yul\":6748:6865   */\n    tag_166:\n        /* \"#utility.yul\":6889:6952   */\n      tag_168\n        /* \"#utility.yul\":6944:6951   */\n      dup6\n        /* \"#utility.yul\":6935:6941   */\n      dup3\n        /* \"#utility.yul\":6924:6933   */\n      dup7\n        /* \"#utility.yul\":6920:6942   */\n      add\n        /* \"#utility.yul\":6889:6952   */\n      tag_73\n      jump\t// in\n    tag_168:\n        /* \"#utility.yul\":6879:6952   */\n      swap3\n      pop\n        /* \"#utility.yul\":6675:6962   */\n      pop\n        /* \"#utility.yul\":7029:7031   */\n      0x20\n        /* \"#utility.yul\":7018:7027   */\n      dup4\n        /* \"#utility.yul\":7014:7032   */\n      add\n        /* \"#utility.yul\":7001:7033   */\n      calldataload\n        /* \"#utility.yul\":7060:7078   */\n      0xffffffffffffffff\n        /* \"#utility.yul\":7052:7058   */\n      dup2\n        /* \"#utility.yul\":7049:7079   */\n      gt\n        /* \"#utility.yul\":7046:7163   */\n      iszero\n      tag_169\n      jumpi\n        /* \"#utility.yul\":7082:7161   */\n      tag_170\n      tag_59\n      jump\t// in\n    tag_170:\n        /* \"#utility.yul\":7046:7163   */\n    tag_169:\n        /* \"#utility.yul\":7187:7250   */\n      tag_171\n        /* \"#utility.yul\":7242:7249   */\n      dup6\n        /* \"#utility.yul\":7233:7239   */\n      dup3\n        /* \"#utility.yul\":7222:7231   */\n      dup7\n        /* \"#utility.yul\":7218:7240   */\n      add\n        /* \"#utility.yul\":7187:7250   */\n      tag_73\n      jump\t// in\n    tag_171:\n        /* \"#utility.yul\":7177:7250   */\n      swap2\n      pop\n        /* \"#utility.yul\":6972:7260   */\n      pop\n        /* \"#utility.yul\":6433:7267   */\n      swap3\n      pop\n      swap3\n      swap1\n      pop\n      jump\t// out\n        /* \"#utility.yul\":7273:7453   */\n    tag_74:\n        /* \"#utility.yul\":7321:7398   */\n      0x4e487b7100000000000000000000000000000000000000000000000000000000\n        /* \"#utility.yul\":7318:7319   */\n      0x00\n        /* \"#utility.yul\":7311:7399   */\n      mstore\n        /* \"#utility.yul\":7418:7422   */\n      0x22\n        /* \"#utility.yul\":7415:7416   */\n      0x04\n        /* \"#utility.yul\":7408:7423   */\n      mstore\n        /* \"#utility.yul\":7442:7446   */\n      0x24\n        /* \"#utility.yul\":7439:7440   */\n      0x00\n        /* \"#utility.yul\":7432:7447   */\n      revert\n        /* \"#utility.yul\":7459:7779   */\n    tag_33:\n        /* \"#utility.yul\":7503:7509   */\n      0x00\n        /* \"#utility.yul\":7540:7541   */\n      0x02\n        /* \"#utility.yul\":7534:7538   */\n      dup3\n        /* \"#utility.yul\":7530:7542   */\n      div\n        /* \"#utility.yul\":7520:7542   */\n      swap1\n      pop\n        /* \"#utility.yul\":7587:7588   */\n      0x01\n        /* \"#utility.yul\":7581:7585   */\n      dup3\n        /* \"#utility.yul\":7577:7589   */\n      and\n        /* \"#utility.yul\":7608:7626   */\n      dup1\n        /* \"#utility.yul\":7598:7679   */\n      tag_174\n      jumpi\n        /* \"#utility.yul\":7664:7668   */\n      0x7f\n        /* \"#utility.yul\":7656:7662   */\n      dup3\n        /* \"#utility.yul\":7652:7669   */\n      and\n        /* \"#utility.yul\":7642:7669   */\n      swap2\n      pop\n        /* \"#utility.yul\":7598:7679   */\n    tag_174:\n        /* \"#utility.yul\":7726:7728   */\n      0x20\n        /* \"#utility.yul\":7718:7724   */\n      dup3\n        /* \"#utility.yul\":7715:7729   */\n      lt\n        /* \"#utility.yul\":7695:7713   */\n      dup2\n        /* \"#utility.yul\":7692:7730   */\n      sub\n        /* \"#utility.yul\":7689:7773   */\n      tag_175\n      jumpi\n        /* \"#utility.yul\":7745:7763   */\n      tag_176\n      tag_74\n      jump\t// in\n    tag_176:\n        /* \"#utility.yul\":7689:7773   */\n    tag_175:\n        /* \"#utility.yul\":7510:7779   */\n      pop\n        /* \"#utility.yul\":7459:7779   */\n      swap2\n      swap1\n      pop\n      jump\t// out\n        /* \"#utility.yul\":7785:7926   */\n    tag_75:\n        /* \"#utility.yul\":7834:7838   */\n      0x00\n        /* \"#utility.yul\":7857:7860   */\n      dup2\n        /* \"#utility.yul\":7849:7860   */\n      swap1\n      pop\n        /* \"#utility.yul\":7880:7883   */\n      dup2\n        /* \"#utility.yul\":7877:7878   */\n      0x00\n        /* \"#utility.yul\":7870:7884   */\n      mstore\n        /* \"#utility.yul\":7914:7918   */\n      0x20\n        /* \"#utility.yul\":7911:7912   */\n      0x00\n        /* \"#utility.yul\":7901:7919   */\n      keccak256\n        /* \"#utility.yul\":7893:7919   */\n      swap1\n      pop\n        /* \"#utility.yul\":7785:7926   */\n      swap2\n      swap1\n      pop\n      jump\t// out\n        /* \"#utility.yul\":7932:8025   */\n    tag_76:\n        /* \"#utility.yul\":7969:7975   */\n      0x00\n        /* \"#utility.yul\":8016:8018   */\n      0x20\n        /* \"#utility.yul\":8011:8013   */\n      0x1f\n        /* \"#utility.yul\":8004:8009   */\n      dup4\n        /* \"#utility.yul\":8000:8014   */\n      add\n        /* \"#utility.yul\":7996:8019   */\n      div\n        /* \"#utility.yul\":7986:8019   */\n      swap1\n      pop\n        /* \"#utility.yul\":7932:8025   */\n      swap2\n      swap1\n      pop\n      jump\t// out\n        /* \"#utility.yul\":8031:8138   */\n    tag_77:\n        /* \"#utility.yul\":8075:8083   */\n      0x00\n        /* \"#utility.yul\":8125:8130   */\n      dup3\n        /* \"#utility.yul\":8119:8123   */\n      dup3\n        /* \"#utility.yul\":8115:8131   */\n      shl\n        /* \"#utility.yul\":8094:8131   */\n      swap1\n      pop\n        /* \"#utility.yul\":8031:8138   */\n      swap3\n      swap2\n      pop\n      pop\n      jump\t// out\n        /* \"#utility.yul\":8144:8537   */\n    tag_78:\n        /* \"#utility.yul\":8213:8219   */\n      0x00\n        /* \"#utility.yul\":8263:8264   */\n      0x08\n        /* \"#utility.yul\":8251:8261   */\n      dup4\n        /* \"#utility.yul\":8247:8265   */\n      mul\n        /* \"#utility.yul\":8286:8383   */\n      tag_181\n        /* \"#utility.yul\":8316:8382   */\n      0xffffffffffffffffffffffffffffffffffffffffffffffffffffffffffffffff\n        /* \"#utility.yul\":8305:8314   */\n      dup3\n        /* \"#utility.yul\":8286:8383   */\n      tag_77\n      jump\t// in\n    tag_181:\n        /* \"#utility.yul\":8404:8443   */\n      tag_182\n        /* \"#utility.yul\":8434:8442   */\n      dup7\n        /* \"#utility.yul\":8423:8432   */\n      dup4\n        /* \"#utility.yul\":8404:8443   */\n      tag_77\n      jump\t// in\n    tag_182:\n        /* \"#utility.yul\":8392:8443   */\n      swap6\n      pop\n        /* \"#utility.yul\":8476:8480   */\n      dup1\n        /* \"#utility.yul\":8472:8481   */\n      not\n        /* \"#utility.yul\":8465:8470   */\n      dup5\n        /* \"#utility.yul\":8461:8482   */\n      and\n        /* \"#utility.yul\":8452:8482   */\n      swap4\n      pop\n        /* \"#utility.yul\":8525:8529   */\n      dup1\n        /* \"#utility.yul\":8515:8523   */\n      dup7\n        /* \"#utility.yul\":8511:8530   */\n      and\n        /* \"#utility.yul\":8504:8509   */\n      dup5\n        /* \"#utility.yul\":8501:8531   */\n      or\n        /* \"#utility.yul\":8491:8531   */\n      swap3\n      pop\n        /* \"#utility.yul\":8220:8537   */\n      pop\n      pop\n        /* \"#utility.yul\":8144:8537   */\n      swap4\n      swap3\n      pop\n      pop\n      pop\n      jump\t// out\n        /* \"#utility.yul\":8543:8603   */\n    tag_79:\n        /* \"#utility.yul\":8571:8574   */\n      0x00\n        /* \"#utility.yul\":8592:8597   */\n      dup2\n        /* \"#utility.yul\":8585:8597   */\n      swap1\n      pop\n        /* \"#utility.yul\":8543:8603   */\n      swap2\n      swap1\n      pop\n      jump\t// out\n        /* \"#utility.yul\":8609:8751   */\n    tag_80:\n        /* \"#utility.yul\":8659:8668   */\n      0x00\n        /* \"#utility.yul\":8692:8745   */\n      tag_185\n        /* \"#utility.yul\":8710:8744   */\n      tag_186\n        /* \"#utility.yul\":8719:8743   */\n      tag_187\n        /* \"#utility.yul\":8737:8742   */\n      dup5\n        /* \"#utility.yul\":8719:8743   */\n      tag_55\n      jump\t// in\n    tag_187:\n        /* \"#utility.yul\":8710:8744   */\n      tag_79\n      jump\t// in\n    tag_186:\n        /* \"#utility.yul\":8692:8745   */\n      tag_55\n      jump\t// in\n    tag_185:\n        /* \"#utility.yul\":8679:8745   */\n      swap1\n      pop\n        /* \"#utility.yul\":8609:8751   */\n      swap2\n      swap1\n      pop\n      jump\t// out\n        /* \"#utility.yul\":8757:8832   */\n    tag_81:\n        /* \"#utility.yul\":8800:8803   */\n      0x00\n        /* \"#utility.yul\":8821:8826   */\n      dup2\n        /* \"#utility.yul\":8814:8826   */\n      swap1\n      pop\n        /* \"#utility.yul\":8757:8832   */\n      swap2\n      swap1\n      pop\n      jump\t// out\n        /* \"#utility.yul\":8838:9107   */\n    tag_82:\n        /* \"#utility.yul\":8948:8987   */\n      tag_190\n        /* \"#utility.yul\":8979:8986   */\n      dup4\n        /* \"#utility.yul\":8948:8987   */\n      tag_80\n      jump\t// in\n    tag_190:\n        /* \"#utility.yul\":9009:9100   */\n      tag_191\n        /* \"#utility.yul\":9058:9099   */\n      tag_192\n        /* \"#utility.yul\":9082:9098   */\n      dup3\n        /* \"#utility.yul\":9058:9099   */\n      tag_81\n      jump\t// in\n    tag_192:\n        /* \"#utility.yul\":9050:9056   */\n      dup5\n        /* \"#utility.yul\":9043:9047   */\n      dup5\n        /* \"#utility.yul\":9037:9048   */\n      sload\n        /* \"#utility.yul\":9009:9100   */\n      tag_78\n      jump\t// in\n    tag_191:\n        /* \"#utility.yul\":9003:9007   */\n      dup3\n        /* \"#utility.yul\":8996:9101   */\n      sstore\n        /* \"#utility.yul\":8914:9107   */\n      pop\n        /* \"#utility.yul\":8838:9107   */\n      pop\n      pop\n      pop\n      jump\t// out\n        /* \"#utility.yul\":9113:9186   */\n    tag_83:\n        /* \"#utility.yul\":9158:9161   */\n      0x00\n        /* \"#utility.yul\":9113:9186   */\n      swap1\n      jump\t// out\n        /* \"#utility.yul\":9192:9381   */\n    tag_84:\n        /* \"#utility.yul\":9269:9301   */\n      tag_195\n      tag_83\n      jump\t// in\n    tag_195:\n        /* \"#utility.yul\":9310:9375   */\n      tag_196\n        /* \"#utility.yul\":9368:9374   */\n      dup2\n        /* \"#utility.yul\":9360:9366   */\n      dup5\n        /* \"#utility.yul\":9354:9358   */\n      dup5\n        /* \"#utility.yul\":9310:9375   */\n      tag_82\n      jump\t// in\n    tag_196:\n        /* \"#utility.yul\":9245:9381   */\n      pop\n        /* \"#utility.yul\":9192:9381   */\n      pop\n      pop\n      jump\t// out\n        /* \"#utility.yul\":9387:9573   */\n    tag_85:\n        /* \"#utility.yul\":9447:9567   */\n    tag_198:\n        /* \"#utility.yul\":9464:9467   */\n      dup2\n        /* \"#utility.yul\":9457:9462   */\n      dup2\n        /* \"#utility.yul\":9454:9468   */\n      lt\n        /* \"#utility.yul\":9447:9567   */\n      iszero\n      tag_200\n      jumpi\n        /* \"#utility.yul\":9518:9557   */\n      tag_201\n        /* \"#utility.yul\":9555:9556   */\n      0x00\n        /* \"#utility.yul\":9548:9553   */\n      dup3\n        /* \"#utility.yul\":9518:9557   */\n      tag_84\n      jump\t// in\n    tag_201:\n        /* \"#utility.yul\":9491:9492   */\n      0x01\n        /* \"#utility.yul\":9484:9489   */\n      dup2\n        /* \"#utility.yul\":9480:9493   */\n      add\n        /* \"#utility.yul\":9471:9493   */\n      swap1\n      pop\n        /* \"#utility.yul\":9447:9567   */\n      jump(tag_198)\n    tag_200:\n        /* \"#utility.yul\":9387:9573   */\n      pop\n      pop\n      jump\t// out\n        /* \"#utility.yul\":9579:10122   */\n    tag_86:\n        /* \"#utility.yul\":9680:9682   */\n      0x1f\n        /* \"#utility.yul\":9675:9678   */\n      dup3\n        /* \"#utility.yul\":9672:9683   */\n      gt\n        /* \"#utility.yul\":9669:10115   */\n      iszero\n      tag_203\n      jumpi\n        /* \"#utility.yul\":9714:9752   */\n      tag_204\n        /* \"#utility.yul\":9746:9751   */\n      dup2\n        /* \"#utility.yul\":9714:9752   */\n      tag_75\n      jump\t// in\n    tag_204:\n        /* \"#utility.yul\":9798:9827   */\n      tag_205\n        /* \"#utility.yul\":9816:9826   */\n      dup5\n        /* \"#utility.yul\":9798:9827   */\n      tag_76\n      jump\t// in\n    tag_205:\n        /* \"#utility.yul\":9788:9796   */\n      dup2\n        /* \"#utility.yul\":9784:9828   */\n      add\n        /* \"#utility.yul\":9981:9983   */\n      0x20\n        /* \"#utility.yul\":9969:9979   */\n      dup6\n        /* \"#utility.yul\":9966:9984   */\n      lt\n        /* \"#utility.yul\":9963:10012   */\n      iszero\n      tag_206\n      jumpi\n        /* \"#utility.yul\":10002:10010   */\n      dup2\n        /* \"#utility.yul\":9987:10010   */\n      swap1\n      pop\n        /* \"#utility.yul\":9963:10012   */\n    tag_206:\n        /* \"#utility.yul\":10025:10105   */\n      tag_207\n        /* \"#utility.yul\":10081:10103   */\n      tag_208\n        /* \"#utility.yul\":10099:10102   */\n      dup6\n        /* \"#utility.yul\":10081:10103   */\n      tag_76\n      jump\t// in\n    tag_208:\n        /* \"#utility.yul\":10071:10079   */\n      dup4\n        /* \"#utility.yul\":10067:10104   */\n      add\n        /* \"#utility.yul\":10054:10065   */\n      dup3\n        /* \"#utility.yul\":10025:10105   */\n      tag_85\n      jump\t// in\n    tag_207:\n        /* \"#utility.yul\":9684:10115   */\n      pop\n      pop\n        /* \"#utility.yul\":9669:10115   */\n    tag_203:\n        /* \"#utility.yul\":9579:10122   */\n      pop\n      pop\n      pop\n      jump\t// out\n        /* \"#utility.yul\":10128:10245   */\n    tag_87:\n        /* \"#utility.yul\":10182:10190   */\n      0x00\n        /* \"#utility.yul\":10232:10237   */\n      dup3\n        /* \"#utility.yul\":10226:10230   */\n      dup3\n        /* \"#utility.yul\":10222:10238   */\n      shr\n        /* \"#utility.yul\":10201:10238   */\n      swap1\n      pop\n        /* \"#utility.yul\":10128:10245   */\n      swap3\n      swap2\n      pop\n      pop\n      jump\t// out\n        /* \"#utility.yul\":10251:10420   */\n    tag_88:\n        /* \"#utility.yul\":10295:10301   */\n      0x00\n        /* \"#utility.yul\":10328:10379   */\n      tag_211\n        /* \"#utility.yul\":10376:10377   */\n      0x00\n        /* \"#utility.yul\":10372:10378   */\n      not\n        /* \"#utility.yul\":10364:10369   */\n      dup5\n        /* \"#utility.yul\":10361:10362   */\n      0x08\n        /* \"#utility.yul\":10357:10370   */\n      mul\n        /* \"#utility.yul\":10328:10379   */\n      tag_87\n      jump\t// in\n    tag_211:\n        /* \"#utility.yul\":10324:10380   */\n      not\n        /* \"#utility.yul\":10409:10413   */\n      dup1\n        /* \"#utility.yul\":10403:10407   */\n      dup4\n        /* \"#utility.yul\":10399:10414   */\n      and\n        /* \"#utility.yul\":10389:10414   */\n      swap2\n      pop\n        /* \"#utility.yul\":10302:10420   */\n      pop\n        /* \"#utility.yul\":10251:10420   */\n      swap3\n      swap2\n      pop\n      pop\n      jump\t// out\n        /* \"#utility.yul\":10425:10720   */\n    tag_89:\n        /* \"#utility.yul\":10501:10505   */\n      0x00\n        /* \"#utility.yul\":10647:10676   */\n      tag_213\n        /* \"#utility.yul\":10672:10675   */\n      dup4\n        /* \"#utility.yul\":10666:10670   */\n      dup4\n        /* \"#utility.yul\":10647:10676   */\n      tag_88\n      jump\t// in\n    tag_213:\n        /* \"#utility.yul\":10639:10676   */\n      swap2\n      pop\n        /* \"#utility.yul\":10709:10712   */\n      dup3\n        /* \"#utility.yul\":10706:10707   */\n      0x02\n        /* \"#utility.yul\":10702:10713   */\n      mul\n        /* \"#utility.yul\":10696:10700   */\n      dup3\n        /* \"#utility.yul\":10693:10714   */\n      or\n        /* \"#utility.yul\":10685:10714   */\n      swap1\n      pop\n        /* \"#utility.yul\":10425:10720   */\n      swap3\n      swap2\n      pop\n      pop\n      jump\t// out\n        /* \"#utility.yul\":10725:12120   */\n    tag_48:\n        /* \"#utility.yul\":10842:10879   */\n      tag_215\n        /* \"#utility.yul\":10875:10878   */\n      dup3\n        /* \"#utility.yul\":10842:10879   */\n      tag_50\n      jump\t// in\n    tag_215:\n        /* \"#utility.yul\":10944:10962   */\n      0xffffffffffffffff\n        /* \"#utility.yul\":10936:10942   */\n      dup2\n        /* \"#utility.yul\":10933:10963   */\n      gt\n        /* \"#utility.yul\":10930:10986   */\n      iszero\n      tag_216\n      jumpi\n        /* \"#utility.yul\":10966:10984   */\n      tag_217\n      tag_67\n      jump\t// in\n    tag_217:\n        /* \"#utility.yul\":10930:10986   */\n    tag_216:\n        /* \"#utility.yul\":11010:11048   */\n      tag_218\n        /* \"#utility.yul\":11042:11046   */\n      dup3\n        /* \"#utility.yul\":11036:11047   */\n      sload\n        /* \"#utility.yul\":11010:11048   */\n      tag_33\n      jump\t// in\n    tag_218:\n        /* \"#utility.yul\":11095:11162   */\n      tag_219\n        /* \"#utility.yul\":11155:11161   */\n      dup3\n        /* \"#utility.yul\":11147:11153   */\n      dup3\n        /* \"#utility.yul\":11141:11145   */\n      dup6\n        /* \"#utility.yul\":11095:11162   */\n      tag_86\n      jump\t// in\n    tag_219:\n        /* \"#utility.yul\":11189:11190   */\n      0x00\n        /* \"#utility.yul\":11213:11217   */\n      0x20\n        /* \"#utility.yul\":11200:11217   */\n      swap1\n      pop\n        /* \"#utility.yul\":11245:11247   */\n      0x1f\n        /* \"#utility.yul\":11237:11243   */\n      dup4\n        /* \"#utility.yul\":11234:11248   */\n      gt\n        /* \"#utility.yul\":11262:11263   */\n      0x01\n        /* \"#utility.yul\":11257:11875   */\n      dup2\n      eq\n      tag_221\n      jumpi\n        /* \"#utility.yul\":11919:11920   */\n      0x00\n        /* \"#utility.yul\":11936:11942   */\n      dup5\n        /* \"#utility.yul\":11933:12010   */\n      iszero\n      tag_222\n      jumpi\n        /* \"#utility.yul\":11985:11994   */\n      dup3\n        /* \"#utility.yul\":11980:11983   */\n      dup8\n        /* \"#utility.yul\":11976:11995   */\n      add\n        /* \"#utility.yul\":11970:11996   */\n      mload\n        /* \"#utility.yul\":11961:11996   */\n      swap1\n      pop\n        /* \"#utility.yul\":11933:12010   */\n    tag_222:\n        /* \"#utility.yul\":12036:12103   */\n      tag_223\n        /* \"#utility.yul\":12096:12102   */\n      dup6\n        /* \"#utility.yul\":12089:12094   */\n      dup3\n        /* \"#utility.yul\":12036:12103   */\n      tag_89\n      jump\t// in\n    tag_223:\n        /* \"#utility.yul\":12030:12034   */\n      dup7\n        /* \"#utility.yul\":12023:12104   */\n      sstore\n        /* \"#utility.yul\":11892:12114   */\n      pop\n        /* \"#utility.yul\":11227:12114   */\n      jump(tag_220)\n        /* \"#utility.yul\":11257:11875   */\n    tag_221:\n        /* \"#utility.yul\":11309:11313   */\n      0x1f\n        /* \"#utility.yul\":11305:11314   */\n      not\n        /* \"#utility.yul\":11297:11303   */\n      dup5\n        /* \"#utility.yul\":11293:11315   */\n      and\n        /* \"#utility.yul\":11343:11380   */\n      tag_224\n        /* \"#utility.yul\":11375:11379   */\n      dup7\n        /* \"#utility.yul\":11343:11380   */\n      tag_75\n      jump\t// in\n    tag_224:\n        /* \"#utility.yul\":11402:11403   */\n      0x00\n        /* \"#utility.yul\":11416:11624   */\n    tag_225:\n        /* \"#utility.yul\":11430:11437   */\n      dup3\n        /* \"#utility.yul\":11427:11428   */\n      dup2\n        /* \"#utility.yul\":11424:11438   */\n      lt\n        /* \"#utility.yul\":11416:11624   */\n      iszero\n      tag_227\n      jumpi\n        /* \"#utility.yul\":11509:11518   */\n      dup5\n        /* \"#utility.yul\":11504:11507   */\n      dup10\n        /* \"#utility.yul\":11500:11519   */\n      add\n        /* \"#utility.yul\":11494:11520   */\n      mload\n        /* \"#utility.yul\":11486:11492   */\n      dup3\n        /* \"#utility.yul\":11479:11521   */\n      sstore\n        /* \"#utility.yul\":11560:11561   */\n      0x01\n        /* \"#utility.yul\":11552:11558   */\n      dup3\n        /* \"#utility.yul\":11548:11562   */\n      add\n        /* \"#utility.yul\":11538:11562   */\n      swap2\n      pop\n        /* \"#utility.yul\":11607:11609   */\n      0x20\n        /* \"#utility.yul\":11596:11605   */\n      dup6\n        /* \"#utility.yul\":11592:11610   */\n      add\n        /* \"#utility.yul\":11579:11610   */\n      swap5\n      pop\n        /* \"#utility.yul\":11453:11457   */\n      0x20\n        /* \"#utility.yul\":11450:11451   */\n      dup2\n        /* \"#utility.yul\":11446:11458   */\n      add\n        /* \"#utility.yul\":11441:11458   */\n      swap1\n      pop\n        /* \"#utility.yul\":11416:11624   */\n      jump(tag_225)\n    tag_227:\n        /* \"#utility.yul\":11652:11658   */\n      dup7\n        /* \"#utility.yul\":11643:11650   */\n      dup4\n        /* \"#utility.yul\":11640:11659   */\n      lt\n        /* \"#utility.yul\":11637:11816   */\n      iszero\n      tag_228\n      jumpi\n        /* \"#utility.yul\":11710:11719   */\n      dup5\n        /* \"#utility.yul\":11705:11708   */\n      dup10\n        /* \"#utility.yul\":11701:11720   */\n      add\n        /* \"#utility.yul\":11695:11721   */\n      mload\n        /* \"#utility.yul\":11753:11801   */\n      tag_229\n        /* \"#utility.yul\":11795:11799   */\n      0x1f\n        /* \"#utility.yul\":11787:11793   */\n      dup10\n        /* \"#utility.yul\":11783:11800   */\n      and\n        /* \"#utility.yul\":11772:11781   */\n      dup3\n        /* \"#utility.yul\":11753:11801   */\n      tag_88\n      jump\t// in\n    tag_229:\n        /* \"#utility.yul\":11745:11751   */\n      dup4\n        /* \"#utility.yul\":11738:11802   */\n      sstore\n        /* \"#utility.yul\":11660:11816   */\n      pop\n        /* \"#utility.yul\":11637:11816   */\n    tag_228:\n        /* \"#utility.yul\":11862:11863   */\n      0x01\n        /* \"#utility.yul\":11858:11859   */\n      0x02\n        /* \"#utility.yul\":11850:11856   */\n      dup9\n        /* \"#utility.yul\":11846:11860   */\n      mul\n        /* \"#utility.yul\":11842:11864   */\n      add\n        /* \"#utility.yul\":11836:11840   */\n      dup9\n        /* \"#utility.yul\":11829:11865   */\n      sstore\n        /* \"#utility.yul\":11264:11875   */\n      pop\n      pop\n      pop\n        /* \"#utility.yul\":11227:12114   */\n    tag_220:\n      pop\n        /* \"#utility.yul\":10817:12120   */\n      pop\n      pop\n      pop\n        /* \"#utility.yul\":10725:12120   */\n      pop\n      pop\n      jump\t// out\n\n    auxdata: 0xa264697066735822122073dda535fdaf52be83348e080dfefceb5440d969d861a0fa419bc9ee949dfa1664736f6c63430008130033\n}\n",
				"bytecode": {
					"linkReferences": {},
					"object": "608060405234801561001057600080fd5b5061097b806100206000396000f3fe608060405234801561001057600080fd5b50600436106100625760003560e01c8063056da0481461006757806323fd0e40146100865780633fb5c1cb146100a45780638ed80c66146100c0578063f2c9ecd8146100dc578063fcb1c2a2146100fa575b600080fd5b61006f610116565b60405161007d929190610335565b60405180910390f35b61008e610238565b60405161009b9190610385565b60405180910390f35b6100be60048036038101906100b991906103e0565b61023e565b005b6100da60048036038101906100d59190610472565b610248565b005b6100e461024c565b6040516100f19190610385565b60405180910390f35b610114600480360381019061010f91906105ef565b610256565b005b600080600001805461012790610696565b80601f016020809104026020016040519081016040528092919081815260200182805461015390610696565b80156101a05780601f10610175576101008083540402835291602001916101a0565b820191906000526020600020905b81548152906001019060200180831161018357829003601f168201915b5050505050908060010180546101b590610696565b80601f01602080910402602001604051908101604052809291908181526020018280546101e190610696565b801561022e5780601f106102035761010080835404028352916020019161022e565b820191906000526020600020905b81548152906001019060200180831161021157829003601f168201915b5050505050905082565b60025481565b8060028190555050565b5050565b6000600254905090565b60006040518060400160405280848152602001838152509050806000808201518160000190816102869190610873565b50602082015181600101908161029c9190610873565b50905050505050565b600081519050919050565b600082825260208201905092915050565b60005b838110156102df5780820151818401526020810190506102c4565b60008484015250505050565b6000601f19601f8301169050919050565b6000610307826102a5565b61031181856102b0565b93506103218185602086016102c1565b61032a816102eb565b840191505092915050565b6000604082019050818103600083015261034f81856102fc565b9050818103602083015261036381846102fc565b90509392505050565b6000819050919050565b61037f8161036c565b82525050565b600060208201905061039a6000830184610376565b92915050565b6000604051905090565b600080fd5b600080fd5b6103bd8161036c565b81146103c857600080fd5b50565b6000813590506103da816103b4565b92915050565b6000602082840312156103f6576103f56103aa565b5b6000610404848285016103cb565b91505092915050565b600080fd5b600080fd5b600080fd5b60008083601f8401126104325761043161040d565b5b8235905067ffffffffffffffff81111561044f5761044e610412565b5b60208301915083602082028301111561046b5761046a610417565b5b9250929050565b60008060208385031215610489576104886103aa565b5b600083013567ffffffffffffffff8111156104a7576104a66103af565b5b6104b38582860161041c565b92509250509250929050565b600080fd5b7f4e487b7100000000000000000000000000000000000000000000000000000000600052604160045260246000fd5b6104fc826102eb565b810181811067ffffffffffffffff8211171561051b5761051a6104c4565b5b80604052505050565b600061052e6103a0565b905061053a82826104f3565b919050565b600067ffffffffffffffff82111561055a576105596104c4565b5b610563826102eb565b9050602081019050919050565b82818337600083830152505050565b600061059261058d8461053f565b610524565b9050828152602081018484840111156105ae576105ad6104bf565b5b6105b9848285610570565b509392505050565b600082601f8301126105d6576105d561040d565b5b81356105e684826020860161057f565b91505092915050565b60008060408385031215610606576106056103aa565b5b600083013567ffffffffffffffff811115610624576106236103af565b5b610630858286016105c1565b925050602083013567ffffffffffffffff811115610651576106506103af565b5b61065d858286016105c1565b9150509250929050565b7f4e487b7100000000000000000000000000000000000000000000000000000000600052602260045260246000fd5b600060028204905060018216806106ae57607f821691505b6020821081036106c1576106c0610667565b5b50919050565b60008190508160005260206000209050919050565b60006020601f8301049050919050565b600082821b905092915050565b6000600883026107297fffffffffffffffffffffffffffffffffffffffffffffffffffffffffffffffff826106ec565b61073386836106ec565b95508019841693508086168417925050509392505050565b6000819050919050565b600061077061076b6107668461036c565b61074b565b61036c565b9050919050565b6000819050919050565b61078a83610755565b61079e61079682610777565b8484546106f9565b825550505050565b600090565b6107b36107a6565b6107be818484610781565b505050565b5b818110156107e2576107d76000826107ab565b6001810190506107c4565b5050565b601f821115610827576107f8816106c7565b610801846106dc565b81016020851015610810578190505b61082461081c856106dc565b8301826107c3565b50505b505050565b600082821c905092915050565b600061084a6000198460080261082c565b1980831691505092915050565b60006108638383610839565b9150826002028217905092915050565b61087c826102a5565b67ffffffffffffffff811115610895576108946104c4565b5b61089f8254610696565b6108aa8282856107e6565b600060209050601f8311600181146108dd57600084156108cb578287015190505b6108d58582610857565b86555061093d565b601f1984166108eb866106c7565b60005b82811015610913578489015182556001820191506020850194506020810190506108ee565b86831015610930578489015161092c601f891682610839565b8355505b6001600288020188555050505b50505050505056fea264697066735822122073dda535fdaf52be83348e080dfefceb5440d969d861a0fa419bc9ee949dfa1664736f6c63430008130033",
					"opcodes": "PUSH1 0x80 PUSH1 0x40 MSTORE CALLVALUE DUP1 ISZERO PUSH2 0x10 JUMPI PUSH1 0x0 DUP1 REVERT JUMPDEST POP PUSH2 0x97B DUP1 PUSH2 0x20 PUSH1 0x0 CODECOPY PUSH1 0x0 RETURN INVALID PUSH1 0x80 PUSH1 0x40 MSTORE CALLVALUE DUP1 ISZERO PUSH2 0x10 JUMPI PUSH1 0x0 DUP1 REVERT JUMPDEST POP PUSH1 0x4 CALLDATASIZE LT PUSH2 0x62 JUMPI PUSH1 0x0 CALLDATALOAD PUSH1 0xE0 SHR DUP1 PUSH4 0x56DA048 EQ PUSH2 0x67 JUMPI DUP1 PUSH4 0x23FD0E40 EQ PUSH2 0x86 JUMPI DUP1 PUSH4 0x3FB5C1CB EQ PUSH2 0xA4 JUMPI DUP1 PUSH4 0x8ED80C66 EQ PUSH2 0xC0 JUMPI DUP1 PUSH4 0xF2C9ECD8 EQ PUSH2 0xDC JUMPI DUP1 PUSH4 0xFCB1C2A2 EQ PUSH2 0xFA JUMPI JUMPDEST PUSH1 0x0 DUP1 REVERT JUMPDEST PUSH2 0x6F PUSH2 0x116 JUMP JUMPDEST PUSH1 0x40 MLOAD PUSH2 0x7D SWAP3 SWAP2 SWAP1 PUSH2 0x335 JUMP JUMPDEST PUSH1 0x40 MLOAD DUP1 SWAP2 SUB SWAP1 RETURN JUMPDEST PUSH2 0x8E PUSH2 0x238 JUMP JUMPDEST PUSH1 0x40 MLOAD PUSH2 0x9B SWAP2 SWAP1 PUSH2 0x385 JUMP JUMPDEST PUSH1 0x40 MLOAD DUP1 SWAP2 SUB SWAP1 RETURN JUMPDEST PUSH2 0xBE PUSH1 0x4 DUP1 CALLDATASIZE SUB DUP2 ADD SWAP1 PUSH2 0xB9 SWAP2 SWAP1 PUSH2 0x3E0 JUMP JUMPDEST PUSH2 0x23E JUMP JUMPDEST STOP JUMPDEST PUSH2 0xDA PUSH1 0x4 DUP1 CALLDATASIZE SUB DUP2 ADD SWAP1 PUSH2 0xD5 SWAP2 SWAP1 PUSH2 0x472 JUMP JUMPDEST PUSH2 0x248 JUMP JUMPDEST STOP JUMPDEST PUSH2 0xE4 PUSH2 0x24C JUMP JUMPDEST PUSH1 0x40 MLOAD PUSH2 0xF1 SWAP2 SWAP1 PUSH2 0x385 JUMP JUMPDEST PUSH1 0x40 MLOAD DUP1 SWAP2 SUB SWAP1 RETURN JUMPDEST PUSH2 0x114 PUSH1 0x4 DUP1 CALLDATASIZE SUB DUP2 ADD SWAP1 PUSH2 0x10F SWAP2 SWAP1 PUSH2 0x5EF JUMP JUMPDEST PUSH2 0x256 JUMP JUMPDEST STOP JUMPDEST PUSH1 0x0 DUP1 PUSH1 0x0 ADD DUP1 SLOAD PUSH2 0x127 SWAP1 PUSH2 0x696 JUMP JUMPDEST DUP1 PUSH1 0x1F ADD PUSH1 0x20 DUP1 SWAP2 DIV MUL PUSH1 0x20 ADD PUSH1 0x40 MLOAD SWAP1 DUP2 ADD PUSH1 0x40 MSTORE DUP1 SWAP3 SWAP2 SWAP1 DUP2 DUP2 MSTORE PUSH1 0x20 ADD DUP3 DUP1 SLOAD PUSH2 0x153 SWAP1 PUSH2 0x696 JUMP JUMPDEST DUP1 ISZERO PUSH2 0x1A0 JUMPI DUP1 PUSH1 0x1F LT PUSH2 0x175 JUMPI PUSH2 0x100 DUP1 DUP4 SLOAD DIV MUL DUP4 MSTORE SWAP2 PUSH1 0x20 ADD SWAP2 PUSH2 0x1A0 JUMP JUMPDEST DUP3 ADD SWAP2 SWAP1 PUSH1 0x0 MSTORE PUSH1 0x20 PUSH1 0x0 KECCAK256 SWAP1 JUMPDEST DUP2 SLOAD DUP2 MSTORE SWAP1 PUSH1 0x1 ADD SWAP1 PUSH1 0x20 ADD DUP1 DUP4 GT PUSH2 0x183 JUMPI DUP3 SWAP1 SUB PUSH1 0x1F AND DUP3 ADD SWAP2 JUMPDEST POP POP POP POP POP SWAP1 DUP1 PUSH1 0x1 ADD DUP1 SLOAD PUSH2 0x1B5 SWAP1 PUSH2 0x696 JUMP JUMPDEST DUP1 PUSH1 0x1F ADD PUSH1 0x20 DUP1 SWAP2 DIV MUL PUSH1 0x20 ADD PUSH1 0x40 MLOAD SWAP1 DUP2 ADD PUSH1 0x40 MSTORE DUP1 SWAP3 SWAP2 SWAP1 DUP2 DUP2 MSTORE PUSH1 0x20 ADD DUP3 DUP1 SLOAD PUSH2 0x1E1 SWAP1 PUSH2 0x696 JUMP JUMPDEST DUP1 ISZERO PUSH2 0x22E JUMPI DUP1 PUSH1 0x1F LT PUSH2 0x203 JUMPI PUSH2 0x100 DUP1 DUP4 SLOAD DIV MUL DUP4 MSTORE SWAP2 PUSH1 0x20 ADD SWAP2 PUSH2 0x22E JUMP JUMPDEST DUP3 ADD SWAP2 SWAP1 PUSH1 0x0 MSTORE PUSH1 0x20 PUSH1 0x0 KECCAK256 SWAP1 JUMPDEST DUP2 SLOAD DUP2 MSTORE SWAP1 PUSH1 0x1 ADD SWAP1 PUSH1 0x20 ADD DUP1 DUP4 GT PUSH2 0x211 JUMPI DUP3 SWAP1 SUB PUSH1 0x1F AND DUP3 ADD SWAP2 JUMPDEST POP POP POP POP POP SWAP1 POP DUP3 JUMP JUMPDEST PUSH1 0x2 SLOAD DUP2 JUMP JUMPDEST DUP1 PUSH1 0x2 DUP2 SWAP1 SSTORE POP POP JUMP JUMPDEST POP POP JUMP JUMPDEST PUSH1 0x0 PUSH1 0x2 SLOAD SWAP1 POP SWAP1 JUMP JUMPDEST PUSH1 0x0 PUSH1 0x40 MLOAD DUP1 PUSH1 0x40 ADD PUSH1 0x40 MSTORE DUP1 DUP5 DUP2 MSTORE PUSH1 0x20 ADD DUP4 DUP2 MSTORE POP SWAP1 POP DUP1 PUSH1 0x0 DUP1 DUP3 ADD MLOAD DUP2 PUSH1 0x0 ADD SWAP1 DUP2 PUSH2 0x286 SWAP2 SWAP1 PUSH2 0x873 JUMP JUMPDEST POP PUSH1 0x20 DUP3 ADD MLOAD DUP2 PUSH1 0x1 ADD SWAP1 DUP2 PUSH2 0x29C SWAP2 SWAP1 PUSH2 0x873 JUMP JUMPDEST POP SWAP1 POP POP POP POP POP JUMP JUMPDEST PUSH1 0x0 DUP2 MLOAD SWAP1 POP SWAP2 SWAP1 POP JUMP JUMPDEST PUSH1 0x0 DUP3 DUP3 MSTORE PUSH1 0x20 DUP3 ADD SWAP1 POP SWAP3 SWAP2 POP POP JUMP JUMPDEST PUSH1 0x0 JUMPDEST DUP4 DUP2 LT ISZERO PUSH2 0x2DF JUMPI DUP1 DUP3 ADD MLOAD DUP2 DUP5 ADD MSTORE PUSH1 0x20 DUP2 ADD SWAP1 POP PUSH2 0x2C4 JUMP JUMPDEST PUSH1 0x0 DUP5 DUP5 ADD MSTORE POP POP POP POP JUMP JUMPDEST PUSH1 0x0 PUSH1 0x1F NOT PUSH1 0x1F DUP4 ADD AND SWAP1 POP SWAP2 SWAP1 POP JUMP JUMPDEST PUSH1 0x0 PUSH2 0x307 DUP3 PUSH2 0x2A5 JUMP JUMPDEST PUSH2 0x311 DUP2 DUP6 PUSH2 0x2B0 JUMP JUMPDEST SWAP4 POP PUSH2 0x321 DUP2 DUP6 PUSH1 0x20 DUP7 ADD PUSH2 0x2C1 JUMP JUMPDEST PUSH2 0x32A DUP2 PUSH2 0x2EB JUMP JUMPDEST DUP5 ADD SWAP2 POP POP SWAP3 SWAP2 POP POP JUMP JUMPDEST PUSH1 0x0 PUSH1 0x40 DUP3 ADD SWAP1 POP DUP2 DUP2 SUB PUSH1 0x0 DUP4 ADD MSTORE PUSH2 0x34F DUP2 DUP6 PUSH2 0x2FC JUMP JUMPDEST SWAP1 POP DUP2 DUP2 SUB PUSH1 0x20 DUP4 ADD MSTORE PUSH2 0x363 DUP2 DUP5 PUSH2 0x2FC JUMP JUMPDEST SWAP1 POP SWAP4 SWAP3 POP POP POP JUMP JUMPDEST PUSH1 0x0 DUP2 SWAP1 POP SWAP2 SWAP1 POP JUMP JUMPDEST PUSH2 0x37F DUP2 PUSH2 0x36C JUMP JUMPDEST DUP3 MSTORE POP POP JUMP JUMPDEST PUSH1 0x0 PUSH1 0x20 DUP3 ADD SWAP1 POP PUSH2 0x39A PUSH1 0x0 DUP4 ADD DUP5 PUSH2 0x376 JUMP JUMPDEST SWAP3 SWAP2 POP POP JUMP JUMPDEST PUSH1 0x0 PUSH1 0x40 MLOAD SWAP1 POP SWAP1 JUMP JUMPDEST PUSH1 0x0 DUP1 REVERT JUMPDEST PUSH1 0x0 DUP1 REVERT JUMPDEST PUSH2 0x3BD DUP2 PUSH2 0x36C JUMP JUMPDEST DUP2 EQ PUSH2 0x3C8 JUMPI PUSH1 0x0 DUP1 REVERT JUMPDEST POP JUMP JUMPDEST PUSH1 0x0 DUP2 CALLDATALOAD SWAP1 POP PUSH2 0x3DA DUP2 PUSH2 0x3B4 JUMP JUMPDEST SWAP3 SWAP2 POP POP JUMP JUMPDEST PUSH1 0x0 PUSH1 0x20 DUP3 DUP5 SUB SLT ISZERO PUSH2 0x3F6 JUMPI PUSH2 0x3F5 PUSH2 0x3AA JUMP JUMPDEST JUMPDEST PUSH1 0x0 PUSH2 0x404 DUP5 DUP3 DUP6 ADD PUSH2 0x3CB JUMP JUMPDEST SWAP2 POP POP SWAP3 SWAP2 POP POP JUMP JUMPDEST PUSH1 0x0 DUP1 REVERT JUMPDEST PUSH1 0x0 DUP1 REVERT JUMPDEST PUSH1 0x0 DUP1 REVERT JUMPDEST PUSH1 0x0 DUP1 DUP4 PUSH1 0x1F DUP5 ADD SLT PUSH2 0x432 JUMPI PUSH2 0x431 PUSH2 0x40D JUMP JUMPDEST JUMPDEST DUP3 CALLDATALOAD SWAP1 POP PUSH8 0xFFFFFFFFFFFFFFFF DUP2 GT ISZERO PUSH2 0x44F JUMPI PUSH2 0x44E PUSH2 0x412 JUMP JUMPDEST JUMPDEST PUSH1 0x20 DUP4 ADD SWAP2 POP DUP4 PUSH1 0x20 DUP3 MUL DUP4 ADD GT ISZERO PUSH2 0x46B JUMPI PUSH2 0x46A PUSH2 0x417 JUMP JUMPDEST JUMPDEST SWAP3 POP SWAP3 SWAP1 POP JUMP JUMPDEST PUSH1 0x0 DUP1 PUSH1 0x20 DUP4 DUP6 SUB SLT ISZERO PUSH2 0x489 JUMPI PUSH2 0x488 PUSH2 0x3AA JUMP JUMPDEST JUMPDEST PUSH1 0x0 DUP4 ADD CALLDATALOAD PUSH8 0xFFFFFFFFFFFFFFFF DUP2 GT ISZERO PUSH2 0x4A7 JUMPI PUSH2 0x4A6 PUSH2 0x3AF JUMP JUMPDEST JUMPDEST PUSH2 0x4B3 DUP6 DUP3 DUP7 ADD PUSH2 0x41C JUMP JUMPDEST SWAP3 POP SWAP3 POP POP SWAP3 POP SWAP3 SWAP1 POP JUMP JUMPDEST PUSH1 0x0 DUP1 REVERT JUMPDEST PUSH32 0x4E487B7100000000000000000000000000000000000000000000000000000000 PUSH1 0x0 MSTORE PUSH1 0x41 PUSH1 0x4 MSTORE PUSH1 0x24 PUSH1 0x0 REVERT JUMPDEST PUSH2 0x4FC DUP3 PUSH2 0x2EB JUMP JUMPDEST DUP2 ADD DUP2 DUP2 LT PUSH8 0xFFFFFFFFFFFFFFFF DUP3 GT OR ISZERO PUSH2 0x51B JUMPI PUSH2 0x51A PUSH2 0x4C4 JUMP JUMPDEST JUMPDEST DUP1 PUSH1 0x40 MSTORE POP POP POP JUMP JUMPDEST PUSH1 0x0 PUSH2 0x52E PUSH2 0x3A0 JUMP JUMPDEST SWAP1 POP PUSH2 0x53A DUP3 DUP3 PUSH2 0x4F3 JUMP JUMPDEST SWAP2 SWAP1 POP JUMP JUMPDEST PUSH1 0x0 PUSH8 0xFFFFFFFFFFFFFFFF DUP3 GT ISZERO PUSH2 0x55A JUMPI PUSH2 0x559 PUSH2 0x4C4 JUMP JUMPDEST JUMPDEST PUSH2 0x563 DUP3 PUSH2 0x2EB JUMP JUMPDEST SWAP1 POP PUSH1 0x20 DUP2 ADD SWAP1 POP SWAP2 SWAP1 POP JUMP JUMPDEST DUP3 DUP2 DUP4 CALLDATACOPY PUSH1 0x0 DUP4 DUP4 ADD MSTORE POP POP POP JUMP JUMPDEST PUSH1 0x0 PUSH2 0x592 PUSH2 0x58D DUP5 PUSH2 0x53F JUMP JUMPDEST PUSH2 0x524 JUMP JUMPDEST SWAP1 POP DUP3 DUP2 MSTORE PUSH1 0x20 DUP2 ADD DUP5 DUP5 DUP5 ADD GT ISZERO PUSH2 0x5AE JUMPI PUSH2 0x5AD PUSH2 0x4BF JUMP JUMPDEST JUMPDEST PUSH2 0x5B9 DUP5 DUP3 DUP6 PUSH2 0x570 JUMP JUMPDEST POP SWAP4 SWAP3 POP POP POP JUMP JUMPDEST PUSH1 0x0 DUP3 PUSH1 0x1F DUP4 ADD SLT PUSH2 0x5D6 JUMPI PUSH2 0x5D5 PUSH2 0x40D JUMP JUMPDEST JUMPDEST DUP2 CALLDATALOAD PUSH2 0x5E6 DUP5 DUP3 PUSH1 0x20 DUP7 ADD PUSH2 0x57F JUMP JUMPDEST SWAP2 POP POP SWAP3 SWAP2 POP POP JUMP JUMPDEST PUSH1 0x0 DUP1 PUSH1 0x40 DUP4 DUP6 SUB SLT ISZERO PUSH2 0x606 JUMPI PUSH2 0x605 PUSH2 0x3AA JUMP JUMPDEST JUMPDEST PUSH1 0x0 DUP4 ADD CALLDATALOAD PUSH8 0xFFFFFFFFFFFFFFFF DUP2 GT ISZERO PUSH2 0x624 JUMPI PUSH2 0x623 PUSH2 0x3AF JUMP JUMPDEST JUMPDEST PUSH2 0x630 DUP6 DUP3 DUP7 ADD PUSH2 0x5C1 JUMP JUMPDEST SWAP3 POP POP PUSH1 0x20 DUP4 ADD CALLDATALOAD PUSH8 0xFFFFFFFFFFFFFFFF DUP2 GT ISZERO PUSH2 0x651 JUMPI PUSH2 0x650 PUSH2 0x3AF JUMP JUMPDEST JUMPDEST PUSH2 0x65D DUP6 DUP3 DUP7 ADD PUSH2 0x5C1 JUMP JUMPDEST SWAP2 POP POP SWAP3 POP SWAP3 SWAP1 POP JUMP JUMPDEST PUSH32 0x4E487B7100000000000000000000000000000000000000000000000000000000 PUSH1 0x0 MSTORE PUSH1 0x22 PUSH1 0x4 MSTORE PUSH1 0x24 PUSH1 0x0 REVERT JUMPDEST PUSH1 0x0 PUSH1 0x2 DUP3 DIV SWAP1 POP PUSH1 0x1 DUP3 AND DUP1 PUSH2 0x6AE JUMPI PUSH1 0x7F DUP3 AND SWAP2 POP JUMPDEST PUSH1 0x20 DUP3 LT DUP2 SUB PUSH2 0x6C1 JUMPI PUSH2 0x6C0 PUSH2 0x667 JUMP JUMPDEST JUMPDEST POP SWAP2 SWAP1 POP JUMP JUMPDEST PUSH1 0x0 DUP2 SWAP1 POP DUP2 PUSH1 0x0 MSTORE PUSH1 0x20 PUSH1 0x0 KECCAK256 SWAP1 POP SWAP2 SWAP1 POP JUMP JUMPDEST PUSH1 0x0 PUSH1 0x20 PUSH1 0x1F DUP4 ADD DIV SWAP1 POP SWAP2 SWAP1 POP JUMP JUMPDEST PUSH1 0x0 DUP3 DUP3 SHL SWAP1 POP SWAP3 SWAP2 POP POP JUMP JUMPDEST PUSH1 0x0 PUSH1 0x8 DUP4 MUL PUSH2 0x729 PUSH32 0xFFFFFFFFFFFFFFFFFFFFFFFFFFFFFFFFFFFFFFFFFFFFFFFFFFFFFFFFFFFFFFFF DUP3 PUSH2 0x6EC JUMP JUMPDEST PUSH2 0x733 DUP7 DUP4 PUSH2 0x6EC JUMP JUMPDEST SWAP6 POP DUP1 NOT DUP5 AND SWAP4 POP DUP1 DUP7 AND DUP5 OR SWAP3 POP POP POP SWAP4 SWAP3 POP POP POP JUMP JUMPDEST PUSH1 0x0 DUP2 SWAP1 POP SWAP2 SWAP1 POP JUMP JUMPDEST PUSH1 0x0 PUSH2 0x770 PUSH2 0x76B PUSH2 0x766 DUP5 PUSH2 0x36C JUMP JUMPDEST PUSH2 0x74B JUMP JUMPDEST PUSH2 0x36C JUMP JUMPDEST SWAP1 POP SWAP2 SWAP1 POP JUMP JUMPDEST PUSH1 0x0 DUP2 SWAP1 POP SWAP2 SWAP1 POP JUMP JUMPDEST PUSH2 0x78A DUP4 PUSH2 0x755 JUMP JUMPDEST PUSH2 0x79E PUSH2 0x796 DUP3 PUSH2 0x777 JUMP JUMPDEST DUP5 DUP5 SLOAD PUSH2 0x6F9 JUMP JUMPDEST DUP3 SSTORE POP POP POP POP JUMP JUMPDEST PUSH1 0x0 SWAP1 JUMP JUMPDEST PUSH2 0x7B3 PUSH2 0x7A6 JUMP JUMPDEST PUSH2 0x7BE DUP2 DUP5 DUP5 PUSH2 0x781 JUMP JUMPDEST POP POP POP JUMP JUMPDEST JUMPDEST DUP2 DUP2 LT ISZERO PUSH2 0x7E2 JUMPI PUSH2 0x7D7 PUSH1 0x0 DUP3 PUSH2 0x7AB JUMP JUMPDEST PUSH1 0x1 DUP2 ADD SWAP1 POP PUSH2 0x7C4 JUMP JUMPDEST POP POP JUMP JUMPDEST PUSH1 0x1F DUP3 GT ISZERO PUSH2 0x827 JUMPI PUSH2 0x7F8 DUP2 PUSH2 0x6C7 JUMP JUMPDEST PUSH2 0x801 DUP5 PUSH2 0x6DC JUMP JUMPDEST DUP2 ADD PUSH1 0x20 DUP6 LT ISZERO PUSH2 0x810 JUMPI DUP2 SWAP1 POP JUMPDEST PUSH2 0x824 PUSH2 0x81C DUP6 PUSH2 0x6DC JUMP JUMPDEST DUP4 ADD DUP3 PUSH2 0x7C3 JUMP JUMPDEST POP POP JUMPDEST POP POP POP JUMP JUMPDEST PUSH1 0x0 DUP3 DUP3 SHR SWAP1 POP SWAP3 SWAP2 POP POP JUMP JUMPDEST PUSH1 0x0 PUSH2 0x84A PUSH1 0x0 NOT DUP5 PUSH1 0x8 MUL PUSH2 0x82C JUMP JUMPDEST NOT DUP1 DUP4 AND SWAP2 POP POP SWAP3 SWAP2 POP POP JUMP JUMPDEST PUSH1 0x0 PUSH2 0x863 DUP4 DUP4 PUSH2 0x839 JUMP JUMPDEST SWAP2 POP DUP3 PUSH1 0x2 MUL DUP3 OR SWAP1 POP SWAP3 SWAP2 POP POP JUMP JUMPDEST PUSH2 0x87C DUP3 PUSH2 0x2A5 JUMP JUMPDEST PUSH8 0xFFFFFFFFFFFFFFFF DUP2 GT ISZERO PUSH2 0x895 JUMPI PUSH2 0x894 PUSH2 0x4C4 JUMP JUMPDEST JUMPDEST PUSH2 0x89F DUP3 SLOAD PUSH2 0x696 JUMP JUMPDEST PUSH2 0x8AA DUP3 DUP3 DUP6 PUSH2 0x7E6 JUMP JUMPDEST PUSH1 0x0 PUSH1 0x20 SWAP1 POP PUSH1 0x1F DUP4 GT PUSH1 0x1 DUP2 EQ PUSH2 0x8DD JUMPI PUSH1 0x0 DUP5 ISZERO PUSH2 0x8CB JUMPI DUP3 DUP8 ADD MLOAD SWAP1 POP JUMPDEST PUSH2 0x8D5 DUP6 DUP3 PUSH2 0x857 JUMP JUMPDEST DUP7 SSTORE POP PUSH2 0x93D JUMP JUMPDEST PUSH1 0x1F NOT DUP5 AND PUSH2 0x8EB DUP7 PUSH2 0x6C7 JUMP JUMPDEST PUSH1 0x0 JUMPDEST DUP3 DUP2 LT ISZERO PUSH2 0x913 JUMPI DUP5 DUP10 ADD MLOAD DUP3 SSTORE PUSH1 0x1 DUP3 ADD SWAP2 POP PUSH1 0x20 DUP6 ADD SWAP5 POP PUSH1 0x20 DUP2 ADD SWAP1 POP PUSH2 0x8EE JUMP JUMPDEST DUP7 DUP4 LT ISZERO PUSH2 0x930 JUMPI DUP5 DUP10 ADD MLOAD PUSH2 0x92C PUSH1 0x1F DUP10 AND DUP3 PUSH2 0x839 JUMP JUMPDEST DUP4 SSTORE POP JUMPDEST PUSH1 0x1 PUSH1 0x2 DUP9 MUL ADD DUP9 SSTORE POP POP POP JUMPDEST POP POP POP POP POP POP JUMP INVALID LOG2 PUSH5 0x6970667358 0x22 SLT KECCAK256 PUSH20 0xDDA535FDAF52BE83348E080DFEFCEB5440D969D8 PUSH2 0xA0FA COINBASE SWAP12 0xC9 0xEE SWAP5 SWAP14 STATICCALL AND PUSH5 0x736F6C6343 STOP ADDMOD SGT STOP CALLER "
				},
				"gasEstimates": {
					"creation": {
						"codeDepositCost": "485400",
						"executionCost": "518",
						"totalCost": "485918"
					},
					"external": {
						"getNumber()": "2503",
						"myNumber()": "2429",
						"names()": "infinite",
						"processData(uint256[])": "518",
						"setNumber(uint256)": "22542",
						"strg(string,string)": "infinite"
					}
				},
				"methodIdentifiers": {
					"getNumber()": "f2c9ecd8",
					"myNumber()": "23fd0e40",
					"names()": "056da048",
					"processData(uint256[])": "8ed80c66",
					"setNumber(uint256)": "3fb5c1cb",
					"strg(string,string)": "fcb1c2a2"
				}
			},
			"storageLayout": {
				"storage": [
					{
						"astId": 9,
						"contract": "New/A8.sol:MemoryTypes",
						"label": "names",
						"offset": 0,
						"slot": "0",
						"type": "t_struct(Names)6_storage"
					},
					{
						"astId": 38,
						"contract": "New/A8.sol:MemoryTypes",
						"label": "myNumber",
						"offset": 0,
						"slot": "2",
						"type": "t_uint256"
					}
				],
				"types": {
					"t_string_storage": {
						"encoding": "bytes",
						"label": "string",
						"numberOfBytes": "32"
					},
					"t_struct(Names)6_storage": {
						"encoding": "inplace",
						"label": "struct MemoryTypes.Names",
						"members": [
							{
								"astId": 3,
								"contract": "New/A8.sol:MemoryTypes",
								"label": "firstname",
								"offset": 0,
								"slot": "0",
								"type": "t_string_storage"
							},
							{
								"astId": 5,
								"contract": "New/A8.sol:MemoryTypes",
								"label": "lastname",
								"offset": 0,
								"slot": "1",
								"type": "t_string_storage"
							}
						],
						"numberOfBytes": "64"
					},
					"t_uint256": {
						"encoding": "inplace",
						"label": "uint256",
						"numberOfBytes": "32"
					}
				}
			},
			"userdoc": {
				"kind": "user",
				"methods": {},
				"version": 1
			}
		}
	}
}