{
	"New2/A3.sol": {
		"StorageFactory2": {
			"abi": [
				{
					"inputs": [],
					"name": "createSimpleStorageContract",
					"outputs": [],
					"stateMutability": "nonpayable",
					"type": "function"
				},
				{
					"inputs": [
						{
							"internalType": "uint256",
							"name": "",
							"type": "uint256"
						}
					],
					"name": "listOfSimpleStorage",
					"outputs": [
						{
							"internalType": "contract SimpleStorage",
							"name": "",
							"type": "address"
						}
					],
					"stateMutability": "view",
					"type": "function"
				},
				{
					"inputs": [
						{
							"internalType": "uint256",
							"name": "_index",
							"type": "uint256"
						},
						{
							"internalType": "string",
							"name": "_name",
							"type": "string"
						},
						{
							"internalType": "uint256",
							"name": "_value",
							"type": "uint256"
						}
					],
					"name": "sfStore",
					"outputs": [],
					"stateMutability": "nonpayable",
					"type": "function"
				},
				{
					"inputs": [
						{
							"internalType": "uint256",
							"name": "_index",
							"type": "uint256"
						}
					],
					"name": "sfget",
					"outputs": [
						{
							"internalType": "string",
							"name": "",
							"type": "string"
						},
						{
							"internalType": "uint256",
							"name": "",
							"type": "uint256"
						}
					],
					"stateMutability": "view",
					"type": "function"
				}
			],
			"devdoc": {
				"kind": "dev",
				"methods": {},
				"version": 1
			},
			"evm": {
				"assembly": "    /* \"New2/A3.sol\":102:776  contract StorageFactory2{... */\n  mstore(0x40, 0x80)\n  callvalue\n  dup1\n  iszero\n  tag_1\n  jumpi\n  0x00\n  dup1\n  revert\ntag_1:\n  pop\n  dataSize(sub_0)\n  dup1\n  dataOffset(sub_0)\n  0x00\n  codecopy\n  0x00\n  return\nstop\n\nsub_0: assembly {\n        /* \"New2/A3.sol\":102:776  contract StorageFactory2{... */\n      mstore(0x40, 0x80)\n      callvalue\n      dup1\n      iszero\n      tag_1\n      jumpi\n      0x00\n      dup1\n      revert\n    tag_1:\n      pop\n      jumpi(tag_2, lt(calldatasize, 0x04))\n      shr(0xe0, calldataload(0x00))\n      dup1\n      0x0ad91b64\n      eq\n      tag_3\n      jumpi\n      dup1\n      0x1dda6541\n      eq\n      tag_4\n      jumpi\n      dup1\n      0x72eff8f7\n      eq\n      tag_5\n      jumpi\n      dup1\n      0xa1786dbe\n      eq\n      tag_6\n      jumpi\n    tag_2:\n      0x00\n      dup1\n      revert\n        /* \"New2/A3.sol\":574:771  function sfget(uint256 _index) public view returns(string memory, uint256){... */\n    tag_3:\n      tag_7\n      0x04\n      dup1\n      calldatasize\n      sub\n      dup2\n      add\n      swap1\n      tag_8\n      swap2\n      swap1\n      tag_9\n      jump\t// in\n    tag_8:\n      tag_10\n      jump\t// in\n    tag_7:\n      mload(0x40)\n      tag_11\n      swap3\n      swap2\n      swap1\n      tag_12\n      jump\t// in\n    tag_11:\n      mload(0x40)\n      dup1\n      swap2\n      sub\n      swap1\n      return\n        /* \"New2/A3.sol\":188:352  function createSimpleStorageContract() public {... */\n    tag_4:\n      tag_13\n      tag_14\n      jump\t// in\n    tag_13:\n      stop\n        /* \"New2/A3.sol\":360:566  function sfStore(uint256 _index, string memory _name, uint256 _value) public {... */\n    tag_5:\n      tag_15\n      0x04\n      dup1\n      calldatasize\n      sub\n      dup2\n      add\n      swap1\n      tag_16\n      swap2\n      swap1\n      tag_17\n      jump\t// in\n    tag_16:\n      tag_18\n      jump\t// in\n    tag_15:\n      stop\n        /* \"New2/A3.sol\":133:175  SimpleStorage[] public listOfSimpleStorage */\n    tag_6:\n      tag_19\n      0x04\n      dup1\n      calldatasize\n      sub\n      dup2\n      add\n      swap1\n      tag_20\n      swap2\n      swap1\n      tag_9\n      jump\t// in\n    tag_20:\n      tag_21\n      jump\t// in\n    tag_19:\n      mload(0x40)\n      tag_22\n      swap2\n      swap1\n      tag_23\n      jump\t// in\n    tag_22:\n      mload(0x40)\n      dup1\n      swap2\n      sub\n      swap1\n      return\n        /* \"New2/A3.sol\":574:771  function sfget(uint256 _index) public view returns(string memory, uint256){... */\n    tag_10:\n        /* \"New2/A3.sol\":625:638  string memory */\n      0x60\n        /* \"New2/A3.sol\":640:647  uint256 */\n      0x00\n        /* \"New2/A3.sol\":659:688  SimpleStorage mySimpleStorage */\n      dup1\n        /* \"New2/A3.sol\":691:710  listOfSimpleStorage */\n      0x00\n        /* \"New2/A3.sol\":711:717  _index */\n      dup5\n        /* \"New2/A3.sol\":691:718  listOfSimpleStorage[_index] */\n      dup2\n      sload\n      dup2\n      lt\n      tag_25\n      jumpi\n      tag_26\n      tag_27\n      jump\t// in\n    tag_26:\n    tag_25:\n      swap1\n      0x00\n      mstore\n      keccak256(0x00, 0x20)\n      add\n      0x00\n      swap1\n      sload\n      swap1\n      0x0100\n      exp\n      swap1\n      div\n      0xffffffffffffffffffffffffffffffffffffffff\n      and\n        /* \"New2/A3.sol\":659:718  SimpleStorage mySimpleStorage = listOfSimpleStorage[_index] */\n      swap1\n      pop\n        /* \"New2/A3.sol\":736:751  mySimpleStorage */\n      dup1\n        /* \"New2/A3.sol\":736:761  mySimpleStorage.getPeople */\n      0xffffffffffffffffffffffffffffffffffffffff\n      and\n      0x4f995d08\n        /* \"New2/A3.sol\":736:763  mySimpleStorage.getPeople() */\n      mload(0x40)\n      dup2\n      0xffffffff\n      and\n      0xe0\n      shl\n      dup2\n      mstore\n      0x04\n      add\n      0x00\n      mload(0x40)\n      dup1\n      dup4\n      sub\n      dup2\n      dup7\n      gas\n      staticcall\n      iszero\n      dup1\n      iszero\n      tag_30\n      jumpi\n      returndatasize\n      0x00\n      dup1\n      returndatacopy\n      revert(0x00, returndatasize)\n    tag_30:\n      pop\n      pop\n      pop\n      pop\n      mload(0x40)\n      returndatasize\n      0x00\n      dup3\n      returndatacopy\n      returndatasize\n      not(0x1f)\n      0x1f\n      dup3\n      add\n      and\n      dup3\n      add\n      dup1\n      0x40\n      mstore\n      pop\n      dup2\n      add\n      swap1\n      tag_31\n      swap2\n      swap1\n      tag_32\n      jump\t// in\n    tag_31:\n        /* \"New2/A3.sol\":729:763  return mySimpleStorage.getPeople() */\n      swap3\n      pop\n      swap3\n      pop\n      pop\n        /* \"New2/A3.sol\":574:771  function sfget(uint256 _index) public view returns(string memory, uint256){... */\n      swap2\n      pop\n      swap2\n      jump\t// out\n        /* \"New2/A3.sol\":188:352  function createSimpleStorageContract() public {... */\n    tag_14:\n        /* \"New2/A3.sol\":245:272  SimpleStorage simpleStorage */\n      0x00\n        /* \"New2/A3.sol\":275:294  new SimpleStorage() */\n      mload(0x40)\n      tag_34\n      swap1\n      tag_35\n      jump\t// in\n    tag_34:\n      mload(0x40)\n      dup1\n      swap2\n      sub\n      swap1\n      0x00\n      create\n      dup1\n      iszero\n      dup1\n      iszero\n      tag_36\n      jumpi\n      returndatasize\n      0x00\n      dup1\n      returndatacopy\n      revert(0x00, returndatasize)\n    tag_36:\n      pop\n        /* \"New2/A3.sol\":245:294  SimpleStorage simpleStorage = new SimpleStorage() */\n      swap1\n      pop\n        /* \"New2/A3.sol\":305:324  listOfSimpleStorage */\n      0x00\n        /* \"New2/A3.sol\":330:343  simpleStorage */\n      dup2\n        /* \"New2/A3.sol\":305:344  listOfSimpleStorage.push(simpleStorage) */\n      swap1\n      dup1\n      0x01\n      dup2\n      sload\n      add\n      dup1\n      dup3\n      sstore\n      dup1\n      swap2\n      pop\n      pop\n      0x01\n      swap1\n      sub\n      swap1\n      0x00\n      mstore\n      keccak256(0x00, 0x20)\n      add\n      0x00\n      swap1\n      swap2\n      swap1\n      swap2\n      swap1\n      swap2\n      0x0100\n      exp\n      dup2\n      sload\n      dup2\n      0xffffffffffffffffffffffffffffffffffffffff\n      mul\n      not\n      and\n      swap1\n      dup4\n      0xffffffffffffffffffffffffffffffffffffffff\n      and\n      mul\n      or\n      swap1\n      sstore\n      pop\n        /* \"New2/A3.sol\":234:352  {... */\n      pop\n        /* \"New2/A3.sol\":188:352  function createSimpleStorageContract() public {... */\n      jump\t// out\n        /* \"New2/A3.sol\":360:566  function sfStore(uint256 _index, string memory _name, uint256 _value) public {... */\n    tag_18:\n        /* \"New2/A3.sol\":448:477  SimpleStorage mySimpleStorage */\n      0x00\n        /* \"New2/A3.sol\":480:499  listOfSimpleStorage */\n      dup1\n        /* \"New2/A3.sol\":500:506  _index */\n      dup5\n        /* \"New2/A3.sol\":480:507  listOfSimpleStorage[_index] */\n      dup2\n      sload\n      dup2\n      lt\n      tag_39\n      jumpi\n      tag_40\n      tag_27\n      jump\t// in\n    tag_40:\n    tag_39:\n      swap1\n      0x00\n      mstore\n      keccak256(0x00, 0x20)\n      add\n      0x00\n      swap1\n      sload\n      swap1\n      0x0100\n      exp\n      swap1\n      div\n      0xffffffffffffffffffffffffffffffffffffffff\n      and\n        /* \"New2/A3.sol\":448:507  SimpleStorage mySimpleStorage = listOfSimpleStorage[_index] */\n      swap1\n      pop\n        /* \"New2/A3.sol\":518:533  mySimpleStorage */\n      dup1\n        /* \"New2/A3.sol\":518:543  mySimpleStorage.addPeople */\n      0xffffffffffffffffffffffffffffffffffffffff\n      and\n      0x795fff1d\n        /* \"New2/A3.sol\":544:549  _name */\n      dup5\n        /* \"New2/A3.sol\":551:557  _value */\n      dup5\n        /* \"New2/A3.sol\":518:558  mySimpleStorage.addPeople(_name, _value) */\n      mload(0x40)\n      dup4\n      0xffffffff\n      and\n      0xe0\n      shl\n      dup2\n      mstore\n      0x04\n      add\n      tag_42\n      swap3\n      swap2\n      swap1\n      tag_12\n      jump\t// in\n    tag_42:\n      0x00\n      mload(0x40)\n      dup1\n      dup4\n      sub\n      dup2\n      0x00\n      dup8\n      dup1\n      extcodesize\n      iszero\n      dup1\n      iszero\n      tag_43\n      jumpi\n      0x00\n      dup1\n      revert\n    tag_43:\n      pop\n      gas\n      call\n      iszero\n      dup1\n      iszero\n      tag_45\n      jumpi\n      returndatasize\n      0x00\n      dup1\n      returndatacopy\n      revert(0x00, returndatasize)\n    tag_45:\n      pop\n      pop\n      pop\n      pop\n        /* \"New2/A3.sol\":437:566  {... */\n      pop\n        /* \"New2/A3.sol\":360:566  function sfStore(uint256 _index, string memory _name, uint256 _value) public {... */\n      pop\n      pop\n      pop\n      jump\t// out\n        /* \"New2/A3.sol\":133:175  SimpleStorage[] public listOfSimpleStorage */\n    tag_21:\n      0x00\n      dup2\n      dup2\n      sload\n      dup2\n      lt\n      tag_46\n      jumpi\n      0x00\n      dup1\n      revert\n    tag_46:\n      swap1\n      0x00\n      mstore\n      keccak256(0x00, 0x20)\n      add\n      0x00\n      swap2\n      pop\n      sload\n      swap1\n      0x0100\n      exp\n      swap1\n      div\n      0xffffffffffffffffffffffffffffffffffffffff\n      and\n      dup2\n      jump\t// out\n    tag_35:\n      dataSize(sub_0)\n      dup1\n      dataOffset(sub_0)\n      dup4\n      codecopy\n      add\n      swap1\n      jump\t// out\n        /* \"#utility.yul\":7:82   */\n    tag_48:\n        /* \"#utility.yul\":40:46   */\n      0x00\n        /* \"#utility.yul\":73:75   */\n      0x40\n        /* \"#utility.yul\":67:76   */\n      mload\n        /* \"#utility.yul\":57:76   */\n      swap1\n      pop\n        /* \"#utility.yul\":7:82   */\n      swap1\n      jump\t// out\n        /* \"#utility.yul\":88:205   */\n    tag_49:\n        /* \"#utility.yul\":197:198   */\n      0x00\n        /* \"#utility.yul\":194:195   */\n      dup1\n        /* \"#utility.yul\":187:199   */\n      revert\n        /* \"#utility.yul\":211:328   */\n    tag_50:\n        /* \"#utility.yul\":320:321   */\n      0x00\n        /* \"#utility.yul\":317:318   */\n      dup1\n        /* \"#utility.yul\":310:322   */\n      revert\n        /* \"#utility.yul\":334:411   */\n    tag_51:\n        /* \"#utility.yul\":371:378   */\n      0x00\n        /* \"#utility.yul\":400:405   */\n      dup2\n        /* \"#utility.yul\":389:405   */\n      swap1\n      pop\n        /* \"#utility.yul\":334:411   */\n      swap2\n      swap1\n      pop\n      jump\t// out\n        /* \"#utility.yul\":417:539   */\n    tag_52:\n        /* \"#utility.yul\":490:514   */\n      tag_84\n        /* \"#utility.yul\":508:513   */\n      dup2\n        /* \"#utility.yul\":490:514   */\n      tag_51\n      jump\t// in\n    tag_84:\n        /* \"#utility.yul\":483:488   */\n      dup2\n        /* \"#utility.yul\":480:515   */\n      eq\n        /* \"#utility.yul\":470:533   */\n      tag_85\n      jumpi\n        /* \"#utility.yul\":529:530   */\n      0x00\n        /* \"#utility.yul\":526:527   */\n      dup1\n        /* \"#utility.yul\":519:531   */\n      revert\n        /* \"#utility.yul\":470:533   */\n    tag_85:\n        /* \"#utility.yul\":417:539   */\n      pop\n      jump\t// out\n        /* \"#utility.yul\":545:684   */\n    tag_53:\n        /* \"#utility.yul\":591:596   */\n      0x00\n        /* \"#utility.yul\":629:635   */\n      dup2\n        /* \"#utility.yul\":616:636   */\n      calldataload\n        /* \"#utility.yul\":607:636   */\n      swap1\n      pop\n        /* \"#utility.yul\":645:678   */\n      tag_87\n        /* \"#utility.yul\":672:677   */\n      dup2\n        /* \"#utility.yul\":645:678   */\n      tag_52\n      jump\t// in\n    tag_87:\n        /* \"#utility.yul\":545:684   */\n      swap3\n      swap2\n      pop\n      pop\n      jump\t// out\n        /* \"#utility.yul\":690:1019   */\n    tag_9:\n        /* \"#utility.yul\":749:755   */\n      0x00\n        /* \"#utility.yul\":798:800   */\n      0x20\n        /* \"#utility.yul\":786:795   */\n      dup3\n        /* \"#utility.yul\":777:784   */\n      dup5\n        /* \"#utility.yul\":773:796   */\n      sub\n        /* \"#utility.yul\":769:801   */\n      slt\n        /* \"#utility.yul\":766:885   */\n      iszero\n      tag_89\n      jumpi\n        /* \"#utility.yul\":804:883   */\n      tag_90\n      tag_49\n      jump\t// in\n    tag_90:\n        /* \"#utility.yul\":766:885   */\n    tag_89:\n        /* \"#utility.yul\":924:925   */\n      0x00\n        /* \"#utility.yul\":949:1002   */\n      tag_91\n        /* \"#utility.yul\":994:1001   */\n      dup5\n        /* \"#utility.yul\":985:991   */\n      dup3\n        /* \"#utility.yul\":974:983   */\n      dup6\n        /* \"#utility.yul\":970:992   */\n      add\n        /* \"#utility.yul\":949:1002   */\n      tag_53\n      jump\t// in\n    tag_91:\n        /* \"#utility.yul\":939:1002   */\n      swap2\n      pop\n        /* \"#utility.yul\":895:1012   */\n      pop\n        /* \"#utility.yul\":690:1019   */\n      swap3\n      swap2\n      pop\n      pop\n      jump\t// out\n        /* \"#utility.yul\":1025:1124   */\n    tag_54:\n        /* \"#utility.yul\":1077:1083   */\n      0x00\n        /* \"#utility.yul\":1111:1116   */\n      dup2\n        /* \"#utility.yul\":1105:1117   */\n      mload\n        /* \"#utility.yul\":1095:1117   */\n      swap1\n      pop\n        /* \"#utility.yul\":1025:1124   */\n      swap2\n      swap1\n      pop\n      jump\t// out\n        /* \"#utility.yul\":1130:1299   */\n    tag_55:\n        /* \"#utility.yul\":1214:1225   */\n      0x00\n        /* \"#utility.yul\":1248:1254   */\n      dup3\n        /* \"#utility.yul\":1243:1246   */\n      dup3\n        /* \"#utility.yul\":1236:1255   */\n      mstore\n        /* \"#utility.yul\":1288:1292   */\n      0x20\n        /* \"#utility.yul\":1283:1286   */\n      dup3\n        /* \"#utility.yul\":1279:1293   */\n      add\n        /* \"#utility.yul\":1264:1293   */\n      swap1\n      pop\n        /* \"#utility.yul\":1130:1299   */\n      swap3\n      swap2\n      pop\n      pop\n      jump\t// out\n        /* \"#utility.yul\":1305:1551   */\n    tag_56:\n        /* \"#utility.yul\":1386:1387   */\n      0x00\n        /* \"#utility.yul\":1396:1509   */\n    tag_95:\n        /* \"#utility.yul\":1410:1416   */\n      dup4\n        /* \"#utility.yul\":1407:1408   */\n      dup2\n        /* \"#utility.yul\":1404:1417   */\n      lt\n        /* \"#utility.yul\":1396:1509   */\n      iszero\n      tag_97\n      jumpi\n        /* \"#utility.yul\":1495:1496   */\n      dup1\n        /* \"#utility.yul\":1490:1493   */\n      dup3\n        /* \"#utility.yul\":1486:1497   */\n      add\n        /* \"#utility.yul\":1480:1498   */\n      mload\n        /* \"#utility.yul\":1476:1477   */\n      dup2\n        /* \"#utility.yul\":1471:1474   */\n      dup5\n        /* \"#utility.yul\":1467:1478   */\n      add\n        /* \"#utility.yul\":1460:1499   */\n      mstore\n        /* \"#utility.yul\":1432:1434   */\n      0x20\n        /* \"#utility.yul\":1429:1430   */\n      dup2\n        /* \"#utility.yul\":1425:1435   */\n      add\n        /* \"#utility.yul\":1420:1435   */\n      swap1\n      pop\n        /* \"#utility.yul\":1396:1509   */\n      jump(tag_95)\n    tag_97:\n        /* \"#utility.yul\":1543:1544   */\n      0x00\n        /* \"#utility.yul\":1534:1540   */\n      dup5\n        /* \"#utility.yul\":1529:1532   */\n      dup5\n        /* \"#utility.yul\":1525:1541   */\n      add\n        /* \"#utility.yul\":1518:1545   */\n      mstore\n        /* \"#utility.yul\":1367:1551   */\n      pop\n        /* \"#utility.yul\":1305:1551   */\n      pop\n      pop\n      pop\n      jump\t// out\n        /* \"#utility.yul\":1557:1659   */\n    tag_57:\n        /* \"#utility.yul\":1598:1604   */\n      0x00\n        /* \"#utility.yul\":1649:1651   */\n      0x1f\n        /* \"#utility.yul\":1645:1652   */\n      not\n        /* \"#utility.yul\":1640:1642   */\n      0x1f\n        /* \"#utility.yul\":1633:1638   */\n      dup4\n        /* \"#utility.yul\":1629:1643   */\n      add\n        /* \"#utility.yul\":1625:1653   */\n      and\n        /* \"#utility.yul\":1615:1653   */\n      swap1\n      pop\n        /* \"#utility.yul\":1557:1659   */\n      swap2\n      swap1\n      pop\n      jump\t// out\n        /* \"#utility.yul\":1665:2042   */\n    tag_58:\n        /* \"#utility.yul\":1753:1756   */\n      0x00\n        /* \"#utility.yul\":1781:1820   */\n      tag_100\n        /* \"#utility.yul\":1814:1819   */\n      dup3\n        /* \"#utility.yul\":1781:1820   */\n      tag_54\n      jump\t// in\n    tag_100:\n        /* \"#utility.yul\":1836:1907   */\n      tag_101\n        /* \"#utility.yul\":1900:1906   */\n      dup2\n        /* \"#utility.yul\":1895:1898   */\n      dup6\n        /* \"#utility.yul\":1836:1907   */\n      tag_55\n      jump\t// in\n    tag_101:\n        /* \"#utility.yul\":1829:1907   */\n      swap4\n      pop\n        /* \"#utility.yul\":1916:1981   */\n      tag_102\n        /* \"#utility.yul\":1974:1980   */\n      dup2\n        /* \"#utility.yul\":1969:1972   */\n      dup6\n        /* \"#utility.yul\":1962:1966   */\n      0x20\n        /* \"#utility.yul\":1955:1960   */\n      dup7\n        /* \"#utility.yul\":1951:1967   */\n      add\n        /* \"#utility.yul\":1916:1981   */\n      tag_56\n      jump\t// in\n    tag_102:\n        /* \"#utility.yul\":2006:2035   */\n      tag_103\n        /* \"#utility.yul\":2028:2034   */\n      dup2\n        /* \"#utility.yul\":2006:2035   */\n      tag_57\n      jump\t// in\n    tag_103:\n        /* \"#utility.yul\":2001:2004   */\n      dup5\n        /* \"#utility.yul\":1997:2036   */\n      add\n        /* \"#utility.yul\":1990:2036   */\n      swap2\n      pop\n        /* \"#utility.yul\":1757:2042   */\n      pop\n        /* \"#utility.yul\":1665:2042   */\n      swap3\n      swap2\n      pop\n      pop\n      jump\t// out\n        /* \"#utility.yul\":2048:2166   */\n    tag_59:\n        /* \"#utility.yul\":2135:2159   */\n      tag_105\n        /* \"#utility.yul\":2153:2158   */\n      dup2\n        /* \"#utility.yul\":2135:2159   */\n      tag_51\n      jump\t// in\n    tag_105:\n        /* \"#utility.yul\":2130:2133   */\n      dup3\n        /* \"#utility.yul\":2123:2160   */\n      mstore\n        /* \"#utility.yul\":2048:2166   */\n      pop\n      pop\n      jump\t// out\n        /* \"#utility.yul\":2172:2595   */\n    tag_12:\n        /* \"#utility.yul\":2313:2317   */\n      0x00\n        /* \"#utility.yul\":2351:2353   */\n      0x40\n        /* \"#utility.yul\":2340:2349   */\n      dup3\n        /* \"#utility.yul\":2336:2354   */\n      add\n        /* \"#utility.yul\":2328:2354   */\n      swap1\n      pop\n        /* \"#utility.yul\":2400:2409   */\n      dup2\n        /* \"#utility.yul\":2394:2398   */\n      dup2\n        /* \"#utility.yul\":2390:2410   */\n      sub\n        /* \"#utility.yul\":2386:2387   */\n      0x00\n        /* \"#utility.yul\":2375:2384   */\n      dup4\n        /* \"#utility.yul\":2371:2388   */\n      add\n        /* \"#utility.yul\":2364:2411   */\n      mstore\n        /* \"#utility.yul\":2428:2506   */\n      tag_107\n        /* \"#utility.yul\":2501:2505   */\n      dup2\n        /* \"#utility.yul\":2492:2498   */\n      dup6\n        /* \"#utility.yul\":2428:2506   */\n      tag_58\n      jump\t// in\n    tag_107:\n        /* \"#utility.yul\":2420:2506   */\n      swap1\n      pop\n        /* \"#utility.yul\":2516:2588   */\n      tag_108\n        /* \"#utility.yul\":2584:2586   */\n      0x20\n        /* \"#utility.yul\":2573:2582   */\n      dup4\n        /* \"#utility.yul\":2569:2587   */\n      add\n        /* \"#utility.yul\":2560:2566   */\n      dup5\n        /* \"#utility.yul\":2516:2588   */\n      tag_59\n      jump\t// in\n    tag_108:\n        /* \"#utility.yul\":2172:2595   */\n      swap4\n      swap3\n      pop\n      pop\n      pop\n      jump\t// out\n        /* \"#utility.yul\":2601:2718   */\n    tag_60:\n        /* \"#utility.yul\":2710:2711   */\n      0x00\n        /* \"#utility.yul\":2707:2708   */\n      dup1\n        /* \"#utility.yul\":2700:2712   */\n      revert\n        /* \"#utility.yul\":2724:2841   */\n    tag_61:\n        /* \"#utility.yul\":2833:2834   */\n      0x00\n        /* \"#utility.yul\":2830:2831   */\n      dup1\n        /* \"#utility.yul\":2823:2835   */\n      revert\n        /* \"#utility.yul\":2847:3027   */\n    tag_62:\n        /* \"#utility.yul\":2895:2972   */\n      0x4e487b7100000000000000000000000000000000000000000000000000000000\n        /* \"#utility.yul\":2892:2893   */\n      0x00\n        /* \"#utility.yul\":2885:2973   */\n      mstore\n        /* \"#utility.yul\":2992:2996   */\n      0x41\n        /* \"#utility.yul\":2989:2990   */\n      0x04\n        /* \"#utility.yul\":2982:2997   */\n      mstore\n        /* \"#utility.yul\":3016:3020   */\n      0x24\n        /* \"#utility.yul\":3013:3014   */\n      0x00\n        /* \"#utility.yul\":3006:3021   */\n      revert\n        /* \"#utility.yul\":3033:3314   */\n    tag_63:\n        /* \"#utility.yul\":3116:3143   */\n      tag_113\n        /* \"#utility.yul\":3138:3142   */\n      dup3\n        /* \"#utility.yul\":3116:3143   */\n      tag_57\n      jump\t// in\n    tag_113:\n        /* \"#utility.yul\":3108:3114   */\n      dup2\n        /* \"#utility.yul\":3104:3144   */\n      add\n        /* \"#utility.yul\":3246:3252   */\n      dup2\n        /* \"#utility.yul\":3234:3244   */\n      dup2\n        /* \"#utility.yul\":3231:3253   */\n      lt\n        /* \"#utility.yul\":3210:3228   */\n      0xffffffffffffffff\n        /* \"#utility.yul\":3198:3208   */\n      dup3\n        /* \"#utility.yul\":3195:3229   */\n      gt\n        /* \"#utility.yul\":3192:3254   */\n      or\n        /* \"#utility.yul\":3189:3277   */\n      iszero\n      tag_114\n      jumpi\n        /* \"#utility.yul\":3257:3275   */\n      tag_115\n      tag_62\n      jump\t// in\n    tag_115:\n        /* \"#utility.yul\":3189:3277   */\n    tag_114:\n        /* \"#utility.yul\":3297:3307   */\n      dup1\n        /* \"#utility.yul\":3293:3295   */\n      0x40\n        /* \"#utility.yul\":3286:3308   */\n      mstore\n        /* \"#utility.yul\":3076:3314   */\n      pop\n        /* \"#utility.yul\":3033:3314   */\n      pop\n      pop\n      jump\t// out\n        /* \"#utility.yul\":3320:3449   */\n    tag_64:\n        /* \"#utility.yul\":3354:3360   */\n      0x00\n        /* \"#utility.yul\":3381:3401   */\n      tag_117\n      tag_48\n      jump\t// in\n    tag_117:\n        /* \"#utility.yul\":3371:3401   */\n      swap1\n      pop\n        /* \"#utility.yul\":3410:3443   */\n      tag_118\n        /* \"#utility.yul\":3438:3442   */\n      dup3\n        /* \"#utility.yul\":3430:3436   */\n      dup3\n        /* \"#utility.yul\":3410:3443   */\n      tag_63\n      jump\t// in\n    tag_118:\n        /* \"#utility.yul\":3320:3449   */\n      swap2\n      swap1\n      pop\n      jump\t// out\n        /* \"#utility.yul\":3455:3763   */\n    tag_65:\n        /* \"#utility.yul\":3517:3521   */\n      0x00\n        /* \"#utility.yul\":3607:3625   */\n      0xffffffffffffffff\n        /* \"#utility.yul\":3599:3605   */\n      dup3\n        /* \"#utility.yul\":3596:3626   */\n      gt\n        /* \"#utility.yul\":3593:3649   */\n      iszero\n      tag_120\n      jumpi\n        /* \"#utility.yul\":3629:3647   */\n      tag_121\n      tag_62\n      jump\t// in\n    tag_121:\n        /* \"#utility.yul\":3593:3649   */\n    tag_120:\n        /* \"#utility.yul\":3667:3696   */\n      tag_122\n        /* \"#utility.yul\":3689:3695   */\n      dup3\n        /* \"#utility.yul\":3667:3696   */\n      tag_57\n      jump\t// in\n    tag_122:\n        /* \"#utility.yul\":3659:3696   */\n      swap1\n      pop\n        /* \"#utility.yul\":3751:3755   */\n      0x20\n        /* \"#utility.yul\":3745:3749   */\n      dup2\n        /* \"#utility.yul\":3741:3756   */\n      add\n        /* \"#utility.yul\":3733:3756   */\n      swap1\n      pop\n        /* \"#utility.yul\":3455:3763   */\n      swap2\n      swap1\n      pop\n      jump\t// out\n        /* \"#utility.yul\":3769:3915   */\n    tag_66:\n        /* \"#utility.yul\":3866:3872   */\n      dup3\n        /* \"#utility.yul\":3861:3864   */\n      dup2\n        /* \"#utility.yul\":3856:3859   */\n      dup4\n        /* \"#utility.yul\":3843:3873   */\n      calldatacopy\n        /* \"#utility.yul\":3907:3908   */\n      0x00\n        /* \"#utility.yul\":3898:3904   */\n      dup4\n        /* \"#utility.yul\":3893:3896   */\n      dup4\n        /* \"#utility.yul\":3889:3905   */\n      add\n        /* \"#utility.yul\":3882:3909   */\n      mstore\n        /* \"#utility.yul\":3769:3915   */\n      pop\n      pop\n      pop\n      jump\t// out\n        /* \"#utility.yul\":3921:4346   */\n    tag_67:\n        /* \"#utility.yul\":3999:4004   */\n      0x00\n        /* \"#utility.yul\":4024:4090   */\n      tag_125\n        /* \"#utility.yul\":4040:4089   */\n      tag_126\n        /* \"#utility.yul\":4082:4088   */\n      dup5\n        /* \"#utility.yul\":4040:4089   */\n      tag_65\n      jump\t// in\n    tag_126:\n        /* \"#utility.yul\":4024:4090   */\n      tag_64\n      jump\t// in\n    tag_125:\n        /* \"#utility.yul\":4015:4090   */\n      swap1\n      pop\n        /* \"#utility.yul\":4113:4119   */\n      dup3\n        /* \"#utility.yul\":4106:4111   */\n      dup2\n        /* \"#utility.yul\":4099:4120   */\n      mstore\n        /* \"#utility.yul\":4151:4155   */\n      0x20\n        /* \"#utility.yul\":4144:4149   */\n      dup2\n        /* \"#utility.yul\":4140:4156   */\n      add\n        /* \"#utility.yul\":4189:4192   */\n      dup5\n        /* \"#utility.yul\":4180:4186   */\n      dup5\n        /* \"#utility.yul\":4175:4178   */\n      dup5\n        /* \"#utility.yul\":4171:4187   */\n      add\n        /* \"#utility.yul\":4168:4193   */\n      gt\n        /* \"#utility.yul\":4165:4277   */\n      iszero\n      tag_127\n      jumpi\n        /* \"#utility.yul\":4196:4275   */\n      tag_128\n      tag_61\n      jump\t// in\n    tag_128:\n        /* \"#utility.yul\":4165:4277   */\n    tag_127:\n        /* \"#utility.yul\":4286:4340   */\n      tag_129\n        /* \"#utility.yul\":4333:4339   */\n      dup5\n        /* \"#utility.yul\":4328:4331   */\n      dup3\n        /* \"#utility.yul\":4323:4326   */\n      dup6\n        /* \"#utility.yul\":4286:4340   */\n      tag_66\n      jump\t// in\n    tag_129:\n        /* \"#utility.yul\":4005:4346   */\n      pop\n        /* \"#utility.yul\":3921:4346   */\n      swap4\n      swap3\n      pop\n      pop\n      pop\n      jump\t// out\n        /* \"#utility.yul\":4366:4706   */\n    tag_68:\n        /* \"#utility.yul\":4422:4427   */\n      0x00\n        /* \"#utility.yul\":4471:4474   */\n      dup3\n        /* \"#utility.yul\":4464:4468   */\n      0x1f\n        /* \"#utility.yul\":4456:4462   */\n      dup4\n        /* \"#utility.yul\":4452:4469   */\n      add\n        /* \"#utility.yul\":4448:4475   */\n      slt\n        /* \"#utility.yul\":4438:4560   */\n      tag_131\n      jumpi\n        /* \"#utility.yul\":4479:4558   */\n      tag_132\n      tag_60\n      jump\t// in\n    tag_132:\n        /* \"#utility.yul\":4438:4560   */\n    tag_131:\n        /* \"#utility.yul\":4596:4602   */\n      dup2\n        /* \"#utility.yul\":4583:4603   */\n      calldataload\n        /* \"#utility.yul\":4621:4700   */\n      tag_133\n        /* \"#utility.yul\":4696:4699   */\n      dup5\n        /* \"#utility.yul\":4688:4694   */\n      dup3\n        /* \"#utility.yul\":4681:4685   */\n      0x20\n        /* \"#utility.yul\":4673:4679   */\n      dup7\n        /* \"#utility.yul\":4669:4686   */\n      add\n        /* \"#utility.yul\":4621:4700   */\n      tag_67\n      jump\t// in\n    tag_133:\n        /* \"#utility.yul\":4612:4700   */\n      swap2\n      pop\n        /* \"#utility.yul\":4428:4706   */\n      pop\n        /* \"#utility.yul\":4366:4706   */\n      swap3\n      swap2\n      pop\n      pop\n      jump\t// out\n        /* \"#utility.yul\":4712:5511   */\n    tag_17:\n        /* \"#utility.yul\":4799:4805   */\n      0x00\n        /* \"#utility.yul\":4807:4813   */\n      dup1\n        /* \"#utility.yul\":4815:4821   */\n      0x00\n        /* \"#utility.yul\":4864:4866   */\n      0x60\n        /* \"#utility.yul\":4852:4861   */\n      dup5\n        /* \"#utility.yul\":4843:4850   */\n      dup7\n        /* \"#utility.yul\":4839:4862   */\n      sub\n        /* \"#utility.yul\":4835:4867   */\n      slt\n        /* \"#utility.yul\":4832:4951   */\n      iszero\n      tag_135\n      jumpi\n        /* \"#utility.yul\":4870:4949   */\n      tag_136\n      tag_49\n      jump\t// in\n    tag_136:\n        /* \"#utility.yul\":4832:4951   */\n    tag_135:\n        /* \"#utility.yul\":4990:4991   */\n      0x00\n        /* \"#utility.yul\":5015:5068   */\n      tag_137\n        /* \"#utility.yul\":5060:5067   */\n      dup7\n        /* \"#utility.yul\":5051:5057   */\n      dup3\n        /* \"#utility.yul\":5040:5049   */\n      dup8\n        /* \"#utility.yul\":5036:5058   */\n      add\n        /* \"#utility.yul\":5015:5068   */\n      tag_53\n      jump\t// in\n    tag_137:\n        /* \"#utility.yul\":5005:5068   */\n      swap4\n      pop\n        /* \"#utility.yul\":4961:5078   */\n      pop\n        /* \"#utility.yul\":5145:5147   */\n      0x20\n        /* \"#utility.yul\":5134:5143   */\n      dup5\n        /* \"#utility.yul\":5130:5148   */\n      add\n        /* \"#utility.yul\":5117:5149   */\n      calldataload\n        /* \"#utility.yul\":5176:5194   */\n      0xffffffffffffffff\n        /* \"#utility.yul\":5168:5174   */\n      dup2\n        /* \"#utility.yul\":5165:5195   */\n      gt\n        /* \"#utility.yul\":5162:5279   */\n      iszero\n      tag_138\n      jumpi\n        /* \"#utility.yul\":5198:5277   */\n      tag_139\n      tag_50\n      jump\t// in\n    tag_139:\n        /* \"#utility.yul\":5162:5279   */\n    tag_138:\n        /* \"#utility.yul\":5303:5366   */\n      tag_140\n        /* \"#utility.yul\":5358:5365   */\n      dup7\n        /* \"#utility.yul\":5349:5355   */\n      dup3\n        /* \"#utility.yul\":5338:5347   */\n      dup8\n        /* \"#utility.yul\":5334:5356   */\n      add\n        /* \"#utility.yul\":5303:5366   */\n      tag_68\n      jump\t// in\n    tag_140:\n        /* \"#utility.yul\":5293:5366   */\n      swap3\n      pop\n        /* \"#utility.yul\":5088:5376   */\n      pop\n        /* \"#utility.yul\":5415:5417   */\n      0x40\n        /* \"#utility.yul\":5441:5494   */\n      tag_141\n        /* \"#utility.yul\":5486:5493   */\n      dup7\n        /* \"#utility.yul\":5477:5483   */\n      dup3\n        /* \"#utility.yul\":5466:5475   */\n      dup8\n        /* \"#utility.yul\":5462:5484   */\n      add\n        /* \"#utility.yul\":5441:5494   */\n      tag_53\n      jump\t// in\n    tag_141:\n        /* \"#utility.yul\":5431:5494   */\n      swap2\n      pop\n        /* \"#utility.yul\":5386:5504   */\n      pop\n        /* \"#utility.yul\":4712:5511   */\n      swap3\n      pop\n      swap3\n      pop\n      swap3\n      jump\t// out\n        /* \"#utility.yul\":5517:5643   */\n    tag_69:\n        /* \"#utility.yul\":5554:5561   */\n      0x00\n        /* \"#utility.yul\":5594:5636   */\n      0xffffffffffffffffffffffffffffffffffffffff\n        /* \"#utility.yul\":5587:5592   */\n      dup3\n        /* \"#utility.yul\":5583:5637   */\n      and\n        /* \"#utility.yul\":5572:5637   */\n      swap1\n      pop\n        /* \"#utility.yul\":5517:5643   */\n      swap2\n      swap1\n      pop\n      jump\t// out\n        /* \"#utility.yul\":5649:5709   */\n    tag_70:\n        /* \"#utility.yul\":5677:5680   */\n      0x00\n        /* \"#utility.yul\":5698:5703   */\n      dup2\n        /* \"#utility.yul\":5691:5703   */\n      swap1\n      pop\n        /* \"#utility.yul\":5649:5709   */\n      swap2\n      swap1\n      pop\n      jump\t// out\n        /* \"#utility.yul\":5715:5857   */\n    tag_71:\n        /* \"#utility.yul\":5765:5774   */\n      0x00\n        /* \"#utility.yul\":5798:5851   */\n      tag_145\n        /* \"#utility.yul\":5816:5850   */\n      tag_146\n        /* \"#utility.yul\":5825:5849   */\n      tag_147\n        /* \"#utility.yul\":5843:5848   */\n      dup5\n        /* \"#utility.yul\":5825:5849   */\n      tag_69\n      jump\t// in\n    tag_147:\n        /* \"#utility.yul\":5816:5850   */\n      tag_70\n      jump\t// in\n    tag_146:\n        /* \"#utility.yul\":5798:5851   */\n      tag_69\n      jump\t// in\n    tag_145:\n        /* \"#utility.yul\":5785:5851   */\n      swap1\n      pop\n        /* \"#utility.yul\":5715:5857   */\n      swap2\n      swap1\n      pop\n      jump\t// out\n        /* \"#utility.yul\":5863:5989   */\n    tag_72:\n        /* \"#utility.yul\":5913:5922   */\n      0x00\n        /* \"#utility.yul\":5946:5983   */\n      tag_149\n        /* \"#utility.yul\":5977:5982   */\n      dup3\n        /* \"#utility.yul\":5946:5983   */\n      tag_71\n      jump\t// in\n    tag_149:\n        /* \"#utility.yul\":5933:5983   */\n      swap1\n      pop\n        /* \"#utility.yul\":5863:5989   */\n      swap2\n      swap1\n      pop\n      jump\t// out\n        /* \"#utility.yul\":5995:6141   */\n    tag_73:\n        /* \"#utility.yul\":6065:6074   */\n      0x00\n        /* \"#utility.yul\":6098:6135   */\n      tag_151\n        /* \"#utility.yul\":6129:6134   */\n      dup3\n        /* \"#utility.yul\":6098:6135   */\n      tag_72\n      jump\t// in\n    tag_151:\n        /* \"#utility.yul\":6085:6135   */\n      swap1\n      pop\n        /* \"#utility.yul\":5995:6141   */\n      swap2\n      swap1\n      pop\n      jump\t// out\n        /* \"#utility.yul\":6147:6318   */\n    tag_74:\n        /* \"#utility.yul\":6254:6311   */\n      tag_153\n        /* \"#utility.yul\":6305:6310   */\n      dup2\n        /* \"#utility.yul\":6254:6311   */\n      tag_73\n      jump\t// in\n    tag_153:\n        /* \"#utility.yul\":6249:6252   */\n      dup3\n        /* \"#utility.yul\":6242:6312   */\n      mstore\n        /* \"#utility.yul\":6147:6318   */\n      pop\n      pop\n      jump\t// out\n        /* \"#utility.yul\":6324:6586   */\n    tag_23:\n        /* \"#utility.yul\":6437:6441   */\n      0x00\n        /* \"#utility.yul\":6475:6477   */\n      0x20\n        /* \"#utility.yul\":6464:6473   */\n      dup3\n        /* \"#utility.yul\":6460:6478   */\n      add\n        /* \"#utility.yul\":6452:6478   */\n      swap1\n      pop\n        /* \"#utility.yul\":6488:6579   */\n      tag_155\n        /* \"#utility.yul\":6576:6577   */\n      0x00\n        /* \"#utility.yul\":6565:6574   */\n      dup4\n        /* \"#utility.yul\":6561:6578   */\n      add\n        /* \"#utility.yul\":6552:6558   */\n      dup5\n        /* \"#utility.yul\":6488:6579   */\n      tag_74\n      jump\t// in\n    tag_155:\n        /* \"#utility.yul\":6324:6586   */\n      swap3\n      swap2\n      pop\n      pop\n      jump\t// out\n        /* \"#utility.yul\":6592:6772   */\n    tag_27:\n        /* \"#utility.yul\":6640:6717   */\n      0x4e487b7100000000000000000000000000000000000000000000000000000000\n        /* \"#utility.yul\":6637:6638   */\n      0x00\n        /* \"#utility.yul\":6630:6718   */\n      mstore\n        /* \"#utility.yul\":6737:6741   */\n      0x32\n        /* \"#utility.yul\":6734:6735   */\n      0x04\n        /* \"#utility.yul\":6727:6742   */\n      mstore\n        /* \"#utility.yul\":6761:6765   */\n      0x24\n        /* \"#utility.yul\":6758:6759   */\n      0x00\n        /* \"#utility.yul\":6751:6766   */\n      revert\n        /* \"#utility.yul\":6778:7212   */\n    tag_75:\n        /* \"#utility.yul\":6867:6872   */\n      0x00\n        /* \"#utility.yul\":6892:6958   */\n      tag_158\n        /* \"#utility.yul\":6908:6957   */\n      tag_159\n        /* \"#utility.yul\":6950:6956   */\n      dup5\n        /* \"#utility.yul\":6908:6957   */\n      tag_65\n      jump\t// in\n    tag_159:\n        /* \"#utility.yul\":6892:6958   */\n      tag_64\n      jump\t// in\n    tag_158:\n        /* \"#utility.yul\":6883:6958   */\n      swap1\n      pop\n        /* \"#utility.yul\":6981:6987   */\n      dup3\n        /* \"#utility.yul\":6974:6979   */\n      dup2\n        /* \"#utility.yul\":6967:6988   */\n      mstore\n        /* \"#utility.yul\":7019:7023   */\n      0x20\n        /* \"#utility.yul\":7012:7017   */\n      dup2\n        /* \"#utility.yul\":7008:7024   */\n      add\n        /* \"#utility.yul\":7057:7060   */\n      dup5\n        /* \"#utility.yul\":7048:7054   */\n      dup5\n        /* \"#utility.yul\":7043:7046   */\n      dup5\n        /* \"#utility.yul\":7039:7055   */\n      add\n        /* \"#utility.yul\":7036:7061   */\n      gt\n        /* \"#utility.yul\":7033:7145   */\n      iszero\n      tag_160\n      jumpi\n        /* \"#utility.yul\":7064:7143   */\n      tag_161\n      tag_61\n      jump\t// in\n    tag_161:\n        /* \"#utility.yul\":7033:7145   */\n    tag_160:\n        /* \"#utility.yul\":7154:7206   */\n      tag_162\n        /* \"#utility.yul\":7199:7205   */\n      dup5\n        /* \"#utility.yul\":7194:7197   */\n      dup3\n        /* \"#utility.yul\":7189:7192   */\n      dup6\n        /* \"#utility.yul\":7154:7206   */\n      tag_56\n      jump\t// in\n    tag_162:\n        /* \"#utility.yul\":6873:7212   */\n      pop\n        /* \"#utility.yul\":6778:7212   */\n      swap4\n      swap3\n      pop\n      pop\n      pop\n      jump\t// out\n        /* \"#utility.yul\":7232:7587   */\n    tag_76:\n        /* \"#utility.yul\":7299:7304   */\n      0x00\n        /* \"#utility.yul\":7348:7351   */\n      dup3\n        /* \"#utility.yul\":7341:7345   */\n      0x1f\n        /* \"#utility.yul\":7333:7339   */\n      dup4\n        /* \"#utility.yul\":7329:7346   */\n      add\n        /* \"#utility.yul\":7325:7352   */\n      slt\n        /* \"#utility.yul\":7315:7437   */\n      tag_164\n      jumpi\n        /* \"#utility.yul\":7356:7435   */\n      tag_165\n      tag_60\n      jump\t// in\n    tag_165:\n        /* \"#utility.yul\":7315:7437   */\n    tag_164:\n        /* \"#utility.yul\":7466:7472   */\n      dup2\n        /* \"#utility.yul\":7460:7473   */\n      mload\n        /* \"#utility.yul\":7491:7581   */\n      tag_166\n        /* \"#utility.yul\":7577:7580   */\n      dup5\n        /* \"#utility.yul\":7569:7575   */\n      dup3\n        /* \"#utility.yul\":7562:7566   */\n      0x20\n        /* \"#utility.yul\":7554:7560   */\n      dup7\n        /* \"#utility.yul\":7550:7567   */\n      add\n        /* \"#utility.yul\":7491:7581   */\n      tag_75\n      jump\t// in\n    tag_166:\n        /* \"#utility.yul\":7482:7581   */\n      swap2\n      pop\n        /* \"#utility.yul\":7305:7587   */\n      pop\n        /* \"#utility.yul\":7232:7587   */\n      swap3\n      swap2\n      pop\n      pop\n      jump\t// out\n        /* \"#utility.yul\":7593:7736   */\n    tag_77:\n        /* \"#utility.yul\":7650:7655   */\n      0x00\n        /* \"#utility.yul\":7681:7687   */\n      dup2\n        /* \"#utility.yul\":7675:7688   */\n      mload\n        /* \"#utility.yul\":7666:7688   */\n      swap1\n      pop\n        /* \"#utility.yul\":7697:7730   */\n      tag_168\n        /* \"#utility.yul\":7724:7729   */\n      dup2\n        /* \"#utility.yul\":7697:7730   */\n      tag_52\n      jump\t// in\n    tag_168:\n        /* \"#utility.yul\":7593:7736   */\n      swap3\n      swap2\n      pop\n      pop\n      jump\t// out\n        /* \"#utility.yul\":7742:8422   */\n    tag_32:\n        /* \"#utility.yul\":7831:7837   */\n      0x00\n        /* \"#utility.yul\":7839:7845   */\n      dup1\n        /* \"#utility.yul\":7888:7890   */\n      0x40\n        /* \"#utility.yul\":7876:7885   */\n      dup4\n        /* \"#utility.yul\":7867:7874   */\n      dup6\n        /* \"#utility.yul\":7863:7886   */\n      sub\n        /* \"#utility.yul\":7859:7891   */\n      slt\n        /* \"#utility.yul\":7856:7975   */\n      iszero\n      tag_170\n      jumpi\n        /* \"#utility.yul\":7894:7973   */\n      tag_171\n      tag_49\n      jump\t// in\n    tag_171:\n        /* \"#utility.yul\":7856:7975   */\n    tag_170:\n        /* \"#utility.yul\":8035:8036   */\n      0x00\n        /* \"#utility.yul\":8024:8033   */\n      dup4\n        /* \"#utility.yul\":8020:8037   */\n      add\n        /* \"#utility.yul\":8014:8038   */\n      mload\n        /* \"#utility.yul\":8065:8083   */\n      0xffffffffffffffff\n        /* \"#utility.yul\":8057:8063   */\n      dup2\n        /* \"#utility.yul\":8054:8084   */\n      gt\n        /* \"#utility.yul\":8051:8168   */\n      iszero\n      tag_172\n      jumpi\n        /* \"#utility.yul\":8087:8166   */\n      tag_173\n      tag_50\n      jump\t// in\n    tag_173:\n        /* \"#utility.yul\":8051:8168   */\n    tag_172:\n        /* \"#utility.yul\":8192:8266   */\n      tag_174\n        /* \"#utility.yul\":8258:8265   */\n      dup6\n        /* \"#utility.yul\":8249:8255   */\n      dup3\n        /* \"#utility.yul\":8238:8247   */\n      dup7\n        /* \"#utility.yul\":8234:8256   */\n      add\n        /* \"#utility.yul\":8192:8266   */\n      tag_76\n      jump\t// in\n    tag_174:\n        /* \"#utility.yul\":8182:8266   */\n      swap3\n      pop\n        /* \"#utility.yul\":7985:8276   */\n      pop\n        /* \"#utility.yul\":8315:8317   */\n      0x20\n        /* \"#utility.yul\":8341:8405   */\n      tag_175\n        /* \"#utility.yul\":8397:8404   */\n      dup6\n        /* \"#utility.yul\":8388:8394   */\n      dup3\n        /* \"#utility.yul\":8377:8386   */\n      dup7\n        /* \"#utility.yul\":8373:8395   */\n      add\n        /* \"#utility.yul\":8341:8405   */\n      tag_77\n      jump\t// in\n    tag_175:\n        /* \"#utility.yul\":8331:8405   */\n      swap2\n      pop\n        /* \"#utility.yul\":8286:8415   */\n      pop\n        /* \"#utility.yul\":7742:8422   */\n      swap3\n      pop\n      swap3\n      swap1\n      pop\n      jump\t// out\n    stop\n\n    sub_0: assembly {\n            /* \"New2/A1.sol\":62:644  contract SimpleStorage{... */\n          mstore(0x40, 0x80)\n          callvalue\n          dup1\n          iszero\n          tag_1\n          jumpi\n          0x00\n          dup1\n          revert\n        tag_1:\n          pop\n          dataSize(sub_0)\n          dup1\n          dataOffset(sub_0)\n          0x00\n          codecopy\n          0x00\n          return\n        stop\n\n        sub_0: assembly {\n                /* \"New2/A1.sol\":62:644  contract SimpleStorage{... */\n              mstore(0x40, 0x80)\n              callvalue\n              dup1\n              iszero\n              tag_1\n              jumpi\n              0x00\n              dup1\n              revert\n            tag_1:\n              pop\n              jumpi(tag_2, lt(calldatasize, 0x04))\n              shr(0xe0, calldataload(0x00))\n              dup1\n              0x4f995d08\n              eq\n              tag_3\n              jumpi\n              dup1\n              0x795fff1d\n              eq\n              tag_4\n              jumpi\n              dup1\n              0xaa598f93\n              eq\n              tag_5\n              jumpi\n              dup1\n              0xc489d1c2\n              eq\n              tag_6\n              jumpi\n            tag_2:\n              0x00\n              dup1\n              revert\n                /* \"New2/A1.sol\":526:641  function getPeople() public view returns(string memory, uint256){... */\n            tag_3:\n              tag_7\n              tag_8\n              jump\t// in\n            tag_7:\n              mload(0x40)\n              tag_9\n              swap3\n              swap2\n              swap1\n              tag_10\n              jump\t// in\n            tag_9:\n              mload(0x40)\n              dup1\n              swap2\n              sub\n              swap1\n              return\n                /* \"New2/A1.sol\":360:518  function addPeople (string memory _name, uint256 _age) public{... */\n            tag_4:\n              tag_11\n              0x04\n              dup1\n              calldatasize\n              sub\n              dup2\n              add\n              swap1\n              tag_12\n              swap2\n              swap1\n              tag_13\n              jump\t// in\n            tag_12:\n              tag_14\n              jump\t// in\n            tag_11:\n              stop\n                /* \"New2/A1.sol\":278:324  mapping(string => uint256) public nameOfPerson */\n            tag_5:\n              tag_15\n              0x04\n              dup1\n              calldatasize\n              sub\n              dup2\n              add\n              swap1\n              tag_16\n              swap2\n              swap1\n              tag_17\n              jump\t// in\n            tag_16:\n              tag_18\n              jump\t// in\n            tag_15:\n              mload(0x40)\n              tag_19\n              swap2\n              swap1\n              tag_20\n              jump\t// in\n            tag_19:\n              mload(0x40)\n              dup1\n              swap2\n              sub\n              swap1\n              return\n                /* \"New2/A1.sol\":331:351  Person public People */\n            tag_6:\n              tag_21\n              tag_22\n              jump\t// in\n            tag_21:\n              mload(0x40)\n              tag_23\n              swap3\n              swap2\n              swap1\n              tag_10\n              jump\t// in\n            tag_23:\n              mload(0x40)\n              dup1\n              swap2\n              sub\n              swap1\n              return\n                /* \"New2/A1.sol\":526:641  function getPeople() public view returns(string memory, uint256){... */\n            tag_8:\n                /* \"New2/A1.sol\":567:580  string memory */\n              0x60\n                /* \"New2/A1.sol\":582:589  uint256 */\n              0x00\n                /* \"New2/A1.sol\":609:615  People */\n              0x01\n                /* \"New2/A1.sol\":609:620  People.name */\n              0x00\n              add\n                /* \"New2/A1.sol\":622:628  People */\n              0x01\n                /* \"New2/A1.sol\":622:632  People.age */\n              dup1\n              add\n              sload\n                /* \"New2/A1.sol\":601:633  return (People.name, People.age) */\n              dup2\n              dup1\n              sload\n              tag_25\n              swap1\n              tag_26\n              jump\t// in\n            tag_25:\n              dup1\n              0x1f\n              add\n              0x20\n              dup1\n              swap2\n              div\n              mul\n              0x20\n              add\n              mload(0x40)\n              swap1\n              dup2\n              add\n              0x40\n              mstore\n              dup1\n              swap3\n              swap2\n              swap1\n              dup2\n              dup2\n              mstore\n              0x20\n              add\n              dup3\n              dup1\n              sload\n              tag_27\n              swap1\n              tag_26\n              jump\t// in\n            tag_27:\n              dup1\n              iszero\n              tag_28\n              jumpi\n              dup1\n              0x1f\n              lt\n              tag_29\n              jumpi\n              0x0100\n              dup1\n              dup4\n              sload\n              div\n              mul\n              dup4\n              mstore\n              swap2\n              0x20\n              add\n              swap2\n              jump(tag_28)\n            tag_29:\n              dup3\n              add\n              swap2\n              swap1\n              0x00\n              mstore\n              keccak256(0x00, 0x20)\n              swap1\n            tag_30:\n              dup2\n              sload\n              dup2\n              mstore\n              swap1\n              0x01\n              add\n              swap1\n              0x20\n              add\n              dup1\n              dup4\n              gt\n              tag_30\n              jumpi\n              dup3\n              swap1\n              sub\n              0x1f\n              and\n              dup3\n              add\n              swap2\n            tag_28:\n              pop\n              pop\n              pop\n              pop\n              pop\n              swap2\n              pop\n              swap2\n              pop\n              swap2\n              pop\n                /* \"New2/A1.sol\":526:641  function getPeople() public view returns(string memory, uint256){... */\n              swap1\n              swap2\n              jump\t// out\n                /* \"New2/A1.sol\":360:518  function addPeople (string memory _name, uint256 _age) public{... */\n            tag_14:\n                /* \"New2/A1.sol\":441:473  Person({name: _name, age: _age}) */\n              mload(0x40)\n              dup1\n              0x40\n              add\n              0x40\n              mstore\n              dup1\n                /* \"New2/A1.sol\":455:460  _name */\n              dup4\n                /* \"New2/A1.sol\":441:473  Person({name: _name, age: _age}) */\n              dup2\n              mstore\n              0x20\n              add\n                /* \"New2/A1.sol\":467:471  _age */\n              dup3\n                /* \"New2/A1.sol\":441:473  Person({name: _name, age: _age}) */\n              dup2\n              mstore\n              pop\n                /* \"New2/A1.sol\":432:438  People */\n              0x01\n                /* \"New2/A1.sol\":432:473  People = Person({name: _name, age: _age}) */\n              0x00\n              dup3\n              add\n              mload\n              dup2\n              0x00\n              add\n              swap1\n              dup2\n              tag_32\n              swap2\n              swap1\n              tag_33\n              jump\t// in\n            tag_32:\n              pop\n              0x20\n              dup3\n              add\n              mload\n              dup2\n              0x01\n              add\n              sstore\n              swap1\n              pop\n              pop\n                /* \"New2/A1.sol\":506:510  _age */\n              dup1\n                /* \"New2/A1.sol\":484:496  nameOfPerson */\n              0x00\n                /* \"New2/A1.sol\":497:502  _name */\n              dup4\n                /* \"New2/A1.sol\":484:503  nameOfPerson[_name] */\n              mload(0x40)\n              tag_34\n              swap2\n              swap1\n              tag_35\n              jump\t// in\n            tag_34:\n              swap1\n              dup2\n              mstore\n              0x20\n              add\n              mload(0x40)\n              dup1\n              swap2\n              sub\n              swap1\n              keccak256\n                /* \"New2/A1.sol\":484:510  nameOfPerson[_name] = _age */\n              dup2\n              swap1\n              sstore\n              pop\n                /* \"New2/A1.sol\":360:518  function addPeople (string memory _name, uint256 _age) public{... */\n              pop\n              pop\n              jump\t// out\n                /* \"New2/A1.sol\":278:324  mapping(string => uint256) public nameOfPerson */\n            tag_18:\n              0x00\n              dup2\n              dup1\n              mload\n              0x20\n              dup2\n              add\n              dup3\n              add\n              dup1\n              mload\n              dup5\n              dup3\n              mstore\n              0x20\n              dup4\n              add\n              0x20\n              dup6\n              add\n              keccak256\n              dup2\n              dup4\n              mstore\n              dup1\n              swap6\n              pop\n              pop\n              pop\n              pop\n              pop\n              pop\n              0x00\n              swap2\n              pop\n              swap1\n              pop\n              sload\n              dup2\n              jump\t// out\n                /* \"New2/A1.sol\":331:351  Person public People */\n            tag_22:\n              0x01\n              dup1\n              0x00\n              add\n              dup1\n              sload\n              tag_36\n              swap1\n              tag_26\n              jump\t// in\n            tag_36:\n              dup1\n              0x1f\n              add\n              0x20\n              dup1\n              swap2\n              div\n              mul\n              0x20\n              add\n              mload(0x40)\n              swap1\n              dup2\n              add\n              0x40\n              mstore\n              dup1\n              swap3\n              swap2\n              swap1\n              dup2\n              dup2\n              mstore\n              0x20\n              add\n              dup3\n              dup1\n              sload\n              tag_37\n              swap1\n              tag_26\n              jump\t// in\n            tag_37:\n              dup1\n              iszero\n              tag_38\n              jumpi\n              dup1\n              0x1f\n              lt\n              tag_39\n              jumpi\n              0x0100\n              dup1\n              dup4\n              sload\n              div\n              mul\n              dup4\n              mstore\n              swap2\n              0x20\n              add\n              swap2\n              jump(tag_38)\n            tag_39:\n              dup3\n              add\n              swap2\n              swap1\n              0x00\n              mstore\n              keccak256(0x00, 0x20)\n              swap1\n            tag_40:\n              dup2\n              sload\n              dup2\n              mstore\n              swap1\n              0x01\n              add\n              swap1\n              0x20\n              add\n              dup1\n              dup4\n              gt\n              tag_40\n              jumpi\n              dup3\n              swap1\n              sub\n              0x1f\n              and\n              dup3\n              add\n              swap2\n            tag_38:\n              pop\n              pop\n              pop\n              pop\n              pop\n              swap1\n              dup1\n              0x01\n              add\n              sload\n              swap1\n              pop\n              dup3\n              jump\t// out\n                /* \"#utility.yul\":7:106   */\n            tag_41:\n                /* \"#utility.yul\":59:65   */\n              0x00\n                /* \"#utility.yul\":93:98   */\n              dup2\n                /* \"#utility.yul\":87:99   */\n              mload\n                /* \"#utility.yul\":77:99   */\n              swap1\n              pop\n                /* \"#utility.yul\":7:106   */\n              swap2\n              swap1\n              pop\n              jump\t// out\n                /* \"#utility.yul\":112:281   */\n            tag_42:\n                /* \"#utility.yul\":196:207   */\n              0x00\n                /* \"#utility.yul\":230:236   */\n              dup3\n                /* \"#utility.yul\":225:228   */\n              dup3\n                /* \"#utility.yul\":218:237   */\n              mstore\n                /* \"#utility.yul\":270:274   */\n              0x20\n                /* \"#utility.yul\":265:268   */\n              dup3\n                /* \"#utility.yul\":261:275   */\n              add\n                /* \"#utility.yul\":246:275   */\n              swap1\n              pop\n                /* \"#utility.yul\":112:281   */\n              swap3\n              swap2\n              pop\n              pop\n              jump\t// out\n                /* \"#utility.yul\":287:533   */\n            tag_43:\n                /* \"#utility.yul\":368:369   */\n              0x00\n                /* \"#utility.yul\":378:491   */\n            tag_84:\n                /* \"#utility.yul\":392:398   */\n              dup4\n                /* \"#utility.yul\":389:390   */\n              dup2\n                /* \"#utility.yul\":386:399   */\n              lt\n                /* \"#utility.yul\":378:491   */\n              iszero\n              tag_86\n              jumpi\n                /* \"#utility.yul\":477:478   */\n              dup1\n                /* \"#utility.yul\":472:475   */\n              dup3\n                /* \"#utility.yul\":468:479   */\n              add\n                /* \"#utility.yul\":462:480   */\n              mload\n                /* \"#utility.yul\":458:459   */\n              dup2\n                /* \"#utility.yul\":453:456   */\n              dup5\n                /* \"#utility.yul\":449:460   */\n              add\n                /* \"#utility.yul\":442:481   */\n              mstore\n                /* \"#utility.yul\":414:416   */\n              0x20\n                /* \"#utility.yul\":411:412   */\n              dup2\n                /* \"#utility.yul\":407:417   */\n              add\n                /* \"#utility.yul\":402:417   */\n              swap1\n              pop\n                /* \"#utility.yul\":378:491   */\n              jump(tag_84)\n            tag_86:\n                /* \"#utility.yul\":525:526   */\n              0x00\n                /* \"#utility.yul\":516:522   */\n              dup5\n                /* \"#utility.yul\":511:514   */\n              dup5\n                /* \"#utility.yul\":507:523   */\n              add\n                /* \"#utility.yul\":500:527   */\n              mstore\n                /* \"#utility.yul\":349:533   */\n              pop\n                /* \"#utility.yul\":287:533   */\n              pop\n              pop\n              pop\n              jump\t// out\n                /* \"#utility.yul\":539:641   */\n            tag_44:\n                /* \"#utility.yul\":580:586   */\n              0x00\n                /* \"#utility.yul\":631:633   */\n              0x1f\n                /* \"#utility.yul\":627:634   */\n              not\n                /* \"#utility.yul\":622:624   */\n              0x1f\n                /* \"#utility.yul\":615:620   */\n              dup4\n                /* \"#utility.yul\":611:625   */\n              add\n                /* \"#utility.yul\":607:635   */\n              and\n                /* \"#utility.yul\":597:635   */\n              swap1\n              pop\n                /* \"#utility.yul\":539:641   */\n              swap2\n              swap1\n              pop\n              jump\t// out\n                /* \"#utility.yul\":647:1024   */\n            tag_45:\n                /* \"#utility.yul\":735:738   */\n              0x00\n                /* \"#utility.yul\":763:802   */\n              tag_89\n                /* \"#utility.yul\":796:801   */\n              dup3\n                /* \"#utility.yul\":763:802   */\n              tag_41\n              jump\t// in\n            tag_89:\n                /* \"#utility.yul\":818:889   */\n              tag_90\n                /* \"#utility.yul\":882:888   */\n              dup2\n                /* \"#utility.yul\":877:880   */\n              dup6\n                /* \"#utility.yul\":818:889   */\n              tag_42\n              jump\t// in\n            tag_90:\n                /* \"#utility.yul\":811:889   */\n              swap4\n              pop\n                /* \"#utility.yul\":898:963   */\n              tag_91\n                /* \"#utility.yul\":956:962   */\n              dup2\n                /* \"#utility.yul\":951:954   */\n              dup6\n                /* \"#utility.yul\":944:948   */\n              0x20\n                /* \"#utility.yul\":937:942   */\n              dup7\n                /* \"#utility.yul\":933:949   */\n              add\n                /* \"#utility.yul\":898:963   */\n              tag_43\n              jump\t// in\n            tag_91:\n                /* \"#utility.yul\":988:1017   */\n              tag_92\n                /* \"#utility.yul\":1010:1016   */\n              dup2\n                /* \"#utility.yul\":988:1017   */\n              tag_44\n              jump\t// in\n            tag_92:\n                /* \"#utility.yul\":983:986   */\n              dup5\n                /* \"#utility.yul\":979:1018   */\n              add\n                /* \"#utility.yul\":972:1018   */\n              swap2\n              pop\n                /* \"#utility.yul\":739:1024   */\n              pop\n                /* \"#utility.yul\":647:1024   */\n              swap3\n              swap2\n              pop\n              pop\n              jump\t// out\n                /* \"#utility.yul\":1030:1107   */\n            tag_46:\n                /* \"#utility.yul\":1067:1074   */\n              0x00\n                /* \"#utility.yul\":1096:1101   */\n              dup2\n                /* \"#utility.yul\":1085:1101   */\n              swap1\n              pop\n                /* \"#utility.yul\":1030:1107   */\n              swap2\n              swap1\n              pop\n              jump\t// out\n                /* \"#utility.yul\":1113:1231   */\n            tag_47:\n                /* \"#utility.yul\":1200:1224   */\n              tag_95\n                /* \"#utility.yul\":1218:1223   */\n              dup2\n                /* \"#utility.yul\":1200:1224   */\n              tag_46\n              jump\t// in\n            tag_95:\n                /* \"#utility.yul\":1195:1198   */\n              dup3\n                /* \"#utility.yul\":1188:1225   */\n              mstore\n                /* \"#utility.yul\":1113:1231   */\n              pop\n              pop\n              jump\t// out\n                /* \"#utility.yul\":1237:1660   */\n            tag_10:\n                /* \"#utility.yul\":1378:1382   */\n              0x00\n                /* \"#utility.yul\":1416:1418   */\n              0x40\n                /* \"#utility.yul\":1405:1414   */\n              dup3\n                /* \"#utility.yul\":1401:1419   */\n              add\n                /* \"#utility.yul\":1393:1419   */\n              swap1\n              pop\n                /* \"#utility.yul\":1465:1474   */\n              dup2\n                /* \"#utility.yul\":1459:1463   */\n              dup2\n                /* \"#utility.yul\":1455:1475   */\n              sub\n                /* \"#utility.yul\":1451:1452   */\n              0x00\n                /* \"#utility.yul\":1440:1449   */\n              dup4\n                /* \"#utility.yul\":1436:1453   */\n              add\n                /* \"#utility.yul\":1429:1476   */\n              mstore\n                /* \"#utility.yul\":1493:1571   */\n              tag_97\n                /* \"#utility.yul\":1566:1570   */\n              dup2\n                /* \"#utility.yul\":1557:1563   */\n              dup6\n                /* \"#utility.yul\":1493:1571   */\n              tag_45\n              jump\t// in\n            tag_97:\n                /* \"#utility.yul\":1485:1571   */\n              swap1\n              pop\n                /* \"#utility.yul\":1581:1653   */\n              tag_98\n                /* \"#utility.yul\":1649:1651   */\n              0x20\n                /* \"#utility.yul\":1638:1647   */\n              dup4\n                /* \"#utility.yul\":1634:1652   */\n              add\n                /* \"#utility.yul\":1625:1631   */\n              dup5\n                /* \"#utility.yul\":1581:1653   */\n              tag_47\n              jump\t// in\n            tag_98:\n                /* \"#utility.yul\":1237:1660   */\n              swap4\n              swap3\n              pop\n              pop\n              pop\n              jump\t// out\n                /* \"#utility.yul\":1666:1741   */\n            tag_48:\n                /* \"#utility.yul\":1699:1705   */\n              0x00\n                /* \"#utility.yul\":1732:1734   */\n              0x40\n                /* \"#utility.yul\":1726:1735   */\n              mload\n                /* \"#utility.yul\":1716:1735   */\n              swap1\n              pop\n                /* \"#utility.yul\":1666:1741   */\n              swap1\n              jump\t// out\n                /* \"#utility.yul\":1747:1864   */\n            tag_49:\n                /* \"#utility.yul\":1856:1857   */\n              0x00\n                /* \"#utility.yul\":1853:1854   */\n              dup1\n                /* \"#utility.yul\":1846:1858   */\n              revert\n                /* \"#utility.yul\":1870:1987   */\n            tag_50:\n                /* \"#utility.yul\":1979:1980   */\n              0x00\n                /* \"#utility.yul\":1976:1977   */\n              dup1\n                /* \"#utility.yul\":1969:1981   */\n              revert\n                /* \"#utility.yul\":1993:2110   */\n            tag_51:\n                /* \"#utility.yul\":2102:2103   */\n              0x00\n                /* \"#utility.yul\":2099:2100   */\n              dup1\n                /* \"#utility.yul\":2092:2104   */\n              revert\n                /* \"#utility.yul\":2116:2233   */\n            tag_52:\n                /* \"#utility.yul\":2225:2226   */\n              0x00\n                /* \"#utility.yul\":2222:2223   */\n              dup1\n                /* \"#utility.yul\":2215:2227   */\n              revert\n                /* \"#utility.yul\":2239:2419   */\n            tag_53:\n                /* \"#utility.yul\":2287:2364   */\n              0x4e487b7100000000000000000000000000000000000000000000000000000000\n                /* \"#utility.yul\":2284:2285   */\n              0x00\n                /* \"#utility.yul\":2277:2365   */\n              mstore\n                /* \"#utility.yul\":2384:2388   */\n              0x41\n                /* \"#utility.yul\":2381:2382   */\n              0x04\n                /* \"#utility.yul\":2374:2389   */\n              mstore\n                /* \"#utility.yul\":2408:2412   */\n              0x24\n                /* \"#utility.yul\":2405:2406   */\n              0x00\n                /* \"#utility.yul\":2398:2413   */\n              revert\n                /* \"#utility.yul\":2425:2706   */\n            tag_54:\n                /* \"#utility.yul\":2508:2535   */\n              tag_106\n                /* \"#utility.yul\":2530:2534   */\n              dup3\n                /* \"#utility.yul\":2508:2535   */\n              tag_44\n              jump\t// in\n            tag_106:\n                /* \"#utility.yul\":2500:2506   */\n              dup2\n                /* \"#utility.yul\":2496:2536   */\n              add\n                /* \"#utility.yul\":2638:2644   */\n              dup2\n                /* \"#utility.yul\":2626:2636   */\n              dup2\n                /* \"#utility.yul\":2623:2645   */\n              lt\n                /* \"#utility.yul\":2602:2620   */\n              0xffffffffffffffff\n                /* \"#utility.yul\":2590:2600   */\n              dup3\n                /* \"#utility.yul\":2587:2621   */\n              gt\n                /* \"#utility.yul\":2584:2646   */\n              or\n                /* \"#utility.yul\":2581:2669   */\n              iszero\n              tag_107\n              jumpi\n                /* \"#utility.yul\":2649:2667   */\n              tag_108\n              tag_53\n              jump\t// in\n            tag_108:\n                /* \"#utility.yul\":2581:2669   */\n            tag_107:\n                /* \"#utility.yul\":2689:2699   */\n              dup1\n                /* \"#utility.yul\":2685:2687   */\n              0x40\n                /* \"#utility.yul\":2678:2700   */\n              mstore\n                /* \"#utility.yul\":2468:2706   */\n              pop\n                /* \"#utility.yul\":2425:2706   */\n              pop\n              pop\n              jump\t// out\n                /* \"#utility.yul\":2712:2841   */\n            tag_55:\n                /* \"#utility.yul\":2746:2752   */\n              0x00\n                /* \"#utility.yul\":2773:2793   */\n              tag_110\n              tag_48\n              jump\t// in\n            tag_110:\n                /* \"#utility.yul\":2763:2793   */\n              swap1\n              pop\n                /* \"#utility.yul\":2802:2835   */\n              tag_111\n                /* \"#utility.yul\":2830:2834   */\n              dup3\n                /* \"#utility.yul\":2822:2828   */\n              dup3\n                /* \"#utility.yul\":2802:2835   */\n              tag_54\n              jump\t// in\n            tag_111:\n                /* \"#utility.yul\":2712:2841   */\n              swap2\n              swap1\n              pop\n              jump\t// out\n                /* \"#utility.yul\":2847:3155   */\n            tag_56:\n                /* \"#utility.yul\":2909:2913   */\n              0x00\n                /* \"#utility.yul\":2999:3017   */\n              0xffffffffffffffff\n                /* \"#utility.yul\":2991:2997   */\n              dup3\n                /* \"#utility.yul\":2988:3018   */\n              gt\n                /* \"#utility.yul\":2985:3041   */\n              iszero\n              tag_113\n              jumpi\n                /* \"#utility.yul\":3021:3039   */\n              tag_114\n              tag_53\n              jump\t// in\n            tag_114:\n                /* \"#utility.yul\":2985:3041   */\n            tag_113:\n                /* \"#utility.yul\":3059:3088   */\n              tag_115\n                /* \"#utility.yul\":3081:3087   */\n              dup3\n                /* \"#utility.yul\":3059:3088   */\n              tag_44\n              jump\t// in\n            tag_115:\n                /* \"#utility.yul\":3051:3088   */\n              swap1\n              pop\n                /* \"#utility.yul\":3143:3147   */\n              0x20\n                /* \"#utility.yul\":3137:3141   */\n              dup2\n                /* \"#utility.yul\":3133:3148   */\n              add\n                /* \"#utility.yul\":3125:3148   */\n              swap1\n              pop\n                /* \"#utility.yul\":2847:3155   */\n              swap2\n              swap1\n              pop\n              jump\t// out\n                /* \"#utility.yul\":3161:3307   */\n            tag_57:\n                /* \"#utility.yul\":3258:3264   */\n              dup3\n                /* \"#utility.yul\":3253:3256   */\n              dup2\n                /* \"#utility.yul\":3248:3251   */\n              dup4\n                /* \"#utility.yul\":3235:3265   */\n              calldatacopy\n                /* \"#utility.yul\":3299:3300   */\n              0x00\n                /* \"#utility.yul\":3290:3296   */\n              dup4\n                /* \"#utility.yul\":3285:3288   */\n              dup4\n                /* \"#utility.yul\":3281:3297   */\n              add\n                /* \"#utility.yul\":3274:3301   */\n              mstore\n                /* \"#utility.yul\":3161:3307   */\n              pop\n              pop\n              pop\n              jump\t// out\n                /* \"#utility.yul\":3313:3738   */\n            tag_58:\n                /* \"#utility.yul\":3391:3396   */\n              0x00\n                /* \"#utility.yul\":3416:3482   */\n              tag_118\n                /* \"#utility.yul\":3432:3481   */\n              tag_119\n                /* \"#utility.yul\":3474:3480   */\n              dup5\n                /* \"#utility.yul\":3432:3481   */\n              tag_56\n              jump\t// in\n            tag_119:\n                /* \"#utility.yul\":3416:3482   */\n              tag_55\n              jump\t// in\n            tag_118:\n                /* \"#utility.yul\":3407:3482   */\n              swap1\n              pop\n                /* \"#utility.yul\":3505:3511   */\n              dup3\n                /* \"#utility.yul\":3498:3503   */\n              dup2\n                /* \"#utility.yul\":3491:3512   */\n              mstore\n                /* \"#utility.yul\":3543:3547   */\n              0x20\n                /* \"#utility.yul\":3536:3541   */\n              dup2\n                /* \"#utility.yul\":3532:3548   */\n              add\n                /* \"#utility.yul\":3581:3584   */\n              dup5\n                /* \"#utility.yul\":3572:3578   */\n              dup5\n                /* \"#utility.yul\":3567:3570   */\n              dup5\n                /* \"#utility.yul\":3563:3579   */\n              add\n                /* \"#utility.yul\":3560:3585   */\n              gt\n                /* \"#utility.yul\":3557:3669   */\n              iszero\n              tag_120\n              jumpi\n                /* \"#utility.yul\":3588:3667   */\n              tag_121\n              tag_52\n              jump\t// in\n            tag_121:\n                /* \"#utility.yul\":3557:3669   */\n            tag_120:\n                /* \"#utility.yul\":3678:3732   */\n              tag_122\n                /* \"#utility.yul\":3725:3731   */\n              dup5\n                /* \"#utility.yul\":3720:3723   */\n              dup3\n                /* \"#utility.yul\":3715:3718   */\n              dup6\n                /* \"#utility.yul\":3678:3732   */\n              tag_57\n              jump\t// in\n            tag_122:\n                /* \"#utility.yul\":3397:3738   */\n              pop\n                /* \"#utility.yul\":3313:3738   */\n              swap4\n              swap3\n              pop\n              pop\n              pop\n              jump\t// out\n                /* \"#utility.yul\":3758:4098   */\n            tag_59:\n                /* \"#utility.yul\":3814:3819   */\n              0x00\n                /* \"#utility.yul\":3863:3866   */\n              dup3\n                /* \"#utility.yul\":3856:3860   */\n              0x1f\n                /* \"#utility.yul\":3848:3854   */\n              dup4\n                /* \"#utility.yul\":3844:3861   */\n              add\n                /* \"#utility.yul\":3840:3867   */\n              slt\n                /* \"#utility.yul\":3830:3952   */\n              tag_124\n              jumpi\n                /* \"#utility.yul\":3871:3950   */\n              tag_125\n              tag_51\n              jump\t// in\n            tag_125:\n                /* \"#utility.yul\":3830:3952   */\n            tag_124:\n                /* \"#utility.yul\":3988:3994   */\n              dup2\n                /* \"#utility.yul\":3975:3995   */\n              calldataload\n                /* \"#utility.yul\":4013:4092   */\n              tag_126\n                /* \"#utility.yul\":4088:4091   */\n              dup5\n                /* \"#utility.yul\":4080:4086   */\n              dup3\n                /* \"#utility.yul\":4073:4077   */\n              0x20\n                /* \"#utility.yul\":4065:4071   */\n              dup7\n                /* \"#utility.yul\":4061:4078   */\n              add\n                /* \"#utility.yul\":4013:4092   */\n              tag_58\n              jump\t// in\n            tag_126:\n                /* \"#utility.yul\":4004:4092   */\n              swap2\n              pop\n                /* \"#utility.yul\":3820:4098   */\n              pop\n                /* \"#utility.yul\":3758:4098   */\n              swap3\n              swap2\n              pop\n              pop\n              jump\t// out\n                /* \"#utility.yul\":4104:4226   */\n            tag_60:\n                /* \"#utility.yul\":4177:4201   */\n              tag_128\n                /* \"#utility.yul\":4195:4200   */\n              dup2\n                /* \"#utility.yul\":4177:4201   */\n              tag_46\n              jump\t// in\n            tag_128:\n                /* \"#utility.yul\":4170:4175   */\n              dup2\n                /* \"#utility.yul\":4167:4202   */\n              eq\n                /* \"#utility.yul\":4157:4220   */\n              tag_129\n              jumpi\n                /* \"#utility.yul\":4216:4217   */\n              0x00\n                /* \"#utility.yul\":4213:4214   */\n              dup1\n                /* \"#utility.yul\":4206:4218   */\n              revert\n                /* \"#utility.yul\":4157:4220   */\n            tag_129:\n                /* \"#utility.yul\":4104:4226   */\n              pop\n              jump\t// out\n                /* \"#utility.yul\":4232:4371   */\n            tag_61:\n                /* \"#utility.yul\":4278:4283   */\n              0x00\n                /* \"#utility.yul\":4316:4322   */\n              dup2\n                /* \"#utility.yul\":4303:4323   */\n              calldataload\n                /* \"#utility.yul\":4294:4323   */\n              swap1\n              pop\n                /* \"#utility.yul\":4332:4365   */\n              tag_131\n                /* \"#utility.yul\":4359:4364   */\n              dup2\n                /* \"#utility.yul\":4332:4365   */\n              tag_60\n              jump\t// in\n            tag_131:\n                /* \"#utility.yul\":4232:4371   */\n              swap3\n              swap2\n              pop\n              pop\n              jump\t// out\n                /* \"#utility.yul\":4377:5031   */\n            tag_13:\n                /* \"#utility.yul\":4455:4461   */\n              0x00\n                /* \"#utility.yul\":4463:4469   */\n              dup1\n                /* \"#utility.yul\":4512:4514   */\n              0x40\n                /* \"#utility.yul\":4500:4509   */\n              dup4\n                /* \"#utility.yul\":4491:4498   */\n              dup6\n                /* \"#utility.yul\":4487:4510   */\n              sub\n                /* \"#utility.yul\":4483:4515   */\n              slt\n                /* \"#utility.yul\":4480:4599   */\n              iszero\n              tag_133\n              jumpi\n                /* \"#utility.yul\":4518:4597   */\n              tag_134\n              tag_49\n              jump\t// in\n            tag_134:\n                /* \"#utility.yul\":4480:4599   */\n            tag_133:\n                /* \"#utility.yul\":4666:4667   */\n              0x00\n                /* \"#utility.yul\":4655:4664   */\n              dup4\n                /* \"#utility.yul\":4651:4668   */\n              add\n                /* \"#utility.yul\":4638:4669   */\n              calldataload\n                /* \"#utility.yul\":4696:4714   */\n              0xffffffffffffffff\n                /* \"#utility.yul\":4688:4694   */\n              dup2\n                /* \"#utility.yul\":4685:4715   */\n              gt\n                /* \"#utility.yul\":4682:4799   */\n              iszero\n              tag_135\n              jumpi\n                /* \"#utility.yul\":4718:4797   */\n              tag_136\n              tag_50\n              jump\t// in\n            tag_136:\n                /* \"#utility.yul\":4682:4799   */\n            tag_135:\n                /* \"#utility.yul\":4823:4886   */\n              tag_137\n                /* \"#utility.yul\":4878:4885   */\n              dup6\n                /* \"#utility.yul\":4869:4875   */\n              dup3\n                /* \"#utility.yul\":4858:4867   */\n              dup7\n                /* \"#utility.yul\":4854:4876   */\n              add\n                /* \"#utility.yul\":4823:4886   */\n              tag_59\n              jump\t// in\n            tag_137:\n                /* \"#utility.yul\":4813:4886   */\n              swap3\n              pop\n                /* \"#utility.yul\":4609:4896   */\n              pop\n                /* \"#utility.yul\":4935:4937   */\n              0x20\n                /* \"#utility.yul\":4961:5014   */\n              tag_138\n                /* \"#utility.yul\":5006:5013   */\n              dup6\n                /* \"#utility.yul\":4997:5003   */\n              dup3\n                /* \"#utility.yul\":4986:4995   */\n              dup7\n                /* \"#utility.yul\":4982:5004   */\n              add\n                /* \"#utility.yul\":4961:5014   */\n              tag_61\n              jump\t// in\n            tag_138:\n                /* \"#utility.yul\":4951:5014   */\n              swap2\n              pop\n                /* \"#utility.yul\":4906:5024   */\n              pop\n                /* \"#utility.yul\":4377:5031   */\n              swap3\n              pop\n              swap3\n              swap1\n              pop\n              jump\t// out\n                /* \"#utility.yul\":5037:5546   */\n            tag_17:\n                /* \"#utility.yul\":5106:5112   */\n              0x00\n                /* \"#utility.yul\":5155:5157   */\n              0x20\n                /* \"#utility.yul\":5143:5152   */\n              dup3\n                /* \"#utility.yul\":5134:5141   */\n              dup5\n                /* \"#utility.yul\":5130:5153   */\n              sub\n                /* \"#utility.yul\":5126:5158   */\n              slt\n                /* \"#utility.yul\":5123:5242   */\n              iszero\n              tag_140\n              jumpi\n                /* \"#utility.yul\":5161:5240   */\n              tag_141\n              tag_49\n              jump\t// in\n            tag_141:\n                /* \"#utility.yul\":5123:5242   */\n            tag_140:\n                /* \"#utility.yul\":5309:5310   */\n              0x00\n                /* \"#utility.yul\":5298:5307   */\n              dup3\n                /* \"#utility.yul\":5294:5311   */\n              add\n                /* \"#utility.yul\":5281:5312   */\n              calldataload\n                /* \"#utility.yul\":5339:5357   */\n              0xffffffffffffffff\n                /* \"#utility.yul\":5331:5337   */\n              dup2\n                /* \"#utility.yul\":5328:5358   */\n              gt\n                /* \"#utility.yul\":5325:5442   */\n              iszero\n              tag_142\n              jumpi\n                /* \"#utility.yul\":5361:5440   */\n              tag_143\n              tag_50\n              jump\t// in\n            tag_143:\n                /* \"#utility.yul\":5325:5442   */\n            tag_142:\n                /* \"#utility.yul\":5466:5529   */\n              tag_144\n                /* \"#utility.yul\":5521:5528   */\n              dup5\n                /* \"#utility.yul\":5512:5518   */\n              dup3\n                /* \"#utility.yul\":5501:5510   */\n              dup6\n                /* \"#utility.yul\":5497:5519   */\n              add\n                /* \"#utility.yul\":5466:5529   */\n              tag_59\n              jump\t// in\n            tag_144:\n                /* \"#utility.yul\":5456:5529   */\n              swap2\n              pop\n                /* \"#utility.yul\":5252:5539   */\n              pop\n                /* \"#utility.yul\":5037:5546   */\n              swap3\n              swap2\n              pop\n              pop\n              jump\t// out\n                /* \"#utility.yul\":5552:5774   */\n            tag_20:\n                /* \"#utility.yul\":5645:5649   */\n              0x00\n                /* \"#utility.yul\":5683:5685   */\n              0x20\n                /* \"#utility.yul\":5672:5681   */\n              dup3\n                /* \"#utility.yul\":5668:5686   */\n              add\n                /* \"#utility.yul\":5660:5686   */\n              swap1\n              pop\n                /* \"#utility.yul\":5696:5767   */\n              tag_146\n                /* \"#utility.yul\":5764:5765   */\n              0x00\n                /* \"#utility.yul\":5753:5762   */\n              dup4\n                /* \"#utility.yul\":5749:5766   */\n              add\n                /* \"#utility.yul\":5740:5746   */\n              dup5\n                /* \"#utility.yul\":5696:5767   */\n              tag_47\n              jump\t// in\n            tag_146:\n                /* \"#utility.yul\":5552:5774   */\n              swap3\n              swap2\n              pop\n              pop\n              jump\t// out\n                /* \"#utility.yul\":5780:5960   */\n            tag_62:\n                /* \"#utility.yul\":5828:5905   */\n              0x4e487b7100000000000000000000000000000000000000000000000000000000\n                /* \"#utility.yul\":5825:5826   */\n              0x00\n                /* \"#utility.yul\":5818:5906   */\n              mstore\n                /* \"#utility.yul\":5925:5929   */\n              0x22\n                /* \"#utility.yul\":5922:5923   */\n              0x04\n                /* \"#utility.yul\":5915:5930   */\n              mstore\n                /* \"#utility.yul\":5949:5953   */\n              0x24\n                /* \"#utility.yul\":5946:5947   */\n              0x00\n                /* \"#utility.yul\":5939:5954   */\n              revert\n                /* \"#utility.yul\":5966:6286   */\n            tag_26:\n                /* \"#utility.yul\":6010:6016   */\n              0x00\n                /* \"#utility.yul\":6047:6048   */\n              0x02\n                /* \"#utility.yul\":6041:6045   */\n              dup3\n                /* \"#utility.yul\":6037:6049   */\n              div\n                /* \"#utility.yul\":6027:6049   */\n              swap1\n              pop\n                /* \"#utility.yul\":6094:6095   */\n              0x01\n                /* \"#utility.yul\":6088:6092   */\n              dup3\n                /* \"#utility.yul\":6084:6096   */\n              and\n                /* \"#utility.yul\":6115:6133   */\n              dup1\n                /* \"#utility.yul\":6105:6186   */\n              tag_149\n              jumpi\n                /* \"#utility.yul\":6171:6175   */\n              0x7f\n                /* \"#utility.yul\":6163:6169   */\n              dup3\n                /* \"#utility.yul\":6159:6176   */\n              and\n                /* \"#utility.yul\":6149:6176   */\n              swap2\n              pop\n                /* \"#utility.yul\":6105:6186   */\n            tag_149:\n                /* \"#utility.yul\":6233:6235   */\n              0x20\n                /* \"#utility.yul\":6225:6231   */\n              dup3\n                /* \"#utility.yul\":6222:6236   */\n              lt\n                /* \"#utility.yul\":6202:6220   */\n              dup2\n                /* \"#utility.yul\":6199:6237   */\n              sub\n                /* \"#utility.yul\":6196:6280   */\n              tag_150\n              jumpi\n                /* \"#utility.yul\":6252:6270   */\n              tag_151\n              tag_62\n              jump\t// in\n            tag_151:\n                /* \"#utility.yul\":6196:6280   */\n            tag_150:\n                /* \"#utility.yul\":6017:6286   */\n              pop\n                /* \"#utility.yul\":5966:6286   */\n              swap2\n              swap1\n              pop\n              jump\t// out\n                /* \"#utility.yul\":6292:6433   */\n            tag_63:\n                /* \"#utility.yul\":6341:6345   */\n              0x00\n                /* \"#utility.yul\":6364:6367   */\n              dup2\n                /* \"#utility.yul\":6356:6367   */\n              swap1\n              pop\n                /* \"#utility.yul\":6387:6390   */\n              dup2\n                /* \"#utility.yul\":6384:6385   */\n              0x00\n                /* \"#utility.yul\":6377:6391   */\n              mstore\n                /* \"#utility.yul\":6421:6425   */\n              0x20\n                /* \"#utility.yul\":6418:6419   */\n              0x00\n                /* \"#utility.yul\":6408:6426   */\n              keccak256\n                /* \"#utility.yul\":6400:6426   */\n              swap1\n              pop\n                /* \"#utility.yul\":6292:6433   */\n              swap2\n              swap1\n              pop\n              jump\t// out\n                /* \"#utility.yul\":6439:6532   */\n            tag_64:\n                /* \"#utility.yul\":6476:6482   */\n              0x00\n                /* \"#utility.yul\":6523:6525   */\n              0x20\n                /* \"#utility.yul\":6518:6520   */\n              0x1f\n                /* \"#utility.yul\":6511:6516   */\n              dup4\n                /* \"#utility.yul\":6507:6521   */\n              add\n                /* \"#utility.yul\":6503:6526   */\n              div\n                /* \"#utility.yul\":6493:6526   */\n              swap1\n              pop\n                /* \"#utility.yul\":6439:6532   */\n              swap2\n              swap1\n              pop\n              jump\t// out\n                /* \"#utility.yul\":6538:6645   */\n            tag_65:\n                /* \"#utility.yul\":6582:6590   */\n              0x00\n                /* \"#utility.yul\":6632:6637   */\n              dup3\n                /* \"#utility.yul\":6626:6630   */\n              dup3\n                /* \"#utility.yul\":6622:6638   */\n              shl\n                /* \"#utility.yul\":6601:6638   */\n              swap1\n              pop\n                /* \"#utility.yul\":6538:6645   */\n              swap3\n              swap2\n              pop\n              pop\n              jump\t// out\n                /* \"#utility.yul\":6651:7044   */\n            tag_66:\n                /* \"#utility.yul\":6720:6726   */\n              0x00\n                /* \"#utility.yul\":6770:6771   */\n              0x08\n                /* \"#utility.yul\":6758:6768   */\n              dup4\n                /* \"#utility.yul\":6754:6772   */\n              mul\n                /* \"#utility.yul\":6793:6890   */\n              tag_156\n                /* \"#utility.yul\":6823:6889   */\n              0xffffffffffffffffffffffffffffffffffffffffffffffffffffffffffffffff\n                /* \"#utility.yul\":6812:6821   */\n              dup3\n                /* \"#utility.yul\":6793:6890   */\n              tag_65\n              jump\t// in\n            tag_156:\n                /* \"#utility.yul\":6911:6950   */\n              tag_157\n                /* \"#utility.yul\":6941:6949   */\n              dup7\n                /* \"#utility.yul\":6930:6939   */\n              dup4\n                /* \"#utility.yul\":6911:6950   */\n              tag_65\n              jump\t// in\n            tag_157:\n                /* \"#utility.yul\":6899:6950   */\n              swap6\n              pop\n                /* \"#utility.yul\":6983:6987   */\n              dup1\n                /* \"#utility.yul\":6979:6988   */\n              not\n                /* \"#utility.yul\":6972:6977   */\n              dup5\n                /* \"#utility.yul\":6968:6989   */\n              and\n                /* \"#utility.yul\":6959:6989   */\n              swap4\n              pop\n                /* \"#utility.yul\":7032:7036   */\n              dup1\n                /* \"#utility.yul\":7022:7030   */\n              dup7\n                /* \"#utility.yul\":7018:7037   */\n              and\n                /* \"#utility.yul\":7011:7016   */\n              dup5\n                /* \"#utility.yul\":7008:7038   */\n              or\n                /* \"#utility.yul\":6998:7038   */\n              swap3\n              pop\n                /* \"#utility.yul\":6727:7044   */\n              pop\n              pop\n                /* \"#utility.yul\":6651:7044   */\n              swap4\n              swap3\n              pop\n              pop\n              pop\n              jump\t// out\n                /* \"#utility.yul\":7050:7110   */\n            tag_67:\n                /* \"#utility.yul\":7078:7081   */\n              0x00\n                /* \"#utility.yul\":7099:7104   */\n              dup2\n                /* \"#utility.yul\":7092:7104   */\n              swap1\n              pop\n                /* \"#utility.yul\":7050:7110   */\n              swap2\n              swap1\n              pop\n              jump\t// out\n                /* \"#utility.yul\":7116:7258   */\n            tag_68:\n                /* \"#utility.yul\":7166:7175   */\n              0x00\n                /* \"#utility.yul\":7199:7252   */\n              tag_160\n                /* \"#utility.yul\":7217:7251   */\n              tag_161\n                /* \"#utility.yul\":7226:7250   */\n              tag_162\n                /* \"#utility.yul\":7244:7249   */\n              dup5\n                /* \"#utility.yul\":7226:7250   */\n              tag_46\n              jump\t// in\n            tag_162:\n                /* \"#utility.yul\":7217:7251   */\n              tag_67\n              jump\t// in\n            tag_161:\n                /* \"#utility.yul\":7199:7252   */\n              tag_46\n              jump\t// in\n            tag_160:\n                /* \"#utility.yul\":7186:7252   */\n              swap1\n              pop\n                /* \"#utility.yul\":7116:7258   */\n              swap2\n              swap1\n              pop\n              jump\t// out\n                /* \"#utility.yul\":7264:7339   */\n            tag_69:\n                /* \"#utility.yul\":7307:7310   */\n              0x00\n                /* \"#utility.yul\":7328:7333   */\n              dup2\n                /* \"#utility.yul\":7321:7333   */\n              swap1\n              pop\n                /* \"#utility.yul\":7264:7339   */\n              swap2\n              swap1\n              pop\n              jump\t// out\n                /* \"#utility.yul\":7345:7614   */\n            tag_70:\n                /* \"#utility.yul\":7455:7494   */\n              tag_165\n                /* \"#utility.yul\":7486:7493   */\n              dup4\n                /* \"#utility.yul\":7455:7494   */\n              tag_68\n              jump\t// in\n            tag_165:\n                /* \"#utility.yul\":7516:7607   */\n              tag_166\n                /* \"#utility.yul\":7565:7606   */\n              tag_167\n                /* \"#utility.yul\":7589:7605   */\n              dup3\n                /* \"#utility.yul\":7565:7606   */\n              tag_69\n              jump\t// in\n            tag_167:\n                /* \"#utility.yul\":7557:7563   */\n              dup5\n                /* \"#utility.yul\":7550:7554   */\n              dup5\n                /* \"#utility.yul\":7544:7555   */\n              sload\n                /* \"#utility.yul\":7516:7607   */\n              tag_66\n              jump\t// in\n            tag_166:\n                /* \"#utility.yul\":7510:7514   */\n              dup3\n                /* \"#utility.yul\":7503:7608   */\n              sstore\n                /* \"#utility.yul\":7421:7614   */\n              pop\n                /* \"#utility.yul\":7345:7614   */\n              pop\n              pop\n              pop\n              jump\t// out\n                /* \"#utility.yul\":7620:7693   */\n            tag_71:\n                /* \"#utility.yul\":7665:7668   */\n              0x00\n                /* \"#utility.yul\":7620:7693   */\n              swap1\n              jump\t// out\n                /* \"#utility.yul\":7699:7888   */\n            tag_72:\n                /* \"#utility.yul\":7776:7808   */\n              tag_170\n              tag_71\n              jump\t// in\n            tag_170:\n                /* \"#utility.yul\":7817:7882   */\n              tag_171\n                /* \"#utility.yul\":7875:7881   */\n              dup2\n                /* \"#utility.yul\":7867:7873   */\n              dup5\n                /* \"#utility.yul\":7861:7865   */\n              dup5\n                /* \"#utility.yul\":7817:7882   */\n              tag_70\n              jump\t// in\n            tag_171:\n                /* \"#utility.yul\":7752:7888   */\n              pop\n                /* \"#utility.yul\":7699:7888   */\n              pop\n              pop\n              jump\t// out\n                /* \"#utility.yul\":7894:8080   */\n            tag_73:\n                /* \"#utility.yul\":7954:8074   */\n            tag_173:\n                /* \"#utility.yul\":7971:7974   */\n              dup2\n                /* \"#utility.yul\":7964:7969   */\n              dup2\n                /* \"#utility.yul\":7961:7975   */\n              lt\n                /* \"#utility.yul\":7954:8074   */\n              iszero\n              tag_175\n              jumpi\n                /* \"#utility.yul\":8025:8064   */\n              tag_176\n                /* \"#utility.yul\":8062:8063   */\n              0x00\n                /* \"#utility.yul\":8055:8060   */\n              dup3\n                /* \"#utility.yul\":8025:8064   */\n              tag_72\n              jump\t// in\n            tag_176:\n                /* \"#utility.yul\":7998:7999   */\n              0x01\n                /* \"#utility.yul\":7991:7996   */\n              dup2\n                /* \"#utility.yul\":7987:8000   */\n              add\n                /* \"#utility.yul\":7978:8000   */\n              swap1\n              pop\n                /* \"#utility.yul\":7954:8074   */\n              jump(tag_173)\n            tag_175:\n                /* \"#utility.yul\":7894:8080   */\n              pop\n              pop\n              jump\t// out\n                /* \"#utility.yul\":8086:8629   */\n            tag_74:\n                /* \"#utility.yul\":8187:8189   */\n              0x1f\n                /* \"#utility.yul\":8182:8185   */\n              dup3\n                /* \"#utility.yul\":8179:8190   */\n              gt\n                /* \"#utility.yul\":8176:8622   */\n              iszero\n              tag_178\n              jumpi\n                /* \"#utility.yul\":8221:8259   */\n              tag_179\n                /* \"#utility.yul\":8253:8258   */\n              dup2\n                /* \"#utility.yul\":8221:8259   */\n              tag_63\n              jump\t// in\n            tag_179:\n                /* \"#utility.yul\":8305:8334   */\n              tag_180\n                /* \"#utility.yul\":8323:8333   */\n              dup5\n                /* \"#utility.yul\":8305:8334   */\n              tag_64\n              jump\t// in\n            tag_180:\n                /* \"#utility.yul\":8295:8303   */\n              dup2\n                /* \"#utility.yul\":8291:8335   */\n              add\n                /* \"#utility.yul\":8488:8490   */\n              0x20\n                /* \"#utility.yul\":8476:8486   */\n              dup6\n                /* \"#utility.yul\":8473:8491   */\n              lt\n                /* \"#utility.yul\":8470:8519   */\n              iszero\n              tag_181\n              jumpi\n                /* \"#utility.yul\":8509:8517   */\n              dup2\n                /* \"#utility.yul\":8494:8517   */\n              swap1\n              pop\n                /* \"#utility.yul\":8470:8519   */\n            tag_181:\n                /* \"#utility.yul\":8532:8612   */\n              tag_182\n                /* \"#utility.yul\":8588:8610   */\n              tag_183\n                /* \"#utility.yul\":8606:8609   */\n              dup6\n                /* \"#utility.yul\":8588:8610   */\n              tag_64\n              jump\t// in\n            tag_183:\n                /* \"#utility.yul\":8578:8586   */\n              dup4\n                /* \"#utility.yul\":8574:8611   */\n              add\n                /* \"#utility.yul\":8561:8572   */\n              dup3\n                /* \"#utility.yul\":8532:8612   */\n              tag_73\n              jump\t// in\n            tag_182:\n                /* \"#utility.yul\":8191:8622   */\n              pop\n              pop\n                /* \"#utility.yul\":8176:8622   */\n            tag_178:\n                /* \"#utility.yul\":8086:8629   */\n              pop\n              pop\n              pop\n              jump\t// out\n                /* \"#utility.yul\":8635:8752   */\n            tag_75:\n                /* \"#utility.yul\":8689:8697   */\n              0x00\n                /* \"#utility.yul\":8739:8744   */\n              dup3\n                /* \"#utility.yul\":8733:8737   */\n              dup3\n                /* \"#utility.yul\":8729:8745   */\n              shr\n                /* \"#utility.yul\":8708:8745   */\n              swap1\n              pop\n                /* \"#utility.yul\":8635:8752   */\n              swap3\n              swap2\n              pop\n              pop\n              jump\t// out\n                /* \"#utility.yul\":8758:8927   */\n            tag_76:\n                /* \"#utility.yul\":8802:8808   */\n              0x00\n                /* \"#utility.yul\":8835:8886   */\n              tag_186\n                /* \"#utility.yul\":8883:8884   */\n              0x00\n                /* \"#utility.yul\":8879:8885   */\n              not\n                /* \"#utility.yul\":8871:8876   */\n              dup5\n                /* \"#utility.yul\":8868:8869   */\n              0x08\n                /* \"#utility.yul\":8864:8877   */\n              mul\n                /* \"#utility.yul\":8835:8886   */\n              tag_75\n              jump\t// in\n            tag_186:\n                /* \"#utility.yul\":8831:8887   */\n              not\n                /* \"#utility.yul\":8916:8920   */\n              dup1\n                /* \"#utility.yul\":8910:8914   */\n              dup4\n                /* \"#utility.yul\":8906:8921   */\n              and\n                /* \"#utility.yul\":8896:8921   */\n              swap2\n              pop\n                /* \"#utility.yul\":8809:8927   */\n              pop\n                /* \"#utility.yul\":8758:8927   */\n              swap3\n              swap2\n              pop\n              pop\n              jump\t// out\n                /* \"#utility.yul\":8932:9227   */\n            tag_77:\n                /* \"#utility.yul\":9008:9012   */\n              0x00\n                /* \"#utility.yul\":9154:9183   */\n              tag_188\n                /* \"#utility.yul\":9179:9182   */\n              dup4\n                /* \"#utility.yul\":9173:9177   */\n              dup4\n                /* \"#utility.yul\":9154:9183   */\n              tag_76\n              jump\t// in\n            tag_188:\n                /* \"#utility.yul\":9146:9183   */\n              swap2\n              pop\n                /* \"#utility.yul\":9216:9219   */\n              dup3\n                /* \"#utility.yul\":9213:9214   */\n              0x02\n                /* \"#utility.yul\":9209:9220   */\n              mul\n                /* \"#utility.yul\":9203:9207   */\n              dup3\n                /* \"#utility.yul\":9200:9221   */\n              or\n                /* \"#utility.yul\":9192:9221   */\n              swap1\n              pop\n                /* \"#utility.yul\":8932:9227   */\n              swap3\n              swap2\n              pop\n              pop\n              jump\t// out\n                /* \"#utility.yul\":9232:10627   */\n            tag_33:\n                /* \"#utility.yul\":9349:9386   */\n              tag_190\n                /* \"#utility.yul\":9382:9385   */\n              dup3\n                /* \"#utility.yul\":9349:9386   */\n              tag_41\n              jump\t// in\n            tag_190:\n                /* \"#utility.yul\":9451:9469   */\n              0xffffffffffffffff\n                /* \"#utility.yul\":9443:9449   */\n              dup2\n                /* \"#utility.yul\":9440:9470   */\n              gt\n                /* \"#utility.yul\":9437:9493   */\n              iszero\n              tag_191\n              jumpi\n                /* \"#utility.yul\":9473:9491   */\n              tag_192\n              tag_53\n              jump\t// in\n            tag_192:\n                /* \"#utility.yul\":9437:9493   */\n            tag_191:\n                /* \"#utility.yul\":9517:9555   */\n              tag_193\n                /* \"#utility.yul\":9549:9553   */\n              dup3\n                /* \"#utility.yul\":9543:9554   */\n              sload\n                /* \"#utility.yul\":9517:9555   */\n              tag_26\n              jump\t// in\n            tag_193:\n                /* \"#utility.yul\":9602:9669   */\n              tag_194\n                /* \"#utility.yul\":9662:9668   */\n              dup3\n                /* \"#utility.yul\":9654:9660   */\n              dup3\n                /* \"#utility.yul\":9648:9652   */\n              dup6\n                /* \"#utility.yul\":9602:9669   */\n              tag_74\n              jump\t// in\n            tag_194:\n                /* \"#utility.yul\":9696:9697   */\n              0x00\n                /* \"#utility.yul\":9720:9724   */\n              0x20\n                /* \"#utility.yul\":9707:9724   */\n              swap1\n              pop\n                /* \"#utility.yul\":9752:9754   */\n              0x1f\n                /* \"#utility.yul\":9744:9750   */\n              dup4\n                /* \"#utility.yul\":9741:9755   */\n              gt\n                /* \"#utility.yul\":9769:9770   */\n              0x01\n                /* \"#utility.yul\":9764:10382   */\n              dup2\n              eq\n              tag_196\n              jumpi\n                /* \"#utility.yul\":10426:10427   */\n              0x00\n                /* \"#utility.yul\":10443:10449   */\n              dup5\n                /* \"#utility.yul\":10440:10517   */\n              iszero\n              tag_197\n              jumpi\n                /* \"#utility.yul\":10492:10501   */\n              dup3\n                /* \"#utility.yul\":10487:10490   */\n              dup8\n                /* \"#utility.yul\":10483:10502   */\n              add\n                /* \"#utility.yul\":10477:10503   */\n              mload\n                /* \"#utility.yul\":10468:10503   */\n              swap1\n              pop\n                /* \"#utility.yul\":10440:10517   */\n            tag_197:\n                /* \"#utility.yul\":10543:10610   */\n              tag_198\n                /* \"#utility.yul\":10603:10609   */\n              dup6\n                /* \"#utility.yul\":10596:10601   */\n              dup3\n                /* \"#utility.yul\":10543:10610   */\n              tag_77\n              jump\t// in\n            tag_198:\n                /* \"#utility.yul\":10537:10541   */\n              dup7\n                /* \"#utility.yul\":10530:10611   */\n              sstore\n                /* \"#utility.yul\":10399:10621   */\n              pop\n                /* \"#utility.yul\":9734:10621   */\n              jump(tag_195)\n                /* \"#utility.yul\":9764:10382   */\n            tag_196:\n                /* \"#utility.yul\":9816:9820   */\n              0x1f\n                /* \"#utility.yul\":9812:9821   */\n              not\n                /* \"#utility.yul\":9804:9810   */\n              dup5\n                /* \"#utility.yul\":9800:9822   */\n              and\n                /* \"#utility.yul\":9850:9887   */\n              tag_199\n                /* \"#utility.yul\":9882:9886   */\n              dup7\n                /* \"#utility.yul\":9850:9887   */\n              tag_63\n              jump\t// in\n            tag_199:\n                /* \"#utility.yul\":9909:9910   */\n              0x00\n                /* \"#utility.yul\":9923:10131   */\n            tag_200:\n                /* \"#utility.yul\":9937:9944   */\n              dup3\n                /* \"#utility.yul\":9934:9935   */\n              dup2\n                /* \"#utility.yul\":9931:9945   */\n              lt\n                /* \"#utility.yul\":9923:10131   */\n              iszero\n              tag_202\n              jumpi\n                /* \"#utility.yul\":10016:10025   */\n              dup5\n                /* \"#utility.yul\":10011:10014   */\n              dup10\n                /* \"#utility.yul\":10007:10026   */\n              add\n                /* \"#utility.yul\":10001:10027   */\n              mload\n                /* \"#utility.yul\":9993:9999   */\n              dup3\n                /* \"#utility.yul\":9986:10028   */\n              sstore\n                /* \"#utility.yul\":10067:10068   */\n              0x01\n                /* \"#utility.yul\":10059:10065   */\n              dup3\n                /* \"#utility.yul\":10055:10069   */\n              add\n                /* \"#utility.yul\":10045:10069   */\n              swap2\n              pop\n                /* \"#utility.yul\":10114:10116   */\n              0x20\n                /* \"#utility.yul\":10103:10112   */\n              dup6\n                /* \"#utility.yul\":10099:10117   */\n              add\n                /* \"#utility.yul\":10086:10117   */\n              swap5\n              pop\n                /* \"#utility.yul\":9960:9964   */\n              0x20\n                /* \"#utility.yul\":9957:9958   */\n              dup2\n                /* \"#utility.yul\":9953:9965   */\n              add\n                /* \"#utility.yul\":9948:9965   */\n              swap1\n              pop\n                /* \"#utility.yul\":9923:10131   */\n              jump(tag_200)\n            tag_202:\n                /* \"#utility.yul\":10159:10165   */\n              dup7\n                /* \"#utility.yul\":10150:10157   */\n              dup4\n                /* \"#utility.yul\":10147:10166   */\n              lt\n                /* \"#utility.yul\":10144:10323   */\n              iszero\n              tag_203\n              jumpi\n                /* \"#utility.yul\":10217:10226   */\n              dup5\n                /* \"#utility.yul\":10212:10215   */\n              dup10\n                /* \"#utility.yul\":10208:10227   */\n              add\n                /* \"#utility.yul\":10202:10228   */\n              mload\n                /* \"#utility.yul\":10260:10308   */\n              tag_204\n                /* \"#utility.yul\":10302:10306   */\n              0x1f\n                /* \"#utility.yul\":10294:10300   */\n              dup10\n                /* \"#utility.yul\":10290:10307   */\n              and\n                /* \"#utility.yul\":10279:10288   */\n              dup3\n                /* \"#utility.yul\":10260:10308   */\n              tag_76\n              jump\t// in\n            tag_204:\n                /* \"#utility.yul\":10252:10258   */\n              dup4\n                /* \"#utility.yul\":10245:10309   */\n              sstore\n                /* \"#utility.yul\":10167:10323   */\n              pop\n                /* \"#utility.yul\":10144:10323   */\n            tag_203:\n                /* \"#utility.yul\":10369:10370   */\n              0x01\n                /* \"#utility.yul\":10365:10366   */\n              0x02\n                /* \"#utility.yul\":10357:10363   */\n              dup9\n                /* \"#utility.yul\":10353:10367   */\n              mul\n                /* \"#utility.yul\":10349:10371   */\n              add\n                /* \"#utility.yul\":10343:10347   */\n              dup9\n                /* \"#utility.yul\":10336:10372   */\n              sstore\n                /* \"#utility.yul\":9771:10382   */\n              pop\n              pop\n              pop\n                /* \"#utility.yul\":9734:10621   */\n            tag_195:\n              pop\n                /* \"#utility.yul\":9324:10627   */\n              pop\n              pop\n              pop\n                /* \"#utility.yul\":9232:10627   */\n              pop\n              pop\n              jump\t// out\n                /* \"#utility.yul\":10633:10781   */\n            tag_78:\n                /* \"#utility.yul\":10735:10746   */\n              0x00\n                /* \"#utility.yul\":10772:10775   */\n              dup2\n                /* \"#utility.yul\":10757:10775   */\n              swap1\n              pop\n                /* \"#utility.yul\":10633:10781   */\n              swap3\n              swap2\n              pop\n              pop\n              jump\t// out\n                /* \"#utility.yul\":10787:11177   */\n            tag_79:\n                /* \"#utility.yul\":10893:10896   */\n              0x00\n                /* \"#utility.yul\":10921:10960   */\n              tag_207\n                /* \"#utility.yul\":10954:10959   */\n              dup3\n                /* \"#utility.yul\":10921:10960   */\n              tag_41\n              jump\t// in\n            tag_207:\n                /* \"#utility.yul\":10976:11065   */\n              tag_208\n                /* \"#utility.yul\":11058:11064   */\n              dup2\n                /* \"#utility.yul\":11053:11056   */\n              dup6\n                /* \"#utility.yul\":10976:11065   */\n              tag_78\n              jump\t// in\n            tag_208:\n                /* \"#utility.yul\":10969:11065   */\n              swap4\n              pop\n                /* \"#utility.yul\":11074:11139   */\n              tag_209\n                /* \"#utility.yul\":11132:11138   */\n              dup2\n                /* \"#utility.yul\":11127:11130   */\n              dup6\n                /* \"#utility.yul\":11120:11124   */\n              0x20\n                /* \"#utility.yul\":11113:11118   */\n              dup7\n                /* \"#utility.yul\":11109:11125   */\n              add\n                /* \"#utility.yul\":11074:11139   */\n              tag_43\n              jump\t// in\n            tag_209:\n                /* \"#utility.yul\":11164:11170   */\n              dup1\n                /* \"#utility.yul\":11159:11162   */\n              dup5\n                /* \"#utility.yul\":11155:11171   */\n              add\n                /* \"#utility.yul\":11148:11171   */\n              swap2\n              pop\n                /* \"#utility.yul\":10897:11177   */\n              pop\n                /* \"#utility.yul\":10787:11177   */\n              swap3\n              swap2\n              pop\n              pop\n              jump\t// out\n                /* \"#utility.yul\":11183:11458   */\n            tag_35:\n                /* \"#utility.yul\":11315:11318   */\n              0x00\n                /* \"#utility.yul\":11337:11432   */\n              tag_211\n                /* \"#utility.yul\":11428:11431   */\n              dup3\n                /* \"#utility.yul\":11419:11425   */\n              dup5\n                /* \"#utility.yul\":11337:11432   */\n              tag_79\n              jump\t// in\n            tag_211:\n                /* \"#utility.yul\":11330:11432   */\n              swap2\n              pop\n                /* \"#utility.yul\":11449:11452   */\n              dup2\n                /* \"#utility.yul\":11442:11452   */\n              swap1\n              pop\n                /* \"#utility.yul\":11183:11458   */\n              swap3\n              swap2\n              pop\n              pop\n              jump\t// out\n\n            auxdata: 0xa26469706673582212206830b24a5214273bf8f726eb4e72fe77a0b64a868269e171be5a19d4216f2c9664736f6c63430008120033\n        }\n    }\n\n    auxdata: 0xa264697066735822122080bb435d3db9e155be1e1a6b059035f0136e99d2307de69b1a4132142eb1694864736f6c63430008120033\n}\n",
				"bytecode": {
					"linkReferences": {},
					"object": "608060405234801561001057600080fd5b50611135806100206000396000f3fe608060405234801561001057600080fd5b506004361061004c5760003560e01c80630ad91b64146100515780631dda65411461008257806372eff8f71461008c578063a1786dbe146100a8575b600080fd5b61006b6004803603810190610066919061037a565b6100d8565b604051610079929190610446565b60405180910390f35b61008a61019c565b005b6100a660048036038101906100a191906105ab565b61022f565b005b6100c260048036038101906100bd919061037a565b6102e4565b6040516100cf9190610699565b60405180910390f35b6060600080600084815481106100f1576100f06106b4565b5b9060005260206000200160009054906101000a900473ffffffffffffffffffffffffffffffffffffffff1690508073ffffffffffffffffffffffffffffffffffffffff16634f995d086040518163ffffffff1660e01b8152600401600060405180830381865afa158015610169573d6000803e3d6000fd5b505050506040513d6000823e3d601f19601f820116820180604052508101906101929190610768565b9250925050915091565b60006040516101aa90610323565b604051809103906000f0801580156101c6573d6000803e3d6000fd5b5090506000819080600181540180825580915050600190039060005260206000200160009091909190916101000a81548173ffffffffffffffffffffffffffffffffffffffff021916908373ffffffffffffffffffffffffffffffffffffffff16021790555050565b6000808481548110610244576102436106b4565b5b9060005260206000200160009054906101000a900473ffffffffffffffffffffffffffffffffffffffff1690508073ffffffffffffffffffffffffffffffffffffffff1663795fff1d84846040518363ffffffff1660e01b81526004016102ac929190610446565b600060405180830381600087803b1580156102c657600080fd5b505af11580156102da573d6000803e3d6000fd5b5050505050505050565b600081815481106102f457600080fd5b906000526020600020016000915054906101000a900473ffffffffffffffffffffffffffffffffffffffff1681565b61093b806107c583390190565b6000604051905090565b600080fd5b600080fd5b6000819050919050565b61035781610344565b811461036257600080fd5b50565b6000813590506103748161034e565b92915050565b6000602082840312156103905761038f61033a565b5b600061039e84828501610365565b91505092915050565b600081519050919050565b600082825260208201905092915050565b60005b838110156103e15780820151818401526020810190506103c6565b60008484015250505050565b6000601f19601f8301169050919050565b6000610409826103a7565b61041381856103b2565b93506104238185602086016103c3565b61042c816103ed565b840191505092915050565b61044081610344565b82525050565b6000604082019050818103600083015261046081856103fe565b905061046f6020830184610437565b9392505050565b600080fd5b600080fd5b7f4e487b7100000000000000000000000000000000000000000000000000000000600052604160045260246000fd5b6104b8826103ed565b810181811067ffffffffffffffff821117156104d7576104d6610480565b5b80604052505050565b60006104ea610330565b90506104f682826104af565b919050565b600067ffffffffffffffff82111561051657610515610480565b5b61051f826103ed565b9050602081019050919050565b82818337600083830152505050565b600061054e610549846104fb565b6104e0565b90508281526020810184848401111561056a5761056961047b565b5b61057584828561052c565b509392505050565b600082601f83011261059257610591610476565b5b81356105a284826020860161053b565b91505092915050565b6000806000606084860312156105c4576105c361033a565b5b60006105d286828701610365565b935050602084013567ffffffffffffffff8111156105f3576105f261033f565b5b6105ff8682870161057d565b925050604061061086828701610365565b9150509250925092565b600073ffffffffffffffffffffffffffffffffffffffff82169050919050565b6000819050919050565b600061065f61065a6106558461061a565b61063a565b61061a565b9050919050565b600061067182610644565b9050919050565b600061068382610666565b9050919050565b61069381610678565b82525050565b60006020820190506106ae600083018461068a565b92915050565b7f4e487b7100000000000000000000000000000000000000000000000000000000600052603260045260246000fd5b60006106f66106f1846104fb565b6104e0565b9050828152602081018484840111156107125761071161047b565b5b61071d8482856103c3565b509392505050565b600082601f83011261073a57610739610476565b5b815161074a8482602086016106e3565b91505092915050565b6000815190506107628161034e565b92915050565b6000806040838503121561077f5761077e61033a565b5b600083015167ffffffffffffffff81111561079d5761079c61033f565b5b6107a985828601610725565b92505060206107ba85828601610753565b915050925092905056fe608060405234801561001057600080fd5b5061091b806100206000396000f3fe608060405234801561001057600080fd5b506004361061004c5760003560e01c80634f995d0814610051578063795fff1d14610070578063aa598f931461008c578063c489d1c2146100bc575b600080fd5b6100596100db565b60405161006792919061034f565b60405180910390f35b61008a600480360381019061008591906104f4565b61017d565b005b6100a660048036038101906100a19190610550565b6101de565b6040516100b39190610599565b60405180910390f35b6100c461020c565b6040516100d292919061034f565b60405180910390f35b60606000600160000160018001548180546100f5906105e3565b80601f0160208091040260200160405190810160405280929190818152602001828054610121906105e3565b801561016e5780601f106101435761010080835404028352916020019161016e565b820191906000526020600020905b81548152906001019060200180831161015157829003601f168201915b50505050509150915091509091565b604051806040016040528083815260200182815250600160008201518160000190816101a991906107c0565b5060208201518160010155905050806000836040516101c891906108ce565b9081526020016040518091039020819055505050565b6000818051602081018201805184825260208301602085012081835280955050505050506000915090505481565b600180600001805461021d906105e3565b80601f0160208091040260200160405190810160405280929190818152602001828054610249906105e3565b80156102965780601f1061026b57610100808354040283529160200191610296565b820191906000526020600020905b81548152906001019060200180831161027957829003601f168201915b5050505050908060010154905082565b600081519050919050565b600082825260208201905092915050565b60005b838110156102e05780820151818401526020810190506102c5565b60008484015250505050565b6000601f19601f8301169050919050565b6000610308826102a6565b61031281856102b1565b93506103228185602086016102c2565b61032b816102ec565b840191505092915050565b6000819050919050565b61034981610336565b82525050565b6000604082019050818103600083015261036981856102fd565b90506103786020830184610340565b9392505050565b6000604051905090565b600080fd5b600080fd5b600080fd5b600080fd5b7f4e487b7100000000000000000000000000000000000000000000000000000000600052604160045260246000fd5b6103d5826102ec565b810181811067ffffffffffffffff821117156103f4576103f361039d565b5b80604052505050565b600061040761037f565b905061041382826103cc565b919050565b600067ffffffffffffffff8211156104335761043261039d565b5b61043c826102ec565b9050602081019050919050565b82818337600083830152505050565b600061046b61046684610418565b6103fd565b90508281526020810184848401111561048757610486610398565b5b610492848285610449565b509392505050565b600082601f8301126104af576104ae610393565b5b81356104bf848260208601610458565b91505092915050565b6104d181610336565b81146104dc57600080fd5b50565b6000813590506104ee816104c8565b92915050565b6000806040838503121561050b5761050a610389565b5b600083013567ffffffffffffffff8111156105295761052861038e565b5b6105358582860161049a565b9250506020610546858286016104df565b9150509250929050565b60006020828403121561056657610565610389565b5b600082013567ffffffffffffffff8111156105845761058361038e565b5b6105908482850161049a565b91505092915050565b60006020820190506105ae6000830184610340565b92915050565b7f4e487b7100000000000000000000000000000000000000000000000000000000600052602260045260246000fd5b600060028204905060018216806105fb57607f821691505b60208210810361060e5761060d6105b4565b5b50919050565b60008190508160005260206000209050919050565b60006020601f8301049050919050565b600082821b905092915050565b6000600883026106767fffffffffffffffffffffffffffffffffffffffffffffffffffffffffffffffff82610639565b6106808683610639565b95508019841693508086168417925050509392505050565b6000819050919050565b60006106bd6106b86106b384610336565b610698565b610336565b9050919050565b6000819050919050565b6106d7836106a2565b6106eb6106e3826106c4565b848454610646565b825550505050565b600090565b6107006106f3565b61070b8184846106ce565b505050565b5b8181101561072f576107246000826106f8565b600181019050610711565b5050565b601f8211156107745761074581610614565b61074e84610629565b8101602085101561075d578190505b61077161076985610629565b830182610710565b50505b505050565b600082821c905092915050565b600061079760001984600802610779565b1980831691505092915050565b60006107b08383610786565b9150826002028217905092915050565b6107c9826102a6565b67ffffffffffffffff8111156107e2576107e161039d565b5b6107ec82546105e3565b6107f7828285610733565b600060209050601f83116001811461082a5760008415610818578287015190505b61082285826107a4565b86555061088a565b601f19841661083886610614565b60005b828110156108605784890151825560018201915060208501945060208101905061083b565b8683101561087d5784890151610879601f891682610786565b8355505b6001600288020188555050505b505050505050565b600081905092915050565b60006108a8826102a6565b6108b28185610892565b93506108c28185602086016102c2565b80840191505092915050565b60006108da828461089d565b91508190509291505056fea26469706673582212206830b24a5214273bf8f726eb4e72fe77a0b64a868269e171be5a19d4216f2c9664736f6c63430008120033a264697066735822122080bb435d3db9e155be1e1a6b059035f0136e99d2307de69b1a4132142eb1694864736f6c63430008120033",
					"opcodes": "PUSH1 0x80 PUSH1 0x40 MSTORE CALLVALUE DUP1 ISZERO PUSH2 0x10 JUMPI PUSH1 0x0 DUP1 REVERT JUMPDEST POP PUSH2 0x1135 DUP1 PUSH2 0x20 PUSH1 0x0 CODECOPY PUSH1 0x0 RETURN INVALID PUSH1 0x80 PUSH1 0x40 MSTORE CALLVALUE DUP1 ISZERO PUSH2 0x10 JUMPI PUSH1 0x0 DUP1 REVERT JUMPDEST POP PUSH1 0x4 CALLDATASIZE LT PUSH2 0x4C JUMPI PUSH1 0x0 CALLDATALOAD PUSH1 0xE0 SHR DUP1 PUSH4 0xAD91B64 EQ PUSH2 0x51 JUMPI DUP1 PUSH4 0x1DDA6541 EQ PUSH2 0x82 JUMPI DUP1 PUSH4 0x72EFF8F7 EQ PUSH2 0x8C JUMPI DUP1 PUSH4 0xA1786DBE EQ PUSH2 0xA8 JUMPI JUMPDEST PUSH1 0x0 DUP1 REVERT JUMPDEST PUSH2 0x6B PUSH1 0x4 DUP1 CALLDATASIZE SUB DUP2 ADD SWAP1 PUSH2 0x66 SWAP2 SWAP1 PUSH2 0x37A JUMP JUMPDEST PUSH2 0xD8 JUMP JUMPDEST PUSH1 0x40 MLOAD PUSH2 0x79 SWAP3 SWAP2 SWAP1 PUSH2 0x446 JUMP JUMPDEST PUSH1 0x40 MLOAD DUP1 SWAP2 SUB SWAP1 RETURN JUMPDEST PUSH2 0x8A PUSH2 0x19C JUMP JUMPDEST STOP JUMPDEST PUSH2 0xA6 PUSH1 0x4 DUP1 CALLDATASIZE SUB DUP2 ADD SWAP1 PUSH2 0xA1 SWAP2 SWAP1 PUSH2 0x5AB JUMP JUMPDEST PUSH2 0x22F JUMP JUMPDEST STOP JUMPDEST PUSH2 0xC2 PUSH1 0x4 DUP1 CALLDATASIZE SUB DUP2 ADD SWAP1 PUSH2 0xBD SWAP2 SWAP1 PUSH2 0x37A JUMP JUMPDEST PUSH2 0x2E4 JUMP JUMPDEST PUSH1 0x40 MLOAD PUSH2 0xCF SWAP2 SWAP1 PUSH2 0x699 JUMP JUMPDEST PUSH1 0x40 MLOAD DUP1 SWAP2 SUB SWAP1 RETURN JUMPDEST PUSH1 0x60 PUSH1 0x0 DUP1 PUSH1 0x0 DUP5 DUP2 SLOAD DUP2 LT PUSH2 0xF1 JUMPI PUSH2 0xF0 PUSH2 0x6B4 JUMP JUMPDEST JUMPDEST SWAP1 PUSH1 0x0 MSTORE PUSH1 0x20 PUSH1 0x0 KECCAK256 ADD PUSH1 0x0 SWAP1 SLOAD SWAP1 PUSH2 0x100 EXP SWAP1 DIV PUSH20 0xFFFFFFFFFFFFFFFFFFFFFFFFFFFFFFFFFFFFFFFF AND SWAP1 POP DUP1 PUSH20 0xFFFFFFFFFFFFFFFFFFFFFFFFFFFFFFFFFFFFFFFF AND PUSH4 0x4F995D08 PUSH1 0x40 MLOAD DUP2 PUSH4 0xFFFFFFFF AND PUSH1 0xE0 SHL DUP2 MSTORE PUSH1 0x4 ADD PUSH1 0x0 PUSH1 0x40 MLOAD DUP1 DUP4 SUB DUP2 DUP7 GAS STATICCALL ISZERO DUP1 ISZERO PUSH2 0x169 JUMPI RETURNDATASIZE PUSH1 0x0 DUP1 RETURNDATACOPY RETURNDATASIZE PUSH1 0x0 REVERT JUMPDEST POP POP POP POP PUSH1 0x40 MLOAD RETURNDATASIZE PUSH1 0x0 DUP3 RETURNDATACOPY RETURNDATASIZE PUSH1 0x1F NOT PUSH1 0x1F DUP3 ADD AND DUP3 ADD DUP1 PUSH1 0x40 MSTORE POP DUP2 ADD SWAP1 PUSH2 0x192 SWAP2 SWAP1 PUSH2 0x768 JUMP JUMPDEST SWAP3 POP SWAP3 POP POP SWAP2 POP SWAP2 JUMP JUMPDEST PUSH1 0x0 PUSH1 0x40 MLOAD PUSH2 0x1AA SWAP1 PUSH2 0x323 JUMP JUMPDEST PUSH1 0x40 MLOAD DUP1 SWAP2 SUB SWAP1 PUSH1 0x0 CREATE DUP1 ISZERO DUP1 ISZERO PUSH2 0x1C6 JUMPI RETURNDATASIZE PUSH1 0x0 DUP1 RETURNDATACOPY RETURNDATASIZE PUSH1 0x0 REVERT JUMPDEST POP SWAP1 POP PUSH1 0x0 DUP2 SWAP1 DUP1 PUSH1 0x1 DUP2 SLOAD ADD DUP1 DUP3 SSTORE DUP1 SWAP2 POP POP PUSH1 0x1 SWAP1 SUB SWAP1 PUSH1 0x0 MSTORE PUSH1 0x20 PUSH1 0x0 KECCAK256 ADD PUSH1 0x0 SWAP1 SWAP2 SWAP1 SWAP2 SWAP1 SWAP2 PUSH2 0x100 EXP DUP2 SLOAD DUP2 PUSH20 0xFFFFFFFFFFFFFFFFFFFFFFFFFFFFFFFFFFFFFFFF MUL NOT AND SWAP1 DUP4 PUSH20 0xFFFFFFFFFFFFFFFFFFFFFFFFFFFFFFFFFFFFFFFF AND MUL OR SWAP1 SSTORE POP POP JUMP JUMPDEST PUSH1 0x0 DUP1 DUP5 DUP2 SLOAD DUP2 LT PUSH2 0x244 JUMPI PUSH2 0x243 PUSH2 0x6B4 JUMP JUMPDEST JUMPDEST SWAP1 PUSH1 0x0 MSTORE PUSH1 0x20 PUSH1 0x0 KECCAK256 ADD PUSH1 0x0 SWAP1 SLOAD SWAP1 PUSH2 0x100 EXP SWAP1 DIV PUSH20 0xFFFFFFFFFFFFFFFFFFFFFFFFFFFFFFFFFFFFFFFF AND SWAP1 POP DUP1 PUSH20 0xFFFFFFFFFFFFFFFFFFFFFFFFFFFFFFFFFFFFFFFF AND PUSH4 0x795FFF1D DUP5 DUP5 PUSH1 0x40 MLOAD DUP4 PUSH4 0xFFFFFFFF AND PUSH1 0xE0 SHL DUP2 MSTORE PUSH1 0x4 ADD PUSH2 0x2AC SWAP3 SWAP2 SWAP1 PUSH2 0x446 JUMP JUMPDEST PUSH1 0x0 PUSH1 0x40 MLOAD DUP1 DUP4 SUB DUP2 PUSH1 0x0 DUP8 DUP1 EXTCODESIZE ISZERO DUP1 ISZERO PUSH2 0x2C6 JUMPI PUSH1 0x0 DUP1 REVERT JUMPDEST POP GAS CALL ISZERO DUP1 ISZERO PUSH2 0x2DA JUMPI RETURNDATASIZE PUSH1 0x0 DUP1 RETURNDATACOPY RETURNDATASIZE PUSH1 0x0 REVERT JUMPDEST POP POP POP POP POP POP POP POP JUMP JUMPDEST PUSH1 0x0 DUP2 DUP2 SLOAD DUP2 LT PUSH2 0x2F4 JUMPI PUSH1 0x0 DUP1 REVERT JUMPDEST SWAP1 PUSH1 0x0 MSTORE PUSH1 0x20 PUSH1 0x0 KECCAK256 ADD PUSH1 0x0 SWAP2 POP SLOAD SWAP1 PUSH2 0x100 EXP SWAP1 DIV PUSH20 0xFFFFFFFFFFFFFFFFFFFFFFFFFFFFFFFFFFFFFFFF AND DUP2 JUMP JUMPDEST PUSH2 0x93B DUP1 PUSH2 0x7C5 DUP4 CODECOPY ADD SWAP1 JUMP JUMPDEST PUSH1 0x0 PUSH1 0x40 MLOAD SWAP1 POP SWAP1 JUMP JUMPDEST PUSH1 0x0 DUP1 REVERT JUMPDEST PUSH1 0x0 DUP1 REVERT JUMPDEST PUSH1 0x0 DUP2 SWAP1 POP SWAP2 SWAP1 POP JUMP JUMPDEST PUSH2 0x357 DUP2 PUSH2 0x344 JUMP JUMPDEST DUP2 EQ PUSH2 0x362 JUMPI PUSH1 0x0 DUP1 REVERT JUMPDEST POP JUMP JUMPDEST PUSH1 0x0 DUP2 CALLDATALOAD SWAP1 POP PUSH2 0x374 DUP2 PUSH2 0x34E JUMP JUMPDEST SWAP3 SWAP2 POP POP JUMP JUMPDEST PUSH1 0x0 PUSH1 0x20 DUP3 DUP5 SUB SLT ISZERO PUSH2 0x390 JUMPI PUSH2 0x38F PUSH2 0x33A JUMP JUMPDEST JUMPDEST PUSH1 0x0 PUSH2 0x39E DUP5 DUP3 DUP6 ADD PUSH2 0x365 JUMP JUMPDEST SWAP2 POP POP SWAP3 SWAP2 POP POP JUMP JUMPDEST PUSH1 0x0 DUP2 MLOAD SWAP1 POP SWAP2 SWAP1 POP JUMP JUMPDEST PUSH1 0x0 DUP3 DUP3 MSTORE PUSH1 0x20 DUP3 ADD SWAP1 POP SWAP3 SWAP2 POP POP JUMP JUMPDEST PUSH1 0x0 JUMPDEST DUP4 DUP2 LT ISZERO PUSH2 0x3E1 JUMPI DUP1 DUP3 ADD MLOAD DUP2 DUP5 ADD MSTORE PUSH1 0x20 DUP2 ADD SWAP1 POP PUSH2 0x3C6 JUMP JUMPDEST PUSH1 0x0 DUP5 DUP5 ADD MSTORE POP POP POP POP JUMP JUMPDEST PUSH1 0x0 PUSH1 0x1F NOT PUSH1 0x1F DUP4 ADD AND SWAP1 POP SWAP2 SWAP1 POP JUMP JUMPDEST PUSH1 0x0 PUSH2 0x409 DUP3 PUSH2 0x3A7 JUMP JUMPDEST PUSH2 0x413 DUP2 DUP6 PUSH2 0x3B2 JUMP JUMPDEST SWAP4 POP PUSH2 0x423 DUP2 DUP6 PUSH1 0x20 DUP7 ADD PUSH2 0x3C3 JUMP JUMPDEST PUSH2 0x42C DUP2 PUSH2 0x3ED JUMP JUMPDEST DUP5 ADD SWAP2 POP POP SWAP3 SWAP2 POP POP JUMP JUMPDEST PUSH2 0x440 DUP2 PUSH2 0x344 JUMP JUMPDEST DUP3 MSTORE POP POP JUMP JUMPDEST PUSH1 0x0 PUSH1 0x40 DUP3 ADD SWAP1 POP DUP2 DUP2 SUB PUSH1 0x0 DUP4 ADD MSTORE PUSH2 0x460 DUP2 DUP6 PUSH2 0x3FE JUMP JUMPDEST SWAP1 POP PUSH2 0x46F PUSH1 0x20 DUP4 ADD DUP5 PUSH2 0x437 JUMP JUMPDEST SWAP4 SWAP3 POP POP POP JUMP JUMPDEST PUSH1 0x0 DUP1 REVERT JUMPDEST PUSH1 0x0 DUP1 REVERT JUMPDEST PUSH32 0x4E487B7100000000000000000000000000000000000000000000000000000000 PUSH1 0x0 MSTORE PUSH1 0x41 PUSH1 0x4 MSTORE PUSH1 0x24 PUSH1 0x0 REVERT JUMPDEST PUSH2 0x4B8 DUP3 PUSH2 0x3ED JUMP JUMPDEST DUP2 ADD DUP2 DUP2 LT PUSH8 0xFFFFFFFFFFFFFFFF DUP3 GT OR ISZERO PUSH2 0x4D7 JUMPI PUSH2 0x4D6 PUSH2 0x480 JUMP JUMPDEST JUMPDEST DUP1 PUSH1 0x40 MSTORE POP POP POP JUMP JUMPDEST PUSH1 0x0 PUSH2 0x4EA PUSH2 0x330 JUMP JUMPDEST SWAP1 POP PUSH2 0x4F6 DUP3 DUP3 PUSH2 0x4AF JUMP JUMPDEST SWAP2 SWAP1 POP JUMP JUMPDEST PUSH1 0x0 PUSH8 0xFFFFFFFFFFFFFFFF DUP3 GT ISZERO PUSH2 0x516 JUMPI PUSH2 0x515 PUSH2 0x480 JUMP JUMPDEST JUMPDEST PUSH2 0x51F DUP3 PUSH2 0x3ED JUMP JUMPDEST SWAP1 POP PUSH1 0x20 DUP2 ADD SWAP1 POP SWAP2 SWAP1 POP JUMP JUMPDEST DUP3 DUP2 DUP4 CALLDATACOPY PUSH1 0x0 DUP4 DUP4 ADD MSTORE POP POP POP JUMP JUMPDEST PUSH1 0x0 PUSH2 0x54E PUSH2 0x549 DUP5 PUSH2 0x4FB JUMP JUMPDEST PUSH2 0x4E0 JUMP JUMPDEST SWAP1 POP DUP3 DUP2 MSTORE PUSH1 0x20 DUP2 ADD DUP5 DUP5 DUP5 ADD GT ISZERO PUSH2 0x56A JUMPI PUSH2 0x569 PUSH2 0x47B JUMP JUMPDEST JUMPDEST PUSH2 0x575 DUP5 DUP3 DUP6 PUSH2 0x52C JUMP JUMPDEST POP SWAP4 SWAP3 POP POP POP JUMP JUMPDEST PUSH1 0x0 DUP3 PUSH1 0x1F DUP4 ADD SLT PUSH2 0x592 JUMPI PUSH2 0x591 PUSH2 0x476 JUMP JUMPDEST JUMPDEST DUP2 CALLDATALOAD PUSH2 0x5A2 DUP5 DUP3 PUSH1 0x20 DUP7 ADD PUSH2 0x53B JUMP JUMPDEST SWAP2 POP POP SWAP3 SWAP2 POP POP JUMP JUMPDEST PUSH1 0x0 DUP1 PUSH1 0x0 PUSH1 0x60 DUP5 DUP7 SUB SLT ISZERO PUSH2 0x5C4 JUMPI PUSH2 0x5C3 PUSH2 0x33A JUMP JUMPDEST JUMPDEST PUSH1 0x0 PUSH2 0x5D2 DUP7 DUP3 DUP8 ADD PUSH2 0x365 JUMP JUMPDEST SWAP4 POP POP PUSH1 0x20 DUP5 ADD CALLDATALOAD PUSH8 0xFFFFFFFFFFFFFFFF DUP2 GT ISZERO PUSH2 0x5F3 JUMPI PUSH2 0x5F2 PUSH2 0x33F JUMP JUMPDEST JUMPDEST PUSH2 0x5FF DUP7 DUP3 DUP8 ADD PUSH2 0x57D JUMP JUMPDEST SWAP3 POP POP PUSH1 0x40 PUSH2 0x610 DUP7 DUP3 DUP8 ADD PUSH2 0x365 JUMP JUMPDEST SWAP2 POP POP SWAP3 POP SWAP3 POP SWAP3 JUMP JUMPDEST PUSH1 0x0 PUSH20 0xFFFFFFFFFFFFFFFFFFFFFFFFFFFFFFFFFFFFFFFF DUP3 AND SWAP1 POP SWAP2 SWAP1 POP JUMP JUMPDEST PUSH1 0x0 DUP2 SWAP1 POP SWAP2 SWAP1 POP JUMP JUMPDEST PUSH1 0x0 PUSH2 0x65F PUSH2 0x65A PUSH2 0x655 DUP5 PUSH2 0x61A JUMP JUMPDEST PUSH2 0x63A JUMP JUMPDEST PUSH2 0x61A JUMP JUMPDEST SWAP1 POP SWAP2 SWAP1 POP JUMP JUMPDEST PUSH1 0x0 PUSH2 0x671 DUP3 PUSH2 0x644 JUMP JUMPDEST SWAP1 POP SWAP2 SWAP1 POP JUMP JUMPDEST PUSH1 0x0 PUSH2 0x683 DUP3 PUSH2 0x666 JUMP JUMPDEST SWAP1 POP SWAP2 SWAP1 POP JUMP JUMPDEST PUSH2 0x693 DUP2 PUSH2 0x678 JUMP JUMPDEST DUP3 MSTORE POP POP JUMP JUMPDEST PUSH1 0x0 PUSH1 0x20 DUP3 ADD SWAP1 POP PUSH2 0x6AE PUSH1 0x0 DUP4 ADD DUP5 PUSH2 0x68A JUMP JUMPDEST SWAP3 SWAP2 POP POP JUMP JUMPDEST PUSH32 0x4E487B7100000000000000000000000000000000000000000000000000000000 PUSH1 0x0 MSTORE PUSH1 0x32 PUSH1 0x4 MSTORE PUSH1 0x24 PUSH1 0x0 REVERT JUMPDEST PUSH1 0x0 PUSH2 0x6F6 PUSH2 0x6F1 DUP5 PUSH2 0x4FB JUMP JUMPDEST PUSH2 0x4E0 JUMP JUMPDEST SWAP1 POP DUP3 DUP2 MSTORE PUSH1 0x20 DUP2 ADD DUP5 DUP5 DUP5 ADD GT ISZERO PUSH2 0x712 JUMPI PUSH2 0x711 PUSH2 0x47B JUMP JUMPDEST JUMPDEST PUSH2 0x71D DUP5 DUP3 DUP6 PUSH2 0x3C3 JUMP JUMPDEST POP SWAP4 SWAP3 POP POP POP JUMP JUMPDEST PUSH1 0x0 DUP3 PUSH1 0x1F DUP4 ADD SLT PUSH2 0x73A JUMPI PUSH2 0x739 PUSH2 0x476 JUMP JUMPDEST JUMPDEST DUP2 MLOAD PUSH2 0x74A DUP5 DUP3 PUSH1 0x20 DUP7 ADD PUSH2 0x6E3 JUMP JUMPDEST SWAP2 POP POP SWAP3 SWAP2 POP POP JUMP JUMPDEST PUSH1 0x0 DUP2 MLOAD SWAP1 POP PUSH2 0x762 DUP2 PUSH2 0x34E JUMP JUMPDEST SWAP3 SWAP2 POP POP JUMP JUMPDEST PUSH1 0x0 DUP1 PUSH1 0x40 DUP4 DUP6 SUB SLT ISZERO PUSH2 0x77F JUMPI PUSH2 0x77E PUSH2 0x33A JUMP JUMPDEST JUMPDEST PUSH1 0x0 DUP4 ADD MLOAD PUSH8 0xFFFFFFFFFFFFFFFF DUP2 GT ISZERO PUSH2 0x79D JUMPI PUSH2 0x79C PUSH2 0x33F JUMP JUMPDEST JUMPDEST PUSH2 0x7A9 DUP6 DUP3 DUP7 ADD PUSH2 0x725 JUMP JUMPDEST SWAP3 POP POP PUSH1 0x20 PUSH2 0x7BA DUP6 DUP3 DUP7 ADD PUSH2 0x753 JUMP JUMPDEST SWAP2 POP POP SWAP3 POP SWAP3 SWAP1 POP JUMP INVALID PUSH1 0x80 PUSH1 0x40 MSTORE CALLVALUE DUP1 ISZERO PUSH2 0x10 JUMPI PUSH1 0x0 DUP1 REVERT JUMPDEST POP PUSH2 0x91B DUP1 PUSH2 0x20 PUSH1 0x0 CODECOPY PUSH1 0x0 RETURN INVALID PUSH1 0x80 PUSH1 0x40 MSTORE CALLVALUE DUP1 ISZERO PUSH2 0x10 JUMPI PUSH1 0x0 DUP1 REVERT JUMPDEST POP PUSH1 0x4 CALLDATASIZE LT PUSH2 0x4C JUMPI PUSH1 0x0 CALLDATALOAD PUSH1 0xE0 SHR DUP1 PUSH4 0x4F995D08 EQ PUSH2 0x51 JUMPI DUP1 PUSH4 0x795FFF1D EQ PUSH2 0x70 JUMPI DUP1 PUSH4 0xAA598F93 EQ PUSH2 0x8C JUMPI DUP1 PUSH4 0xC489D1C2 EQ PUSH2 0xBC JUMPI JUMPDEST PUSH1 0x0 DUP1 REVERT JUMPDEST PUSH2 0x59 PUSH2 0xDB JUMP JUMPDEST PUSH1 0x40 MLOAD PUSH2 0x67 SWAP3 SWAP2 SWAP1 PUSH2 0x34F JUMP JUMPDEST PUSH1 0x40 MLOAD DUP1 SWAP2 SUB SWAP1 RETURN JUMPDEST PUSH2 0x8A PUSH1 0x4 DUP1 CALLDATASIZE SUB DUP2 ADD SWAP1 PUSH2 0x85 SWAP2 SWAP1 PUSH2 0x4F4 JUMP JUMPDEST PUSH2 0x17D JUMP JUMPDEST STOP JUMPDEST PUSH2 0xA6 PUSH1 0x4 DUP1 CALLDATASIZE SUB DUP2 ADD SWAP1 PUSH2 0xA1 SWAP2 SWAP1 PUSH2 0x550 JUMP JUMPDEST PUSH2 0x1DE JUMP JUMPDEST PUSH1 0x40 MLOAD PUSH2 0xB3 SWAP2 SWAP1 PUSH2 0x599 JUMP JUMPDEST PUSH1 0x40 MLOAD DUP1 SWAP2 SUB SWAP1 RETURN JUMPDEST PUSH2 0xC4 PUSH2 0x20C JUMP JUMPDEST PUSH1 0x40 MLOAD PUSH2 0xD2 SWAP3 SWAP2 SWAP1 PUSH2 0x34F JUMP JUMPDEST PUSH1 0x40 MLOAD DUP1 SWAP2 SUB SWAP1 RETURN JUMPDEST PUSH1 0x60 PUSH1 0x0 PUSH1 0x1 PUSH1 0x0 ADD PUSH1 0x1 DUP1 ADD SLOAD DUP2 DUP1 SLOAD PUSH2 0xF5 SWAP1 PUSH2 0x5E3 JUMP JUMPDEST DUP1 PUSH1 0x1F ADD PUSH1 0x20 DUP1 SWAP2 DIV MUL PUSH1 0x20 ADD PUSH1 0x40 MLOAD SWAP1 DUP2 ADD PUSH1 0x40 MSTORE DUP1 SWAP3 SWAP2 SWAP1 DUP2 DUP2 MSTORE PUSH1 0x20 ADD DUP3 DUP1 SLOAD PUSH2 0x121 SWAP1 PUSH2 0x5E3 JUMP JUMPDEST DUP1 ISZERO PUSH2 0x16E JUMPI DUP1 PUSH1 0x1F LT PUSH2 0x143 JUMPI PUSH2 0x100 DUP1 DUP4 SLOAD DIV MUL DUP4 MSTORE SWAP2 PUSH1 0x20 ADD SWAP2 PUSH2 0x16E JUMP JUMPDEST DUP3 ADD SWAP2 SWAP1 PUSH1 0x0 MSTORE PUSH1 0x20 PUSH1 0x0 KECCAK256 SWAP1 JUMPDEST DUP2 SLOAD DUP2 MSTORE SWAP1 PUSH1 0x1 ADD SWAP1 PUSH1 0x20 ADD DUP1 DUP4 GT PUSH2 0x151 JUMPI DUP3 SWAP1 SUB PUSH1 0x1F AND DUP3 ADD SWAP2 JUMPDEST POP POP POP POP POP SWAP2 POP SWAP2 POP SWAP2 POP SWAP1 SWAP2 JUMP JUMPDEST PUSH1 0x40 MLOAD DUP1 PUSH1 0x40 ADD PUSH1 0x40 MSTORE DUP1 DUP4 DUP2 MSTORE PUSH1 0x20 ADD DUP3 DUP2 MSTORE POP PUSH1 0x1 PUSH1 0x0 DUP3 ADD MLOAD DUP2 PUSH1 0x0 ADD SWAP1 DUP2 PUSH2 0x1A9 SWAP2 SWAP1 PUSH2 0x7C0 JUMP JUMPDEST POP PUSH1 0x20 DUP3 ADD MLOAD DUP2 PUSH1 0x1 ADD SSTORE SWAP1 POP POP DUP1 PUSH1 0x0 DUP4 PUSH1 0x40 MLOAD PUSH2 0x1C8 SWAP2 SWAP1 PUSH2 0x8CE JUMP JUMPDEST SWAP1 DUP2 MSTORE PUSH1 0x20 ADD PUSH1 0x40 MLOAD DUP1 SWAP2 SUB SWAP1 KECCAK256 DUP2 SWAP1 SSTORE POP POP POP JUMP JUMPDEST PUSH1 0x0 DUP2 DUP1 MLOAD PUSH1 0x20 DUP2 ADD DUP3 ADD DUP1 MLOAD DUP5 DUP3 MSTORE PUSH1 0x20 DUP4 ADD PUSH1 0x20 DUP6 ADD KECCAK256 DUP2 DUP4 MSTORE DUP1 SWAP6 POP POP POP POP POP POP PUSH1 0x0 SWAP2 POP SWAP1 POP SLOAD DUP2 JUMP JUMPDEST PUSH1 0x1 DUP1 PUSH1 0x0 ADD DUP1 SLOAD PUSH2 0x21D SWAP1 PUSH2 0x5E3 JUMP JUMPDEST DUP1 PUSH1 0x1F ADD PUSH1 0x20 DUP1 SWAP2 DIV MUL PUSH1 0x20 ADD PUSH1 0x40 MLOAD SWAP1 DUP2 ADD PUSH1 0x40 MSTORE DUP1 SWAP3 SWAP2 SWAP1 DUP2 DUP2 MSTORE PUSH1 0x20 ADD DUP3 DUP1 SLOAD PUSH2 0x249 SWAP1 PUSH2 0x5E3 JUMP JUMPDEST DUP1 ISZERO PUSH2 0x296 JUMPI DUP1 PUSH1 0x1F LT PUSH2 0x26B JUMPI PUSH2 0x100 DUP1 DUP4 SLOAD DIV MUL DUP4 MSTORE SWAP2 PUSH1 0x20 ADD SWAP2 PUSH2 0x296 JUMP JUMPDEST DUP3 ADD SWAP2 SWAP1 PUSH1 0x0 MSTORE PUSH1 0x20 PUSH1 0x0 KECCAK256 SWAP1 JUMPDEST DUP2 SLOAD DUP2 MSTORE SWAP1 PUSH1 0x1 ADD SWAP1 PUSH1 0x20 ADD DUP1 DUP4 GT PUSH2 0x279 JUMPI DUP3 SWAP1 SUB PUSH1 0x1F AND DUP3 ADD SWAP2 JUMPDEST POP POP POP POP POP SWAP1 DUP1 PUSH1 0x1 ADD SLOAD SWAP1 POP DUP3 JUMP JUMPDEST PUSH1 0x0 DUP2 MLOAD SWAP1 POP SWAP2 SWAP1 POP JUMP JUMPDEST PUSH1 0x0 DUP3 DUP3 MSTORE PUSH1 0x20 DUP3 ADD SWAP1 POP SWAP3 SWAP2 POP POP JUMP JUMPDEST PUSH1 0x0 JUMPDEST DUP4 DUP2 LT ISZERO PUSH2 0x2E0 JUMPI DUP1 DUP3 ADD MLOAD DUP2 DUP5 ADD MSTORE PUSH1 0x20 DUP2 ADD SWAP1 POP PUSH2 0x2C5 JUMP JUMPDEST PUSH1 0x0 DUP5 DUP5 ADD MSTORE POP POP POP POP JUMP JUMPDEST PUSH1 0x0 PUSH1 0x1F NOT PUSH1 0x1F DUP4 ADD AND SWAP1 POP SWAP2 SWAP1 POP JUMP JUMPDEST PUSH1 0x0 PUSH2 0x308 DUP3 PUSH2 0x2A6 JUMP JUMPDEST PUSH2 0x312 DUP2 DUP6 PUSH2 0x2B1 JUMP JUMPDEST SWAP4 POP PUSH2 0x322 DUP2 DUP6 PUSH1 0x20 DUP7 ADD PUSH2 0x2C2 JUMP JUMPDEST PUSH2 0x32B DUP2 PUSH2 0x2EC JUMP JUMPDEST DUP5 ADD SWAP2 POP POP SWAP3 SWAP2 POP POP JUMP JUMPDEST PUSH1 0x0 DUP2 SWAP1 POP SWAP2 SWAP1 POP JUMP JUMPDEST PUSH2 0x349 DUP2 PUSH2 0x336 JUMP JUMPDEST DUP3 MSTORE POP POP JUMP JUMPDEST PUSH1 0x0 PUSH1 0x40 DUP3 ADD SWAP1 POP DUP2 DUP2 SUB PUSH1 0x0 DUP4 ADD MSTORE PUSH2 0x369 DUP2 DUP6 PUSH2 0x2FD JUMP JUMPDEST SWAP1 POP PUSH2 0x378 PUSH1 0x20 DUP4 ADD DUP5 PUSH2 0x340 JUMP JUMPDEST SWAP4 SWAP3 POP POP POP JUMP JUMPDEST PUSH1 0x0 PUSH1 0x40 MLOAD SWAP1 POP SWAP1 JUMP JUMPDEST PUSH1 0x0 DUP1 REVERT JUMPDEST PUSH1 0x0 DUP1 REVERT JUMPDEST PUSH1 0x0 DUP1 REVERT JUMPDEST PUSH1 0x0 DUP1 REVERT JUMPDEST PUSH32 0x4E487B7100000000000000000000000000000000000000000000000000000000 PUSH1 0x0 MSTORE PUSH1 0x41 PUSH1 0x4 MSTORE PUSH1 0x24 PUSH1 0x0 REVERT JUMPDEST PUSH2 0x3D5 DUP3 PUSH2 0x2EC JUMP JUMPDEST DUP2 ADD DUP2 DUP2 LT PUSH8 0xFFFFFFFFFFFFFFFF DUP3 GT OR ISZERO PUSH2 0x3F4 JUMPI PUSH2 0x3F3 PUSH2 0x39D JUMP JUMPDEST JUMPDEST DUP1 PUSH1 0x40 MSTORE POP POP POP JUMP JUMPDEST PUSH1 0x0 PUSH2 0x407 PUSH2 0x37F JUMP JUMPDEST SWAP1 POP PUSH2 0x413 DUP3 DUP3 PUSH2 0x3CC JUMP JUMPDEST SWAP2 SWAP1 POP JUMP JUMPDEST PUSH1 0x0 PUSH8 0xFFFFFFFFFFFFFFFF DUP3 GT ISZERO PUSH2 0x433 JUMPI PUSH2 0x432 PUSH2 0x39D JUMP JUMPDEST JUMPDEST PUSH2 0x43C DUP3 PUSH2 0x2EC JUMP JUMPDEST SWAP1 POP PUSH1 0x20 DUP2 ADD SWAP1 POP SWAP2 SWAP1 POP JUMP JUMPDEST DUP3 DUP2 DUP4 CALLDATACOPY PUSH1 0x0 DUP4 DUP4 ADD MSTORE POP POP POP JUMP JUMPDEST PUSH1 0x0 PUSH2 0x46B PUSH2 0x466 DUP5 PUSH2 0x418 JUMP JUMPDEST PUSH2 0x3FD JUMP JUMPDEST SWAP1 POP DUP3 DUP2 MSTORE PUSH1 0x20 DUP2 ADD DUP5 DUP5 DUP5 ADD GT ISZERO PUSH2 0x487 JUMPI PUSH2 0x486 PUSH2 0x398 JUMP JUMPDEST JUMPDEST PUSH2 0x492 DUP5 DUP3 DUP6 PUSH2 0x449 JUMP JUMPDEST POP SWAP4 SWAP3 POP POP POP JUMP JUMPDEST PUSH1 0x0 DUP3 PUSH1 0x1F DUP4 ADD SLT PUSH2 0x4AF JUMPI PUSH2 0x4AE PUSH2 0x393 JUMP JUMPDEST JUMPDEST DUP2 CALLDATALOAD PUSH2 0x4BF DUP5 DUP3 PUSH1 0x20 DUP7 ADD PUSH2 0x458 JUMP JUMPDEST SWAP2 POP POP SWAP3 SWAP2 POP POP JUMP JUMPDEST PUSH2 0x4D1 DUP2 PUSH2 0x336 JUMP JUMPDEST DUP2 EQ PUSH2 0x4DC JUMPI PUSH1 0x0 DUP1 REVERT JUMPDEST POP JUMP JUMPDEST PUSH1 0x0 DUP2 CALLDATALOAD SWAP1 POP PUSH2 0x4EE DUP2 PUSH2 0x4C8 JUMP JUMPDEST SWAP3 SWAP2 POP POP JUMP JUMPDEST PUSH1 0x0 DUP1 PUSH1 0x40 DUP4 DUP6 SUB SLT ISZERO PUSH2 0x50B JUMPI PUSH2 0x50A PUSH2 0x389 JUMP JUMPDEST JUMPDEST PUSH1 0x0 DUP4 ADD CALLDATALOAD PUSH8 0xFFFFFFFFFFFFFFFF DUP2 GT ISZERO PUSH2 0x529 JUMPI PUSH2 0x528 PUSH2 0x38E JUMP JUMPDEST JUMPDEST PUSH2 0x535 DUP6 DUP3 DUP7 ADD PUSH2 0x49A JUMP JUMPDEST SWAP3 POP POP PUSH1 0x20 PUSH2 0x546 DUP6 DUP3 DUP7 ADD PUSH2 0x4DF JUMP JUMPDEST SWAP2 POP POP SWAP3 POP SWAP3 SWAP1 POP JUMP JUMPDEST PUSH1 0x0 PUSH1 0x20 DUP3 DUP5 SUB SLT ISZERO PUSH2 0x566 JUMPI PUSH2 0x565 PUSH2 0x389 JUMP JUMPDEST JUMPDEST PUSH1 0x0 DUP3 ADD CALLDATALOAD PUSH8 0xFFFFFFFFFFFFFFFF DUP2 GT ISZERO PUSH2 0x584 JUMPI PUSH2 0x583 PUSH2 0x38E JUMP JUMPDEST JUMPDEST PUSH2 0x590 DUP5 DUP3 DUP6 ADD PUSH2 0x49A JUMP JUMPDEST SWAP2 POP POP SWAP3 SWAP2 POP POP JUMP JUMPDEST PUSH1 0x0 PUSH1 0x20 DUP3 ADD SWAP1 POP PUSH2 0x5AE PUSH1 0x0 DUP4 ADD DUP5 PUSH2 0x340 JUMP JUMPDEST SWAP3 SWAP2 POP POP JUMP JUMPDEST PUSH32 0x4E487B7100000000000000000000000000000000000000000000000000000000 PUSH1 0x0 MSTORE PUSH1 0x22 PUSH1 0x4 MSTORE PUSH1 0x24 PUSH1 0x0 REVERT JUMPDEST PUSH1 0x0 PUSH1 0x2 DUP3 DIV SWAP1 POP PUSH1 0x1 DUP3 AND DUP1 PUSH2 0x5FB JUMPI PUSH1 0x7F DUP3 AND SWAP2 POP JUMPDEST PUSH1 0x20 DUP3 LT DUP2 SUB PUSH2 0x60E JUMPI PUSH2 0x60D PUSH2 0x5B4 JUMP JUMPDEST JUMPDEST POP SWAP2 SWAP1 POP JUMP JUMPDEST PUSH1 0x0 DUP2 SWAP1 POP DUP2 PUSH1 0x0 MSTORE PUSH1 0x20 PUSH1 0x0 KECCAK256 SWAP1 POP SWAP2 SWAP1 POP JUMP JUMPDEST PUSH1 0x0 PUSH1 0x20 PUSH1 0x1F DUP4 ADD DIV SWAP1 POP SWAP2 SWAP1 POP JUMP JUMPDEST PUSH1 0x0 DUP3 DUP3 SHL SWAP1 POP SWAP3 SWAP2 POP POP JUMP JUMPDEST PUSH1 0x0 PUSH1 0x8 DUP4 MUL PUSH2 0x676 PUSH32 0xFFFFFFFFFFFFFFFFFFFFFFFFFFFFFFFFFFFFFFFFFFFFFFFFFFFFFFFFFFFFFFFF DUP3 PUSH2 0x639 JUMP JUMPDEST PUSH2 0x680 DUP7 DUP4 PUSH2 0x639 JUMP JUMPDEST SWAP6 POP DUP1 NOT DUP5 AND SWAP4 POP DUP1 DUP7 AND DUP5 OR SWAP3 POP POP POP SWAP4 SWAP3 POP POP POP JUMP JUMPDEST PUSH1 0x0 DUP2 SWAP1 POP SWAP2 SWAP1 POP JUMP JUMPDEST PUSH1 0x0 PUSH2 0x6BD PUSH2 0x6B8 PUSH2 0x6B3 DUP5 PUSH2 0x336 JUMP JUMPDEST PUSH2 0x698 JUMP JUMPDEST PUSH2 0x336 JUMP JUMPDEST SWAP1 POP SWAP2 SWAP1 POP JUMP JUMPDEST PUSH1 0x0 DUP2 SWAP1 POP SWAP2 SWAP1 POP JUMP JUMPDEST PUSH2 0x6D7 DUP4 PUSH2 0x6A2 JUMP JUMPDEST PUSH2 0x6EB PUSH2 0x6E3 DUP3 PUSH2 0x6C4 JUMP JUMPDEST DUP5 DUP5 SLOAD PUSH2 0x646 JUMP JUMPDEST DUP3 SSTORE POP POP POP POP JUMP JUMPDEST PUSH1 0x0 SWAP1 JUMP JUMPDEST PUSH2 0x700 PUSH2 0x6F3 JUMP JUMPDEST PUSH2 0x70B DUP2 DUP5 DUP5 PUSH2 0x6CE JUMP JUMPDEST POP POP POP JUMP JUMPDEST JUMPDEST DUP2 DUP2 LT ISZERO PUSH2 0x72F JUMPI PUSH2 0x724 PUSH1 0x0 DUP3 PUSH2 0x6F8 JUMP JUMPDEST PUSH1 0x1 DUP2 ADD SWAP1 POP PUSH2 0x711 JUMP JUMPDEST POP POP JUMP JUMPDEST PUSH1 0x1F DUP3 GT ISZERO PUSH2 0x774 JUMPI PUSH2 0x745 DUP2 PUSH2 0x614 JUMP JUMPDEST PUSH2 0x74E DUP5 PUSH2 0x629 JUMP JUMPDEST DUP2 ADD PUSH1 0x20 DUP6 LT ISZERO PUSH2 0x75D JUMPI DUP2 SWAP1 POP JUMPDEST PUSH2 0x771 PUSH2 0x769 DUP6 PUSH2 0x629 JUMP JUMPDEST DUP4 ADD DUP3 PUSH2 0x710 JUMP JUMPDEST POP POP JUMPDEST POP POP POP JUMP JUMPDEST PUSH1 0x0 DUP3 DUP3 SHR SWAP1 POP SWAP3 SWAP2 POP POP JUMP JUMPDEST PUSH1 0x0 PUSH2 0x797 PUSH1 0x0 NOT DUP5 PUSH1 0x8 MUL PUSH2 0x779 JUMP JUMPDEST NOT DUP1 DUP4 AND SWAP2 POP POP SWAP3 SWAP2 POP POP JUMP JUMPDEST PUSH1 0x0 PUSH2 0x7B0 DUP4 DUP4 PUSH2 0x786 JUMP JUMPDEST SWAP2 POP DUP3 PUSH1 0x2 MUL DUP3 OR SWAP1 POP SWAP3 SWAP2 POP POP JUMP JUMPDEST PUSH2 0x7C9 DUP3 PUSH2 0x2A6 JUMP JUMPDEST PUSH8 0xFFFFFFFFFFFFFFFF DUP2 GT ISZERO PUSH2 0x7E2 JUMPI PUSH2 0x7E1 PUSH2 0x39D JUMP JUMPDEST JUMPDEST PUSH2 0x7EC DUP3 SLOAD PUSH2 0x5E3 JUMP JUMPDEST PUSH2 0x7F7 DUP3 DUP3 DUP6 PUSH2 0x733 JUMP JUMPDEST PUSH1 0x0 PUSH1 0x20 SWAP1 POP PUSH1 0x1F DUP4 GT PUSH1 0x1 DUP2 EQ PUSH2 0x82A JUMPI PUSH1 0x0 DUP5 ISZERO PUSH2 0x818 JUMPI DUP3 DUP8 ADD MLOAD SWAP1 POP JUMPDEST PUSH2 0x822 DUP6 DUP3 PUSH2 0x7A4 JUMP JUMPDEST DUP7 SSTORE POP PUSH2 0x88A JUMP JUMPDEST PUSH1 0x1F NOT DUP5 AND PUSH2 0x838 DUP7 PUSH2 0x614 JUMP JUMPDEST PUSH1 0x0 JUMPDEST DUP3 DUP2 LT ISZERO PUSH2 0x860 JUMPI DUP5 DUP10 ADD MLOAD DUP3 SSTORE PUSH1 0x1 DUP3 ADD SWAP2 POP PUSH1 0x20 DUP6 ADD SWAP5 POP PUSH1 0x20 DUP2 ADD SWAP1 POP PUSH2 0x83B JUMP JUMPDEST DUP7 DUP4 LT ISZERO PUSH2 0x87D JUMPI DUP5 DUP10 ADD MLOAD PUSH2 0x879 PUSH1 0x1F DUP10 AND DUP3 PUSH2 0x786 JUMP JUMPDEST DUP4 SSTORE POP JUMPDEST PUSH1 0x1 PUSH1 0x2 DUP9 MUL ADD DUP9 SSTORE POP POP POP JUMPDEST POP POP POP POP POP POP JUMP JUMPDEST PUSH1 0x0 DUP2 SWAP1 POP SWAP3 SWAP2 POP POP JUMP JUMPDEST PUSH1 0x0 PUSH2 0x8A8 DUP3 PUSH2 0x2A6 JUMP JUMPDEST PUSH2 0x8B2 DUP2 DUP6 PUSH2 0x892 JUMP JUMPDEST SWAP4 POP PUSH2 0x8C2 DUP2 DUP6 PUSH1 0x20 DUP7 ADD PUSH2 0x2C2 JUMP JUMPDEST DUP1 DUP5 ADD SWAP2 POP POP SWAP3 SWAP2 POP POP JUMP JUMPDEST PUSH1 0x0 PUSH2 0x8DA DUP3 DUP5 PUSH2 0x89D JUMP JUMPDEST SWAP2 POP DUP2 SWAP1 POP SWAP3 SWAP2 POP POP JUMP INVALID LOG2 PUSH5 0x6970667358 0x22 SLT KECCAK256 PUSH9 0x30B24A5214273BF8F7 0x26 0xEB 0x4E PUSH19 0xFE77A0B64A868269E171BE5A19D4216F2C9664 PUSH20 0x6F6C63430008120033A264697066735822122080 0xBB NUMBER 0x5D RETURNDATASIZE 0xB9 0xE1 SSTORE 0xBE 0x1E BYTE PUSH12 0x59035F0136E99D2307DE69B BYTE COINBASE ORIGIN EQ 0x2E 0xB1 PUSH10 0x4864736F6C6343000812 STOP CALLER "
				},
				"gasEstimates": {
					"creation": {
						"codeDepositCost": "881000",
						"executionCost": "916",
						"totalCost": "881916"
					},
					"external": {
						"createSimpleStorageContract()": "infinite",
						"listOfSimpleStorage(uint256)": "infinite",
						"sfStore(uint256,string,uint256)": "infinite",
						"sfget(uint256)": "infinite"
					}
				},
				"methodIdentifiers": {
					"createSimpleStorageContract()": "1dda6541",
					"listOfSimpleStorage(uint256)": "a1786dbe",
					"sfStore(uint256,string,uint256)": "72eff8f7",
					"sfget(uint256)": "0ad91b64"
				}
			},
			"storageLayout": {
				"storage": [
					{
						"astId": 57,
						"contract": "New2/A3.sol:StorageFactory2",
						"label": "listOfSimpleStorage",
						"offset": 0,
						"slot": "0",
						"type": "t_array(t_contract(SimpleStorage)49)dyn_storage"
					}
				],
				"types": {
					"t_array(t_contract(SimpleStorage)49)dyn_storage": {
						"base": "t_contract(SimpleStorage)49",
						"encoding": "dynamic_array",
						"label": "contract SimpleStorage[]",
						"numberOfBytes": "32"
					},
					"t_contract(SimpleStorage)49": {
						"encoding": "inplace",
						"label": "contract SimpleStorage",
						"numberOfBytes": "20"
					}
				}
			},
			"userdoc": {
				"kind": "user",
				"methods": {},
				"version": 1
			}
		}
	}
}