{
	"data": {
		"bytecode": {
			"linkReferences": {},
			"object": "608060405234801561001057600080fd5b5061091b806100206000396000f3fe608060405234801561001057600080fd5b506004361061004c5760003560e01c80634f995d0814610051578063795fff1d14610070578063aa598f931461008c578063c489d1c2146100bc575b600080fd5b6100596100db565b60405161006792919061034f565b60405180910390f35b61008a600480360381019061008591906104f4565b61017d565b005b6100a660048036038101906100a19190610550565b6101de565b6040516100b39190610599565b60405180910390f35b6100c461020c565b6040516100d292919061034f565b60405180910390f35b60606000600160000160018001548180546100f5906105e3565b80601f0160208091040260200160405190810160405280929190818152602001828054610121906105e3565b801561016e5780601f106101435761010080835404028352916020019161016e565b820191906000526020600020905b81548152906001019060200180831161015157829003601f168201915b50505050509150915091509091565b604051806040016040528083815260200182815250600160008201518160000190816101a991906107c0565b5060208201518160010155905050806000836040516101c891906108ce565b9081526020016040518091039020819055505050565b6000818051602081018201805184825260208301602085012081835280955050505050506000915090505481565b600180600001805461021d906105e3565b80601f0160208091040260200160405190810160405280929190818152602001828054610249906105e3565b80156102965780601f1061026b57610100808354040283529160200191610296565b820191906000526020600020905b81548152906001019060200180831161027957829003601f168201915b5050505050908060010154905082565b600081519050919050565b600082825260208201905092915050565b60005b838110156102e05780820151818401526020810190506102c5565b60008484015250505050565b6000601f19601f8301169050919050565b6000610308826102a6565b61031281856102b1565b93506103228185602086016102c2565b61032b816102ec565b840191505092915050565b6000819050919050565b61034981610336565b82525050565b6000604082019050818103600083015261036981856102fd565b90506103786020830184610340565b9392505050565b6000604051905090565b600080fd5b600080fd5b600080fd5b600080fd5b7f4e487b7100000000000000000000000000000000000000000000000000000000600052604160045260246000fd5b6103d5826102ec565b810181811067ffffffffffffffff821117156103f4576103f361039d565b5b80604052505050565b600061040761037f565b905061041382826103cc565b919050565b600067ffffffffffffffff8211156104335761043261039d565b5b61043c826102ec565b9050602081019050919050565b82818337600083830152505050565b600061046b61046684610418565b6103fd565b90508281526020810184848401111561048757610486610398565b5b610492848285610449565b509392505050565b600082601f8301126104af576104ae610393565b5b81356104bf848260208601610458565b91505092915050565b6104d181610336565b81146104dc57600080fd5b50565b6000813590506104ee816104c8565b92915050565b6000806040838503121561050b5761050a610389565b5b600083013567ffffffffffffffff8111156105295761052861038e565b5b6105358582860161049a565b9250506020610546858286016104df565b9150509250929050565b60006020828403121561056657610565610389565b5b600082013567ffffffffffffffff8111156105845761058361038e565b5b6105908482850161049a565b91505092915050565b60006020820190506105ae6000830184610340565b92915050565b7f4e487b7100000000000000000000000000000000000000000000000000000000600052602260045260246000fd5b600060028204905060018216806105fb57607f821691505b60208210810361060e5761060d6105b4565b5b50919050565b60008190508160005260206000209050919050565b60006020601f8301049050919050565b600082821b905092915050565b6000600883026106767fffffffffffffffffffffffffffffffffffffffffffffffffffffffffffffffff82610639565b6106808683610639565b95508019841693508086168417925050509392505050565b6000819050919050565b60006106bd6106b86106b384610336565b610698565b610336565b9050919050565b6000819050919050565b6106d7836106a2565b6106eb6106e3826106c4565b848454610646565b825550505050565b600090565b6107006106f3565b61070b8184846106ce565b505050565b5b8181101561072f576107246000826106f8565b600181019050610711565b5050565b601f8211156107745761074581610614565b61074e84610629565b8101602085101561075d578190505b61077161076985610629565b830182610710565b50505b505050565b600082821c905092915050565b600061079760001984600802610779565b1980831691505092915050565b60006107b08383610786565b9150826002028217905092915050565b6107c9826102a6565b67ffffffffffffffff8111156107e2576107e161039d565b5b6107ec82546105e3565b6107f7828285610733565b600060209050601f83116001811461082a5760008415610818578287015190505b61082285826107a4565b86555061088a565b601f19841661083886610614565b60005b828110156108605784890151825560018201915060208501945060208101905061083b565b8683101561087d5784890151610879601f891682610786565b8355505b6001600288020188555050505b505050505050565b600081905092915050565b60006108a8826102a6565b6108b28185610892565b93506108c28185602086016102c2565b80840191505092915050565b60006108da828461089d565b91508190509291505056fea26469706673582212206830b24a5214273bf8f726eb4e72fe77a0b64a868269e171be5a19d4216f2c9664736f6c63430008120033",
			"opcodes": "PUSH1 0x80 PUSH1 0x40 MSTORE CALLVALUE DUP1 ISZERO PUSH2 0x10 JUMPI PUSH1 0x0 DUP1 REVERT JUMPDEST POP PUSH2 0x91B DUP1 PUSH2 0x20 PUSH1 0x0 CODECOPY PUSH1 0x0 RETURN INVALID PUSH1 0x80 PUSH1 0x40 MSTORE CALLVALUE DUP1 ISZERO PUSH2 0x10 JUMPI PUSH1 0x0 DUP1 REVERT JUMPDEST POP PUSH1 0x4 CALLDATASIZE LT PUSH2 0x4C JUMPI PUSH1 0x0 CALLDATALOAD PUSH1 0xE0 SHR DUP1 PUSH4 0x4F995D08 EQ PUSH2 0x51 JUMPI DUP1 PUSH4 0x795FFF1D EQ PUSH2 0x70 JUMPI DUP1 PUSH4 0xAA598F93 EQ PUSH2 0x8C JUMPI DUP1 PUSH4 0xC489D1C2 EQ PUSH2 0xBC JUMPI JUMPDEST PUSH1 0x0 DUP1 REVERT JUMPDEST PUSH2 0x59 PUSH2 0xDB JUMP JUMPDEST PUSH1 0x40 MLOAD PUSH2 0x67 SWAP3 SWAP2 SWAP1 PUSH2 0x34F JUMP JUMPDEST PUSH1 0x40 MLOAD DUP1 SWAP2 SUB SWAP1 RETURN JUMPDEST PUSH2 0x8A PUSH1 0x4 DUP1 CALLDATASIZE SUB DUP2 ADD SWAP1 PUSH2 0x85 SWAP2 SWAP1 PUSH2 0x4F4 JUMP JUMPDEST PUSH2 0x17D JUMP JUMPDEST STOP JUMPDEST PUSH2 0xA6 PUSH1 0x4 DUP1 CALLDATASIZE SUB DUP2 ADD SWAP1 PUSH2 0xA1 SWAP2 SWAP1 PUSH2 0x550 JUMP JUMPDEST PUSH2 0x1DE JUMP JUMPDEST PUSH1 0x40 MLOAD PUSH2 0xB3 SWAP2 SWAP1 PUSH2 0x599 JUMP JUMPDEST PUSH1 0x40 MLOAD DUP1 SWAP2 SUB SWAP1 RETURN JUMPDEST PUSH2 0xC4 PUSH2 0x20C JUMP JUMPDEST PUSH1 0x40 MLOAD PUSH2 0xD2 SWAP3 SWAP2 SWAP1 PUSH2 0x34F JUMP JUMPDEST PUSH1 0x40 MLOAD DUP1 SWAP2 SUB SWAP1 RETURN JUMPDEST PUSH1 0x60 PUSH1 0x0 PUSH1 0x1 PUSH1 0x0 ADD PUSH1 0x1 DUP1 ADD SLOAD DUP2 DUP1 SLOAD PUSH2 0xF5 SWAP1 PUSH2 0x5E3 JUMP JUMPDEST DUP1 PUSH1 0x1F ADD PUSH1 0x20 DUP1 SWAP2 DIV MUL PUSH1 0x20 ADD PUSH1 0x40 MLOAD SWAP1 DUP2 ADD PUSH1 0x40 MSTORE DUP1 SWAP3 SWAP2 SWAP1 DUP2 DUP2 MSTORE PUSH1 0x20 ADD DUP3 DUP1 SLOAD PUSH2 0x121 SWAP1 PUSH2 0x5E3 JUMP JUMPDEST DUP1 ISZERO PUSH2 0x16E JUMPI DUP1 PUSH1 0x1F LT PUSH2 0x143 JUMPI PUSH2 0x100 DUP1 DUP4 SLOAD DIV MUL DUP4 MSTORE SWAP2 PUSH1 0x20 ADD SWAP2 PUSH2 0x16E JUMP JUMPDEST DUP3 ADD SWAP2 SWAP1 PUSH1 0x0 MSTORE PUSH1 0x20 PUSH1 0x0 KECCAK256 SWAP1 JUMPDEST DUP2 SLOAD DUP2 MSTORE SWAP1 PUSH1 0x1 ADD SWAP1 PUSH1 0x20 ADD DUP1 DUP4 GT PUSH2 0x151 JUMPI DUP3 SWAP1 SUB PUSH1 0x1F AND DUP3 ADD SWAP2 JUMPDEST POP POP POP POP POP SWAP2 POP SWAP2 POP SWAP2 POP SWAP1 SWAP2 JUMP JUMPDEST PUSH1 0x40 MLOAD DUP1 PUSH1 0x40 ADD PUSH1 0x40 MSTORE DUP1 DUP4 DUP2 MSTORE PUSH1 0x20 ADD DUP3 DUP2 MSTORE POP PUSH1 0x1 PUSH1 0x0 DUP3 ADD MLOAD DUP2 PUSH1 0x0 ADD SWAP1 DUP2 PUSH2 0x1A9 SWAP2 SWAP1 PUSH2 0x7C0 JUMP JUMPDEST POP PUSH1 0x20 DUP3 ADD MLOAD DUP2 PUSH1 0x1 ADD SSTORE SWAP1 POP POP DUP1 PUSH1 0x0 DUP4 PUSH1 0x40 MLOAD PUSH2 0x1C8 SWAP2 SWAP1 PUSH2 0x8CE JUMP JUMPDEST SWAP1 DUP2 MSTORE PUSH1 0x20 ADD PUSH1 0x40 MLOAD DUP1 SWAP2 SUB SWAP1 KECCAK256 DUP2 SWAP1 SSTORE POP POP POP JUMP JUMPDEST PUSH1 0x0 DUP2 DUP1 MLOAD PUSH1 0x20 DUP2 ADD DUP3 ADD DUP1 MLOAD DUP5 DUP3 MSTORE PUSH1 0x20 DUP4 ADD PUSH1 0x20 DUP6 ADD KECCAK256 DUP2 DUP4 MSTORE DUP1 SWAP6 POP POP POP POP POP POP PUSH1 0x0 SWAP2 POP SWAP1 POP SLOAD DUP2 JUMP JUMPDEST PUSH1 0x1 DUP1 PUSH1 0x0 ADD DUP1 SLOAD PUSH2 0x21D SWAP1 PUSH2 0x5E3 JUMP JUMPDEST DUP1 PUSH1 0x1F ADD PUSH1 0x20 DUP1 SWAP2 DIV MUL PUSH1 0x20 ADD PUSH1 0x40 MLOAD SWAP1 DUP2 ADD PUSH1 0x40 MSTORE DUP1 SWAP3 SWAP2 SWAP1 DUP2 DUP2 MSTORE PUSH1 0x20 ADD DUP3 DUP1 SLOAD PUSH2 0x249 SWAP1 PUSH2 0x5E3 JUMP JUMPDEST DUP1 ISZERO PUSH2 0x296 JUMPI DUP1 PUSH1 0x1F LT PUSH2 0x26B JUMPI PUSH2 0x100 DUP1 DUP4 SLOAD DIV MUL DUP4 MSTORE SWAP2 PUSH1 0x20 ADD SWAP2 PUSH2 0x296 JUMP JUMPDEST DUP3 ADD SWAP2 SWAP1 PUSH1 0x0 MSTORE PUSH1 0x20 PUSH1 0x0 KECCAK256 SWAP1 JUMPDEST DUP2 SLOAD DUP2 MSTORE SWAP1 PUSH1 0x1 ADD SWAP1 PUSH1 0x20 ADD DUP1 DUP4 GT PUSH2 0x279 JUMPI DUP3 SWAP1 SUB PUSH1 0x1F AND DUP3 ADD SWAP2 JUMPDEST POP POP POP POP POP SWAP1 DUP1 PUSH1 0x1 ADD SLOAD SWAP1 POP DUP3 JUMP JUMPDEST PUSH1 0x0 DUP2 MLOAD SWAP1 POP SWAP2 SWAP1 POP JUMP JUMPDEST PUSH1 0x0 DUP3 DUP3 MSTORE PUSH1 0x20 DUP3 ADD SWAP1 POP SWAP3 SWAP2 POP POP JUMP JUMPDEST PUSH1 0x0 JUMPDEST DUP4 DUP2 LT ISZERO PUSH2 0x2E0 JUMPI DUP1 DUP3 ADD MLOAD DUP2 DUP5 ADD MSTORE PUSH1 0x20 DUP2 ADD SWAP1 POP PUSH2 0x2C5 JUMP JUMPDEST PUSH1 0x0 DUP5 DUP5 ADD MSTORE POP POP POP POP JUMP JUMPDEST PUSH1 0x0 PUSH1 0x1F NOT PUSH1 0x1F DUP4 ADD AND SWAP1 POP SWAP2 SWAP1 POP JUMP JUMPDEST PUSH1 0x0 PUSH2 0x308 DUP3 PUSH2 0x2A6 JUMP JUMPDEST PUSH2 0x312 DUP2 DUP6 PUSH2 0x2B1 JUMP JUMPDEST SWAP4 POP PUSH2 0x322 DUP2 DUP6 PUSH1 0x20 DUP7 ADD PUSH2 0x2C2 JUMP JUMPDEST PUSH2 0x32B DUP2 PUSH2 0x2EC JUMP JUMPDEST DUP5 ADD SWAP2 POP POP SWAP3 SWAP2 POP POP JUMP JUMPDEST PUSH1 0x0 DUP2 SWAP1 POP SWAP2 SWAP1 POP JUMP JUMPDEST PUSH2 0x349 DUP2 PUSH2 0x336 JUMP JUMPDEST DUP3 MSTORE POP POP JUMP JUMPDEST PUSH1 0x0 PUSH1 0x40 DUP3 ADD SWAP1 POP DUP2 DUP2 SUB PUSH1 0x0 DUP4 ADD MSTORE PUSH2 0x369 DUP2 DUP6 PUSH2 0x2FD JUMP JUMPDEST SWAP1 POP PUSH2 0x378 PUSH1 0x20 DUP4 ADD DUP5 PUSH2 0x340 JUMP JUMPDEST SWAP4 SWAP3 POP POP POP JUMP JUMPDEST PUSH1 0x0 PUSH1 0x40 MLOAD SWAP1 POP SWAP1 JUMP JUMPDEST PUSH1 0x0 DUP1 REVERT JUMPDEST PUSH1 0x0 DUP1 REVERT JUMPDEST PUSH1 0x0 DUP1 REVERT JUMPDEST PUSH1 0x0 DUP1 REVERT JUMPDEST PUSH32 0x4E487B7100000000000000000000000000000000000000000000000000000000 PUSH1 0x0 MSTORE PUSH1 0x41 PUSH1 0x4 MSTORE PUSH1 0x24 PUSH1 0x0 REVERT JUMPDEST PUSH2 0x3D5 DUP3 PUSH2 0x2EC JUMP JUMPDEST DUP2 ADD DUP2 DUP2 LT PUSH8 0xFFFFFFFFFFFFFFFF DUP3 GT OR ISZERO PUSH2 0x3F4 JUMPI PUSH2 0x3F3 PUSH2 0x39D JUMP JUMPDEST JUMPDEST DUP1 PUSH1 0x40 MSTORE POP POP POP JUMP JUMPDEST PUSH1 0x0 PUSH2 0x407 PUSH2 0x37F JUMP JUMPDEST SWAP1 POP PUSH2 0x413 DUP3 DUP3 PUSH2 0x3CC JUMP JUMPDEST SWAP2 SWAP1 POP JUMP JUMPDEST PUSH1 0x0 PUSH8 0xFFFFFFFFFFFFFFFF DUP3 GT ISZERO PUSH2 0x433 JUMPI PUSH2 0x432 PUSH2 0x39D JUMP JUMPDEST JUMPDEST PUSH2 0x43C DUP3 PUSH2 0x2EC JUMP JUMPDEST SWAP1 POP PUSH1 0x20 DUP2 ADD SWAP1 POP SWAP2 SWAP1 POP JUMP JUMPDEST DUP3 DUP2 DUP4 CALLDATACOPY PUSH1 0x0 DUP4 DUP4 ADD MSTORE POP POP POP JUMP JUMPDEST PUSH1 0x0 PUSH2 0x46B PUSH2 0x466 DUP5 PUSH2 0x418 JUMP JUMPDEST PUSH2 0x3FD JUMP JUMPDEST SWAP1 POP DUP3 DUP2 MSTORE PUSH1 0x20 DUP2 ADD DUP5 DUP5 DUP5 ADD GT ISZERO PUSH2 0x487 JUMPI PUSH2 0x486 PUSH2 0x398 JUMP JUMPDEST JUMPDEST PUSH2 0x492 DUP5 DUP3 DUP6 PUSH2 0x449 JUMP JUMPDEST POP SWAP4 SWAP3 POP POP POP JUMP JUMPDEST PUSH1 0x0 DUP3 PUSH1 0x1F DUP4 ADD SLT PUSH2 0x4AF JUMPI PUSH2 0x4AE PUSH2 0x393 JUMP JUMPDEST JUMPDEST DUP2 CALLDATALOAD PUSH2 0x4BF DUP5 DUP3 PUSH1 0x20 DUP7 ADD PUSH2 0x458 JUMP JUMPDEST SWAP2 POP POP SWAP3 SWAP2 POP POP JUMP JUMPDEST PUSH2 0x4D1 DUP2 PUSH2 0x336 JUMP JUMPDEST DUP2 EQ PUSH2 0x4DC JUMPI PUSH1 0x0 DUP1 REVERT JUMPDEST POP JUMP JUMPDEST PUSH1 0x0 DUP2 CALLDATALOAD SWAP1 POP PUSH2 0x4EE DUP2 PUSH2 0x4C8 JUMP JUMPDEST SWAP3 SWAP2 POP POP JUMP JUMPDEST PUSH1 0x0 DUP1 PUSH1 0x40 DUP4 DUP6 SUB SLT ISZERO PUSH2 0x50B JUMPI PUSH2 0x50A PUSH2 0x389 JUMP JUMPDEST JUMPDEST PUSH1 0x0 DUP4 ADD CALLDATALOAD PUSH8 0xFFFFFFFFFFFFFFFF DUP2 GT ISZERO PUSH2 0x529 JUMPI PUSH2 0x528 PUSH2 0x38E JUMP JUMPDEST JUMPDEST PUSH2 0x535 DUP6 DUP3 DUP7 ADD PUSH2 0x49A JUMP JUMPDEST SWAP3 POP POP PUSH1 0x20 PUSH2 0x546 DUP6 DUP3 DUP7 ADD PUSH2 0x4DF JUMP JUMPDEST SWAP2 POP POP SWAP3 POP SWAP3 SWAP1 POP JUMP JUMPDEST PUSH1 0x0 PUSH1 0x20 DUP3 DUP5 SUB SLT ISZERO PUSH2 0x566 JUMPI PUSH2 0x565 PUSH2 0x389 JUMP JUMPDEST JUMPDEST PUSH1 0x0 DUP3 ADD CALLDATALOAD PUSH8 0xFFFFFFFFFFFFFFFF DUP2 GT ISZERO PUSH2 0x584 JUMPI PUSH2 0x583 PUSH2 0x38E JUMP JUMPDEST JUMPDEST PUSH2 0x590 DUP5 DUP3 DUP6 ADD PUSH2 0x49A JUMP JUMPDEST SWAP2 POP POP SWAP3 SWAP2 POP POP JUMP JUMPDEST PUSH1 0x0 PUSH1 0x20 DUP3 ADD SWAP1 POP PUSH2 0x5AE PUSH1 0x0 DUP4 ADD DUP5 PUSH2 0x340 JUMP JUMPDEST SWAP3 SWAP2 POP POP JUMP JUMPDEST PUSH32 0x4E487B7100000000000000000000000000000000000000000000000000000000 PUSH1 0x0 MSTORE PUSH1 0x22 PUSH1 0x4 MSTORE PUSH1 0x24 PUSH1 0x0 REVERT JUMPDEST PUSH1 0x0 PUSH1 0x2 DUP3 DIV SWAP1 POP PUSH1 0x1 DUP3 AND DUP1 PUSH2 0x5FB JUMPI PUSH1 0x7F DUP3 AND SWAP2 POP JUMPDEST PUSH1 0x20 DUP3 LT DUP2 SUB PUSH2 0x60E JUMPI PUSH2 0x60D PUSH2 0x5B4 JUMP JUMPDEST JUMPDEST POP SWAP2 SWAP1 POP JUMP JUMPDEST PUSH1 0x0 DUP2 SWAP1 POP DUP2 PUSH1 0x0 MSTORE PUSH1 0x20 PUSH1 0x0 KECCAK256 SWAP1 POP SWAP2 SWAP1 POP JUMP JUMPDEST PUSH1 0x0 PUSH1 0x20 PUSH1 0x1F DUP4 ADD DIV SWAP1 POP SWAP2 SWAP1 POP JUMP JUMPDEST PUSH1 0x0 DUP3 DUP3 SHL SWAP1 POP SWAP3 SWAP2 POP POP JUMP JUMPDEST PUSH1 0x0 PUSH1 0x8 DUP4 MUL PUSH2 0x676 PUSH32 0xFFFFFFFFFFFFFFFFFFFFFFFFFFFFFFFFFFFFFFFFFFFFFFFFFFFFFFFFFFFFFFFF DUP3 PUSH2 0x639 JUMP JUMPDEST PUSH2 0x680 DUP7 DUP4 PUSH2 0x639 JUMP JUMPDEST SWAP6 POP DUP1 NOT DUP5 AND SWAP4 POP DUP1 DUP7 AND DUP5 OR SWAP3 POP POP POP SWAP4 SWAP3 POP POP POP JUMP JUMPDEST PUSH1 0x0 DUP2 SWAP1 POP SWAP2 SWAP1 POP JUMP JUMPDEST PUSH1 0x0 PUSH2 0x6BD PUSH2 0x6B8 PUSH2 0x6B3 DUP5 PUSH2 0x336 JUMP JUMPDEST PUSH2 0x698 JUMP JUMPDEST PUSH2 0x336 JUMP JUMPDEST SWAP1 POP SWAP2 SWAP1 POP JUMP JUMPDEST PUSH1 0x0 DUP2 SWAP1 POP SWAP2 SWAP1 POP JUMP JUMPDEST PUSH2 0x6D7 DUP4 PUSH2 0x6A2 JUMP JUMPDEST PUSH2 0x6EB PUSH2 0x6E3 DUP3 PUSH2 0x6C4 JUMP JUMPDEST DUP5 DUP5 SLOAD PUSH2 0x646 JUMP JUMPDEST DUP3 SSTORE POP POP POP POP JUMP JUMPDEST PUSH1 0x0 SWAP1 JUMP JUMPDEST PUSH2 0x700 PUSH2 0x6F3 JUMP JUMPDEST PUSH2 0x70B DUP2 DUP5 DUP5 PUSH2 0x6CE JUMP JUMPDEST POP POP POP JUMP JUMPDEST JUMPDEST DUP2 DUP2 LT ISZERO PUSH2 0x72F JUMPI PUSH2 0x724 PUSH1 0x0 DUP3 PUSH2 0x6F8 JUMP JUMPDEST PUSH1 0x1 DUP2 ADD SWAP1 POP PUSH2 0x711 JUMP JUMPDEST POP POP JUMP JUMPDEST PUSH1 0x1F DUP3 GT ISZERO PUSH2 0x774 JUMPI PUSH2 0x745 DUP2 PUSH2 0x614 JUMP JUMPDEST PUSH2 0x74E DUP5 PUSH2 0x629 JUMP JUMPDEST DUP2 ADD PUSH1 0x20 DUP6 LT ISZERO PUSH2 0x75D JUMPI DUP2 SWAP1 POP JUMPDEST PUSH2 0x771 PUSH2 0x769 DUP6 PUSH2 0x629 JUMP JUMPDEST DUP4 ADD DUP3 PUSH2 0x710 JUMP JUMPDEST POP POP JUMPDEST POP POP POP JUMP JUMPDEST PUSH1 0x0 DUP3 DUP3 SHR SWAP1 POP SWAP3 SWAP2 POP POP JUMP JUMPDEST PUSH1 0x0 PUSH2 0x797 PUSH1 0x0 NOT DUP5 PUSH1 0x8 MUL PUSH2 0x779 JUMP JUMPDEST NOT DUP1 DUP4 AND SWAP2 POP POP SWAP3 SWAP2 POP POP JUMP JUMPDEST PUSH1 0x0 PUSH2 0x7B0 DUP4 DUP4 PUSH2 0x786 JUMP JUMPDEST SWAP2 POP DUP3 PUSH1 0x2 MUL DUP3 OR SWAP1 POP SWAP3 SWAP2 POP POP JUMP JUMPDEST PUSH2 0x7C9 DUP3 PUSH2 0x2A6 JUMP JUMPDEST PUSH8 0xFFFFFFFFFFFFFFFF DUP2 GT ISZERO PUSH2 0x7E2 JUMPI PUSH2 0x7E1 PUSH2 0x39D JUMP JUMPDEST JUMPDEST PUSH2 0x7EC DUP3 SLOAD PUSH2 0x5E3 JUMP JUMPDEST PUSH2 0x7F7 DUP3 DUP3 DUP6 PUSH2 0x733 JUMP JUMPDEST PUSH1 0x0 PUSH1 0x20 SWAP1 POP PUSH1 0x1F DUP4 GT PUSH1 0x1 DUP2 EQ PUSH2 0x82A JUMPI PUSH1 0x0 DUP5 ISZERO PUSH2 0x818 JUMPI DUP3 DUP8 ADD MLOAD SWAP1 POP JUMPDEST PUSH2 0x822 DUP6 DUP3 PUSH2 0x7A4 JUMP JUMPDEST DUP7 SSTORE POP PUSH2 0x88A JUMP JUMPDEST PUSH1 0x1F NOT DUP5 AND PUSH2 0x838 DUP7 PUSH2 0x614 JUMP JUMPDEST PUSH1 0x0 JUMPDEST DUP3 DUP2 LT ISZERO PUSH2 0x860 JUMPI DUP5 DUP10 ADD MLOAD DUP3 SSTORE PUSH1 0x1 DUP3 ADD SWAP2 POP PUSH1 0x20 DUP6 ADD SWAP5 POP PUSH1 0x20 DUP2 ADD SWAP1 POP PUSH2 0x83B JUMP JUMPDEST DUP7 DUP4 LT ISZERO PUSH2 0x87D JUMPI DUP5 DUP10 ADD MLOAD PUSH2 0x879 PUSH1 0x1F DUP10 AND DUP3 PUSH2 0x786 JUMP JUMPDEST DUP4 SSTORE POP JUMPDEST PUSH1 0x1 PUSH1 0x2 DUP9 MUL ADD DUP9 SSTORE POP POP POP JUMPDEST POP POP POP POP POP POP JUMP JUMPDEST PUSH1 0x0 DUP2 SWAP1 POP SWAP3 SWAP2 POP POP JUMP JUMPDEST PUSH1 0x0 PUSH2 0x8A8 DUP3 PUSH2 0x2A6 JUMP JUMPDEST PUSH2 0x8B2 DUP2 DUP6 PUSH2 0x892 JUMP JUMPDEST SWAP4 POP PUSH2 0x8C2 DUP2 DUP6 PUSH1 0x20 DUP7 ADD PUSH2 0x2C2 JUMP JUMPDEST DUP1 DUP5 ADD SWAP2 POP POP SWAP3 SWAP2 POP POP JUMP JUMPDEST PUSH1 0x0 PUSH2 0x8DA DUP3 DUP5 PUSH2 0x89D JUMP JUMPDEST SWAP2 POP DUP2 SWAP1 POP SWAP3 SWAP2 POP POP JUMP INVALID LOG2 PUSH5 0x6970667358 0x22 SLT KECCAK256 PUSH9 0x30B24A5214273BF8F7 0x26 0xEB 0x4E PUSH19 0xFE77A0B64A868269E171BE5A19D4216F2C9664 PUSH20 0x6F6C634300081200330000000000000000000000 "
		},
		"gasEstimates": {
			"creation": {
				"codeDepositCost": "466200",
				"executionCost": "499",
				"totalCost": "466699"
			},
			"external": {
				"People()": "infinite",
				"addPeople(string,uint256)": "infinite",
				"getPeople()": "infinite",
				"nameOfPerson(string)": "infinite"
			}
		},
		"methodIdentifiers": {
			"People()": "c489d1c2",
			"addPeople(string,uint256)": "795fff1d",
			"getPeople()": "4f995d08",
			"nameOfPerson(string)": "aa598f93"
		}
	},
	"abi": [
		{
			"inputs": [],
			"name": "People",
			"outputs": [
				{
					"internalType": "string",
					"name": "name",
					"type": "string"
				},
				{
					"internalType": "uint256",
					"name": "age",
					"type": "uint256"
				}
			],
			"stateMutability": "view",
			"type": "function"
		},
		{
			"inputs": [
				{
					"internalType": "string",
					"name": "_name",
					"type": "string"
				},
				{
					"internalType": "uint256",
					"name": "_age",
					"type": "uint256"
				}
			],
			"name": "addPeople",
			"outputs": [],
			"stateMutability": "nonpayable",
			"type": "function"
		},
		{
			"inputs": [],
			"name": "getPeople",
			"outputs": [
				{
					"internalType": "string",
					"name": "",
					"type": "string"
				},
				{
					"internalType": "uint256",
					"name": "",
					"type": "uint256"
				}
			],
			"stateMutability": "view",
			"type": "function"
		},
		{
			"inputs": [
				{
					"internalType": "string",
					"name": "",
					"type": "string"
				}
			],
			"name": "nameOfPerson",
			"outputs": [
				{
					"internalType": "uint256",
					"name": "",
					"type": "uint256"
				}
			],
			"stateMutability": "view",
			"type": "function"
		}
	]
}