{
	"fund_me/A9.sol": {
		"FundMeA9": {
			"abi": [
				{
					"inputs": [],
					"stateMutability": "nonpayable",
					"type": "constructor"
				},
				{
					"inputs": [],
					"name": "EthNotEnough",
					"type": "error"
				},
				{
					"inputs": [],
					"name": "MustBeOwner",
					"type": "error"
				},
				{
					"inputs": [],
					"name": "SendingFailed",
					"type": "error"
				},
				{
					"inputs": [],
					"name": "MIN_USD",
					"outputs": [
						{
							"internalType": "uint256",
							"name": "",
							"type": "uint256"
						}
					],
					"stateMutability": "view",
					"type": "function"
				},
				{
					"inputs": [
						{
							"internalType": "address",
							"name": "",
							"type": "address"
						}
					],
					"name": "address_to_amount",
					"outputs": [
						{
							"internalType": "uint256",
							"name": "",
							"type": "uint256"
						}
					],
					"stateMutability": "view",
					"type": "function"
				},
				{
					"inputs": [],
					"name": "fund",
					"outputs": [],
					"stateMutability": "payable",
					"type": "function"
				},
				{
					"inputs": [],
					"name": "i_owner",
					"outputs": [
						{
							"internalType": "address",
							"name": "",
							"type": "address"
						}
					],
					"stateMutability": "view",
					"type": "function"
				},
				{
					"inputs": [
						{
							"internalType": "uint256",
							"name": "",
							"type": "uint256"
						}
					],
					"name": "sender_Adresses",
					"outputs": [
						{
							"internalType": "address",
							"name": "",
							"type": "address"
						}
					],
					"stateMutability": "view",
					"type": "function"
				},
				{
					"inputs": [],
					"name": "withdraw",
					"outputs": [],
					"stateMutability": "nonpayable",
					"type": "function"
				}
			],
			"devdoc": {
				"kind": "dev",
				"methods": {},
				"version": 1
			},
			"evm": {
				"assembly": "    /* \"fund_me/A9.sol\":427:3352  contract FundMeA9{... */\n  mstore(0x40, 0xa0)\n    /* \"fund_me/A9.sol\":1395:1447  constructor(){... */\n  callvalue\n  dup1\n  iszero\n  tag_1\n  jumpi\n  0x00\n  dup1\n  revert\ntag_1:\n  pop\n    /* \"fund_me/A9.sol\":1429:1439  msg.sender */\n  caller\n    /* \"fund_me/A9.sol\":1419:1439  i_owner = msg.sender */\n  0xffffffffffffffffffffffffffffffffffffffff\n  and\n  0x80\n  dup2\n  0xffffffffffffffffffffffffffffffffffffffff\n  and\n  dup2\n  mstore\n  pop\n  pop\n    /* \"fund_me/A9.sol\":427:3352  contract FundMeA9{... */\n  mload(0x80)\n  codecopy(0x00, dataOffset(sub_0), dataSize(sub_0))\n  0x00\n  assignImmutable(\"0xf65e3ff0de05ca77aa8c820bd528facc139ee4b0986f7c350f3198928bd2c72b\")\n  return(0x00, dataSize(sub_0))\nstop\n\nsub_0: assembly {\n        /* \"fund_me/A9.sol\":427:3352  contract FundMeA9{... */\n      mstore(0x40, 0x80)\n      jumpi(tag_1, lt(calldatasize, 0x04))\n      shr(0xe0, calldataload(0x00))\n      dup1\n      0x213dbea2\n      eq\n      tag_2\n      jumpi\n      dup1\n      0x32c35cdc\n      eq\n      tag_3\n      jumpi\n      dup1\n      0x3ccfd60b\n      eq\n      tag_4\n      jumpi\n      dup1\n      0xa6878279\n      eq\n      tag_5\n      jumpi\n      dup1\n      0xb60d4288\n      eq\n      tag_6\n      jumpi\n      dup1\n      0xdba6335f\n      eq\n      tag_7\n      jumpi\n    tag_1:\n      0x00\n      dup1\n      revert\n        /* \"fund_me/A9.sol\":578:620  uint256 public constant MIN_USD = 5 * 1e18 */\n    tag_2:\n      callvalue\n      dup1\n      iszero\n      tag_8\n      jumpi\n      0x00\n      dup1\n      revert\n    tag_8:\n      pop\n      tag_9\n      tag_10\n      jump\t// in\n    tag_9:\n      mload(0x40)\n      tag_11\n      swap2\n      swap1\n      tag_12\n      jump\t// in\n    tag_11:\n      mload(0x40)\n      dup1\n      swap2\n      sub\n      swap1\n      return\n        /* \"fund_me/A9.sol\":860:892  address[] public sender_Adresses */\n    tag_3:\n      callvalue\n      dup1\n      iszero\n      tag_13\n      jumpi\n      0x00\n      dup1\n      revert\n    tag_13:\n      pop\n      tag_14\n      0x04\n      dup1\n      calldatasize\n      sub\n      dup2\n      add\n      swap1\n      tag_15\n      swap2\n      swap1\n      tag_16\n      jump\t// in\n    tag_15:\n      tag_17\n      jump\t// in\n    tag_14:\n      mload(0x40)\n      tag_18\n      swap2\n      swap1\n      tag_19\n      jump\t// in\n    tag_18:\n      mload(0x40)\n      dup1\n      swap2\n      sub\n      swap1\n      return\n        /* \"fund_me/A9.sol\":1846:2678  function withdraw() public onlyOwner{... */\n    tag_4:\n      callvalue\n      dup1\n      iszero\n      tag_20\n      jumpi\n      0x00\n      dup1\n      revert\n    tag_20:\n      pop\n      tag_21\n      tag_22\n      jump\t// in\n    tag_21:\n      stop\n        /* \"fund_me/A9.sol\":899:951  mapping(address => uint256) public address_to_amount */\n    tag_5:\n      callvalue\n      dup1\n      iszero\n      tag_23\n      jumpi\n      0x00\n      dup1\n      revert\n    tag_23:\n      pop\n      tag_24\n      0x04\n      dup1\n      calldatasize\n      sub\n      dup2\n      add\n      swap1\n      tag_25\n      swap2\n      swap1\n      tag_26\n      jump\t// in\n    tag_25:\n      tag_27\n      jump\t// in\n    tag_24:\n      mload(0x40)\n      tag_28\n      swap2\n      swap1\n      tag_12\n      jump\t// in\n    tag_28:\n      mload(0x40)\n      dup1\n      swap2\n      sub\n      swap1\n      return\n        /* \"fund_me/A9.sol\":1455:1838  function fund() public payable{... */\n    tag_6:\n      tag_29\n      tag_30\n      jump\t// in\n    tag_29:\n      stop\n        /* \"fund_me/A9.sol\":958:990  address public immutable i_owner */\n    tag_7:\n      callvalue\n      dup1\n      iszero\n      tag_31\n      jumpi\n      0x00\n      dup1\n      revert\n    tag_31:\n      pop\n      tag_32\n      tag_33\n      jump\t// in\n    tag_32:\n      mload(0x40)\n      tag_34\n      swap2\n      swap1\n      tag_19\n      jump\t// in\n    tag_34:\n      mload(0x40)\n      dup1\n      swap2\n      sub\n      swap1\n      return\n        /* \"fund_me/A9.sol\":578:620  uint256 public constant MIN_USD = 5 * 1e18 */\n    tag_10:\n        /* \"fund_me/A9.sol\":612:620  5 * 1e18 */\n      0x4563918244f40000\n        /* \"fund_me/A9.sol\":578:620  uint256 public constant MIN_USD = 5 * 1e18 */\n      dup2\n      jump\t// out\n        /* \"fund_me/A9.sol\":860:892  address[] public sender_Adresses */\n    tag_17:\n      0x00\n      dup2\n      dup2\n      sload\n      dup2\n      lt\n      tag_35\n      jumpi\n      0x00\n      dup1\n      revert\n    tag_35:\n      swap1\n      0x00\n      mstore\n      keccak256(0x00, 0x20)\n      add\n      0x00\n      swap2\n      pop\n      sload\n      swap1\n      0x0100\n      exp\n      swap1\n      div\n      0xffffffffffffffffffffffffffffffffffffffff\n      and\n      dup2\n      jump\t// out\n        /* \"fund_me/A9.sol\":1846:2678  function withdraw() public onlyOwner{... */\n    tag_22:\n        /* \"fund_me/A9.sol\":3078:3088  msg.sender */\n      caller\n        /* \"fund_me/A9.sol\":3067:3088  i_owner != msg.sender */\n      0xffffffffffffffffffffffffffffffffffffffff\n      and\n        /* \"fund_me/A9.sol\":3067:3074  i_owner */\n      immutable(\"0xf65e3ff0de05ca77aa8c820bd528facc139ee4b0986f7c350f3198928bd2c72b\")\n        /* \"fund_me/A9.sol\":3067:3088  i_owner != msg.sender */\n      0xffffffffffffffffffffffffffffffffffffffff\n      and\n      eq\n        /* \"fund_me/A9.sol\":3063:3330  if (i_owner != msg.sender){... */\n      tag_38\n      jumpi\n        /* \"fund_me/A9.sol\":3111:3124  MustBeOwner() */\n      mload(0x40)\n      0xb0f7dc5600000000000000000000000000000000000000000000000000000000\n      dup2\n      mstore\n      0x04\n      add\n      mload(0x40)\n      dup1\n      swap2\n      sub\n      swap1\n      revert\n        /* \"fund_me/A9.sol\":3063:3330  if (i_owner != msg.sender){... */\n    tag_38:\n        /* \"fund_me/A9.sol\":1897:1917  uint256 sender_index */\n      0x00\n        /* \"fund_me/A9.sol\":1893:2094  for(uint256 sender_index = 0; sender_index < sender_Adresses.length; sender_index++){... */\n    tag_40:\n        /* \"fund_me/A9.sol\":1938:1953  sender_Adresses */\n      0x00\n        /* \"fund_me/A9.sol\":1938:1960  sender_Adresses.length */\n      dup1\n      sload\n      swap1\n      pop\n        /* \"fund_me/A9.sol\":1923:1935  sender_index */\n      dup2\n        /* \"fund_me/A9.sol\":1923:1960  sender_index < sender_Adresses.length */\n      lt\n        /* \"fund_me/A9.sol\":1893:2094  for(uint256 sender_index = 0; sender_index < sender_Adresses.length; sender_index++){... */\n      iszero\n      tag_41\n      jumpi\n        /* \"fund_me/A9.sol\":1992:2006  address sender */\n      0x00\n        /* \"fund_me/A9.sol\":2009:2024  sender_Adresses */\n      dup1\n        /* \"fund_me/A9.sol\":2025:2037  sender_index */\n      dup3\n        /* \"fund_me/A9.sol\":2009:2038  sender_Adresses[sender_index] */\n      dup2\n      sload\n      dup2\n      lt\n      tag_43\n      jumpi\n      tag_44\n      tag_45\n      jump\t// in\n    tag_44:\n    tag_43:\n      swap1\n      0x00\n      mstore\n      keccak256(0x00, 0x20)\n      add\n      0x00\n      swap1\n      sload\n      swap1\n      0x0100\n      exp\n      swap1\n      div\n      0xffffffffffffffffffffffffffffffffffffffff\n      and\n        /* \"fund_me/A9.sol\":1992:2038  address sender = sender_Adresses[sender_index] */\n      swap1\n      pop\n        /* \"fund_me/A9.sol\":2081:2082  0 */\n      0x00\n        /* \"fund_me/A9.sol\":2053:2070  address_to_amount */\n      0x01\n        /* \"fund_me/A9.sol\":2053:2078  address_to_amount[sender] */\n      0x00\n        /* \"fund_me/A9.sol\":2071:2077  sender */\n      dup4\n        /* \"fund_me/A9.sol\":2053:2078  address_to_amount[sender] */\n      0xffffffffffffffffffffffffffffffffffffffff\n      and\n      0xffffffffffffffffffffffffffffffffffffffff\n      and\n      dup2\n      mstore\n      0x20\n      add\n      swap1\n      dup2\n      mstore\n      0x20\n      add\n      0x00\n      keccak256\n        /* \"fund_me/A9.sol\":2053:2082  address_to_amount[sender] = 0 */\n      dup2\n      swap1\n      sstore\n      pop\n        /* \"fund_me/A9.sol\":1977:2094  {... */\n      pop\n        /* \"fund_me/A9.sol\":1962:1976  sender_index++ */\n      dup1\n      dup1\n      0x01\n      add\n      swap2\n      pop\n      pop\n        /* \"fund_me/A9.sol\":1893:2094  for(uint256 sender_index = 0; sender_index < sender_Adresses.length; sender_index++){... */\n      jump(tag_40)\n    tag_41:\n      pop\n        /* \"fund_me/A9.sol\":2138:2139  0 */\n      0x00\n        /* \"fund_me/A9.sol\":2124:2140  new address[](0) */\n      0xffffffffffffffff\n      dup2\n      gt\n      iszero\n      tag_47\n      jumpi\n      tag_48\n      tag_49\n      jump\t// in\n    tag_48:\n    tag_47:\n      mload(0x40)\n      swap1\n      dup1\n      dup3\n      mstore\n      dup1\n      0x20\n      mul\n      0x20\n      add\n      dup3\n      add\n      0x40\n      mstore\n      dup1\n      iszero\n      tag_50\n      jumpi\n      dup2\n      0x20\n      add\n      0x20\n      dup3\n      mul\n      dup1\n      calldatasize\n      dup4\n      calldatacopy\n      dup1\n      dup3\n      add\n      swap2\n      pop\n      pop\n      swap1\n      pop\n    tag_50:\n      pop\n        /* \"fund_me/A9.sol\":2106:2121  sender_Adresses */\n      0x00\n        /* \"fund_me/A9.sol\":2106:2140  sender_Adresses = new address[](0) */\n      swap1\n      dup1\n      mload\n      swap1\n      0x20\n      add\n      swap1\n      tag_51\n      swap3\n      swap2\n      swap1\n      tag_52\n      jump\t// in\n    tag_51:\n      pop\n        /* \"fund_me/A9.sol\":2352:2370  bool call_succcess */\n      0x00\n        /* \"fund_me/A9.sol\":2383:2393  msg.sender */\n      caller\n        /* \"fund_me/A9.sol\":2375:2399  payable(msg.sender).call */\n      0xffffffffffffffffffffffffffffffffffffffff\n      and\n        /* \"fund_me/A9.sol\":2407:2428  address(this).balance */\n      selfbalance\n        /* \"fund_me/A9.sol\":2375:2433  payable(msg.sender).call{value: address(this).balance}(\"\") */\n      mload(0x40)\n      tag_53\n      swap1\n      tag_54\n      jump\t// in\n    tag_53:\n      0x00\n      mload(0x40)\n      dup1\n      dup4\n      sub\n      dup2\n      dup6\n      dup8\n      gas\n      call\n      swap3\n      pop\n      pop\n      pop\n      returndatasize\n      dup1\n      0x00\n      dup2\n      eq\n      tag_57\n      jumpi\n      mload(0x40)\n      swap2\n      pop\n      and(add(returndatasize, 0x3f), not(0x1f))\n      dup3\n      add\n      0x40\n      mstore\n      returndatasize\n      dup3\n      mstore\n      returndatasize\n      0x00\n      0x20\n      dup5\n      add\n      returndatacopy\n      jump(tag_56)\n    tag_57:\n      0x60\n      swap2\n      pop\n    tag_56:\n      pop\n        /* \"fund_me/A9.sol\":2351:2433  (bool call_succcess,) = payable(msg.sender).call{value: address(this).balance}(\"\") */\n      pop\n      swap1\n      pop\n        /* \"fund_me/A9.sol\":2616:2621  false */\n      0x00\n        /* \"fund_me/A9.sol\":2599:2621  call_succcess == false */\n      iszero\n      iszero\n        /* \"fund_me/A9.sol\":2599:2612  call_succcess */\n      dup2\n        /* \"fund_me/A9.sol\":2599:2621  call_succcess == false */\n      iszero\n      iszero\n      sub\n        /* \"fund_me/A9.sol\":2595:2671  if (call_succcess == false){... */\n      tag_58\n      jumpi\n        /* \"fund_me/A9.sol\":2644:2659  SendingFailed() */\n      mload(0x40)\n      0xa105e7ed00000000000000000000000000000000000000000000000000000000\n      dup2\n      mstore\n      0x04\n      add\n      mload(0x40)\n      dup1\n      swap2\n      sub\n      swap1\n      revert\n        /* \"fund_me/A9.sol\":2595:2671  if (call_succcess == false){... */\n    tag_58:\n        /* \"fund_me/A9.sol\":1882:2678  {... */\n      pop\n        /* \"fund_me/A9.sol\":1846:2678  function withdraw() public onlyOwner{... */\n      jump\t// out\n        /* \"fund_me/A9.sol\":899:951  mapping(address => uint256) public address_to_amount */\n    tag_27:\n      mstore(0x20, 0x01)\n      dup1\n      0x00\n      mstore\n      keccak256(0x00, 0x40)\n      0x00\n      swap2\n      pop\n      swap1\n      pop\n      sload\n      dup2\n      jump\t// out\n        /* \"fund_me/A9.sol\":1455:1838  function fund() public payable{... */\n    tag_30:\n        /* \"fund_me/A9.sol\":612:620  5 * 1e18 */\n      0x4563918244f40000\n        /* \"fund_me/A9.sol\":1651:1676  msg.value.getConvertion() */\n      tag_60\n        /* \"fund_me/A9.sol\":1651:1660  msg.value */\n      callvalue\n        /* \"fund_me/A9.sol\":1651:1674  msg.value.getConvertion */\n      tag_61\n        /* \"fund_me/A9.sol\":1651:1676  msg.value.getConvertion() */\n      jump\t// in\n    tag_60:\n        /* \"fund_me/A9.sol\":1651:1686  msg.value.getConvertion() < MIN_USD */\n      lt\n        /* \"fund_me/A9.sol\":1647:1735  if (msg.value.getConvertion() < MIN_USD){... */\n      iszero\n      tag_62\n      jumpi\n        /* \"fund_me/A9.sol\":1709:1723  EthNotEnough() */\n      mload(0x40)\n      0x49d12b6500000000000000000000000000000000000000000000000000000000\n      dup2\n      mstore\n      0x04\n      add\n      mload(0x40)\n      dup1\n      swap2\n      sub\n      swap1\n      revert\n        /* \"fund_me/A9.sol\":1647:1735  if (msg.value.getConvertion() < MIN_USD){... */\n    tag_62:\n        /* \"fund_me/A9.sol\":1745:1760  sender_Adresses */\n      0x00\n        /* \"fund_me/A9.sol\":1766:1776  msg.sender */\n      caller\n        /* \"fund_me/A9.sol\":1745:1777  sender_Adresses.push(msg.sender) */\n      swap1\n      dup1\n      0x01\n      dup2\n      sload\n      add\n      dup1\n      dup3\n      sstore\n      dup1\n      swap2\n      pop\n      pop\n      0x01\n      swap1\n      sub\n      swap1\n      0x00\n      mstore\n      keccak256(0x00, 0x20)\n      add\n      0x00\n      swap1\n      swap2\n      swap1\n      swap2\n      swap1\n      swap2\n      0x0100\n      exp\n      dup2\n      sload\n      dup2\n      0xffffffffffffffffffffffffffffffffffffffff\n      mul\n      not\n      and\n      swap1\n      dup4\n      0xffffffffffffffffffffffffffffffffffffffff\n      and\n      mul\n      or\n      swap1\n      sstore\n      pop\n        /* \"fund_me/A9.sol\":1821:1830  msg.value */\n      callvalue\n        /* \"fund_me/A9.sol\":1788:1805  address_to_amount */\n      0x01\n        /* \"fund_me/A9.sol\":1788:1817  address_to_amount[msg.sender] */\n      0x00\n        /* \"fund_me/A9.sol\":1806:1816  msg.sender */\n      caller\n        /* \"fund_me/A9.sol\":1788:1817  address_to_amount[msg.sender] */\n      0xffffffffffffffffffffffffffffffffffffffff\n      and\n      0xffffffffffffffffffffffffffffffffffffffff\n      and\n      dup2\n      mstore\n      0x20\n      add\n      swap1\n      dup2\n      mstore\n      0x20\n      add\n      0x00\n      keccak256\n      0x00\n        /* \"fund_me/A9.sol\":1788:1830  address_to_amount[msg.sender] += msg.value */\n      dup3\n      dup3\n      sload\n      tag_64\n      swap2\n      swap1\n      tag_65\n      jump\t// in\n    tag_64:\n      swap3\n      pop\n      pop\n      dup2\n      swap1\n      sstore\n      pop\n        /* \"fund_me/A9.sol\":1455:1838  function fund() public payable{... */\n      jump\t// out\n        /* \"fund_me/A9.sol\":958:990  address public immutable i_owner */\n    tag_33:\n      immutable(\"0xf65e3ff0de05ca77aa8c820bd528facc139ee4b0986f7c350f3198928bd2c72b\")\n      dup2\n      jump\t// out\n        /* \"fund_me/A4_price_converter_library.sol\":658:877  function getConvertion(uint256 ETH_amount) internal view returns(uint256){... */\n    tag_61:\n        /* \"fund_me/A4_price_converter_library.sol\":723:730  uint256 */\n      0x00\n        /* \"fund_me/A4_price_converter_library.sol\":742:759  uint256 ETH_price */\n      dup1\n        /* \"fund_me/A4_price_converter_library.sol\":762:772  getPrice() */\n      tag_67\n        /* \"fund_me/A4_price_converter_library.sol\":762:770  getPrice */\n      tag_68\n        /* \"fund_me/A4_price_converter_library.sol\":762:772  getPrice() */\n      jump\t// in\n    tag_67:\n        /* \"fund_me/A4_price_converter_library.sol\":742:772  uint256 ETH_price = getPrice() */\n      swap1\n      pop\n        /* \"fund_me/A4_price_converter_library.sol\":783:804  uint256 amount_in_USD */\n      0x00\n        /* \"fund_me/A4_price_converter_library.sol\":834:838  1e18 */\n      0x0de0b6b3a7640000\n        /* \"fund_me/A4_price_converter_library.sol\":821:830  ETH_price */\n      dup3\n        /* \"fund_me/A4_price_converter_library.sol\":808:818  ETH_amount */\n      dup6\n        /* \"fund_me/A4_price_converter_library.sol\":808:830  ETH_amount * ETH_price */\n      tag_69\n      swap2\n      swap1\n      tag_70\n      jump\t// in\n    tag_69:\n        /* \"fund_me/A4_price_converter_library.sol\":807:838  (ETH_amount * ETH_price) / 1e18 */\n      tag_71\n      swap2\n      swap1\n      tag_72\n      jump\t// in\n    tag_71:\n        /* \"fund_me/A4_price_converter_library.sol\":783:838  uint256 amount_in_USD = (ETH_amount * ETH_price) / 1e18 */\n      swap1\n      pop\n        /* \"fund_me/A4_price_converter_library.sol\":856:869  amount_in_USD */\n      dup1\n        /* \"fund_me/A4_price_converter_library.sol\":849:869  return amount_in_USD */\n      swap3\n      pop\n      pop\n      pop\n        /* \"fund_me/A4_price_converter_library.sol\":658:877  function getConvertion(uint256 ETH_amount) internal view returns(uint256){... */\n      swap2\n      swap1\n      pop\n      jump\t// out\n        /* \"fund_me/A4_price_converter_library.sol\":382:650  function getPrice() internal view returns(uint256){... */\n    tag_68:\n        /* \"fund_me/A4_price_converter_library.sol\":424:431  uint256 */\n      0x00\n        /* \"fund_me/A4_price_converter_library.sol\":443:475  AggregatorV3Interface price_feed */\n      dup1\n        /* \"fund_me/A4_price_converter_library.sol\":500:542  0x694AA1769357215DE4FAC081bf1f309aDC325306 */\n      0x694aa1769357215de4fac081bf1f309adc325306\n        /* \"fund_me/A4_price_converter_library.sol\":443:543  AggregatorV3Interface price_feed = AggregatorV3Interface(0x694AA1769357215DE4FAC081bf1f309aDC325306) */\n      swap1\n      pop\n        /* \"fund_me/A4_price_converter_library.sol\":556:568  int256 price */\n      0x00\n        /* \"fund_me/A4_price_converter_library.sol\":575:585  price_feed */\n      dup2\n        /* \"fund_me/A4_price_converter_library.sol\":575:601  price_feed.latestRoundData */\n      0xffffffffffffffffffffffffffffffffffffffff\n      and\n      0xfeaf968c\n        /* \"fund_me/A4_price_converter_library.sol\":575:603  price_feed.latestRoundData() */\n      mload(0x40)\n      dup2\n      0xffffffff\n      and\n      0xe0\n      shl\n      dup2\n      mstore\n      0x04\n      add\n      0xa0\n      mload(0x40)\n      dup1\n      dup4\n      sub\n      dup2\n      dup7\n      gas\n      staticcall\n      iszero\n      dup1\n      iszero\n      tag_75\n      jumpi\n      returndatasize\n      0x00\n      dup1\n      returndatacopy\n      revert(0x00, returndatasize)\n    tag_75:\n      pop\n      pop\n      pop\n      pop\n      mload(0x40)\n      returndatasize\n      not(0x1f)\n      0x1f\n      dup3\n      add\n      and\n      dup3\n      add\n      dup1\n      0x40\n      mstore\n      pop\n      dup2\n      add\n      swap1\n      tag_76\n      swap2\n      swap1\n      tag_77\n      jump\t// in\n    tag_76:\n        /* \"fund_me/A4_price_converter_library.sol\":554:603  (,int256 price,,,) = price_feed.latestRoundData() */\n      pop\n      pop\n      pop\n      swap2\n      pop\n      pop\n        /* \"fund_me/A4_price_converter_library.sol\":637:641  1e18 */\n      0x0de0b6b3a7640000\n        /* \"fund_me/A4_price_converter_library.sol\":629:634  price */\n      dup2\n        /* \"fund_me/A4_price_converter_library.sol\":629:641  price * 1e18 */\n      tag_78\n      swap2\n      swap1\n      tag_79\n      jump\t// in\n    tag_78:\n        /* \"fund_me/A4_price_converter_library.sol\":614:642  return uint256(price * 1e18) */\n      swap3\n      pop\n      pop\n      pop\n        /* \"fund_me/A4_price_converter_library.sol\":382:650  function getPrice() internal view returns(uint256){... */\n      swap1\n      jump\t// out\n    tag_52:\n      dup3\n      dup1\n      sload\n      dup3\n      dup3\n      sstore\n      swap1\n      0x00\n      mstore\n      keccak256(0x00, 0x20)\n      swap1\n      dup2\n      add\n      swap3\n      dup3\n      iszero\n      tag_80\n      jumpi\n      swap2\n      0x20\n      mul\n      dup3\n      add\n    tag_81:\n      dup3\n      dup2\n      gt\n      iszero\n      tag_82\n      jumpi\n      dup3\n      mload\n      dup3\n      exp(0x0100, 0x00)\n      dup2\n      sload\n      dup2\n      0xffffffffffffffffffffffffffffffffffffffff\n      mul\n      not\n      and\n      swap1\n      dup4\n      0xffffffffffffffffffffffffffffffffffffffff\n      and\n      mul\n      or\n      swap1\n      sstore\n      pop\n      swap2\n      0x20\n      add\n      swap2\n      swap1\n      0x01\n      add\n      swap1\n      jump(tag_81)\n    tag_82:\n    tag_80:\n      pop\n      swap1\n      pop\n      tag_83\n      swap2\n      swap1\n      tag_84\n      jump\t// in\n    tag_83:\n      pop\n      swap1\n      jump\t// out\n    tag_84:\n    tag_85:\n      dup1\n      dup3\n      gt\n      iszero\n      tag_86\n      jumpi\n      0x00\n      dup2\n      0x00\n      swap1\n      sstore\n      pop\n      0x01\n      add\n      jump(tag_85)\n    tag_86:\n      pop\n      swap1\n      jump\t// out\n        /* \"#utility.yul\":7:84   */\n    tag_87:\n        /* \"#utility.yul\":44:51   */\n      0x00\n        /* \"#utility.yul\":73:78   */\n      dup2\n        /* \"#utility.yul\":62:78   */\n      swap1\n      pop\n        /* \"#utility.yul\":7:84   */\n      swap2\n      swap1\n      pop\n      jump\t// out\n        /* \"#utility.yul\":90:208   */\n    tag_88:\n        /* \"#utility.yul\":177:201   */\n      tag_114\n        /* \"#utility.yul\":195:200   */\n      dup2\n        /* \"#utility.yul\":177:201   */\n      tag_87\n      jump\t// in\n    tag_114:\n        /* \"#utility.yul\":172:175   */\n      dup3\n        /* \"#utility.yul\":165:202   */\n      mstore\n        /* \"#utility.yul\":90:208   */\n      pop\n      pop\n      jump\t// out\n        /* \"#utility.yul\":214:436   */\n    tag_12:\n        /* \"#utility.yul\":307:311   */\n      0x00\n        /* \"#utility.yul\":345:347   */\n      0x20\n        /* \"#utility.yul\":334:343   */\n      dup3\n        /* \"#utility.yul\":330:348   */\n      add\n        /* \"#utility.yul\":322:348   */\n      swap1\n      pop\n        /* \"#utility.yul\":358:429   */\n      tag_116\n        /* \"#utility.yul\":426:427   */\n      0x00\n        /* \"#utility.yul\":415:424   */\n      dup4\n        /* \"#utility.yul\":411:428   */\n      add\n        /* \"#utility.yul\":402:408   */\n      dup5\n        /* \"#utility.yul\":358:429   */\n      tag_88\n      jump\t// in\n    tag_116:\n        /* \"#utility.yul\":214:436   */\n      swap3\n      swap2\n      pop\n      pop\n      jump\t// out\n        /* \"#utility.yul\":523:640   */\n    tag_90:\n        /* \"#utility.yul\":632:633   */\n      0x00\n        /* \"#utility.yul\":629:630   */\n      dup1\n        /* \"#utility.yul\":622:634   */\n      revert\n        /* \"#utility.yul\":769:891   */\n    tag_92:\n        /* \"#utility.yul\":842:866   */\n      tag_121\n        /* \"#utility.yul\":860:865   */\n      dup2\n        /* \"#utility.yul\":842:866   */\n      tag_87\n      jump\t// in\n    tag_121:\n        /* \"#utility.yul\":835:840   */\n      dup2\n        /* \"#utility.yul\":832:867   */\n      eq\n        /* \"#utility.yul\":822:885   */\n      tag_122\n      jumpi\n        /* \"#utility.yul\":881:882   */\n      0x00\n        /* \"#utility.yul\":878:879   */\n      dup1\n        /* \"#utility.yul\":871:883   */\n      revert\n        /* \"#utility.yul\":822:885   */\n    tag_122:\n        /* \"#utility.yul\":769:891   */\n      pop\n      jump\t// out\n        /* \"#utility.yul\":897:1036   */\n    tag_93:\n        /* \"#utility.yul\":943:948   */\n      0x00\n        /* \"#utility.yul\":981:987   */\n      dup2\n        /* \"#utility.yul\":968:988   */\n      calldataload\n        /* \"#utility.yul\":959:988   */\n      swap1\n      pop\n        /* \"#utility.yul\":997:1030   */\n      tag_124\n        /* \"#utility.yul\":1024:1029   */\n      dup2\n        /* \"#utility.yul\":997:1030   */\n      tag_92\n      jump\t// in\n    tag_124:\n        /* \"#utility.yul\":897:1036   */\n      swap3\n      swap2\n      pop\n      pop\n      jump\t// out\n        /* \"#utility.yul\":1042:1371   */\n    tag_16:\n        /* \"#utility.yul\":1101:1107   */\n      0x00\n        /* \"#utility.yul\":1150:1152   */\n      0x20\n        /* \"#utility.yul\":1138:1147   */\n      dup3\n        /* \"#utility.yul\":1129:1136   */\n      dup5\n        /* \"#utility.yul\":1125:1148   */\n      sub\n        /* \"#utility.yul\":1121:1153   */\n      slt\n        /* \"#utility.yul\":1118:1237   */\n      iszero\n      tag_126\n      jumpi\n        /* \"#utility.yul\":1156:1235   */\n      tag_127\n      tag_90\n      jump\t// in\n    tag_127:\n        /* \"#utility.yul\":1118:1237   */\n    tag_126:\n        /* \"#utility.yul\":1276:1277   */\n      0x00\n        /* \"#utility.yul\":1301:1354   */\n      tag_128\n        /* \"#utility.yul\":1346:1353   */\n      dup5\n        /* \"#utility.yul\":1337:1343   */\n      dup3\n        /* \"#utility.yul\":1326:1335   */\n      dup6\n        /* \"#utility.yul\":1322:1344   */\n      add\n        /* \"#utility.yul\":1301:1354   */\n      tag_93\n      jump\t// in\n    tag_128:\n        /* \"#utility.yul\":1291:1354   */\n      swap2\n      pop\n        /* \"#utility.yul\":1247:1364   */\n      pop\n        /* \"#utility.yul\":1042:1371   */\n      swap3\n      swap2\n      pop\n      pop\n      jump\t// out\n        /* \"#utility.yul\":1377:1503   */\n    tag_94:\n        /* \"#utility.yul\":1414:1421   */\n      0x00\n        /* \"#utility.yul\":1454:1496   */\n      0xffffffffffffffffffffffffffffffffffffffff\n        /* \"#utility.yul\":1447:1452   */\n      dup3\n        /* \"#utility.yul\":1443:1497   */\n      and\n        /* \"#utility.yul\":1432:1497   */\n      swap1\n      pop\n        /* \"#utility.yul\":1377:1503   */\n      swap2\n      swap1\n      pop\n      jump\t// out\n        /* \"#utility.yul\":1509:1605   */\n    tag_95:\n        /* \"#utility.yul\":1546:1553   */\n      0x00\n        /* \"#utility.yul\":1575:1599   */\n      tag_131\n        /* \"#utility.yul\":1593:1598   */\n      dup3\n        /* \"#utility.yul\":1575:1599   */\n      tag_94\n      jump\t// in\n    tag_131:\n        /* \"#utility.yul\":1564:1599   */\n      swap1\n      pop\n        /* \"#utility.yul\":1509:1605   */\n      swap2\n      swap1\n      pop\n      jump\t// out\n        /* \"#utility.yul\":1611:1729   */\n    tag_96:\n        /* \"#utility.yul\":1698:1722   */\n      tag_133\n        /* \"#utility.yul\":1716:1721   */\n      dup2\n        /* \"#utility.yul\":1698:1722   */\n      tag_95\n      jump\t// in\n    tag_133:\n        /* \"#utility.yul\":1693:1696   */\n      dup3\n        /* \"#utility.yul\":1686:1723   */\n      mstore\n        /* \"#utility.yul\":1611:1729   */\n      pop\n      pop\n      jump\t// out\n        /* \"#utility.yul\":1735:1957   */\n    tag_19:\n        /* \"#utility.yul\":1828:1832   */\n      0x00\n        /* \"#utility.yul\":1866:1868   */\n      0x20\n        /* \"#utility.yul\":1855:1864   */\n      dup3\n        /* \"#utility.yul\":1851:1869   */\n      add\n        /* \"#utility.yul\":1843:1869   */\n      swap1\n      pop\n        /* \"#utility.yul\":1879:1950   */\n      tag_135\n        /* \"#utility.yul\":1947:1948   */\n      0x00\n        /* \"#utility.yul\":1936:1945   */\n      dup4\n        /* \"#utility.yul\":1932:1949   */\n      add\n        /* \"#utility.yul\":1923:1929   */\n      dup5\n        /* \"#utility.yul\":1879:1950   */\n      tag_96\n      jump\t// in\n    tag_135:\n        /* \"#utility.yul\":1735:1957   */\n      swap3\n      swap2\n      pop\n      pop\n      jump\t// out\n        /* \"#utility.yul\":1963:2085   */\n    tag_97:\n        /* \"#utility.yul\":2036:2060   */\n      tag_137\n        /* \"#utility.yul\":2054:2059   */\n      dup2\n        /* \"#utility.yul\":2036:2060   */\n      tag_95\n      jump\t// in\n    tag_137:\n        /* \"#utility.yul\":2029:2034   */\n      dup2\n        /* \"#utility.yul\":2026:2061   */\n      eq\n        /* \"#utility.yul\":2016:2079   */\n      tag_138\n      jumpi\n        /* \"#utility.yul\":2075:2076   */\n      0x00\n        /* \"#utility.yul\":2072:2073   */\n      dup1\n        /* \"#utility.yul\":2065:2077   */\n      revert\n        /* \"#utility.yul\":2016:2079   */\n    tag_138:\n        /* \"#utility.yul\":1963:2085   */\n      pop\n      jump\t// out\n        /* \"#utility.yul\":2091:2230   */\n    tag_98:\n        /* \"#utility.yul\":2137:2142   */\n      0x00\n        /* \"#utility.yul\":2175:2181   */\n      dup2\n        /* \"#utility.yul\":2162:2182   */\n      calldataload\n        /* \"#utility.yul\":2153:2182   */\n      swap1\n      pop\n        /* \"#utility.yul\":2191:2224   */\n      tag_140\n        /* \"#utility.yul\":2218:2223   */\n      dup2\n        /* \"#utility.yul\":2191:2224   */\n      tag_97\n      jump\t// in\n    tag_140:\n        /* \"#utility.yul\":2091:2230   */\n      swap3\n      swap2\n      pop\n      pop\n      jump\t// out\n        /* \"#utility.yul\":2236:2565   */\n    tag_26:\n        /* \"#utility.yul\":2295:2301   */\n      0x00\n        /* \"#utility.yul\":2344:2346   */\n      0x20\n        /* \"#utility.yul\":2332:2341   */\n      dup3\n        /* \"#utility.yul\":2323:2330   */\n      dup5\n        /* \"#utility.yul\":2319:2342   */\n      sub\n        /* \"#utility.yul\":2315:2347   */\n      slt\n        /* \"#utility.yul\":2312:2431   */\n      iszero\n      tag_142\n      jumpi\n        /* \"#utility.yul\":2350:2429   */\n      tag_143\n      tag_90\n      jump\t// in\n    tag_143:\n        /* \"#utility.yul\":2312:2431   */\n    tag_142:\n        /* \"#utility.yul\":2470:2471   */\n      0x00\n        /* \"#utility.yul\":2495:2548   */\n      tag_144\n        /* \"#utility.yul\":2540:2547   */\n      dup5\n        /* \"#utility.yul\":2531:2537   */\n      dup3\n        /* \"#utility.yul\":2520:2529   */\n      dup6\n        /* \"#utility.yul\":2516:2538   */\n      add\n        /* \"#utility.yul\":2495:2548   */\n      tag_98\n      jump\t// in\n    tag_144:\n        /* \"#utility.yul\":2485:2548   */\n      swap2\n      pop\n        /* \"#utility.yul\":2441:2558   */\n      pop\n        /* \"#utility.yul\":2236:2565   */\n      swap3\n      swap2\n      pop\n      pop\n      jump\t// out\n        /* \"#utility.yul\":2571:2751   */\n    tag_45:\n        /* \"#utility.yul\":2619:2696   */\n      0x4e487b7100000000000000000000000000000000000000000000000000000000\n        /* \"#utility.yul\":2616:2617   */\n      0x00\n        /* \"#utility.yul\":2609:2697   */\n      mstore\n        /* \"#utility.yul\":2716:2720   */\n      0x32\n        /* \"#utility.yul\":2713:2714   */\n      0x04\n        /* \"#utility.yul\":2706:2721   */\n      mstore\n        /* \"#utility.yul\":2740:2744   */\n      0x24\n        /* \"#utility.yul\":2737:2738   */\n      0x00\n        /* \"#utility.yul\":2730:2745   */\n      revert\n        /* \"#utility.yul\":2757:2937   */\n    tag_49:\n        /* \"#utility.yul\":2805:2882   */\n      0x4e487b7100000000000000000000000000000000000000000000000000000000\n        /* \"#utility.yul\":2802:2803   */\n      0x00\n        /* \"#utility.yul\":2795:2883   */\n      mstore\n        /* \"#utility.yul\":2902:2906   */\n      0x41\n        /* \"#utility.yul\":2899:2900   */\n      0x04\n        /* \"#utility.yul\":2892:2907   */\n      mstore\n        /* \"#utility.yul\":2926:2930   */\n      0x24\n        /* \"#utility.yul\":2923:2924   */\n      0x00\n        /* \"#utility.yul\":2916:2931   */\n      revert\n        /* \"#utility.yul\":2943:3090   */\n    tag_99:\n        /* \"#utility.yul\":3044:3055   */\n      0x00\n        /* \"#utility.yul\":3081:3084   */\n      dup2\n        /* \"#utility.yul\":3066:3084   */\n      swap1\n      pop\n        /* \"#utility.yul\":2943:3090   */\n      swap3\n      swap2\n      pop\n      pop\n      jump\t// out\n        /* \"#utility.yul\":3096:3210   */\n    tag_100:\n      pop\n      jump\t// out\n        /* \"#utility.yul\":3216:3614   */\n    tag_101:\n        /* \"#utility.yul\":3375:3378   */\n      0x00\n        /* \"#utility.yul\":3396:3479   */\n      tag_150\n        /* \"#utility.yul\":3477:3478   */\n      0x00\n        /* \"#utility.yul\":3472:3475   */\n      dup4\n        /* \"#utility.yul\":3396:3479   */\n      tag_99\n      jump\t// in\n    tag_150:\n        /* \"#utility.yul\":3389:3479   */\n      swap2\n      pop\n        /* \"#utility.yul\":3488:3581   */\n      tag_151\n        /* \"#utility.yul\":3577:3580   */\n      dup3\n        /* \"#utility.yul\":3488:3581   */\n      tag_100\n      jump\t// in\n    tag_151:\n        /* \"#utility.yul\":3606:3607   */\n      0x00\n        /* \"#utility.yul\":3601:3604   */\n      dup3\n        /* \"#utility.yul\":3597:3608   */\n      add\n        /* \"#utility.yul\":3590:3608   */\n      swap1\n      pop\n        /* \"#utility.yul\":3216:3614   */\n      swap2\n      swap1\n      pop\n      jump\t// out\n        /* \"#utility.yul\":3620:3999   */\n    tag_54:\n        /* \"#utility.yul\":3804:3807   */\n      0x00\n        /* \"#utility.yul\":3826:3973   */\n      tag_153\n        /* \"#utility.yul\":3969:3972   */\n      dup3\n        /* \"#utility.yul\":3826:3973   */\n      tag_101\n      jump\t// in\n    tag_153:\n        /* \"#utility.yul\":3819:3973   */\n      swap2\n      pop\n        /* \"#utility.yul\":3990:3993   */\n      dup2\n        /* \"#utility.yul\":3983:3993   */\n      swap1\n      pop\n        /* \"#utility.yul\":3620:3999   */\n      swap2\n      swap1\n      pop\n      jump\t// out\n        /* \"#utility.yul\":4005:4185   */\n    tag_102:\n        /* \"#utility.yul\":4053:4130   */\n      0x4e487b7100000000000000000000000000000000000000000000000000000000\n        /* \"#utility.yul\":4050:4051   */\n      0x00\n        /* \"#utility.yul\":4043:4131   */\n      mstore\n        /* \"#utility.yul\":4150:4154   */\n      0x11\n        /* \"#utility.yul\":4147:4148   */\n      0x04\n        /* \"#utility.yul\":4140:4155   */\n      mstore\n        /* \"#utility.yul\":4174:4178   */\n      0x24\n        /* \"#utility.yul\":4171:4172   */\n      0x00\n        /* \"#utility.yul\":4164:4179   */\n      revert\n        /* \"#utility.yul\":4191:4382   */\n    tag_65:\n        /* \"#utility.yul\":4231:4234   */\n      0x00\n        /* \"#utility.yul\":4250:4270   */\n      tag_156\n        /* \"#utility.yul\":4268:4269   */\n      dup3\n        /* \"#utility.yul\":4250:4270   */\n      tag_87\n      jump\t// in\n    tag_156:\n        /* \"#utility.yul\":4245:4270   */\n      swap2\n      pop\n        /* \"#utility.yul\":4284:4304   */\n      tag_157\n        /* \"#utility.yul\":4302:4303   */\n      dup4\n        /* \"#utility.yul\":4284:4304   */\n      tag_87\n      jump\t// in\n    tag_157:\n        /* \"#utility.yul\":4279:4304   */\n      swap3\n      pop\n        /* \"#utility.yul\":4327:4328   */\n      dup3\n        /* \"#utility.yul\":4324:4325   */\n      dup3\n        /* \"#utility.yul\":4320:4329   */\n      add\n        /* \"#utility.yul\":4313:4329   */\n      swap1\n      pop\n        /* \"#utility.yul\":4348:4351   */\n      dup1\n        /* \"#utility.yul\":4345:4346   */\n      dup3\n        /* \"#utility.yul\":4342:4352   */\n      gt\n        /* \"#utility.yul\":4339:4375   */\n      iszero\n      tag_158\n      jumpi\n        /* \"#utility.yul\":4355:4373   */\n      tag_159\n      tag_102\n      jump\t// in\n    tag_159:\n        /* \"#utility.yul\":4339:4375   */\n    tag_158:\n        /* \"#utility.yul\":4191:4382   */\n      swap3\n      swap2\n      pop\n      pop\n      jump\t// out\n        /* \"#utility.yul\":4388:4798   */\n    tag_70:\n        /* \"#utility.yul\":4428:4435   */\n      0x00\n        /* \"#utility.yul\":4451:4471   */\n      tag_161\n        /* \"#utility.yul\":4469:4470   */\n      dup3\n        /* \"#utility.yul\":4451:4471   */\n      tag_87\n      jump\t// in\n    tag_161:\n        /* \"#utility.yul\":4446:4471   */\n      swap2\n      pop\n        /* \"#utility.yul\":4485:4505   */\n      tag_162\n        /* \"#utility.yul\":4503:4504   */\n      dup4\n        /* \"#utility.yul\":4485:4505   */\n      tag_87\n      jump\t// in\n    tag_162:\n        /* \"#utility.yul\":4480:4505   */\n      swap3\n      pop\n        /* \"#utility.yul\":4540:4541   */\n      dup3\n        /* \"#utility.yul\":4537:4538   */\n      dup3\n        /* \"#utility.yul\":4533:4542   */\n      mul\n        /* \"#utility.yul\":4562:4592   */\n      tag_163\n        /* \"#utility.yul\":4580:4591   */\n      dup2\n        /* \"#utility.yul\":4562:4592   */\n      tag_87\n      jump\t// in\n    tag_163:\n        /* \"#utility.yul\":4551:4592   */\n      swap2\n      pop\n        /* \"#utility.yul\":4741:4742   */\n      dup3\n        /* \"#utility.yul\":4732:4739   */\n      dup3\n        /* \"#utility.yul\":4728:4743   */\n      div\n        /* \"#utility.yul\":4725:4726   */\n      dup5\n        /* \"#utility.yul\":4722:4744   */\n      eq\n        /* \"#utility.yul\":4702:4703   */\n      dup4\n        /* \"#utility.yul\":4695:4704   */\n      iszero\n        /* \"#utility.yul\":4675:4758   */\n      or\n        /* \"#utility.yul\":4652:4791   */\n      tag_164\n      jumpi\n        /* \"#utility.yul\":4771:4789   */\n      tag_165\n      tag_102\n      jump\t// in\n    tag_165:\n        /* \"#utility.yul\":4652:4791   */\n    tag_164:\n        /* \"#utility.yul\":4436:4798   */\n      pop\n        /* \"#utility.yul\":4388:4798   */\n      swap3\n      swap2\n      pop\n      pop\n      jump\t// out\n        /* \"#utility.yul\":4804:4984   */\n    tag_103:\n        /* \"#utility.yul\":4852:4929   */\n      0x4e487b7100000000000000000000000000000000000000000000000000000000\n        /* \"#utility.yul\":4849:4850   */\n      0x00\n        /* \"#utility.yul\":4842:4930   */\n      mstore\n        /* \"#utility.yul\":4949:4953   */\n      0x12\n        /* \"#utility.yul\":4946:4947   */\n      0x04\n        /* \"#utility.yul\":4939:4954   */\n      mstore\n        /* \"#utility.yul\":4973:4977   */\n      0x24\n        /* \"#utility.yul\":4970:4971   */\n      0x00\n        /* \"#utility.yul\":4963:4978   */\n      revert\n        /* \"#utility.yul\":4990:5175   */\n    tag_72:\n        /* \"#utility.yul\":5030:5031   */\n      0x00\n        /* \"#utility.yul\":5047:5067   */\n      tag_168\n        /* \"#utility.yul\":5065:5066   */\n      dup3\n        /* \"#utility.yul\":5047:5067   */\n      tag_87\n      jump\t// in\n    tag_168:\n        /* \"#utility.yul\":5042:5067   */\n      swap2\n      pop\n        /* \"#utility.yul\":5081:5101   */\n      tag_169\n        /* \"#utility.yul\":5099:5100   */\n      dup4\n        /* \"#utility.yul\":5081:5101   */\n      tag_87\n      jump\t// in\n    tag_169:\n        /* \"#utility.yul\":5076:5101   */\n      swap3\n      pop\n        /* \"#utility.yul\":5120:5121   */\n      dup3\n        /* \"#utility.yul\":5110:5145   */\n      tag_170\n      jumpi\n        /* \"#utility.yul\":5125:5143   */\n      tag_171\n      tag_103\n      jump\t// in\n    tag_171:\n        /* \"#utility.yul\":5110:5145   */\n    tag_170:\n        /* \"#utility.yul\":5167:5168   */\n      dup3\n        /* \"#utility.yul\":5164:5165   */\n      dup3\n        /* \"#utility.yul\":5160:5169   */\n      div\n        /* \"#utility.yul\":5155:5169   */\n      swap1\n      pop\n        /* \"#utility.yul\":4990:5175   */\n      swap3\n      swap2\n      pop\n      pop\n      jump\t// out\n        /* \"#utility.yul\":5181:5286   */\n    tag_104:\n        /* \"#utility.yul\":5217:5224   */\n      0x00\n        /* \"#utility.yul\":5257:5279   */\n      0xffffffffffffffffffff\n        /* \"#utility.yul\":5250:5255   */\n      dup3\n        /* \"#utility.yul\":5246:5280   */\n      and\n        /* \"#utility.yul\":5235:5280   */\n      swap1\n      pop\n        /* \"#utility.yul\":5181:5286   */\n      swap2\n      swap1\n      pop\n      jump\t// out\n        /* \"#utility.yul\":5292:5412   */\n    tag_105:\n        /* \"#utility.yul\":5364:5387   */\n      tag_174\n        /* \"#utility.yul\":5381:5386   */\n      dup2\n        /* \"#utility.yul\":5364:5387   */\n      tag_104\n      jump\t// in\n    tag_174:\n        /* \"#utility.yul\":5357:5362   */\n      dup2\n        /* \"#utility.yul\":5354:5388   */\n      eq\n        /* \"#utility.yul\":5344:5406   */\n      tag_175\n      jumpi\n        /* \"#utility.yul\":5402:5403   */\n      0x00\n        /* \"#utility.yul\":5399:5400   */\n      dup1\n        /* \"#utility.yul\":5392:5404   */\n      revert\n        /* \"#utility.yul\":5344:5406   */\n    tag_175:\n        /* \"#utility.yul\":5292:5412   */\n      pop\n      jump\t// out\n        /* \"#utility.yul\":5418:5559   */\n    tag_106:\n        /* \"#utility.yul\":5474:5479   */\n      0x00\n        /* \"#utility.yul\":5505:5511   */\n      dup2\n        /* \"#utility.yul\":5499:5512   */\n      mload\n        /* \"#utility.yul\":5490:5512   */\n      swap1\n      pop\n        /* \"#utility.yul\":5521:5553   */\n      tag_177\n        /* \"#utility.yul\":5547:5552   */\n      dup2\n        /* \"#utility.yul\":5521:5553   */\n      tag_105\n      jump\t// in\n    tag_177:\n        /* \"#utility.yul\":5418:5559   */\n      swap3\n      swap2\n      pop\n      pop\n      jump\t// out\n        /* \"#utility.yul\":5565:5641   */\n    tag_107:\n        /* \"#utility.yul\":5601:5608   */\n      0x00\n        /* \"#utility.yul\":5630:5635   */\n      dup2\n        /* \"#utility.yul\":5619:5635   */\n      swap1\n      pop\n        /* \"#utility.yul\":5565:5641   */\n      swap2\n      swap1\n      pop\n      jump\t// out\n        /* \"#utility.yul\":5647:5767   */\n    tag_108:\n        /* \"#utility.yul\":5719:5742   */\n      tag_180\n        /* \"#utility.yul\":5736:5741   */\n      dup2\n        /* \"#utility.yul\":5719:5742   */\n      tag_107\n      jump\t// in\n    tag_180:\n        /* \"#utility.yul\":5712:5717   */\n      dup2\n        /* \"#utility.yul\":5709:5743   */\n      eq\n        /* \"#utility.yul\":5699:5761   */\n      tag_181\n      jumpi\n        /* \"#utility.yul\":5757:5758   */\n      0x00\n        /* \"#utility.yul\":5754:5755   */\n      dup1\n        /* \"#utility.yul\":5747:5759   */\n      revert\n        /* \"#utility.yul\":5699:5761   */\n    tag_181:\n        /* \"#utility.yul\":5647:5767   */\n      pop\n      jump\t// out\n        /* \"#utility.yul\":5773:5914   */\n    tag_109:\n        /* \"#utility.yul\":5829:5834   */\n      0x00\n        /* \"#utility.yul\":5860:5866   */\n      dup2\n        /* \"#utility.yul\":5854:5867   */\n      mload\n        /* \"#utility.yul\":5845:5867   */\n      swap1\n      pop\n        /* \"#utility.yul\":5876:5908   */\n      tag_183\n        /* \"#utility.yul\":5902:5907   */\n      dup2\n        /* \"#utility.yul\":5876:5908   */\n      tag_108\n      jump\t// in\n    tag_183:\n        /* \"#utility.yul\":5773:5914   */\n      swap3\n      swap2\n      pop\n      pop\n      jump\t// out\n        /* \"#utility.yul\":5920:6063   */\n    tag_110:\n        /* \"#utility.yul\":5977:5982   */\n      0x00\n        /* \"#utility.yul\":6008:6014   */\n      dup2\n        /* \"#utility.yul\":6002:6015   */\n      mload\n        /* \"#utility.yul\":5993:6015   */\n      swap1\n      pop\n        /* \"#utility.yul\":6024:6057   */\n      tag_185\n        /* \"#utility.yul\":6051:6056   */\n      dup2\n        /* \"#utility.yul\":6024:6057   */\n      tag_92\n      jump\t// in\n    tag_185:\n        /* \"#utility.yul\":5920:6063   */\n      swap3\n      swap2\n      pop\n      pop\n      jump\t// out\n        /* \"#utility.yul\":6069:7040   */\n    tag_77:\n        /* \"#utility.yul\":6172:6178   */\n      0x00\n        /* \"#utility.yul\":6180:6186   */\n      dup1\n        /* \"#utility.yul\":6188:6194   */\n      0x00\n        /* \"#utility.yul\":6196:6202   */\n      dup1\n        /* \"#utility.yul\":6204:6210   */\n      0x00\n        /* \"#utility.yul\":6253:6256   */\n      0xa0\n        /* \"#utility.yul\":6241:6250   */\n      dup7\n        /* \"#utility.yul\":6232:6239   */\n      dup9\n        /* \"#utility.yul\":6228:6251   */\n      sub\n        /* \"#utility.yul\":6224:6257   */\n      slt\n        /* \"#utility.yul\":6221:6341   */\n      iszero\n      tag_187\n      jumpi\n        /* \"#utility.yul\":6260:6339   */\n      tag_188\n      tag_90\n      jump\t// in\n    tag_188:\n        /* \"#utility.yul\":6221:6341   */\n    tag_187:\n        /* \"#utility.yul\":6380:6381   */\n      0x00\n        /* \"#utility.yul\":6405:6468   */\n      tag_189\n        /* \"#utility.yul\":6460:6467   */\n      dup9\n        /* \"#utility.yul\":6451:6457   */\n      dup3\n        /* \"#utility.yul\":6440:6449   */\n      dup10\n        /* \"#utility.yul\":6436:6458   */\n      add\n        /* \"#utility.yul\":6405:6468   */\n      tag_106\n      jump\t// in\n    tag_189:\n        /* \"#utility.yul\":6395:6468   */\n      swap6\n      pop\n        /* \"#utility.yul\":6351:6478   */\n      pop\n        /* \"#utility.yul\":6517:6519   */\n      0x20\n        /* \"#utility.yul\":6543:6606   */\n      tag_190\n        /* \"#utility.yul\":6598:6605   */\n      dup9\n        /* \"#utility.yul\":6589:6595   */\n      dup3\n        /* \"#utility.yul\":6578:6587   */\n      dup10\n        /* \"#utility.yul\":6574:6596   */\n      add\n        /* \"#utility.yul\":6543:6606   */\n      tag_109\n      jump\t// in\n    tag_190:\n        /* \"#utility.yul\":6533:6606   */\n      swap5\n      pop\n        /* \"#utility.yul\":6488:6616   */\n      pop\n        /* \"#utility.yul\":6655:6657   */\n      0x40\n        /* \"#utility.yul\":6681:6745   */\n      tag_191\n        /* \"#utility.yul\":6737:6744   */\n      dup9\n        /* \"#utility.yul\":6728:6734   */\n      dup3\n        /* \"#utility.yul\":6717:6726   */\n      dup10\n        /* \"#utility.yul\":6713:6735   */\n      add\n        /* \"#utility.yul\":6681:6745   */\n      tag_110\n      jump\t// in\n    tag_191:\n        /* \"#utility.yul\":6671:6745   */\n      swap4\n      pop\n        /* \"#utility.yul\":6626:6755   */\n      pop\n        /* \"#utility.yul\":6794:6796   */\n      0x60\n        /* \"#utility.yul\":6820:6884   */\n      tag_192\n        /* \"#utility.yul\":6876:6883   */\n      dup9\n        /* \"#utility.yul\":6867:6873   */\n      dup3\n        /* \"#utility.yul\":6856:6865   */\n      dup10\n        /* \"#utility.yul\":6852:6874   */\n      add\n        /* \"#utility.yul\":6820:6884   */\n      tag_110\n      jump\t// in\n    tag_192:\n        /* \"#utility.yul\":6810:6884   */\n      swap3\n      pop\n        /* \"#utility.yul\":6765:6894   */\n      pop\n        /* \"#utility.yul\":6933:6936   */\n      0x80\n        /* \"#utility.yul\":6960:7023   */\n      tag_193\n        /* \"#utility.yul\":7015:7022   */\n      dup9\n        /* \"#utility.yul\":7006:7012   */\n      dup3\n        /* \"#utility.yul\":6995:7004   */\n      dup10\n        /* \"#utility.yul\":6991:7013   */\n      add\n        /* \"#utility.yul\":6960:7023   */\n      tag_106\n      jump\t// in\n    tag_193:\n        /* \"#utility.yul\":6950:7023   */\n      swap2\n      pop\n        /* \"#utility.yul\":6904:7033   */\n      pop\n        /* \"#utility.yul\":6069:7040   */\n      swap3\n      swap6\n      pop\n      swap3\n      swap6\n      swap1\n      swap4\n      pop\n      jump\t// out\n        /* \"#utility.yul\":7046:7602   */\n    tag_79:\n        /* \"#utility.yul\":7085:7092   */\n      0x00\n        /* \"#utility.yul\":7108:7127   */\n      tag_195\n        /* \"#utility.yul\":7125:7126   */\n      dup3\n        /* \"#utility.yul\":7108:7127   */\n      tag_107\n      jump\t// in\n    tag_195:\n        /* \"#utility.yul\":7103:7127   */\n      swap2\n      pop\n        /* \"#utility.yul\":7141:7160   */\n      tag_196\n        /* \"#utility.yul\":7158:7159   */\n      dup4\n        /* \"#utility.yul\":7141:7160   */\n      tag_107\n      jump\t// in\n    tag_196:\n        /* \"#utility.yul\":7136:7160   */\n      swap3\n      pop\n        /* \"#utility.yul\":7195:7196   */\n      dup3\n        /* \"#utility.yul\":7192:7193   */\n      dup3\n        /* \"#utility.yul\":7188:7197   */\n      mul\n        /* \"#utility.yul\":7217:7246   */\n      tag_197\n        /* \"#utility.yul\":7234:7245   */\n      dup2\n        /* \"#utility.yul\":7217:7246   */\n      tag_107\n      jump\t// in\n    tag_197:\n        /* \"#utility.yul\":7206:7246   */\n      swap2\n      pop\n        /* \"#utility.yul\":7304:7370   */\n      0x8000000000000000000000000000000000000000000000000000000000000000\n        /* \"#utility.yul\":7301:7302   */\n      dup5\n        /* \"#utility.yul\":7298:7371   */\n      eq\n        /* \"#utility.yul\":7294:7295   */\n      0x00\n        /* \"#utility.yul\":7291:7292   */\n      dup5\n        /* \"#utility.yul\":7287:7296   */\n      slt\n        /* \"#utility.yul\":7283:7372   */\n      and\n        /* \"#utility.yul\":7280:7395   */\n      iszero\n      tag_198\n      jumpi\n        /* \"#utility.yul\":7375:7393   */\n      tag_199\n      tag_102\n      jump\t// in\n    tag_199:\n        /* \"#utility.yul\":7280:7395   */\n    tag_198:\n        /* \"#utility.yul\":7545:7546   */\n      dup3\n        /* \"#utility.yul\":7536:7543   */\n      dup3\n        /* \"#utility.yul\":7531:7547   */\n      sdiv\n        /* \"#utility.yul\":7528:7529   */\n      dup5\n        /* \"#utility.yul\":7525:7548   */\n      eq\n        /* \"#utility.yul\":7505:7506   */\n      dup4\n        /* \"#utility.yul\":7498:7507   */\n      iszero\n        /* \"#utility.yul\":7478:7562   */\n      or\n        /* \"#utility.yul\":7455:7595   */\n      tag_200\n      jumpi\n        /* \"#utility.yul\":7575:7593   */\n      tag_201\n      tag_102\n      jump\t// in\n    tag_201:\n        /* \"#utility.yul\":7455:7595   */\n    tag_200:\n        /* \"#utility.yul\":7093:7602   */\n      pop\n        /* \"#utility.yul\":7046:7602   */\n      swap3\n      swap2\n      pop\n      pop\n      jump\t// out\n\n    auxdata: 0xa26469706673582212201190bf11c335c8a808c4501b8ab315dd5f0cb6b7dea4d0be9b3835bea19121f364736f6c63430008180033\n}\n",
				"bytecode": {
					"linkReferences": {},
					"object": "60a060405234801561000f575f80fd5b503373ffffffffffffffffffffffffffffffffffffffff1660808173ffffffffffffffffffffffffffffffffffffffff1681525050608051610ae46100635f395f81816101a301526104c70152610ae45ff3fe608060405260043610610054575f3560e01c8063213dbea21461005857806332c35cdc146100825780633ccfd60b146100be578063a6878279146100d4578063b60d428814610110578063dba6335f1461011a575b5f80fd5b348015610063575f80fd5b5061006c610144565b6040516100799190610683565b60405180910390f35b34801561008d575f80fd5b506100a860048036038101906100a391906106ca565b610150565b6040516100b59190610734565b60405180910390f35b3480156100c9575f80fd5b506100d261018a565b005b3480156100df575f80fd5b506100fa60048036038101906100f59190610777565b6103b2565b6040516101079190610683565b60405180910390f35b6101186103c7565b005b348015610125575f80fd5b5061012e6104c5565b60405161013b9190610734565b60405180910390f35b674563918244f4000081565b5f818154811061015e575f80fd5b905f5260205f20015f915054906101000a900473ffffffffffffffffffffffffffffffffffffffff1681565b3373ffffffffffffffffffffffffffffffffffffffff167f000000000000000000000000000000000000000000000000000000000000000073ffffffffffffffffffffffffffffffffffffffff161461020f576040517fb0f7dc5600000000000000000000000000000000000000000000000000000000815260040160405180910390fd5b5f5b5f805490508110156102ab575f808281548110610231576102306107a2565b5b905f5260205f20015f9054906101000a900473ffffffffffffffffffffffffffffffffffffffff1690505f60015f8373ffffffffffffffffffffffffffffffffffffffff1673ffffffffffffffffffffffffffffffffffffffff1681526020019081526020015f2081905550508080600101915050610211565b505f67ffffffffffffffff8111156102c6576102c56107cf565b5b6040519080825280602002602001820160405280156102f45781602001602082028036833780820191505090505b505f90805190602001906103099291906105c9565b505f3373ffffffffffffffffffffffffffffffffffffffff164760405161032f90610829565b5f6040518083038185875af1925050503d805f8114610369576040519150601f19603f3d011682016040523d82523d5f602084013e61036e565b606091505b505090505f1515811515036103af576040517fa105e7ed00000000000000000000000000000000000000000000000000000000815260040160405180910390fd5b50565b6001602052805f5260405f205f915090505481565b674563918244f400006103d9346104e9565b1015610411576040517f49d12b6500000000000000000000000000000000000000000000000000000000815260040160405180910390fd5b5f33908060018154018082558091505060019003905f5260205f20015f9091909190916101000a81548173ffffffffffffffffffffffffffffffffffffffff021916908373ffffffffffffffffffffffffffffffffffffffff1602179055503460015f3373ffffffffffffffffffffffffffffffffffffffff1673ffffffffffffffffffffffffffffffffffffffff1681526020019081526020015f205f8282546104bc919061086a565b92505081905550565b7f000000000000000000000000000000000000000000000000000000000000000081565b5f806104f3610521565b90505f670de0b6b3a7640000828561050b919061089d565b610515919061090b565b90508092505050919050565b5f8073694aa1769357215de4fac081bf1f309adc32530690505f8173ffffffffffffffffffffffffffffffffffffffff1663feaf968c6040518163ffffffff1660e01b815260040160a060405180830381865afa158015610584573d5f803e3d5ffd5b505050506040513d601f19601f820116820180604052508101906105a891906109c1565b505050915050670de0b6b3a7640000816105c29190610a38565b9250505090565b828054828255905f5260205f2090810192821561063f579160200282015b8281111561063e578251825f6101000a81548173ffffffffffffffffffffffffffffffffffffffff021916908373ffffffffffffffffffffffffffffffffffffffff160217905550916020019190600101906105e7565b5b50905061064c9190610650565b5090565b5b80821115610667575f815f905550600101610651565b5090565b5f819050919050565b61067d8161066b565b82525050565b5f6020820190506106965f830184610674565b92915050565b5f80fd5b6106a98161066b565b81146106b3575f80fd5b50565b5f813590506106c4816106a0565b92915050565b5f602082840312156106df576106de61069c565b5b5f6106ec848285016106b6565b91505092915050565b5f73ffffffffffffffffffffffffffffffffffffffff82169050919050565b5f61071e826106f5565b9050919050565b61072e81610714565b82525050565b5f6020820190506107475f830184610725565b92915050565b61075681610714565b8114610760575f80fd5b50565b5f813590506107718161074d565b92915050565b5f6020828403121561078c5761078b61069c565b5b5f61079984828501610763565b91505092915050565b7f4e487b71000000000000000000000000000000000000000000000000000000005f52603260045260245ffd5b7f4e487b71000000000000000000000000000000000000000000000000000000005f52604160045260245ffd5b5f81905092915050565b50565b5f6108145f836107fc565b915061081f82610806565b5f82019050919050565b5f61083382610809565b9150819050919050565b7f4e487b71000000000000000000000000000000000000000000000000000000005f52601160045260245ffd5b5f6108748261066b565b915061087f8361066b565b92508282019050808211156108975761089661083d565b5b92915050565b5f6108a78261066b565b91506108b28361066b565b92508282026108c08161066b565b915082820484148315176108d7576108d661083d565b5b5092915050565b7f4e487b71000000000000000000000000000000000000000000000000000000005f52601260045260245ffd5b5f6109158261066b565b91506109208361066b565b9250826109305761092f6108de565b5b828204905092915050565b5f69ffffffffffffffffffff82169050919050565b6109598161093b565b8114610963575f80fd5b50565b5f8151905061097481610950565b92915050565b5f819050919050565b61098c8161097a565b8114610996575f80fd5b50565b5f815190506109a781610983565b92915050565b5f815190506109bb816106a0565b92915050565b5f805f805f60a086880312156109da576109d961069c565b5b5f6109e788828901610966565b95505060206109f888828901610999565b9450506040610a09888289016109ad565b9350506060610a1a888289016109ad565b9250506080610a2b88828901610966565b9150509295509295909350565b5f610a428261097a565b9150610a4d8361097a565b9250828202610a5b8161097a565b91507f800000000000000000000000000000000000000000000000000000000000000084145f84121615610a9257610a9161083d565b5b8282058414831517610aa757610aa661083d565b5b509291505056fea26469706673582212201190bf11c335c8a808c4501b8ab315dd5f0cb6b7dea4d0be9b3835bea19121f364736f6c63430008180033",
					"opcodes": "PUSH1 0xA0 PUSH1 0x40 MSTORE CALLVALUE DUP1 ISZERO PUSH2 0xF JUMPI PUSH0 DUP1 REVERT JUMPDEST POP CALLER PUSH20 0xFFFFFFFFFFFFFFFFFFFFFFFFFFFFFFFFFFFFFFFF AND PUSH1 0x80 DUP2 PUSH20 0xFFFFFFFFFFFFFFFFFFFFFFFFFFFFFFFFFFFFFFFF AND DUP2 MSTORE POP POP PUSH1 0x80 MLOAD PUSH2 0xAE4 PUSH2 0x63 PUSH0 CODECOPY PUSH0 DUP2 DUP2 PUSH2 0x1A3 ADD MSTORE PUSH2 0x4C7 ADD MSTORE PUSH2 0xAE4 PUSH0 RETURN INVALID PUSH1 0x80 PUSH1 0x40 MSTORE PUSH1 0x4 CALLDATASIZE LT PUSH2 0x54 JUMPI PUSH0 CALLDATALOAD PUSH1 0xE0 SHR DUP1 PUSH4 0x213DBEA2 EQ PUSH2 0x58 JUMPI DUP1 PUSH4 0x32C35CDC EQ PUSH2 0x82 JUMPI DUP1 PUSH4 0x3CCFD60B EQ PUSH2 0xBE JUMPI DUP1 PUSH4 0xA6878279 EQ PUSH2 0xD4 JUMPI DUP1 PUSH4 0xB60D4288 EQ PUSH2 0x110 JUMPI DUP1 PUSH4 0xDBA6335F EQ PUSH2 0x11A JUMPI JUMPDEST PUSH0 DUP1 REVERT JUMPDEST CALLVALUE DUP1 ISZERO PUSH2 0x63 JUMPI PUSH0 DUP1 REVERT JUMPDEST POP PUSH2 0x6C PUSH2 0x144 JUMP JUMPDEST PUSH1 0x40 MLOAD PUSH2 0x79 SWAP2 SWAP1 PUSH2 0x683 JUMP JUMPDEST PUSH1 0x40 MLOAD DUP1 SWAP2 SUB SWAP1 RETURN JUMPDEST CALLVALUE DUP1 ISZERO PUSH2 0x8D JUMPI PUSH0 DUP1 REVERT JUMPDEST POP PUSH2 0xA8 PUSH1 0x4 DUP1 CALLDATASIZE SUB DUP2 ADD SWAP1 PUSH2 0xA3 SWAP2 SWAP1 PUSH2 0x6CA JUMP JUMPDEST PUSH2 0x150 JUMP JUMPDEST PUSH1 0x40 MLOAD PUSH2 0xB5 SWAP2 SWAP1 PUSH2 0x734 JUMP JUMPDEST PUSH1 0x40 MLOAD DUP1 SWAP2 SUB SWAP1 RETURN JUMPDEST CALLVALUE DUP1 ISZERO PUSH2 0xC9 JUMPI PUSH0 DUP1 REVERT JUMPDEST POP PUSH2 0xD2 PUSH2 0x18A JUMP JUMPDEST STOP JUMPDEST CALLVALUE DUP1 ISZERO PUSH2 0xDF JUMPI PUSH0 DUP1 REVERT JUMPDEST POP PUSH2 0xFA PUSH1 0x4 DUP1 CALLDATASIZE SUB DUP2 ADD SWAP1 PUSH2 0xF5 SWAP2 SWAP1 PUSH2 0x777 JUMP JUMPDEST PUSH2 0x3B2 JUMP JUMPDEST PUSH1 0x40 MLOAD PUSH2 0x107 SWAP2 SWAP1 PUSH2 0x683 JUMP JUMPDEST PUSH1 0x40 MLOAD DUP1 SWAP2 SUB SWAP1 RETURN JUMPDEST PUSH2 0x118 PUSH2 0x3C7 JUMP JUMPDEST STOP JUMPDEST CALLVALUE DUP1 ISZERO PUSH2 0x125 JUMPI PUSH0 DUP1 REVERT JUMPDEST POP PUSH2 0x12E PUSH2 0x4C5 JUMP JUMPDEST PUSH1 0x40 MLOAD PUSH2 0x13B SWAP2 SWAP1 PUSH2 0x734 JUMP JUMPDEST PUSH1 0x40 MLOAD DUP1 SWAP2 SUB SWAP1 RETURN JUMPDEST PUSH8 0x4563918244F40000 DUP2 JUMP JUMPDEST PUSH0 DUP2 DUP2 SLOAD DUP2 LT PUSH2 0x15E JUMPI PUSH0 DUP1 REVERT JUMPDEST SWAP1 PUSH0 MSTORE PUSH1 0x20 PUSH0 KECCAK256 ADD PUSH0 SWAP2 POP SLOAD SWAP1 PUSH2 0x100 EXP SWAP1 DIV PUSH20 0xFFFFFFFFFFFFFFFFFFFFFFFFFFFFFFFFFFFFFFFF AND DUP2 JUMP JUMPDEST CALLER PUSH20 0xFFFFFFFFFFFFFFFFFFFFFFFFFFFFFFFFFFFFFFFF AND PUSH32 0x0 PUSH20 0xFFFFFFFFFFFFFFFFFFFFFFFFFFFFFFFFFFFFFFFF AND EQ PUSH2 0x20F JUMPI PUSH1 0x40 MLOAD PUSH32 0xB0F7DC5600000000000000000000000000000000000000000000000000000000 DUP2 MSTORE PUSH1 0x4 ADD PUSH1 0x40 MLOAD DUP1 SWAP2 SUB SWAP1 REVERT JUMPDEST PUSH0 JUMPDEST PUSH0 DUP1 SLOAD SWAP1 POP DUP2 LT ISZERO PUSH2 0x2AB JUMPI PUSH0 DUP1 DUP3 DUP2 SLOAD DUP2 LT PUSH2 0x231 JUMPI PUSH2 0x230 PUSH2 0x7A2 JUMP JUMPDEST JUMPDEST SWAP1 PUSH0 MSTORE PUSH1 0x20 PUSH0 KECCAK256 ADD PUSH0 SWAP1 SLOAD SWAP1 PUSH2 0x100 EXP SWAP1 DIV PUSH20 0xFFFFFFFFFFFFFFFFFFFFFFFFFFFFFFFFFFFFFFFF AND SWAP1 POP PUSH0 PUSH1 0x1 PUSH0 DUP4 PUSH20 0xFFFFFFFFFFFFFFFFFFFFFFFFFFFFFFFFFFFFFFFF AND PUSH20 0xFFFFFFFFFFFFFFFFFFFFFFFFFFFFFFFFFFFFFFFF AND DUP2 MSTORE PUSH1 0x20 ADD SWAP1 DUP2 MSTORE PUSH1 0x20 ADD PUSH0 KECCAK256 DUP2 SWAP1 SSTORE POP POP DUP1 DUP1 PUSH1 0x1 ADD SWAP2 POP POP PUSH2 0x211 JUMP JUMPDEST POP PUSH0 PUSH8 0xFFFFFFFFFFFFFFFF DUP2 GT ISZERO PUSH2 0x2C6 JUMPI PUSH2 0x2C5 PUSH2 0x7CF JUMP JUMPDEST JUMPDEST PUSH1 0x40 MLOAD SWAP1 DUP1 DUP3 MSTORE DUP1 PUSH1 0x20 MUL PUSH1 0x20 ADD DUP3 ADD PUSH1 0x40 MSTORE DUP1 ISZERO PUSH2 0x2F4 JUMPI DUP2 PUSH1 0x20 ADD PUSH1 0x20 DUP3 MUL DUP1 CALLDATASIZE DUP4 CALLDATACOPY DUP1 DUP3 ADD SWAP2 POP POP SWAP1 POP JUMPDEST POP PUSH0 SWAP1 DUP1 MLOAD SWAP1 PUSH1 0x20 ADD SWAP1 PUSH2 0x309 SWAP3 SWAP2 SWAP1 PUSH2 0x5C9 JUMP JUMPDEST POP PUSH0 CALLER PUSH20 0xFFFFFFFFFFFFFFFFFFFFFFFFFFFFFFFFFFFFFFFF AND SELFBALANCE PUSH1 0x40 MLOAD PUSH2 0x32F SWAP1 PUSH2 0x829 JUMP JUMPDEST PUSH0 PUSH1 0x40 MLOAD DUP1 DUP4 SUB DUP2 DUP6 DUP8 GAS CALL SWAP3 POP POP POP RETURNDATASIZE DUP1 PUSH0 DUP2 EQ PUSH2 0x369 JUMPI PUSH1 0x40 MLOAD SWAP2 POP PUSH1 0x1F NOT PUSH1 0x3F RETURNDATASIZE ADD AND DUP3 ADD PUSH1 0x40 MSTORE RETURNDATASIZE DUP3 MSTORE RETURNDATASIZE PUSH0 PUSH1 0x20 DUP5 ADD RETURNDATACOPY PUSH2 0x36E JUMP JUMPDEST PUSH1 0x60 SWAP2 POP JUMPDEST POP POP SWAP1 POP PUSH0 ISZERO ISZERO DUP2 ISZERO ISZERO SUB PUSH2 0x3AF JUMPI PUSH1 0x40 MLOAD PUSH32 0xA105E7ED00000000000000000000000000000000000000000000000000000000 DUP2 MSTORE PUSH1 0x4 ADD PUSH1 0x40 MLOAD DUP1 SWAP2 SUB SWAP1 REVERT JUMPDEST POP JUMP JUMPDEST PUSH1 0x1 PUSH1 0x20 MSTORE DUP1 PUSH0 MSTORE PUSH1 0x40 PUSH0 KECCAK256 PUSH0 SWAP2 POP SWAP1 POP SLOAD DUP2 JUMP JUMPDEST PUSH8 0x4563918244F40000 PUSH2 0x3D9 CALLVALUE PUSH2 0x4E9 JUMP JUMPDEST LT ISZERO PUSH2 0x411 JUMPI PUSH1 0x40 MLOAD PUSH32 0x49D12B6500000000000000000000000000000000000000000000000000000000 DUP2 MSTORE PUSH1 0x4 ADD PUSH1 0x40 MLOAD DUP1 SWAP2 SUB SWAP1 REVERT JUMPDEST PUSH0 CALLER SWAP1 DUP1 PUSH1 0x1 DUP2 SLOAD ADD DUP1 DUP3 SSTORE DUP1 SWAP2 POP POP PUSH1 0x1 SWAP1 SUB SWAP1 PUSH0 MSTORE PUSH1 0x20 PUSH0 KECCAK256 ADD PUSH0 SWAP1 SWAP2 SWAP1 SWAP2 SWAP1 SWAP2 PUSH2 0x100 EXP DUP2 SLOAD DUP2 PUSH20 0xFFFFFFFFFFFFFFFFFFFFFFFFFFFFFFFFFFFFFFFF MUL NOT AND SWAP1 DUP4 PUSH20 0xFFFFFFFFFFFFFFFFFFFFFFFFFFFFFFFFFFFFFFFF AND MUL OR SWAP1 SSTORE POP CALLVALUE PUSH1 0x1 PUSH0 CALLER PUSH20 0xFFFFFFFFFFFFFFFFFFFFFFFFFFFFFFFFFFFFFFFF AND PUSH20 0xFFFFFFFFFFFFFFFFFFFFFFFFFFFFFFFFFFFFFFFF AND DUP2 MSTORE PUSH1 0x20 ADD SWAP1 DUP2 MSTORE PUSH1 0x20 ADD PUSH0 KECCAK256 PUSH0 DUP3 DUP3 SLOAD PUSH2 0x4BC SWAP2 SWAP1 PUSH2 0x86A JUMP JUMPDEST SWAP3 POP POP DUP2 SWAP1 SSTORE POP JUMP JUMPDEST PUSH32 0x0 DUP2 JUMP JUMPDEST PUSH0 DUP1 PUSH2 0x4F3 PUSH2 0x521 JUMP JUMPDEST SWAP1 POP PUSH0 PUSH8 0xDE0B6B3A7640000 DUP3 DUP6 PUSH2 0x50B SWAP2 SWAP1 PUSH2 0x89D JUMP JUMPDEST PUSH2 0x515 SWAP2 SWAP1 PUSH2 0x90B JUMP JUMPDEST SWAP1 POP DUP1 SWAP3 POP POP POP SWAP2 SWAP1 POP JUMP JUMPDEST PUSH0 DUP1 PUSH20 0x694AA1769357215DE4FAC081BF1F309ADC325306 SWAP1 POP PUSH0 DUP2 PUSH20 0xFFFFFFFFFFFFFFFFFFFFFFFFFFFFFFFFFFFFFFFF AND PUSH4 0xFEAF968C PUSH1 0x40 MLOAD DUP2 PUSH4 0xFFFFFFFF AND PUSH1 0xE0 SHL DUP2 MSTORE PUSH1 0x4 ADD PUSH1 0xA0 PUSH1 0x40 MLOAD DUP1 DUP4 SUB DUP2 DUP7 GAS STATICCALL ISZERO DUP1 ISZERO PUSH2 0x584 JUMPI RETURNDATASIZE PUSH0 DUP1 RETURNDATACOPY RETURNDATASIZE PUSH0 REVERT JUMPDEST POP POP POP POP PUSH1 0x40 MLOAD RETURNDATASIZE PUSH1 0x1F NOT PUSH1 0x1F DUP3 ADD AND DUP3 ADD DUP1 PUSH1 0x40 MSTORE POP DUP2 ADD SWAP1 PUSH2 0x5A8 SWAP2 SWAP1 PUSH2 0x9C1 JUMP JUMPDEST POP POP POP SWAP2 POP POP PUSH8 0xDE0B6B3A7640000 DUP2 PUSH2 0x5C2 SWAP2 SWAP1 PUSH2 0xA38 JUMP JUMPDEST SWAP3 POP POP POP SWAP1 JUMP JUMPDEST DUP3 DUP1 SLOAD DUP3 DUP3 SSTORE SWAP1 PUSH0 MSTORE PUSH1 0x20 PUSH0 KECCAK256 SWAP1 DUP2 ADD SWAP3 DUP3 ISZERO PUSH2 0x63F JUMPI SWAP2 PUSH1 0x20 MUL DUP3 ADD JUMPDEST DUP3 DUP2 GT ISZERO PUSH2 0x63E JUMPI DUP3 MLOAD DUP3 PUSH0 PUSH2 0x100 EXP DUP2 SLOAD DUP2 PUSH20 0xFFFFFFFFFFFFFFFFFFFFFFFFFFFFFFFFFFFFFFFF MUL NOT AND SWAP1 DUP4 PUSH20 0xFFFFFFFFFFFFFFFFFFFFFFFFFFFFFFFFFFFFFFFF AND MUL OR SWAP1 SSTORE POP SWAP2 PUSH1 0x20 ADD SWAP2 SWAP1 PUSH1 0x1 ADD SWAP1 PUSH2 0x5E7 JUMP JUMPDEST JUMPDEST POP SWAP1 POP PUSH2 0x64C SWAP2 SWAP1 PUSH2 0x650 JUMP JUMPDEST POP SWAP1 JUMP JUMPDEST JUMPDEST DUP1 DUP3 GT ISZERO PUSH2 0x667 JUMPI PUSH0 DUP2 PUSH0 SWAP1 SSTORE POP PUSH1 0x1 ADD PUSH2 0x651 JUMP JUMPDEST POP SWAP1 JUMP JUMPDEST PUSH0 DUP2 SWAP1 POP SWAP2 SWAP1 POP JUMP JUMPDEST PUSH2 0x67D DUP2 PUSH2 0x66B JUMP JUMPDEST DUP3 MSTORE POP POP JUMP JUMPDEST PUSH0 PUSH1 0x20 DUP3 ADD SWAP1 POP PUSH2 0x696 PUSH0 DUP4 ADD DUP5 PUSH2 0x674 JUMP JUMPDEST SWAP3 SWAP2 POP POP JUMP JUMPDEST PUSH0 DUP1 REVERT JUMPDEST PUSH2 0x6A9 DUP2 PUSH2 0x66B JUMP JUMPDEST DUP2 EQ PUSH2 0x6B3 JUMPI PUSH0 DUP1 REVERT JUMPDEST POP JUMP JUMPDEST PUSH0 DUP2 CALLDATALOAD SWAP1 POP PUSH2 0x6C4 DUP2 PUSH2 0x6A0 JUMP JUMPDEST SWAP3 SWAP2 POP POP JUMP JUMPDEST PUSH0 PUSH1 0x20 DUP3 DUP5 SUB SLT ISZERO PUSH2 0x6DF JUMPI PUSH2 0x6DE PUSH2 0x69C JUMP JUMPDEST JUMPDEST PUSH0 PUSH2 0x6EC DUP5 DUP3 DUP6 ADD PUSH2 0x6B6 JUMP JUMPDEST SWAP2 POP POP SWAP3 SWAP2 POP POP JUMP JUMPDEST PUSH0 PUSH20 0xFFFFFFFFFFFFFFFFFFFFFFFFFFFFFFFFFFFFFFFF DUP3 AND SWAP1 POP SWAP2 SWAP1 POP JUMP JUMPDEST PUSH0 PUSH2 0x71E DUP3 PUSH2 0x6F5 JUMP JUMPDEST SWAP1 POP SWAP2 SWAP1 POP JUMP JUMPDEST PUSH2 0x72E DUP2 PUSH2 0x714 JUMP JUMPDEST DUP3 MSTORE POP POP JUMP JUMPDEST PUSH0 PUSH1 0x20 DUP3 ADD SWAP1 POP PUSH2 0x747 PUSH0 DUP4 ADD DUP5 PUSH2 0x725 JUMP JUMPDEST SWAP3 SWAP2 POP POP JUMP JUMPDEST PUSH2 0x756 DUP2 PUSH2 0x714 JUMP JUMPDEST DUP2 EQ PUSH2 0x760 JUMPI PUSH0 DUP1 REVERT JUMPDEST POP JUMP JUMPDEST PUSH0 DUP2 CALLDATALOAD SWAP1 POP PUSH2 0x771 DUP2 PUSH2 0x74D JUMP JUMPDEST SWAP3 SWAP2 POP POP JUMP JUMPDEST PUSH0 PUSH1 0x20 DUP3 DUP5 SUB SLT ISZERO PUSH2 0x78C JUMPI PUSH2 0x78B PUSH2 0x69C JUMP JUMPDEST JUMPDEST PUSH0 PUSH2 0x799 DUP5 DUP3 DUP6 ADD PUSH2 0x763 JUMP JUMPDEST SWAP2 POP POP SWAP3 SWAP2 POP POP JUMP JUMPDEST PUSH32 0x4E487B7100000000000000000000000000000000000000000000000000000000 PUSH0 MSTORE PUSH1 0x32 PUSH1 0x4 MSTORE PUSH1 0x24 PUSH0 REVERT JUMPDEST PUSH32 0x4E487B7100000000000000000000000000000000000000000000000000000000 PUSH0 MSTORE PUSH1 0x41 PUSH1 0x4 MSTORE PUSH1 0x24 PUSH0 REVERT JUMPDEST PUSH0 DUP2 SWAP1 POP SWAP3 SWAP2 POP POP JUMP JUMPDEST POP JUMP JUMPDEST PUSH0 PUSH2 0x814 PUSH0 DUP4 PUSH2 0x7FC JUMP JUMPDEST SWAP2 POP PUSH2 0x81F DUP3 PUSH2 0x806 JUMP JUMPDEST PUSH0 DUP3 ADD SWAP1 POP SWAP2 SWAP1 POP JUMP JUMPDEST PUSH0 PUSH2 0x833 DUP3 PUSH2 0x809 JUMP JUMPDEST SWAP2 POP DUP2 SWAP1 POP SWAP2 SWAP1 POP JUMP JUMPDEST PUSH32 0x4E487B7100000000000000000000000000000000000000000000000000000000 PUSH0 MSTORE PUSH1 0x11 PUSH1 0x4 MSTORE PUSH1 0x24 PUSH0 REVERT JUMPDEST PUSH0 PUSH2 0x874 DUP3 PUSH2 0x66B JUMP JUMPDEST SWAP2 POP PUSH2 0x87F DUP4 PUSH2 0x66B JUMP JUMPDEST SWAP3 POP DUP3 DUP3 ADD SWAP1 POP DUP1 DUP3 GT ISZERO PUSH2 0x897 JUMPI PUSH2 0x896 PUSH2 0x83D JUMP JUMPDEST JUMPDEST SWAP3 SWAP2 POP POP JUMP JUMPDEST PUSH0 PUSH2 0x8A7 DUP3 PUSH2 0x66B JUMP JUMPDEST SWAP2 POP PUSH2 0x8B2 DUP4 PUSH2 0x66B JUMP JUMPDEST SWAP3 POP DUP3 DUP3 MUL PUSH2 0x8C0 DUP2 PUSH2 0x66B JUMP JUMPDEST SWAP2 POP DUP3 DUP3 DIV DUP5 EQ DUP4 ISZERO OR PUSH2 0x8D7 JUMPI PUSH2 0x8D6 PUSH2 0x83D JUMP JUMPDEST JUMPDEST POP SWAP3 SWAP2 POP POP JUMP JUMPDEST PUSH32 0x4E487B7100000000000000000000000000000000000000000000000000000000 PUSH0 MSTORE PUSH1 0x12 PUSH1 0x4 MSTORE PUSH1 0x24 PUSH0 REVERT JUMPDEST PUSH0 PUSH2 0x915 DUP3 PUSH2 0x66B JUMP JUMPDEST SWAP2 POP PUSH2 0x920 DUP4 PUSH2 0x66B JUMP JUMPDEST SWAP3 POP DUP3 PUSH2 0x930 JUMPI PUSH2 0x92F PUSH2 0x8DE JUMP JUMPDEST JUMPDEST DUP3 DUP3 DIV SWAP1 POP SWAP3 SWAP2 POP POP JUMP JUMPDEST PUSH0 PUSH10 0xFFFFFFFFFFFFFFFFFFFF DUP3 AND SWAP1 POP SWAP2 SWAP1 POP JUMP JUMPDEST PUSH2 0x959 DUP2 PUSH2 0x93B JUMP JUMPDEST DUP2 EQ PUSH2 0x963 JUMPI PUSH0 DUP1 REVERT JUMPDEST POP JUMP JUMPDEST PUSH0 DUP2 MLOAD SWAP1 POP PUSH2 0x974 DUP2 PUSH2 0x950 JUMP JUMPDEST SWAP3 SWAP2 POP POP JUMP JUMPDEST PUSH0 DUP2 SWAP1 POP SWAP2 SWAP1 POP JUMP JUMPDEST PUSH2 0x98C DUP2 PUSH2 0x97A JUMP JUMPDEST DUP2 EQ PUSH2 0x996 JUMPI PUSH0 DUP1 REVERT JUMPDEST POP JUMP JUMPDEST PUSH0 DUP2 MLOAD SWAP1 POP PUSH2 0x9A7 DUP2 PUSH2 0x983 JUMP JUMPDEST SWAP3 SWAP2 POP POP JUMP JUMPDEST PUSH0 DUP2 MLOAD SWAP1 POP PUSH2 0x9BB DUP2 PUSH2 0x6A0 JUMP JUMPDEST SWAP3 SWAP2 POP POP JUMP JUMPDEST PUSH0 DUP1 PUSH0 DUP1 PUSH0 PUSH1 0xA0 DUP7 DUP9 SUB SLT ISZERO PUSH2 0x9DA JUMPI PUSH2 0x9D9 PUSH2 0x69C JUMP JUMPDEST JUMPDEST PUSH0 PUSH2 0x9E7 DUP9 DUP3 DUP10 ADD PUSH2 0x966 JUMP JUMPDEST SWAP6 POP POP PUSH1 0x20 PUSH2 0x9F8 DUP9 DUP3 DUP10 ADD PUSH2 0x999 JUMP JUMPDEST SWAP5 POP POP PUSH1 0x40 PUSH2 0xA09 DUP9 DUP3 DUP10 ADD PUSH2 0x9AD JUMP JUMPDEST SWAP4 POP POP PUSH1 0x60 PUSH2 0xA1A DUP9 DUP3 DUP10 ADD PUSH2 0x9AD JUMP JUMPDEST SWAP3 POP POP PUSH1 0x80 PUSH2 0xA2B DUP9 DUP3 DUP10 ADD PUSH2 0x966 JUMP JUMPDEST SWAP2 POP POP SWAP3 SWAP6 POP SWAP3 SWAP6 SWAP1 SWAP4 POP JUMP JUMPDEST PUSH0 PUSH2 0xA42 DUP3 PUSH2 0x97A JUMP JUMPDEST SWAP2 POP PUSH2 0xA4D DUP4 PUSH2 0x97A JUMP JUMPDEST SWAP3 POP DUP3 DUP3 MUL PUSH2 0xA5B DUP2 PUSH2 0x97A JUMP JUMPDEST SWAP2 POP PUSH32 0x8000000000000000000000000000000000000000000000000000000000000000 DUP5 EQ PUSH0 DUP5 SLT AND ISZERO PUSH2 0xA92 JUMPI PUSH2 0xA91 PUSH2 0x83D JUMP JUMPDEST JUMPDEST DUP3 DUP3 SDIV DUP5 EQ DUP4 ISZERO OR PUSH2 0xAA7 JUMPI PUSH2 0xAA6 PUSH2 0x83D JUMP JUMPDEST JUMPDEST POP SWAP3 SWAP2 POP POP JUMP INVALID LOG2 PUSH5 0x6970667358 0x22 SLT KECCAK256 GT SWAP1 0xBF GT 0xC3 CALLDATALOAD 0xC8 0xA8 ADDMOD 0xC4 POP SHL DUP11 0xB3 ISZERO 0xDD PUSH0 0xC 0xB6 0xB7 0xDE LOG4 0xD0 0xBE SWAP12 CODESIZE CALLDATALOAD 0xBE LOG1 SWAP2 0x21 RETURN PUSH5 0x736F6C6343 STOP ADDMOD XOR STOP CALLER "
				},
				"gasEstimates": {
					"creation": {
						"codeDepositCost": "557600",
						"executionCost": "infinite",
						"totalCost": "infinite"
					},
					"external": {
						"MIN_USD()": "303",
						"address_to_amount(address)": "2846",
						"fund()": "infinite",
						"i_owner()": "infinite",
						"sender_Adresses(uint256)": "4943",
						"withdraw()": "infinite"
					}
				},
				"methodIdentifiers": {
					"MIN_USD()": "213dbea2",
					"address_to_amount(address)": "a6878279",
					"fund()": "b60d4288",
					"i_owner()": "dba6335f",
					"sender_Adresses(uint256)": "32c35cdc",
					"withdraw()": "3ccfd60b"
				}
			},
			"storageLayout": {
				"storage": [
					{
						"astId": 121,
						"contract": "fund_me/A9.sol:FundMeA9",
						"label": "sender_Adresses",
						"offset": 0,
						"slot": "0",
						"type": "t_array(t_address)dyn_storage"
					},
					{
						"astId": 125,
						"contract": "fund_me/A9.sol:FundMeA9",
						"label": "address_to_amount",
						"offset": 0,
						"slot": "1",
						"type": "t_mapping(t_address,t_uint256)"
					}
				],
				"types": {
					"t_address": {
						"encoding": "inplace",
						"label": "address",
						"numberOfBytes": "20"
					},
					"t_array(t_address)dyn_storage": {
						"base": "t_address",
						"encoding": "dynamic_array",
						"label": "address[]",
						"numberOfBytes": "32"
					},
					"t_mapping(t_address,t_uint256)": {
						"encoding": "mapping",
						"key": "t_address",
						"label": "mapping(address => uint256)",
						"numberOfBytes": "32",
						"value": "t_uint256"
					},
					"t_uint256": {
						"encoding": "inplace",
						"label": "uint256",
						"numberOfBytes": "32"
					}
				}
			},
			"userdoc": {
				"kind": "user",
				"methods": {},
				"version": 1
			}
		}
	}
}