{
	"fund_me/A5.sol": {
		"FundMeA5": {
			"abi": [
				{
					"inputs": [
						{
							"internalType": "address",
							"name": "",
							"type": "address"
						}
					],
					"name": "address_to_amount",
					"outputs": [
						{
							"internalType": "uint256",
							"name": "",
							"type": "uint256"
						}
					],
					"stateMutability": "view",
					"type": "function"
				},
				{
					"inputs": [],
					"name": "fund",
					"outputs": [],
					"stateMutability": "payable",
					"type": "function"
				},
				{
					"inputs": [],
					"name": "min_USD",
					"outputs": [
						{
							"internalType": "uint256",
							"name": "",
							"type": "uint256"
						}
					],
					"stateMutability": "view",
					"type": "function"
				},
				{
					"inputs": [
						{
							"internalType": "uint256",
							"name": "",
							"type": "uint256"
						}
					],
					"name": "sender_Adresses",
					"outputs": [
						{
							"internalType": "address",
							"name": "",
							"type": "address"
						}
					],
					"stateMutability": "view",
					"type": "function"
				}
			],
			"devdoc": {
				"kind": "dev",
				"methods": {},
				"version": 1
			},
			"evm": {
				"assembly": "    /* \"fund_me/A5.sol\":127:734  contract FundMeA5{... */\n  mstore(0x40, 0x80)\n    /* \"fund_me/A5.sol\":303:311  5 * 1e18 */\n  0x4563918244f40000\n    /* \"fund_me/A5.sol\":278:311  uint256 public min_USD = 5 * 1e18 */\n  0x00\n  sstore\n    /* \"fund_me/A5.sol\":127:734  contract FundMeA5{... */\n  callvalue\n  dup1\n  iszero\n  tag_1\n  jumpi\n  0x00\n  dup1\n  revert\ntag_1:\n  pop\n  dataSize(sub_0)\n  dup1\n  dataOffset(sub_0)\n  0x00\n  codecopy\n  0x00\n  return\nstop\n\nsub_0: assembly {\n        /* \"fund_me/A5.sol\":127:734  contract FundMeA5{... */\n      mstore(0x40, 0x80)\n      jumpi(tag_1, lt(calldatasize, 0x04))\n      shr(0xe0, calldataload(0x00))\n      dup1\n      0x32c35cdc\n      eq\n      tag_2\n      jumpi\n      dup1\n      0xa6878279\n      eq\n      tag_3\n      jumpi\n      dup1\n      0xb60d4288\n      eq\n      tag_4\n      jumpi\n      dup1\n      0xeb2aae5c\n      eq\n      tag_5\n      jumpi\n    tag_1:\n      0x00\n      dup1\n      revert\n        /* \"fund_me/A5.sol\":318:350  address[] public sender_Adresses */\n    tag_2:\n      callvalue\n      dup1\n      iszero\n      tag_6\n      jumpi\n      0x00\n      dup1\n      revert\n    tag_6:\n      pop\n      tag_7\n      0x04\n      dup1\n      calldatasize\n      sub\n      dup2\n      add\n      swap1\n      tag_8\n      swap2\n      swap1\n      tag_9\n      jump\t// in\n    tag_8:\n      tag_10\n      jump\t// in\n    tag_7:\n      mload(0x40)\n      tag_11\n      swap2\n      swap1\n      tag_12\n      jump\t// in\n    tag_11:\n      mload(0x40)\n      dup1\n      swap2\n      sub\n      swap1\n      return\n        /* \"fund_me/A5.sol\":357:409  mapping(address => uint256) public address_to_amount */\n    tag_3:\n      callvalue\n      dup1\n      iszero\n      tag_13\n      jumpi\n      0x00\n      dup1\n      revert\n    tag_13:\n      pop\n      tag_14\n      0x04\n      dup1\n      calldatasize\n      sub\n      dup2\n      add\n      swap1\n      tag_15\n      swap2\n      swap1\n      tag_16\n      jump\t// in\n    tag_15:\n      tag_17\n      jump\t// in\n    tag_14:\n      mload(0x40)\n      tag_18\n      swap2\n      swap1\n      tag_19\n      jump\t// in\n    tag_18:\n      mload(0x40)\n      dup1\n      swap2\n      sub\n      swap1\n      return\n        /* \"fund_me/A5.sol\":418:731  function fund() public payable{... */\n    tag_4:\n      tag_20\n      tag_21\n      jump\t// in\n    tag_20:\n      stop\n        /* \"fund_me/A5.sol\":278:311  uint256 public min_USD = 5 * 1e18 */\n    tag_5:\n      callvalue\n      dup1\n      iszero\n      tag_22\n      jumpi\n      0x00\n      dup1\n      revert\n    tag_22:\n      pop\n      tag_23\n      tag_24\n      jump\t// in\n    tag_23:\n      mload(0x40)\n      tag_25\n      swap2\n      swap1\n      tag_19\n      jump\t// in\n    tag_25:\n      mload(0x40)\n      dup1\n      swap2\n      sub\n      swap1\n      return\n        /* \"fund_me/A5.sol\":318:350  address[] public sender_Adresses */\n    tag_10:\n      0x01\n      dup2\n      dup2\n      sload\n      dup2\n      lt\n      tag_26\n      jumpi\n      0x00\n      dup1\n      revert\n    tag_26:\n      swap1\n      0x00\n      mstore\n      keccak256(0x00, 0x20)\n      add\n      0x00\n      swap2\n      pop\n      sload\n      swap1\n      0x0100\n      exp\n      swap1\n      div\n      0xffffffffffffffffffffffffffffffffffffffff\n      and\n      dup2\n      jump\t// out\n        /* \"fund_me/A5.sol\":357:409  mapping(address => uint256) public address_to_amount */\n    tag_17:\n      mstore(0x20, 0x02)\n      dup1\n      0x00\n      mstore\n      keccak256(0x00, 0x40)\n      0x00\n      swap2\n      pop\n      swap1\n      pop\n      sload\n      dup2\n      jump\t// out\n        /* \"fund_me/A5.sol\":418:731  function fund() public payable{... */\n    tag_21:\n        /* \"fund_me/A5.sol\":570:577  min_USD */\n      sload(0x00)\n        /* \"fund_me/A5.sol\":542:567  msg.value.getConvertion() */\n      tag_29\n        /* \"fund_me/A5.sol\":542:551  msg.value */\n      callvalue\n        /* \"fund_me/A5.sol\":542:565  msg.value.getConvertion */\n      tag_30\n        /* \"fund_me/A5.sol\":542:567  msg.value.getConvertion() */\n      jump\t// in\n    tag_29:\n        /* \"fund_me/A5.sol\":542:577  msg.value.getConvertion() > min_USD */\n      gt\n        /* \"fund_me/A5.sol\":534:596  require(msg.value.getConvertion() > min_USD, \"ETH not enough\") */\n      tag_31\n      jumpi\n      mload(0x40)\n      0x08c379a000000000000000000000000000000000000000000000000000000000\n      dup2\n      mstore\n      0x04\n      add\n      tag_32\n      swap1\n      tag_33\n      jump\t// in\n    tag_32:\n      mload(0x40)\n      dup1\n      swap2\n      sub\n      swap1\n      revert\n    tag_31:\n        /* \"fund_me/A5.sol\":607:622  sender_Adresses */\n      0x01\n        /* \"fund_me/A5.sol\":628:638  msg.sender */\n      caller\n        /* \"fund_me/A5.sol\":607:639  sender_Adresses.push(msg.sender) */\n      swap1\n      dup1\n      0x01\n      dup2\n      sload\n      add\n      dup1\n      dup3\n      sstore\n      dup1\n      swap2\n      pop\n      pop\n      0x01\n      swap1\n      sub\n      swap1\n      0x00\n      mstore\n      keccak256(0x00, 0x20)\n      add\n      0x00\n      swap1\n      swap2\n      swap1\n      swap2\n      swap1\n      swap2\n      0x0100\n      exp\n      dup2\n      sload\n      dup2\n      0xffffffffffffffffffffffffffffffffffffffff\n      mul\n      not\n      and\n      swap1\n      dup4\n      0xffffffffffffffffffffffffffffffffffffffff\n      and\n      mul\n      or\n      swap1\n      sstore\n      pop\n        /* \"fund_me/A5.sol\":714:723  msg.value */\n      callvalue\n        /* \"fund_me/A5.sol\":682:699  address_to_amount */\n      0x02\n        /* \"fund_me/A5.sol\":682:711  address_to_amount[msg.sender] */\n      0x00\n        /* \"fund_me/A5.sol\":700:710  msg.sender */\n      caller\n        /* \"fund_me/A5.sol\":682:711  address_to_amount[msg.sender] */\n      0xffffffffffffffffffffffffffffffffffffffff\n      and\n      0xffffffffffffffffffffffffffffffffffffffff\n      and\n      dup2\n      mstore\n      0x20\n      add\n      swap1\n      dup2\n      mstore\n      0x20\n      add\n      0x00\n      keccak256\n      sload\n        /* \"fund_me/A5.sol\":682:723  address_to_amount[msg.sender] + msg.value */\n      tag_35\n      swap2\n      swap1\n      tag_36\n      jump\t// in\n    tag_35:\n        /* \"fund_me/A5.sol\":650:667  address_to_amount */\n      0x02\n        /* \"fund_me/A5.sol\":650:679  address_to_amount[msg.sender] */\n      0x00\n        /* \"fund_me/A5.sol\":668:678  msg.sender */\n      caller\n        /* \"fund_me/A5.sol\":650:679  address_to_amount[msg.sender] */\n      0xffffffffffffffffffffffffffffffffffffffff\n      and\n      0xffffffffffffffffffffffffffffffffffffffff\n      and\n      dup2\n      mstore\n      0x20\n      add\n      swap1\n      dup2\n      mstore\n      0x20\n      add\n      0x00\n      keccak256\n        /* \"fund_me/A5.sol\":650:723  address_to_amount[msg.sender] = address_to_amount[msg.sender] + msg.value */\n      dup2\n      swap1\n      sstore\n      pop\n        /* \"fund_me/A5.sol\":418:731  function fund() public payable{... */\n      jump\t// out\n        /* \"fund_me/A5.sol\":278:311  uint256 public min_USD = 5 * 1e18 */\n    tag_24:\n      sload(0x00)\n      dup2\n      jump\t// out\n        /* \"fund_me/A4_price_converter_library.sol\":658:877  function getConvertion(uint256 ETH_amount) internal view returns(uint256){... */\n    tag_30:\n        /* \"fund_me/A4_price_converter_library.sol\":723:730  uint256 */\n      0x00\n        /* \"fund_me/A4_price_converter_library.sol\":742:759  uint256 ETH_price */\n      dup1\n        /* \"fund_me/A4_price_converter_library.sol\":762:772  getPrice() */\n      tag_38\n        /* \"fund_me/A4_price_converter_library.sol\":762:770  getPrice */\n      tag_39\n        /* \"fund_me/A4_price_converter_library.sol\":762:772  getPrice() */\n      jump\t// in\n    tag_38:\n        /* \"fund_me/A4_price_converter_library.sol\":742:772  uint256 ETH_price = getPrice() */\n      swap1\n      pop\n        /* \"fund_me/A4_price_converter_library.sol\":783:804  uint256 amount_in_USD */\n      0x00\n        /* \"fund_me/A4_price_converter_library.sol\":834:838  1e18 */\n      0x0de0b6b3a7640000\n        /* \"fund_me/A4_price_converter_library.sol\":821:830  ETH_price */\n      dup3\n        /* \"fund_me/A4_price_converter_library.sol\":808:818  ETH_amount */\n      dup6\n        /* \"fund_me/A4_price_converter_library.sol\":808:830  ETH_amount * ETH_price */\n      tag_40\n      swap2\n      swap1\n      tag_41\n      jump\t// in\n    tag_40:\n        /* \"fund_me/A4_price_converter_library.sol\":807:838  (ETH_amount * ETH_price) / 1e18 */\n      tag_42\n      swap2\n      swap1\n      tag_43\n      jump\t// in\n    tag_42:\n        /* \"fund_me/A4_price_converter_library.sol\":783:838  uint256 amount_in_USD = (ETH_amount * ETH_price) / 1e18 */\n      swap1\n      pop\n        /* \"fund_me/A4_price_converter_library.sol\":856:869  amount_in_USD */\n      dup1\n        /* \"fund_me/A4_price_converter_library.sol\":849:869  return amount_in_USD */\n      swap3\n      pop\n      pop\n      pop\n        /* \"fund_me/A4_price_converter_library.sol\":658:877  function getConvertion(uint256 ETH_amount) internal view returns(uint256){... */\n      swap2\n      swap1\n      pop\n      jump\t// out\n        /* \"fund_me/A4_price_converter_library.sol\":382:650  function getPrice() internal view returns(uint256){... */\n    tag_39:\n        /* \"fund_me/A4_price_converter_library.sol\":424:431  uint256 */\n      0x00\n        /* \"fund_me/A4_price_converter_library.sol\":443:475  AggregatorV3Interface price_feed */\n      dup1\n        /* \"fund_me/A4_price_converter_library.sol\":500:542  0x694AA1769357215DE4FAC081bf1f309aDC325306 */\n      0x694aa1769357215de4fac081bf1f309adc325306\n        /* \"fund_me/A4_price_converter_library.sol\":443:543  AggregatorV3Interface price_feed = AggregatorV3Interface(0x694AA1769357215DE4FAC081bf1f309aDC325306) */\n      swap1\n      pop\n        /* \"fund_me/A4_price_converter_library.sol\":556:568  int256 price */\n      0x00\n        /* \"fund_me/A4_price_converter_library.sol\":575:585  price_feed */\n      dup2\n        /* \"fund_me/A4_price_converter_library.sol\":575:601  price_feed.latestRoundData */\n      0xffffffffffffffffffffffffffffffffffffffff\n      and\n      0xfeaf968c\n        /* \"fund_me/A4_price_converter_library.sol\":575:603  price_feed.latestRoundData() */\n      mload(0x40)\n      dup2\n      0xffffffff\n      and\n      0xe0\n      shl\n      dup2\n      mstore\n      0x04\n      add\n      0xa0\n      mload(0x40)\n      dup1\n      dup4\n      sub\n      dup2\n      dup7\n      gas\n      staticcall\n      iszero\n      dup1\n      iszero\n      tag_46\n      jumpi\n      returndatasize\n      0x00\n      dup1\n      returndatacopy\n      revert(0x00, returndatasize)\n    tag_46:\n      pop\n      pop\n      pop\n      pop\n      mload(0x40)\n      returndatasize\n      not(0x1f)\n      0x1f\n      dup3\n      add\n      and\n      dup3\n      add\n      dup1\n      0x40\n      mstore\n      pop\n      dup2\n      add\n      swap1\n      tag_47\n      swap2\n      swap1\n      tag_48\n      jump\t// in\n    tag_47:\n        /* \"fund_me/A4_price_converter_library.sol\":554:603  (,int256 price,,,) = price_feed.latestRoundData() */\n      pop\n      pop\n      pop\n      swap2\n      pop\n      pop\n        /* \"fund_me/A4_price_converter_library.sol\":637:641  1e18 */\n      0x0de0b6b3a7640000\n        /* \"fund_me/A4_price_converter_library.sol\":629:634  price */\n      dup2\n        /* \"fund_me/A4_price_converter_library.sol\":629:641  price * 1e18 */\n      tag_49\n      swap2\n      swap1\n      tag_50\n      jump\t// in\n    tag_49:\n        /* \"fund_me/A4_price_converter_library.sol\":614:642  return uint256(price * 1e18) */\n      swap3\n      pop\n      pop\n      pop\n        /* \"fund_me/A4_price_converter_library.sol\":382:650  function getPrice() internal view returns(uint256){... */\n      swap1\n      jump\t// out\n        /* \"#utility.yul\":88:205   */\n    tag_52:\n        /* \"#utility.yul\":197:198   */\n      0x00\n        /* \"#utility.yul\":194:195   */\n      dup1\n        /* \"#utility.yul\":187:199   */\n      revert\n        /* \"#utility.yul\":334:411   */\n    tag_54:\n        /* \"#utility.yul\":371:378   */\n      0x00\n        /* \"#utility.yul\":400:405   */\n      dup2\n        /* \"#utility.yul\":389:405   */\n      swap1\n      pop\n        /* \"#utility.yul\":334:411   */\n      swap2\n      swap1\n      pop\n      jump\t// out\n        /* \"#utility.yul\":417:539   */\n    tag_55:\n        /* \"#utility.yul\":490:514   */\n      tag_81\n        /* \"#utility.yul\":508:513   */\n      dup2\n        /* \"#utility.yul\":490:514   */\n      tag_54\n      jump\t// in\n    tag_81:\n        /* \"#utility.yul\":483:488   */\n      dup2\n        /* \"#utility.yul\":480:515   */\n      eq\n        /* \"#utility.yul\":470:533   */\n      tag_82\n      jumpi\n        /* \"#utility.yul\":529:530   */\n      0x00\n        /* \"#utility.yul\":526:527   */\n      dup1\n        /* \"#utility.yul\":519:531   */\n      revert\n        /* \"#utility.yul\":470:533   */\n    tag_82:\n        /* \"#utility.yul\":417:539   */\n      pop\n      jump\t// out\n        /* \"#utility.yul\":545:684   */\n    tag_56:\n        /* \"#utility.yul\":591:596   */\n      0x00\n        /* \"#utility.yul\":629:635   */\n      dup2\n        /* \"#utility.yul\":616:636   */\n      calldataload\n        /* \"#utility.yul\":607:636   */\n      swap1\n      pop\n        /* \"#utility.yul\":645:678   */\n      tag_84\n        /* \"#utility.yul\":672:677   */\n      dup2\n        /* \"#utility.yul\":645:678   */\n      tag_55\n      jump\t// in\n    tag_84:\n        /* \"#utility.yul\":545:684   */\n      swap3\n      swap2\n      pop\n      pop\n      jump\t// out\n        /* \"#utility.yul\":690:1019   */\n    tag_9:\n        /* \"#utility.yul\":749:755   */\n      0x00\n        /* \"#utility.yul\":798:800   */\n      0x20\n        /* \"#utility.yul\":786:795   */\n      dup3\n        /* \"#utility.yul\":777:784   */\n      dup5\n        /* \"#utility.yul\":773:796   */\n      sub\n        /* \"#utility.yul\":769:801   */\n      slt\n        /* \"#utility.yul\":766:885   */\n      iszero\n      tag_86\n      jumpi\n        /* \"#utility.yul\":804:883   */\n      tag_87\n      tag_52\n      jump\t// in\n    tag_87:\n        /* \"#utility.yul\":766:885   */\n    tag_86:\n        /* \"#utility.yul\":924:925   */\n      0x00\n        /* \"#utility.yul\":949:1002   */\n      tag_88\n        /* \"#utility.yul\":994:1001   */\n      dup5\n        /* \"#utility.yul\":985:991   */\n      dup3\n        /* \"#utility.yul\":974:983   */\n      dup6\n        /* \"#utility.yul\":970:992   */\n      add\n        /* \"#utility.yul\":949:1002   */\n      tag_56\n      jump\t// in\n    tag_88:\n        /* \"#utility.yul\":939:1002   */\n      swap2\n      pop\n        /* \"#utility.yul\":895:1012   */\n      pop\n        /* \"#utility.yul\":690:1019   */\n      swap3\n      swap2\n      pop\n      pop\n      jump\t// out\n        /* \"#utility.yul\":1025:1151   */\n    tag_57:\n        /* \"#utility.yul\":1062:1069   */\n      0x00\n        /* \"#utility.yul\":1102:1144   */\n      0xffffffffffffffffffffffffffffffffffffffff\n        /* \"#utility.yul\":1095:1100   */\n      dup3\n        /* \"#utility.yul\":1091:1145   */\n      and\n        /* \"#utility.yul\":1080:1145   */\n      swap1\n      pop\n        /* \"#utility.yul\":1025:1151   */\n      swap2\n      swap1\n      pop\n      jump\t// out\n        /* \"#utility.yul\":1157:1253   */\n    tag_58:\n        /* \"#utility.yul\":1194:1201   */\n      0x00\n        /* \"#utility.yul\":1223:1247   */\n      tag_91\n        /* \"#utility.yul\":1241:1246   */\n      dup3\n        /* \"#utility.yul\":1223:1247   */\n      tag_57\n      jump\t// in\n    tag_91:\n        /* \"#utility.yul\":1212:1247   */\n      swap1\n      pop\n        /* \"#utility.yul\":1157:1253   */\n      swap2\n      swap1\n      pop\n      jump\t// out\n        /* \"#utility.yul\":1259:1377   */\n    tag_59:\n        /* \"#utility.yul\":1346:1370   */\n      tag_93\n        /* \"#utility.yul\":1364:1369   */\n      dup2\n        /* \"#utility.yul\":1346:1370   */\n      tag_58\n      jump\t// in\n    tag_93:\n        /* \"#utility.yul\":1341:1344   */\n      dup3\n        /* \"#utility.yul\":1334:1371   */\n      mstore\n        /* \"#utility.yul\":1259:1377   */\n      pop\n      pop\n      jump\t// out\n        /* \"#utility.yul\":1383:1605   */\n    tag_12:\n        /* \"#utility.yul\":1476:1480   */\n      0x00\n        /* \"#utility.yul\":1514:1516   */\n      0x20\n        /* \"#utility.yul\":1503:1512   */\n      dup3\n        /* \"#utility.yul\":1499:1517   */\n      add\n        /* \"#utility.yul\":1491:1517   */\n      swap1\n      pop\n        /* \"#utility.yul\":1527:1598   */\n      tag_95\n        /* \"#utility.yul\":1595:1596   */\n      0x00\n        /* \"#utility.yul\":1584:1593   */\n      dup4\n        /* \"#utility.yul\":1580:1597   */\n      add\n        /* \"#utility.yul\":1571:1577   */\n      dup5\n        /* \"#utility.yul\":1527:1598   */\n      tag_59\n      jump\t// in\n    tag_95:\n        /* \"#utility.yul\":1383:1605   */\n      swap3\n      swap2\n      pop\n      pop\n      jump\t// out\n        /* \"#utility.yul\":1611:1733   */\n    tag_60:\n        /* \"#utility.yul\":1684:1708   */\n      tag_97\n        /* \"#utility.yul\":1702:1707   */\n      dup2\n        /* \"#utility.yul\":1684:1708   */\n      tag_58\n      jump\t// in\n    tag_97:\n        /* \"#utility.yul\":1677:1682   */\n      dup2\n        /* \"#utility.yul\":1674:1709   */\n      eq\n        /* \"#utility.yul\":1664:1727   */\n      tag_98\n      jumpi\n        /* \"#utility.yul\":1723:1724   */\n      0x00\n        /* \"#utility.yul\":1720:1721   */\n      dup1\n        /* \"#utility.yul\":1713:1725   */\n      revert\n        /* \"#utility.yul\":1664:1727   */\n    tag_98:\n        /* \"#utility.yul\":1611:1733   */\n      pop\n      jump\t// out\n        /* \"#utility.yul\":1739:1878   */\n    tag_61:\n        /* \"#utility.yul\":1785:1790   */\n      0x00\n        /* \"#utility.yul\":1823:1829   */\n      dup2\n        /* \"#utility.yul\":1810:1830   */\n      calldataload\n        /* \"#utility.yul\":1801:1830   */\n      swap1\n      pop\n        /* \"#utility.yul\":1839:1872   */\n      tag_100\n        /* \"#utility.yul\":1866:1871   */\n      dup2\n        /* \"#utility.yul\":1839:1872   */\n      tag_60\n      jump\t// in\n    tag_100:\n        /* \"#utility.yul\":1739:1878   */\n      swap3\n      swap2\n      pop\n      pop\n      jump\t// out\n        /* \"#utility.yul\":1884:2213   */\n    tag_16:\n        /* \"#utility.yul\":1943:1949   */\n      0x00\n        /* \"#utility.yul\":1992:1994   */\n      0x20\n        /* \"#utility.yul\":1980:1989   */\n      dup3\n        /* \"#utility.yul\":1971:1978   */\n      dup5\n        /* \"#utility.yul\":1967:1990   */\n      sub\n        /* \"#utility.yul\":1963:1995   */\n      slt\n        /* \"#utility.yul\":1960:2079   */\n      iszero\n      tag_102\n      jumpi\n        /* \"#utility.yul\":1998:2077   */\n      tag_103\n      tag_52\n      jump\t// in\n    tag_103:\n        /* \"#utility.yul\":1960:2079   */\n    tag_102:\n        /* \"#utility.yul\":2118:2119   */\n      0x00\n        /* \"#utility.yul\":2143:2196   */\n      tag_104\n        /* \"#utility.yul\":2188:2195   */\n      dup5\n        /* \"#utility.yul\":2179:2185   */\n      dup3\n        /* \"#utility.yul\":2168:2177   */\n      dup6\n        /* \"#utility.yul\":2164:2186   */\n      add\n        /* \"#utility.yul\":2143:2196   */\n      tag_61\n      jump\t// in\n    tag_104:\n        /* \"#utility.yul\":2133:2196   */\n      swap2\n      pop\n        /* \"#utility.yul\":2089:2206   */\n      pop\n        /* \"#utility.yul\":1884:2213   */\n      swap3\n      swap2\n      pop\n      pop\n      jump\t// out\n        /* \"#utility.yul\":2219:2337   */\n    tag_62:\n        /* \"#utility.yul\":2306:2330   */\n      tag_106\n        /* \"#utility.yul\":2324:2329   */\n      dup2\n        /* \"#utility.yul\":2306:2330   */\n      tag_54\n      jump\t// in\n    tag_106:\n        /* \"#utility.yul\":2301:2304   */\n      dup3\n        /* \"#utility.yul\":2294:2331   */\n      mstore\n        /* \"#utility.yul\":2219:2337   */\n      pop\n      pop\n      jump\t// out\n        /* \"#utility.yul\":2343:2565   */\n    tag_19:\n        /* \"#utility.yul\":2436:2440   */\n      0x00\n        /* \"#utility.yul\":2474:2476   */\n      0x20\n        /* \"#utility.yul\":2463:2472   */\n      dup3\n        /* \"#utility.yul\":2459:2477   */\n      add\n        /* \"#utility.yul\":2451:2477   */\n      swap1\n      pop\n        /* \"#utility.yul\":2487:2558   */\n      tag_108\n        /* \"#utility.yul\":2555:2556   */\n      0x00\n        /* \"#utility.yul\":2544:2553   */\n      dup4\n        /* \"#utility.yul\":2540:2557   */\n      add\n        /* \"#utility.yul\":2531:2537   */\n      dup5\n        /* \"#utility.yul\":2487:2558   */\n      tag_62\n      jump\t// in\n    tag_108:\n        /* \"#utility.yul\":2343:2565   */\n      swap3\n      swap2\n      pop\n      pop\n      jump\t// out\n        /* \"#utility.yul\":2571:2740   */\n    tag_63:\n        /* \"#utility.yul\":2655:2666   */\n      0x00\n        /* \"#utility.yul\":2689:2695   */\n      dup3\n        /* \"#utility.yul\":2684:2687   */\n      dup3\n        /* \"#utility.yul\":2677:2696   */\n      mstore\n        /* \"#utility.yul\":2729:2733   */\n      0x20\n        /* \"#utility.yul\":2724:2727   */\n      dup3\n        /* \"#utility.yul\":2720:2734   */\n      add\n        /* \"#utility.yul\":2705:2734   */\n      swap1\n      pop\n        /* \"#utility.yul\":2571:2740   */\n      swap3\n      swap2\n      pop\n      pop\n      jump\t// out\n        /* \"#utility.yul\":2746:2910   */\n    tag_64:\n        /* \"#utility.yul\":2886:2902   */\n      0x455448206e6f7420656e6f756768000000000000000000000000000000000000\n        /* \"#utility.yul\":2882:2883   */\n      0x00\n        /* \"#utility.yul\":2874:2880   */\n      dup3\n        /* \"#utility.yul\":2870:2884   */\n      add\n        /* \"#utility.yul\":2863:2903   */\n      mstore\n        /* \"#utility.yul\":2746:2910   */\n      pop\n      jump\t// out\n        /* \"#utility.yul\":2916:3282   */\n    tag_65:\n        /* \"#utility.yul\":3058:3061   */\n      0x00\n        /* \"#utility.yul\":3079:3146   */\n      tag_112\n        /* \"#utility.yul\":3143:3145   */\n      0x0e\n        /* \"#utility.yul\":3138:3141   */\n      dup4\n        /* \"#utility.yul\":3079:3146   */\n      tag_63\n      jump\t// in\n    tag_112:\n        /* \"#utility.yul\":3072:3146   */\n      swap2\n      pop\n        /* \"#utility.yul\":3155:3248   */\n      tag_113\n        /* \"#utility.yul\":3244:3247   */\n      dup3\n        /* \"#utility.yul\":3155:3248   */\n      tag_64\n      jump\t// in\n    tag_113:\n        /* \"#utility.yul\":3273:3275   */\n      0x20\n        /* \"#utility.yul\":3268:3271   */\n      dup3\n        /* \"#utility.yul\":3264:3276   */\n      add\n        /* \"#utility.yul\":3257:3276   */\n      swap1\n      pop\n        /* \"#utility.yul\":2916:3282   */\n      swap2\n      swap1\n      pop\n      jump\t// out\n        /* \"#utility.yul\":3288:3707   */\n    tag_33:\n        /* \"#utility.yul\":3454:3458   */\n      0x00\n        /* \"#utility.yul\":3492:3494   */\n      0x20\n        /* \"#utility.yul\":3481:3490   */\n      dup3\n        /* \"#utility.yul\":3477:3495   */\n      add\n        /* \"#utility.yul\":3469:3495   */\n      swap1\n      pop\n        /* \"#utility.yul\":3541:3550   */\n      dup2\n        /* \"#utility.yul\":3535:3539   */\n      dup2\n        /* \"#utility.yul\":3531:3551   */\n      sub\n        /* \"#utility.yul\":3527:3528   */\n      0x00\n        /* \"#utility.yul\":3516:3525   */\n      dup4\n        /* \"#utility.yul\":3512:3529   */\n      add\n        /* \"#utility.yul\":3505:3552   */\n      mstore\n        /* \"#utility.yul\":3569:3700   */\n      tag_115\n        /* \"#utility.yul\":3695:3699   */\n      dup2\n        /* \"#utility.yul\":3569:3700   */\n      tag_65\n      jump\t// in\n    tag_115:\n        /* \"#utility.yul\":3561:3700   */\n      swap1\n      pop\n        /* \"#utility.yul\":3288:3707   */\n      swap2\n      swap1\n      pop\n      jump\t// out\n        /* \"#utility.yul\":3713:3893   */\n    tag_66:\n        /* \"#utility.yul\":3761:3838   */\n      0x4e487b7100000000000000000000000000000000000000000000000000000000\n        /* \"#utility.yul\":3758:3759   */\n      0x00\n        /* \"#utility.yul\":3751:3839   */\n      mstore\n        /* \"#utility.yul\":3858:3862   */\n      0x11\n        /* \"#utility.yul\":3855:3856   */\n      0x04\n        /* \"#utility.yul\":3848:3863   */\n      mstore\n        /* \"#utility.yul\":3882:3886   */\n      0x24\n        /* \"#utility.yul\":3879:3880   */\n      0x00\n        /* \"#utility.yul\":3872:3887   */\n      revert\n        /* \"#utility.yul\":3899:4090   */\n    tag_36:\n        /* \"#utility.yul\":3939:3942   */\n      0x00\n        /* \"#utility.yul\":3958:3978   */\n      tag_118\n        /* \"#utility.yul\":3976:3977   */\n      dup3\n        /* \"#utility.yul\":3958:3978   */\n      tag_54\n      jump\t// in\n    tag_118:\n        /* \"#utility.yul\":3953:3978   */\n      swap2\n      pop\n        /* \"#utility.yul\":3992:4012   */\n      tag_119\n        /* \"#utility.yul\":4010:4011   */\n      dup4\n        /* \"#utility.yul\":3992:4012   */\n      tag_54\n      jump\t// in\n    tag_119:\n        /* \"#utility.yul\":3987:4012   */\n      swap3\n      pop\n        /* \"#utility.yul\":4035:4036   */\n      dup3\n        /* \"#utility.yul\":4032:4033   */\n      dup3\n        /* \"#utility.yul\":4028:4037   */\n      add\n        /* \"#utility.yul\":4021:4037   */\n      swap1\n      pop\n        /* \"#utility.yul\":4056:4059   */\n      dup1\n        /* \"#utility.yul\":4053:4054   */\n      dup3\n        /* \"#utility.yul\":4050:4060   */\n      gt\n        /* \"#utility.yul\":4047:4083   */\n      iszero\n      tag_120\n      jumpi\n        /* \"#utility.yul\":4063:4081   */\n      tag_121\n      tag_66\n      jump\t// in\n    tag_121:\n        /* \"#utility.yul\":4047:4083   */\n    tag_120:\n        /* \"#utility.yul\":3899:4090   */\n      swap3\n      swap2\n      pop\n      pop\n      jump\t// out\n        /* \"#utility.yul\":4096:4506   */\n    tag_41:\n        /* \"#utility.yul\":4136:4143   */\n      0x00\n        /* \"#utility.yul\":4159:4179   */\n      tag_123\n        /* \"#utility.yul\":4177:4178   */\n      dup3\n        /* \"#utility.yul\":4159:4179   */\n      tag_54\n      jump\t// in\n    tag_123:\n        /* \"#utility.yul\":4154:4179   */\n      swap2\n      pop\n        /* \"#utility.yul\":4193:4213   */\n      tag_124\n        /* \"#utility.yul\":4211:4212   */\n      dup4\n        /* \"#utility.yul\":4193:4213   */\n      tag_54\n      jump\t// in\n    tag_124:\n        /* \"#utility.yul\":4188:4213   */\n      swap3\n      pop\n        /* \"#utility.yul\":4248:4249   */\n      dup3\n        /* \"#utility.yul\":4245:4246   */\n      dup3\n        /* \"#utility.yul\":4241:4250   */\n      mul\n        /* \"#utility.yul\":4270:4300   */\n      tag_125\n        /* \"#utility.yul\":4288:4299   */\n      dup2\n        /* \"#utility.yul\":4270:4300   */\n      tag_54\n      jump\t// in\n    tag_125:\n        /* \"#utility.yul\":4259:4300   */\n      swap2\n      pop\n        /* \"#utility.yul\":4449:4450   */\n      dup3\n        /* \"#utility.yul\":4440:4447   */\n      dup3\n        /* \"#utility.yul\":4436:4451   */\n      div\n        /* \"#utility.yul\":4433:4434   */\n      dup5\n        /* \"#utility.yul\":4430:4452   */\n      eq\n        /* \"#utility.yul\":4410:4411   */\n      dup4\n        /* \"#utility.yul\":4403:4412   */\n      iszero\n        /* \"#utility.yul\":4383:4466   */\n      or\n        /* \"#utility.yul\":4360:4499   */\n      tag_126\n      jumpi\n        /* \"#utility.yul\":4479:4497   */\n      tag_127\n      tag_66\n      jump\t// in\n    tag_127:\n        /* \"#utility.yul\":4360:4499   */\n    tag_126:\n        /* \"#utility.yul\":4144:4506   */\n      pop\n        /* \"#utility.yul\":4096:4506   */\n      swap3\n      swap2\n      pop\n      pop\n      jump\t// out\n        /* \"#utility.yul\":4512:4692   */\n    tag_67:\n        /* \"#utility.yul\":4560:4637   */\n      0x4e487b7100000000000000000000000000000000000000000000000000000000\n        /* \"#utility.yul\":4557:4558   */\n      0x00\n        /* \"#utility.yul\":4550:4638   */\n      mstore\n        /* \"#utility.yul\":4657:4661   */\n      0x12\n        /* \"#utility.yul\":4654:4655   */\n      0x04\n        /* \"#utility.yul\":4647:4662   */\n      mstore\n        /* \"#utility.yul\":4681:4685   */\n      0x24\n        /* \"#utility.yul\":4678:4679   */\n      0x00\n        /* \"#utility.yul\":4671:4686   */\n      revert\n        /* \"#utility.yul\":4698:4883   */\n    tag_43:\n        /* \"#utility.yul\":4738:4739   */\n      0x00\n        /* \"#utility.yul\":4755:4775   */\n      tag_130\n        /* \"#utility.yul\":4773:4774   */\n      dup3\n        /* \"#utility.yul\":4755:4775   */\n      tag_54\n      jump\t// in\n    tag_130:\n        /* \"#utility.yul\":4750:4775   */\n      swap2\n      pop\n        /* \"#utility.yul\":4789:4809   */\n      tag_131\n        /* \"#utility.yul\":4807:4808   */\n      dup4\n        /* \"#utility.yul\":4789:4809   */\n      tag_54\n      jump\t// in\n    tag_131:\n        /* \"#utility.yul\":4784:4809   */\n      swap3\n      pop\n        /* \"#utility.yul\":4828:4829   */\n      dup3\n        /* \"#utility.yul\":4818:4853   */\n      tag_132\n      jumpi\n        /* \"#utility.yul\":4833:4851   */\n      tag_133\n      tag_67\n      jump\t// in\n    tag_133:\n        /* \"#utility.yul\":4818:4853   */\n    tag_132:\n        /* \"#utility.yul\":4875:4876   */\n      dup3\n        /* \"#utility.yul\":4872:4873   */\n      dup3\n        /* \"#utility.yul\":4868:4877   */\n      div\n        /* \"#utility.yul\":4863:4877   */\n      swap1\n      pop\n        /* \"#utility.yul\":4698:4883   */\n      swap3\n      swap2\n      pop\n      pop\n      jump\t// out\n        /* \"#utility.yul\":4889:4994   */\n    tag_68:\n        /* \"#utility.yul\":4925:4932   */\n      0x00\n        /* \"#utility.yul\":4965:4987   */\n      0xffffffffffffffffffff\n        /* \"#utility.yul\":4958:4963   */\n      dup3\n        /* \"#utility.yul\":4954:4988   */\n      and\n        /* \"#utility.yul\":4943:4988   */\n      swap1\n      pop\n        /* \"#utility.yul\":4889:4994   */\n      swap2\n      swap1\n      pop\n      jump\t// out\n        /* \"#utility.yul\":5000:5120   */\n    tag_69:\n        /* \"#utility.yul\":5072:5095   */\n      tag_136\n        /* \"#utility.yul\":5089:5094   */\n      dup2\n        /* \"#utility.yul\":5072:5095   */\n      tag_68\n      jump\t// in\n    tag_136:\n        /* \"#utility.yul\":5065:5070   */\n      dup2\n        /* \"#utility.yul\":5062:5096   */\n      eq\n        /* \"#utility.yul\":5052:5114   */\n      tag_137\n      jumpi\n        /* \"#utility.yul\":5110:5111   */\n      0x00\n        /* \"#utility.yul\":5107:5108   */\n      dup1\n        /* \"#utility.yul\":5100:5112   */\n      revert\n        /* \"#utility.yul\":5052:5114   */\n    tag_137:\n        /* \"#utility.yul\":5000:5120   */\n      pop\n      jump\t// out\n        /* \"#utility.yul\":5126:5267   */\n    tag_70:\n        /* \"#utility.yul\":5182:5187   */\n      0x00\n        /* \"#utility.yul\":5213:5219   */\n      dup2\n        /* \"#utility.yul\":5207:5220   */\n      mload\n        /* \"#utility.yul\":5198:5220   */\n      swap1\n      pop\n        /* \"#utility.yul\":5229:5261   */\n      tag_139\n        /* \"#utility.yul\":5255:5260   */\n      dup2\n        /* \"#utility.yul\":5229:5261   */\n      tag_69\n      jump\t// in\n    tag_139:\n        /* \"#utility.yul\":5126:5267   */\n      swap3\n      swap2\n      pop\n      pop\n      jump\t// out\n        /* \"#utility.yul\":5273:5349   */\n    tag_71:\n        /* \"#utility.yul\":5309:5316   */\n      0x00\n        /* \"#utility.yul\":5338:5343   */\n      dup2\n        /* \"#utility.yul\":5327:5343   */\n      swap1\n      pop\n        /* \"#utility.yul\":5273:5349   */\n      swap2\n      swap1\n      pop\n      jump\t// out\n        /* \"#utility.yul\":5355:5475   */\n    tag_72:\n        /* \"#utility.yul\":5427:5450   */\n      tag_142\n        /* \"#utility.yul\":5444:5449   */\n      dup2\n        /* \"#utility.yul\":5427:5450   */\n      tag_71\n      jump\t// in\n    tag_142:\n        /* \"#utility.yul\":5420:5425   */\n      dup2\n        /* \"#utility.yul\":5417:5451   */\n      eq\n        /* \"#utility.yul\":5407:5469   */\n      tag_143\n      jumpi\n        /* \"#utility.yul\":5465:5466   */\n      0x00\n        /* \"#utility.yul\":5462:5463   */\n      dup1\n        /* \"#utility.yul\":5455:5467   */\n      revert\n        /* \"#utility.yul\":5407:5469   */\n    tag_143:\n        /* \"#utility.yul\":5355:5475   */\n      pop\n      jump\t// out\n        /* \"#utility.yul\":5481:5622   */\n    tag_73:\n        /* \"#utility.yul\":5537:5542   */\n      0x00\n        /* \"#utility.yul\":5568:5574   */\n      dup2\n        /* \"#utility.yul\":5562:5575   */\n      mload\n        /* \"#utility.yul\":5553:5575   */\n      swap1\n      pop\n        /* \"#utility.yul\":5584:5616   */\n      tag_145\n        /* \"#utility.yul\":5610:5615   */\n      dup2\n        /* \"#utility.yul\":5584:5616   */\n      tag_72\n      jump\t// in\n    tag_145:\n        /* \"#utility.yul\":5481:5622   */\n      swap3\n      swap2\n      pop\n      pop\n      jump\t// out\n        /* \"#utility.yul\":5628:5771   */\n    tag_74:\n        /* \"#utility.yul\":5685:5690   */\n      0x00\n        /* \"#utility.yul\":5716:5722   */\n      dup2\n        /* \"#utility.yul\":5710:5723   */\n      mload\n        /* \"#utility.yul\":5701:5723   */\n      swap1\n      pop\n        /* \"#utility.yul\":5732:5765   */\n      tag_147\n        /* \"#utility.yul\":5759:5764   */\n      dup2\n        /* \"#utility.yul\":5732:5765   */\n      tag_55\n      jump\t// in\n    tag_147:\n        /* \"#utility.yul\":5628:5771   */\n      swap3\n      swap2\n      pop\n      pop\n      jump\t// out\n        /* \"#utility.yul\":5777:6748   */\n    tag_48:\n        /* \"#utility.yul\":5880:5886   */\n      0x00\n        /* \"#utility.yul\":5888:5894   */\n      dup1\n        /* \"#utility.yul\":5896:5902   */\n      0x00\n        /* \"#utility.yul\":5904:5910   */\n      dup1\n        /* \"#utility.yul\":5912:5918   */\n      0x00\n        /* \"#utility.yul\":5961:5964   */\n      0xa0\n        /* \"#utility.yul\":5949:5958   */\n      dup7\n        /* \"#utility.yul\":5940:5947   */\n      dup9\n        /* \"#utility.yul\":5936:5959   */\n      sub\n        /* \"#utility.yul\":5932:5965   */\n      slt\n        /* \"#utility.yul\":5929:6049   */\n      iszero\n      tag_149\n      jumpi\n        /* \"#utility.yul\":5968:6047   */\n      tag_150\n      tag_52\n      jump\t// in\n    tag_150:\n        /* \"#utility.yul\":5929:6049   */\n    tag_149:\n        /* \"#utility.yul\":6088:6089   */\n      0x00\n        /* \"#utility.yul\":6113:6176   */\n      tag_151\n        /* \"#utility.yul\":6168:6175   */\n      dup9\n        /* \"#utility.yul\":6159:6165   */\n      dup3\n        /* \"#utility.yul\":6148:6157   */\n      dup10\n        /* \"#utility.yul\":6144:6166   */\n      add\n        /* \"#utility.yul\":6113:6176   */\n      tag_70\n      jump\t// in\n    tag_151:\n        /* \"#utility.yul\":6103:6176   */\n      swap6\n      pop\n        /* \"#utility.yul\":6059:6186   */\n      pop\n        /* \"#utility.yul\":6225:6227   */\n      0x20\n        /* \"#utility.yul\":6251:6314   */\n      tag_152\n        /* \"#utility.yul\":6306:6313   */\n      dup9\n        /* \"#utility.yul\":6297:6303   */\n      dup3\n        /* \"#utility.yul\":6286:6295   */\n      dup10\n        /* \"#utility.yul\":6282:6304   */\n      add\n        /* \"#utility.yul\":6251:6314   */\n      tag_73\n      jump\t// in\n    tag_152:\n        /* \"#utility.yul\":6241:6314   */\n      swap5\n      pop\n        /* \"#utility.yul\":6196:6324   */\n      pop\n        /* \"#utility.yul\":6363:6365   */\n      0x40\n        /* \"#utility.yul\":6389:6453   */\n      tag_153\n        /* \"#utility.yul\":6445:6452   */\n      dup9\n        /* \"#utility.yul\":6436:6442   */\n      dup3\n        /* \"#utility.yul\":6425:6434   */\n      dup10\n        /* \"#utility.yul\":6421:6443   */\n      add\n        /* \"#utility.yul\":6389:6453   */\n      tag_74\n      jump\t// in\n    tag_153:\n        /* \"#utility.yul\":6379:6453   */\n      swap4\n      pop\n        /* \"#utility.yul\":6334:6463   */\n      pop\n        /* \"#utility.yul\":6502:6504   */\n      0x60\n        /* \"#utility.yul\":6528:6592   */\n      tag_154\n        /* \"#utility.yul\":6584:6591   */\n      dup9\n        /* \"#utility.yul\":6575:6581   */\n      dup3\n        /* \"#utility.yul\":6564:6573   */\n      dup10\n        /* \"#utility.yul\":6560:6582   */\n      add\n        /* \"#utility.yul\":6528:6592   */\n      tag_74\n      jump\t// in\n    tag_154:\n        /* \"#utility.yul\":6518:6592   */\n      swap3\n      pop\n        /* \"#utility.yul\":6473:6602   */\n      pop\n        /* \"#utility.yul\":6641:6644   */\n      0x80\n        /* \"#utility.yul\":6668:6731   */\n      tag_155\n        /* \"#utility.yul\":6723:6730   */\n      dup9\n        /* \"#utility.yul\":6714:6720   */\n      dup3\n        /* \"#utility.yul\":6703:6712   */\n      dup10\n        /* \"#utility.yul\":6699:6721   */\n      add\n        /* \"#utility.yul\":6668:6731   */\n      tag_70\n      jump\t// in\n    tag_155:\n        /* \"#utility.yul\":6658:6731   */\n      swap2\n      pop\n        /* \"#utility.yul\":6612:6741   */\n      pop\n        /* \"#utility.yul\":5777:6748   */\n      swap3\n      swap6\n      pop\n      swap3\n      swap6\n      swap1\n      swap4\n      pop\n      jump\t// out\n        /* \"#utility.yul\":6754:7310   */\n    tag_50:\n        /* \"#utility.yul\":6793:6800   */\n      0x00\n        /* \"#utility.yul\":6816:6835   */\n      tag_157\n        /* \"#utility.yul\":6833:6834   */\n      dup3\n        /* \"#utility.yul\":6816:6835   */\n      tag_71\n      jump\t// in\n    tag_157:\n        /* \"#utility.yul\":6811:6835   */\n      swap2\n      pop\n        /* \"#utility.yul\":6849:6868   */\n      tag_158\n        /* \"#utility.yul\":6866:6867   */\n      dup4\n        /* \"#utility.yul\":6849:6868   */\n      tag_71\n      jump\t// in\n    tag_158:\n        /* \"#utility.yul\":6844:6868   */\n      swap3\n      pop\n        /* \"#utility.yul\":6903:6904   */\n      dup3\n        /* \"#utility.yul\":6900:6901   */\n      dup3\n        /* \"#utility.yul\":6896:6905   */\n      mul\n        /* \"#utility.yul\":6925:6954   */\n      tag_159\n        /* \"#utility.yul\":6942:6953   */\n      dup2\n        /* \"#utility.yul\":6925:6954   */\n      tag_71\n      jump\t// in\n    tag_159:\n        /* \"#utility.yul\":6914:6954   */\n      swap2\n      pop\n        /* \"#utility.yul\":7012:7078   */\n      0x8000000000000000000000000000000000000000000000000000000000000000\n        /* \"#utility.yul\":7009:7010   */\n      dup5\n        /* \"#utility.yul\":7006:7079   */\n      eq\n        /* \"#utility.yul\":7002:7003   */\n      0x00\n        /* \"#utility.yul\":6999:7000   */\n      dup5\n        /* \"#utility.yul\":6995:7004   */\n      slt\n        /* \"#utility.yul\":6991:7080   */\n      and\n        /* \"#utility.yul\":6988:7103   */\n      iszero\n      tag_160\n      jumpi\n        /* \"#utility.yul\":7083:7101   */\n      tag_161\n      tag_66\n      jump\t// in\n    tag_161:\n        /* \"#utility.yul\":6988:7103   */\n    tag_160:\n        /* \"#utility.yul\":7253:7254   */\n      dup3\n        /* \"#utility.yul\":7244:7251   */\n      dup3\n        /* \"#utility.yul\":7239:7255   */\n      sdiv\n        /* \"#utility.yul\":7236:7237   */\n      dup5\n        /* \"#utility.yul\":7233:7256   */\n      eq\n        /* \"#utility.yul\":7213:7214   */\n      dup4\n        /* \"#utility.yul\":7206:7215   */\n      iszero\n        /* \"#utility.yul\":7186:7270   */\n      or\n        /* \"#utility.yul\":7163:7303   */\n      tag_162\n      jumpi\n        /* \"#utility.yul\":7283:7301   */\n      tag_163\n      tag_66\n      jump\t// in\n    tag_163:\n        /* \"#utility.yul\":7163:7303   */\n    tag_162:\n        /* \"#utility.yul\":6801:7310   */\n      pop\n        /* \"#utility.yul\":6754:7310   */\n      swap3\n      swap2\n      pop\n      pop\n      jump\t// out\n\n    auxdata: 0xa2646970667358221220c87bb1435c2979de74babbe8ae1e3300f7ea22ae45f7923834f28e5229bb48ce64736f6c63430008180033\n}\n",
				"bytecode": {
					"linkReferences": {},
					"object": "6080604052674563918244f400005f5534801561001a575f80fd5b506107b0806100285f395ff3fe60806040526004361061003e575f3560e01c806332c35cdc14610042578063a68782791461007e578063b60d4288146100ba578063eb2aae5c146100c4575b5f80fd5b34801561004d575f80fd5b5061006860048036038101906100639190610391565b6100ee565b60405161007591906103fb565b60405180910390f35b348015610089575f80fd5b506100a4600480360381019061009f919061043e565b610129565b6040516100b19190610478565b60405180910390f35b6100c261013e565b005b3480156100cf575f80fd5b506100d8610275565b6040516100e59190610478565b60405180910390f35b600181815481106100fd575f80fd5b905f5260205f20015f915054906101000a900473ffffffffffffffffffffffffffffffffffffffff1681565b6002602052805f5260405f205f915090505481565b5f546101493461027a565b11610189576040517f08c379a0000000000000000000000000000000000000000000000000000000008152600401610180906104eb565b60405180910390fd5b600133908060018154018082558091505060019003905f5260205f20015f9091909190916101000a81548173ffffffffffffffffffffffffffffffffffffffff021916908373ffffffffffffffffffffffffffffffffffffffff1602179055503460025f3373ffffffffffffffffffffffffffffffffffffffff1673ffffffffffffffffffffffffffffffffffffffff1681526020019081526020015f20546102329190610536565b60025f3373ffffffffffffffffffffffffffffffffffffffff1673ffffffffffffffffffffffffffffffffffffffff1681526020019081526020015f2081905550565b5f5481565b5f806102846102b2565b90505f670de0b6b3a7640000828561029c9190610569565b6102a691906105d7565b90508092505050919050565b5f8073694aa1769357215de4fac081bf1f309adc32530690505f8173ffffffffffffffffffffffffffffffffffffffff1663feaf968c6040518163ffffffff1660e01b815260040160a060405180830381865afa158015610315573d5f803e3d5ffd5b505050506040513d601f19601f82011682018060405250810190610339919061068d565b505050915050670de0b6b3a7640000816103539190610704565b9250505090565b5f80fd5b5f819050919050565b6103708161035e565b811461037a575f80fd5b50565b5f8135905061038b81610367565b92915050565b5f602082840312156103a6576103a561035a565b5b5f6103b38482850161037d565b91505092915050565b5f73ffffffffffffffffffffffffffffffffffffffff82169050919050565b5f6103e5826103bc565b9050919050565b6103f5816103db565b82525050565b5f60208201905061040e5f8301846103ec565b92915050565b61041d816103db565b8114610427575f80fd5b50565b5f8135905061043881610414565b92915050565b5f602082840312156104535761045261035a565b5b5f6104608482850161042a565b91505092915050565b6104728161035e565b82525050565b5f60208201905061048b5f830184610469565b92915050565b5f82825260208201905092915050565b7f455448206e6f7420656e6f7567680000000000000000000000000000000000005f82015250565b5f6104d5600e83610491565b91506104e0826104a1565b602082019050919050565b5f6020820190508181035f830152610502816104c9565b9050919050565b7f4e487b71000000000000000000000000000000000000000000000000000000005f52601160045260245ffd5b5f6105408261035e565b915061054b8361035e565b925082820190508082111561056357610562610509565b5b92915050565b5f6105738261035e565b915061057e8361035e565b925082820261058c8161035e565b915082820484148315176105a3576105a2610509565b5b5092915050565b7f4e487b71000000000000000000000000000000000000000000000000000000005f52601260045260245ffd5b5f6105e18261035e565b91506105ec8361035e565b9250826105fc576105fb6105aa565b5b828204905092915050565b5f69ffffffffffffffffffff82169050919050565b61062581610607565b811461062f575f80fd5b50565b5f815190506106408161061c565b92915050565b5f819050919050565b61065881610646565b8114610662575f80fd5b50565b5f815190506106738161064f565b92915050565b5f8151905061068781610367565b92915050565b5f805f805f60a086880312156106a6576106a561035a565b5b5f6106b388828901610632565b95505060206106c488828901610665565b94505060406106d588828901610679565b93505060606106e688828901610679565b92505060806106f788828901610632565b9150509295509295909350565b5f61070e82610646565b915061071983610646565b925082820261072781610646565b91507f800000000000000000000000000000000000000000000000000000000000000084145f8412161561075e5761075d610509565b5b828205841483151761077357610772610509565b5b509291505056fea2646970667358221220c87bb1435c2979de74babbe8ae1e3300f7ea22ae45f7923834f28e5229bb48ce64736f6c63430008180033",
					"opcodes": "PUSH1 0x80 PUSH1 0x40 MSTORE PUSH8 0x4563918244F40000 PUSH0 SSTORE CALLVALUE DUP1 ISZERO PUSH2 0x1A JUMPI PUSH0 DUP1 REVERT JUMPDEST POP PUSH2 0x7B0 DUP1 PUSH2 0x28 PUSH0 CODECOPY PUSH0 RETURN INVALID PUSH1 0x80 PUSH1 0x40 MSTORE PUSH1 0x4 CALLDATASIZE LT PUSH2 0x3E JUMPI PUSH0 CALLDATALOAD PUSH1 0xE0 SHR DUP1 PUSH4 0x32C35CDC EQ PUSH2 0x42 JUMPI DUP1 PUSH4 0xA6878279 EQ PUSH2 0x7E JUMPI DUP1 PUSH4 0xB60D4288 EQ PUSH2 0xBA JUMPI DUP1 PUSH4 0xEB2AAE5C EQ PUSH2 0xC4 JUMPI JUMPDEST PUSH0 DUP1 REVERT JUMPDEST CALLVALUE DUP1 ISZERO PUSH2 0x4D JUMPI PUSH0 DUP1 REVERT JUMPDEST POP PUSH2 0x68 PUSH1 0x4 DUP1 CALLDATASIZE SUB DUP2 ADD SWAP1 PUSH2 0x63 SWAP2 SWAP1 PUSH2 0x391 JUMP JUMPDEST PUSH2 0xEE JUMP JUMPDEST PUSH1 0x40 MLOAD PUSH2 0x75 SWAP2 SWAP1 PUSH2 0x3FB JUMP JUMPDEST PUSH1 0x40 MLOAD DUP1 SWAP2 SUB SWAP1 RETURN JUMPDEST CALLVALUE DUP1 ISZERO PUSH2 0x89 JUMPI PUSH0 DUP1 REVERT JUMPDEST POP PUSH2 0xA4 PUSH1 0x4 DUP1 CALLDATASIZE SUB DUP2 ADD SWAP1 PUSH2 0x9F SWAP2 SWAP1 PUSH2 0x43E JUMP JUMPDEST PUSH2 0x129 JUMP JUMPDEST PUSH1 0x40 MLOAD PUSH2 0xB1 SWAP2 SWAP1 PUSH2 0x478 JUMP JUMPDEST PUSH1 0x40 MLOAD DUP1 SWAP2 SUB SWAP1 RETURN JUMPDEST PUSH2 0xC2 PUSH2 0x13E JUMP JUMPDEST STOP JUMPDEST CALLVALUE DUP1 ISZERO PUSH2 0xCF JUMPI PUSH0 DUP1 REVERT JUMPDEST POP PUSH2 0xD8 PUSH2 0x275 JUMP JUMPDEST PUSH1 0x40 MLOAD PUSH2 0xE5 SWAP2 SWAP1 PUSH2 0x478 JUMP JUMPDEST PUSH1 0x40 MLOAD DUP1 SWAP2 SUB SWAP1 RETURN JUMPDEST PUSH1 0x1 DUP2 DUP2 SLOAD DUP2 LT PUSH2 0xFD JUMPI PUSH0 DUP1 REVERT JUMPDEST SWAP1 PUSH0 MSTORE PUSH1 0x20 PUSH0 KECCAK256 ADD PUSH0 SWAP2 POP SLOAD SWAP1 PUSH2 0x100 EXP SWAP1 DIV PUSH20 0xFFFFFFFFFFFFFFFFFFFFFFFFFFFFFFFFFFFFFFFF AND DUP2 JUMP JUMPDEST PUSH1 0x2 PUSH1 0x20 MSTORE DUP1 PUSH0 MSTORE PUSH1 0x40 PUSH0 KECCAK256 PUSH0 SWAP2 POP SWAP1 POP SLOAD DUP2 JUMP JUMPDEST PUSH0 SLOAD PUSH2 0x149 CALLVALUE PUSH2 0x27A JUMP JUMPDEST GT PUSH2 0x189 JUMPI PUSH1 0x40 MLOAD PUSH32 0x8C379A000000000000000000000000000000000000000000000000000000000 DUP2 MSTORE PUSH1 0x4 ADD PUSH2 0x180 SWAP1 PUSH2 0x4EB JUMP JUMPDEST PUSH1 0x40 MLOAD DUP1 SWAP2 SUB SWAP1 REVERT JUMPDEST PUSH1 0x1 CALLER SWAP1 DUP1 PUSH1 0x1 DUP2 SLOAD ADD DUP1 DUP3 SSTORE DUP1 SWAP2 POP POP PUSH1 0x1 SWAP1 SUB SWAP1 PUSH0 MSTORE PUSH1 0x20 PUSH0 KECCAK256 ADD PUSH0 SWAP1 SWAP2 SWAP1 SWAP2 SWAP1 SWAP2 PUSH2 0x100 EXP DUP2 SLOAD DUP2 PUSH20 0xFFFFFFFFFFFFFFFFFFFFFFFFFFFFFFFFFFFFFFFF MUL NOT AND SWAP1 DUP4 PUSH20 0xFFFFFFFFFFFFFFFFFFFFFFFFFFFFFFFFFFFFFFFF AND MUL OR SWAP1 SSTORE POP CALLVALUE PUSH1 0x2 PUSH0 CALLER PUSH20 0xFFFFFFFFFFFFFFFFFFFFFFFFFFFFFFFFFFFFFFFF AND PUSH20 0xFFFFFFFFFFFFFFFFFFFFFFFFFFFFFFFFFFFFFFFF AND DUP2 MSTORE PUSH1 0x20 ADD SWAP1 DUP2 MSTORE PUSH1 0x20 ADD PUSH0 KECCAK256 SLOAD PUSH2 0x232 SWAP2 SWAP1 PUSH2 0x536 JUMP JUMPDEST PUSH1 0x2 PUSH0 CALLER PUSH20 0xFFFFFFFFFFFFFFFFFFFFFFFFFFFFFFFFFFFFFFFF AND PUSH20 0xFFFFFFFFFFFFFFFFFFFFFFFFFFFFFFFFFFFFFFFF AND DUP2 MSTORE PUSH1 0x20 ADD SWAP1 DUP2 MSTORE PUSH1 0x20 ADD PUSH0 KECCAK256 DUP2 SWAP1 SSTORE POP JUMP JUMPDEST PUSH0 SLOAD DUP2 JUMP JUMPDEST PUSH0 DUP1 PUSH2 0x284 PUSH2 0x2B2 JUMP JUMPDEST SWAP1 POP PUSH0 PUSH8 0xDE0B6B3A7640000 DUP3 DUP6 PUSH2 0x29C SWAP2 SWAP1 PUSH2 0x569 JUMP JUMPDEST PUSH2 0x2A6 SWAP2 SWAP1 PUSH2 0x5D7 JUMP JUMPDEST SWAP1 POP DUP1 SWAP3 POP POP POP SWAP2 SWAP1 POP JUMP JUMPDEST PUSH0 DUP1 PUSH20 0x694AA1769357215DE4FAC081BF1F309ADC325306 SWAP1 POP PUSH0 DUP2 PUSH20 0xFFFFFFFFFFFFFFFFFFFFFFFFFFFFFFFFFFFFFFFF AND PUSH4 0xFEAF968C PUSH1 0x40 MLOAD DUP2 PUSH4 0xFFFFFFFF AND PUSH1 0xE0 SHL DUP2 MSTORE PUSH1 0x4 ADD PUSH1 0xA0 PUSH1 0x40 MLOAD DUP1 DUP4 SUB DUP2 DUP7 GAS STATICCALL ISZERO DUP1 ISZERO PUSH2 0x315 JUMPI RETURNDATASIZE PUSH0 DUP1 RETURNDATACOPY RETURNDATASIZE PUSH0 REVERT JUMPDEST POP POP POP POP PUSH1 0x40 MLOAD RETURNDATASIZE PUSH1 0x1F NOT PUSH1 0x1F DUP3 ADD AND DUP3 ADD DUP1 PUSH1 0x40 MSTORE POP DUP2 ADD SWAP1 PUSH2 0x339 SWAP2 SWAP1 PUSH2 0x68D JUMP JUMPDEST POP POP POP SWAP2 POP POP PUSH8 0xDE0B6B3A7640000 DUP2 PUSH2 0x353 SWAP2 SWAP1 PUSH2 0x704 JUMP JUMPDEST SWAP3 POP POP POP SWAP1 JUMP JUMPDEST PUSH0 DUP1 REVERT JUMPDEST PUSH0 DUP2 SWAP1 POP SWAP2 SWAP1 POP JUMP JUMPDEST PUSH2 0x370 DUP2 PUSH2 0x35E JUMP JUMPDEST DUP2 EQ PUSH2 0x37A JUMPI PUSH0 DUP1 REVERT JUMPDEST POP JUMP JUMPDEST PUSH0 DUP2 CALLDATALOAD SWAP1 POP PUSH2 0x38B DUP2 PUSH2 0x367 JUMP JUMPDEST SWAP3 SWAP2 POP POP JUMP JUMPDEST PUSH0 PUSH1 0x20 DUP3 DUP5 SUB SLT ISZERO PUSH2 0x3A6 JUMPI PUSH2 0x3A5 PUSH2 0x35A JUMP JUMPDEST JUMPDEST PUSH0 PUSH2 0x3B3 DUP5 DUP3 DUP6 ADD PUSH2 0x37D JUMP JUMPDEST SWAP2 POP POP SWAP3 SWAP2 POP POP JUMP JUMPDEST PUSH0 PUSH20 0xFFFFFFFFFFFFFFFFFFFFFFFFFFFFFFFFFFFFFFFF DUP3 AND SWAP1 POP SWAP2 SWAP1 POP JUMP JUMPDEST PUSH0 PUSH2 0x3E5 DUP3 PUSH2 0x3BC JUMP JUMPDEST SWAP1 POP SWAP2 SWAP1 POP JUMP JUMPDEST PUSH2 0x3F5 DUP2 PUSH2 0x3DB JUMP JUMPDEST DUP3 MSTORE POP POP JUMP JUMPDEST PUSH0 PUSH1 0x20 DUP3 ADD SWAP1 POP PUSH2 0x40E PUSH0 DUP4 ADD DUP5 PUSH2 0x3EC JUMP JUMPDEST SWAP3 SWAP2 POP POP JUMP JUMPDEST PUSH2 0x41D DUP2 PUSH2 0x3DB JUMP JUMPDEST DUP2 EQ PUSH2 0x427 JUMPI PUSH0 DUP1 REVERT JUMPDEST POP JUMP JUMPDEST PUSH0 DUP2 CALLDATALOAD SWAP1 POP PUSH2 0x438 DUP2 PUSH2 0x414 JUMP JUMPDEST SWAP3 SWAP2 POP POP JUMP JUMPDEST PUSH0 PUSH1 0x20 DUP3 DUP5 SUB SLT ISZERO PUSH2 0x453 JUMPI PUSH2 0x452 PUSH2 0x35A JUMP JUMPDEST JUMPDEST PUSH0 PUSH2 0x460 DUP5 DUP3 DUP6 ADD PUSH2 0x42A JUMP JUMPDEST SWAP2 POP POP SWAP3 SWAP2 POP POP JUMP JUMPDEST PUSH2 0x472 DUP2 PUSH2 0x35E JUMP JUMPDEST DUP3 MSTORE POP POP JUMP JUMPDEST PUSH0 PUSH1 0x20 DUP3 ADD SWAP1 POP PUSH2 0x48B PUSH0 DUP4 ADD DUP5 PUSH2 0x469 JUMP JUMPDEST SWAP3 SWAP2 POP POP JUMP JUMPDEST PUSH0 DUP3 DUP3 MSTORE PUSH1 0x20 DUP3 ADD SWAP1 POP SWAP3 SWAP2 POP POP JUMP JUMPDEST PUSH32 0x455448206E6F7420656E6F756768000000000000000000000000000000000000 PUSH0 DUP3 ADD MSTORE POP JUMP JUMPDEST PUSH0 PUSH2 0x4D5 PUSH1 0xE DUP4 PUSH2 0x491 JUMP JUMPDEST SWAP2 POP PUSH2 0x4E0 DUP3 PUSH2 0x4A1 JUMP JUMPDEST PUSH1 0x20 DUP3 ADD SWAP1 POP SWAP2 SWAP1 POP JUMP JUMPDEST PUSH0 PUSH1 0x20 DUP3 ADD SWAP1 POP DUP2 DUP2 SUB PUSH0 DUP4 ADD MSTORE PUSH2 0x502 DUP2 PUSH2 0x4C9 JUMP JUMPDEST SWAP1 POP SWAP2 SWAP1 POP JUMP JUMPDEST PUSH32 0x4E487B7100000000000000000000000000000000000000000000000000000000 PUSH0 MSTORE PUSH1 0x11 PUSH1 0x4 MSTORE PUSH1 0x24 PUSH0 REVERT JUMPDEST PUSH0 PUSH2 0x540 DUP3 PUSH2 0x35E JUMP JUMPDEST SWAP2 POP PUSH2 0x54B DUP4 PUSH2 0x35E JUMP JUMPDEST SWAP3 POP DUP3 DUP3 ADD SWAP1 POP DUP1 DUP3 GT ISZERO PUSH2 0x563 JUMPI PUSH2 0x562 PUSH2 0x509 JUMP JUMPDEST JUMPDEST SWAP3 SWAP2 POP POP JUMP JUMPDEST PUSH0 PUSH2 0x573 DUP3 PUSH2 0x35E JUMP JUMPDEST SWAP2 POP PUSH2 0x57E DUP4 PUSH2 0x35E JUMP JUMPDEST SWAP3 POP DUP3 DUP3 MUL PUSH2 0x58C DUP2 PUSH2 0x35E JUMP JUMPDEST SWAP2 POP DUP3 DUP3 DIV DUP5 EQ DUP4 ISZERO OR PUSH2 0x5A3 JUMPI PUSH2 0x5A2 PUSH2 0x509 JUMP JUMPDEST JUMPDEST POP SWAP3 SWAP2 POP POP JUMP JUMPDEST PUSH32 0x4E487B7100000000000000000000000000000000000000000000000000000000 PUSH0 MSTORE PUSH1 0x12 PUSH1 0x4 MSTORE PUSH1 0x24 PUSH0 REVERT JUMPDEST PUSH0 PUSH2 0x5E1 DUP3 PUSH2 0x35E JUMP JUMPDEST SWAP2 POP PUSH2 0x5EC DUP4 PUSH2 0x35E JUMP JUMPDEST SWAP3 POP DUP3 PUSH2 0x5FC JUMPI PUSH2 0x5FB PUSH2 0x5AA JUMP JUMPDEST JUMPDEST DUP3 DUP3 DIV SWAP1 POP SWAP3 SWAP2 POP POP JUMP JUMPDEST PUSH0 PUSH10 0xFFFFFFFFFFFFFFFFFFFF DUP3 AND SWAP1 POP SWAP2 SWAP1 POP JUMP JUMPDEST PUSH2 0x625 DUP2 PUSH2 0x607 JUMP JUMPDEST DUP2 EQ PUSH2 0x62F JUMPI PUSH0 DUP1 REVERT JUMPDEST POP JUMP JUMPDEST PUSH0 DUP2 MLOAD SWAP1 POP PUSH2 0x640 DUP2 PUSH2 0x61C JUMP JUMPDEST SWAP3 SWAP2 POP POP JUMP JUMPDEST PUSH0 DUP2 SWAP1 POP SWAP2 SWAP1 POP JUMP JUMPDEST PUSH2 0x658 DUP2 PUSH2 0x646 JUMP JUMPDEST DUP2 EQ PUSH2 0x662 JUMPI PUSH0 DUP1 REVERT JUMPDEST POP JUMP JUMPDEST PUSH0 DUP2 MLOAD SWAP1 POP PUSH2 0x673 DUP2 PUSH2 0x64F JUMP JUMPDEST SWAP3 SWAP2 POP POP JUMP JUMPDEST PUSH0 DUP2 MLOAD SWAP1 POP PUSH2 0x687 DUP2 PUSH2 0x367 JUMP JUMPDEST SWAP3 SWAP2 POP POP JUMP JUMPDEST PUSH0 DUP1 PUSH0 DUP1 PUSH0 PUSH1 0xA0 DUP7 DUP9 SUB SLT ISZERO PUSH2 0x6A6 JUMPI PUSH2 0x6A5 PUSH2 0x35A JUMP JUMPDEST JUMPDEST PUSH0 PUSH2 0x6B3 DUP9 DUP3 DUP10 ADD PUSH2 0x632 JUMP JUMPDEST SWAP6 POP POP PUSH1 0x20 PUSH2 0x6C4 DUP9 DUP3 DUP10 ADD PUSH2 0x665 JUMP JUMPDEST SWAP5 POP POP PUSH1 0x40 PUSH2 0x6D5 DUP9 DUP3 DUP10 ADD PUSH2 0x679 JUMP JUMPDEST SWAP4 POP POP PUSH1 0x60 PUSH2 0x6E6 DUP9 DUP3 DUP10 ADD PUSH2 0x679 JUMP JUMPDEST SWAP3 POP POP PUSH1 0x80 PUSH2 0x6F7 DUP9 DUP3 DUP10 ADD PUSH2 0x632 JUMP JUMPDEST SWAP2 POP POP SWAP3 SWAP6 POP SWAP3 SWAP6 SWAP1 SWAP4 POP JUMP JUMPDEST PUSH0 PUSH2 0x70E DUP3 PUSH2 0x646 JUMP JUMPDEST SWAP2 POP PUSH2 0x719 DUP4 PUSH2 0x646 JUMP JUMPDEST SWAP3 POP DUP3 DUP3 MUL PUSH2 0x727 DUP2 PUSH2 0x646 JUMP JUMPDEST SWAP2 POP PUSH32 0x8000000000000000000000000000000000000000000000000000000000000000 DUP5 EQ PUSH0 DUP5 SLT AND ISZERO PUSH2 0x75E JUMPI PUSH2 0x75D PUSH2 0x509 JUMP JUMPDEST JUMPDEST DUP3 DUP3 SDIV DUP5 EQ DUP4 ISZERO OR PUSH2 0x773 JUMPI PUSH2 0x772 PUSH2 0x509 JUMP JUMPDEST JUMPDEST POP SWAP3 SWAP2 POP POP JUMP INVALID LOG2 PUSH5 0x6970667358 0x22 SLT KECCAK256 0xC8 PUSH28 0xB1435C2979DE74BABBE8AE1E3300F7EA22AE45F7923834F28E5229BB BASEFEE 0xCE PUSH5 0x736F6C6343 STOP ADDMOD XOR STOP CALLER "
				},
				"gasEstimates": {
					"creation": {
						"codeDepositCost": "393600",
						"executionCost": "22533",
						"totalCost": "416133"
					},
					"external": {
						"address_to_amount(address)": "2802",
						"fund()": "infinite",
						"min_USD()": "2468",
						"sender_Adresses(uint256)": "4922"
					}
				},
				"methodIdentifiers": {
					"address_to_amount(address)": "a6878279",
					"fund()": "b60d4288",
					"min_USD()": "eb2aae5c",
					"sender_Adresses(uint256)": "32c35cdc"
				}
			},
			"storageLayout": {
				"storage": [
					{
						"astId": 112,
						"contract": "fund_me/A5.sol:FundMeA5",
						"label": "min_USD",
						"offset": 0,
						"slot": "0",
						"type": "t_uint256"
					},
					{
						"astId": 115,
						"contract": "fund_me/A5.sol:FundMeA5",
						"label": "sender_Adresses",
						"offset": 0,
						"slot": "1",
						"type": "t_array(t_address)dyn_storage"
					},
					{
						"astId": 119,
						"contract": "fund_me/A5.sol:FundMeA5",
						"label": "address_to_amount",
						"offset": 0,
						"slot": "2",
						"type": "t_mapping(t_address,t_uint256)"
					}
				],
				"types": {
					"t_address": {
						"encoding": "inplace",
						"label": "address",
						"numberOfBytes": "20"
					},
					"t_array(t_address)dyn_storage": {
						"base": "t_address",
						"encoding": "dynamic_array",
						"label": "address[]",
						"numberOfBytes": "32"
					},
					"t_mapping(t_address,t_uint256)": {
						"encoding": "mapping",
						"key": "t_address",
						"label": "mapping(address => uint256)",
						"numberOfBytes": "32",
						"value": "t_uint256"
					},
					"t_uint256": {
						"encoding": "inplace",
						"label": "uint256",
						"numberOfBytes": "32"
					}
				}
			},
			"userdoc": {
				"kind": "user",
				"methods": {},
				"version": 1
			}
		}
	}
}