{
	"fund_me/A8.sol": {
		"FundMeA8": {
			"abi": [
				{
					"inputs": [],
					"stateMutability": "nonpayable",
					"type": "constructor"
				},
				{
					"inputs": [
						{
							"internalType": "address",
							"name": "",
							"type": "address"
						}
					],
					"name": "address_to_amount",
					"outputs": [
						{
							"internalType": "uint256",
							"name": "",
							"type": "uint256"
						}
					],
					"stateMutability": "view",
					"type": "function"
				},
				{
					"inputs": [],
					"name": "fund",
					"outputs": [],
					"stateMutability": "payable",
					"type": "function"
				},
				{
					"inputs": [],
					"name": "min_USD",
					"outputs": [
						{
							"internalType": "uint256",
							"name": "",
							"type": "uint256"
						}
					],
					"stateMutability": "view",
					"type": "function"
				},
				{
					"inputs": [],
					"name": "owner",
					"outputs": [
						{
							"internalType": "address",
							"name": "",
							"type": "address"
						}
					],
					"stateMutability": "view",
					"type": "function"
				},
				{
					"inputs": [
						{
							"internalType": "uint256",
							"name": "",
							"type": "uint256"
						}
					],
					"name": "sender_Adresses",
					"outputs": [
						{
							"internalType": "address",
							"name": "",
							"type": "address"
						}
					],
					"stateMutability": "view",
					"type": "function"
				},
				{
					"inputs": [],
					"name": "withdraw",
					"outputs": [],
					"stateMutability": "nonpayable",
					"type": "function"
				}
			],
			"devdoc": {
				"kind": "dev",
				"methods": {},
				"version": 1
			},
			"evm": {
				"assembly": "    /* \"fund_me/A8.sol\":127:2158  contract FundMeA8{... */\n  mstore(0x40, 0x80)\n    /* \"fund_me/A8.sol\":303:311  5 * 1e18 */\n  0x4563918244f40000\n    /* \"fund_me/A8.sol\":278:311  uint256 public min_USD = 5 * 1e18 */\n  0x00\n  sstore\n    /* \"fund_me/A8.sol\":675:725  constructor(){... */\n  callvalue\n  dup1\n  iszero\n  tag_1\n  jumpi\n  0x00\n  dup1\n  revert\ntag_1:\n  pop\n    /* \"fund_me/A8.sol\":707:717  msg.sender */\n  caller\n    /* \"fund_me/A8.sol\":699:704  owner */\n  0x03\n  0x00\n    /* \"fund_me/A8.sol\":699:717  owner = msg.sender */\n  0x0100\n  exp\n  dup2\n  sload\n  dup2\n  0xffffffffffffffffffffffffffffffffffffffff\n  mul\n  not\n  and\n  swap1\n  dup4\n  0xffffffffffffffffffffffffffffffffffffffff\n  and\n  mul\n  or\n  swap1\n  sstore\n  pop\n    /* \"fund_me/A8.sol\":127:2158  contract FundMeA8{... */\n  dataSize(sub_0)\n  dup1\n  dataOffset(sub_0)\n  0x00\n  codecopy\n  0x00\n  return\nstop\n\nsub_0: assembly {\n        /* \"fund_me/A8.sol\":127:2158  contract FundMeA8{... */\n      mstore(0x40, 0x80)\n      jumpi(tag_1, lt(calldatasize, 0x04))\n      shr(0xe0, calldataload(0x00))\n      dup1\n      0x32c35cdc\n      eq\n      tag_2\n      jumpi\n      dup1\n      0x3ccfd60b\n      eq\n      tag_3\n      jumpi\n      dup1\n      0x8da5cb5b\n      eq\n      tag_4\n      jumpi\n      dup1\n      0xa6878279\n      eq\n      tag_5\n      jumpi\n      dup1\n      0xb60d4288\n      eq\n      tag_6\n      jumpi\n      dup1\n      0xeb2aae5c\n      eq\n      tag_7\n      jumpi\n    tag_1:\n      0x00\n      dup1\n      revert\n        /* \"fund_me/A8.sol\":318:350  address[] public sender_Adresses */\n    tag_2:\n      callvalue\n      dup1\n      iszero\n      tag_8\n      jumpi\n      0x00\n      dup1\n      revert\n    tag_8:\n      pop\n      tag_9\n      0x04\n      dup1\n      calldatasize\n      sub\n      dup2\n      add\n      swap1\n      tag_10\n      swap2\n      swap1\n      tag_11\n      jump\t// in\n    tag_10:\n      tag_12\n      jump\t// in\n    tag_9:\n      mload(0x40)\n      tag_13\n      swap2\n      swap1\n      tag_14\n      jump\t// in\n    tag_13:\n      mload(0x40)\n      dup1\n      swap2\n      sub\n      swap1\n      return\n        /* \"fund_me/A8.sol\":1023:1766  function withdraw() public onlyOwner{... */\n    tag_3:\n      callvalue\n      dup1\n      iszero\n      tag_15\n      jumpi\n      0x00\n      dup1\n      revert\n    tag_15:\n      pop\n      tag_16\n      tag_17\n      jump\t// in\n    tag_16:\n      stop\n        /* \"fund_me/A8.sol\":416:436  address public owner */\n    tag_4:\n      callvalue\n      dup1\n      iszero\n      tag_18\n      jumpi\n      0x00\n      dup1\n      revert\n    tag_18:\n      pop\n      tag_19\n      tag_20\n      jump\t// in\n    tag_19:\n      mload(0x40)\n      tag_21\n      swap2\n      swap1\n      tag_14\n      jump\t// in\n    tag_21:\n      mload(0x40)\n      dup1\n      swap2\n      sub\n      swap1\n      return\n        /* \"fund_me/A8.sol\":357:409  mapping(address => uint256) public address_to_amount */\n    tag_5:\n      callvalue\n      dup1\n      iszero\n      tag_22\n      jumpi\n      0x00\n      dup1\n      revert\n    tag_22:\n      pop\n      tag_23\n      0x04\n      dup1\n      calldatasize\n      sub\n      dup2\n      add\n      swap1\n      tag_24\n      swap2\n      swap1\n      tag_25\n      jump\t// in\n    tag_24:\n      tag_26\n      jump\t// in\n    tag_23:\n      mload(0x40)\n      tag_27\n      swap2\n      swap1\n      tag_28\n      jump\t// in\n    tag_27:\n      mload(0x40)\n      dup1\n      swap2\n      sub\n      swap1\n      return\n        /* \"fund_me/A8.sol\":733:1015  function fund() public payable{... */\n    tag_6:\n      tag_29\n      tag_30\n      jump\t// in\n    tag_29:\n      stop\n        /* \"fund_me/A8.sol\":278:311  uint256 public min_USD = 5 * 1e18 */\n    tag_7:\n      callvalue\n      dup1\n      iszero\n      tag_31\n      jumpi\n      0x00\n      dup1\n      revert\n    tag_31:\n      pop\n      tag_32\n      tag_33\n      jump\t// in\n    tag_32:\n      mload(0x40)\n      tag_34\n      swap2\n      swap1\n      tag_28\n      jump\t// in\n    tag_34:\n      mload(0x40)\n      dup1\n      swap2\n      sub\n      swap1\n      return\n        /* \"fund_me/A8.sol\":318:350  address[] public sender_Adresses */\n    tag_12:\n      0x01\n      dup2\n      dup2\n      sload\n      dup2\n      lt\n      tag_35\n      jumpi\n      0x00\n      dup1\n      revert\n    tag_35:\n      swap1\n      0x00\n      mstore\n      keccak256(0x00, 0x20)\n      add\n      0x00\n      swap2\n      pop\n      sload\n      swap1\n      0x0100\n      exp\n      swap1\n      div\n      0xffffffffffffffffffffffffffffffffffffffff\n      and\n      dup2\n      jump\t// out\n        /* \"fund_me/A8.sol\":1023:1766  function withdraw() public onlyOwner{... */\n    tag_17:\n        /* \"fund_me/A8.sol\":2107:2117  msg.sender */\n      caller\n        /* \"fund_me/A8.sol\":2098:2117  owner == msg.sender */\n      0xffffffffffffffffffffffffffffffffffffffff\n      and\n        /* \"fund_me/A8.sol\":2098:2103  owner */\n      0x03\n      0x00\n      swap1\n      sload\n      swap1\n      0x0100\n      exp\n      swap1\n      div\n      0xffffffffffffffffffffffffffffffffffffffff\n      and\n        /* \"fund_me/A8.sol\":2098:2117  owner == msg.sender */\n      0xffffffffffffffffffffffffffffffffffffffff\n      and\n      eq\n        /* \"fund_me/A8.sol\":2090:2135  require(owner == msg.sender, \"Must be owner\") */\n      tag_38\n      jumpi\n      mload(0x40)\n      0x08c379a000000000000000000000000000000000000000000000000000000000\n      dup2\n      mstore\n      0x04\n      add\n      tag_39\n      swap1\n      tag_40\n      jump\t// in\n    tag_39:\n      mload(0x40)\n      dup1\n      swap2\n      sub\n      swap1\n      revert\n    tag_38:\n        /* \"fund_me/A8.sol\":1074:1094  uint256 sender_index */\n      0x00\n        /* \"fund_me/A8.sol\":1070:1271  for(uint256 sender_index = 0; sender_index < sender_Adresses.length; sender_index++){... */\n    tag_42:\n        /* \"fund_me/A8.sol\":1115:1130  sender_Adresses */\n      0x01\n        /* \"fund_me/A8.sol\":1115:1137  sender_Adresses.length */\n      dup1\n      sload\n      swap1\n      pop\n        /* \"fund_me/A8.sol\":1100:1112  sender_index */\n      dup2\n        /* \"fund_me/A8.sol\":1100:1137  sender_index < sender_Adresses.length */\n      lt\n        /* \"fund_me/A8.sol\":1070:1271  for(uint256 sender_index = 0; sender_index < sender_Adresses.length; sender_index++){... */\n      iszero\n      tag_43\n      jumpi\n        /* \"fund_me/A8.sol\":1169:1183  address sender */\n      0x00\n        /* \"fund_me/A8.sol\":1186:1201  sender_Adresses */\n      0x01\n        /* \"fund_me/A8.sol\":1202:1214  sender_index */\n      dup3\n        /* \"fund_me/A8.sol\":1186:1215  sender_Adresses[sender_index] */\n      dup2\n      sload\n      dup2\n      lt\n      tag_45\n      jumpi\n      tag_46\n      tag_47\n      jump\t// in\n    tag_46:\n    tag_45:\n      swap1\n      0x00\n      mstore\n      keccak256(0x00, 0x20)\n      add\n      0x00\n      swap1\n      sload\n      swap1\n      0x0100\n      exp\n      swap1\n      div\n      0xffffffffffffffffffffffffffffffffffffffff\n      and\n        /* \"fund_me/A8.sol\":1169:1215  address sender = sender_Adresses[sender_index] */\n      swap1\n      pop\n        /* \"fund_me/A8.sol\":1258:1259  0 */\n      0x00\n        /* \"fund_me/A8.sol\":1230:1247  address_to_amount */\n      0x02\n        /* \"fund_me/A8.sol\":1230:1255  address_to_amount[sender] */\n      0x00\n        /* \"fund_me/A8.sol\":1248:1254  sender */\n      dup4\n        /* \"fund_me/A8.sol\":1230:1255  address_to_amount[sender] */\n      0xffffffffffffffffffffffffffffffffffffffff\n      and\n      0xffffffffffffffffffffffffffffffffffffffff\n      and\n      dup2\n      mstore\n      0x20\n      add\n      swap1\n      dup2\n      mstore\n      0x20\n      add\n      0x00\n      keccak256\n        /* \"fund_me/A8.sol\":1230:1259  address_to_amount[sender] = 0 */\n      dup2\n      swap1\n      sstore\n      pop\n        /* \"fund_me/A8.sol\":1154:1271  {... */\n      pop\n        /* \"fund_me/A8.sol\":1139:1153  sender_index++ */\n      dup1\n      dup1\n      0x01\n      add\n      swap2\n      pop\n      pop\n        /* \"fund_me/A8.sol\":1070:1271  for(uint256 sender_index = 0; sender_index < sender_Adresses.length; sender_index++){... */\n      jump(tag_42)\n    tag_43:\n      pop\n        /* \"fund_me/A8.sol\":1315:1316  0 */\n      0x00\n        /* \"fund_me/A8.sol\":1301:1317  new address[](0) */\n      0xffffffffffffffff\n      dup2\n      gt\n      iszero\n      tag_49\n      jumpi\n      tag_50\n      tag_51\n      jump\t// in\n    tag_50:\n    tag_49:\n      mload(0x40)\n      swap1\n      dup1\n      dup3\n      mstore\n      dup1\n      0x20\n      mul\n      0x20\n      add\n      dup3\n      add\n      0x40\n      mstore\n      dup1\n      iszero\n      tag_52\n      jumpi\n      dup2\n      0x20\n      add\n      0x20\n      dup3\n      mul\n      dup1\n      calldatasize\n      dup4\n      calldatacopy\n      dup1\n      dup3\n      add\n      swap2\n      pop\n      pop\n      swap1\n      pop\n    tag_52:\n      pop\n        /* \"fund_me/A8.sol\":1283:1298  sender_Adresses */\n      0x01\n        /* \"fund_me/A8.sol\":1283:1317  sender_Adresses = new address[](0) */\n      swap1\n      dup1\n      mload\n      swap1\n      0x20\n      add\n      swap1\n      tag_53\n      swap3\n      swap2\n      swap1\n      tag_54\n      jump\t// in\n    tag_53:\n      pop\n        /* \"fund_me/A8.sol\":1529:1547  bool call_succcess */\n      0x00\n        /* \"fund_me/A8.sol\":1560:1570  msg.sender */\n      caller\n        /* \"fund_me/A8.sol\":1552:1576  payable(msg.sender).call */\n      0xffffffffffffffffffffffffffffffffffffffff\n      and\n        /* \"fund_me/A8.sol\":1584:1605  address(this).balance */\n      selfbalance\n        /* \"fund_me/A8.sol\":1552:1610  payable(msg.sender).call{value: address(this).balance}(\"\") */\n      mload(0x40)\n      tag_55\n      swap1\n      tag_56\n      jump\t// in\n    tag_55:\n      0x00\n      mload(0x40)\n      dup1\n      dup4\n      sub\n      dup2\n      dup6\n      dup8\n      gas\n      call\n      swap3\n      pop\n      pop\n      pop\n      returndatasize\n      dup1\n      0x00\n      dup2\n      eq\n      tag_59\n      jumpi\n      mload(0x40)\n      swap2\n      pop\n      and(add(returndatasize, 0x3f), not(0x1f))\n      dup3\n      add\n      0x40\n      mstore\n      returndatasize\n      dup3\n      mstore\n      returndatasize\n      0x00\n      0x20\n      dup5\n      add\n      returndatacopy\n      jump(tag_58)\n    tag_59:\n      0x60\n      swap2\n      pop\n    tag_58:\n      pop\n        /* \"fund_me/A8.sol\":1528:1610  (bool call_succcess,) = payable(msg.sender).call{value: address(this).balance}(\"\") */\n      pop\n      swap1\n      pop\n        /* \"fund_me/A8.sol\":1726:1739  call_succcess */\n      dup1\n        /* \"fund_me/A8.sol\":1718:1758  require(call_succcess, \"Sending failed\") */\n      tag_60\n      jumpi\n      mload(0x40)\n      0x08c379a000000000000000000000000000000000000000000000000000000000\n      dup2\n      mstore\n      0x04\n      add\n      tag_61\n      swap1\n      tag_62\n      jump\t// in\n    tag_61:\n      mload(0x40)\n      dup1\n      swap2\n      sub\n      swap1\n      revert\n    tag_60:\n        /* \"fund_me/A8.sol\":1059:1766  {... */\n      pop\n        /* \"fund_me/A8.sol\":1023:1766  function withdraw() public onlyOwner{... */\n      jump\t// out\n        /* \"fund_me/A8.sol\":416:436  address public owner */\n    tag_20:\n      0x03\n      0x00\n      swap1\n      sload\n      swap1\n      0x0100\n      exp\n      swap1\n      div\n      0xffffffffffffffffffffffffffffffffffffffff\n      and\n      dup2\n      jump\t// out\n        /* \"fund_me/A8.sol\":357:409  mapping(address => uint256) public address_to_amount */\n    tag_26:\n      mstore(0x20, 0x02)\n      dup1\n      0x00\n      mstore\n      keccak256(0x00, 0x40)\n      0x00\n      swap2\n      pop\n      swap1\n      pop\n      sload\n      dup2\n      jump\t// out\n        /* \"fund_me/A8.sol\":733:1015  function fund() public payable{... */\n    tag_30:\n        /* \"fund_me/A8.sol\":885:892  min_USD */\n      sload(0x00)\n        /* \"fund_me/A8.sol\":857:882  msg.value.getConvertion() */\n      tag_64\n        /* \"fund_me/A8.sol\":857:866  msg.value */\n      callvalue\n        /* \"fund_me/A8.sol\":857:880  msg.value.getConvertion */\n      tag_65\n        /* \"fund_me/A8.sol\":857:882  msg.value.getConvertion() */\n      jump\t// in\n    tag_64:\n        /* \"fund_me/A8.sol\":857:892  msg.value.getConvertion() > min_USD */\n      gt\n        /* \"fund_me/A8.sol\":849:911  require(msg.value.getConvertion() > min_USD, \"ETH not enough\") */\n      tag_66\n      jumpi\n      mload(0x40)\n      0x08c379a000000000000000000000000000000000000000000000000000000000\n      dup2\n      mstore\n      0x04\n      add\n      tag_67\n      swap1\n      tag_68\n      jump\t// in\n    tag_67:\n      mload(0x40)\n      dup1\n      swap2\n      sub\n      swap1\n      revert\n    tag_66:\n        /* \"fund_me/A8.sol\":922:937  sender_Adresses */\n      0x01\n        /* \"fund_me/A8.sol\":943:953  msg.sender */\n      caller\n        /* \"fund_me/A8.sol\":922:954  sender_Adresses.push(msg.sender) */\n      swap1\n      dup1\n      0x01\n      dup2\n      sload\n      add\n      dup1\n      dup3\n      sstore\n      dup1\n      swap2\n      pop\n      pop\n      0x01\n      swap1\n      sub\n      swap1\n      0x00\n      mstore\n      keccak256(0x00, 0x20)\n      add\n      0x00\n      swap1\n      swap2\n      swap1\n      swap2\n      swap1\n      swap2\n      0x0100\n      exp\n      dup2\n      sload\n      dup2\n      0xffffffffffffffffffffffffffffffffffffffff\n      mul\n      not\n      and\n      swap1\n      dup4\n      0xffffffffffffffffffffffffffffffffffffffff\n      and\n      mul\n      or\n      swap1\n      sstore\n      pop\n        /* \"fund_me/A8.sol\":998:1007  msg.value */\n      callvalue\n        /* \"fund_me/A8.sol\":965:982  address_to_amount */\n      0x02\n        /* \"fund_me/A8.sol\":965:994  address_to_amount[msg.sender] */\n      0x00\n        /* \"fund_me/A8.sol\":983:993  msg.sender */\n      caller\n        /* \"fund_me/A8.sol\":965:994  address_to_amount[msg.sender] */\n      0xffffffffffffffffffffffffffffffffffffffff\n      and\n      0xffffffffffffffffffffffffffffffffffffffff\n      and\n      dup2\n      mstore\n      0x20\n      add\n      swap1\n      dup2\n      mstore\n      0x20\n      add\n      0x00\n      keccak256\n      0x00\n        /* \"fund_me/A8.sol\":965:1007  address_to_amount[msg.sender] += msg.value */\n      dup3\n      dup3\n      sload\n      tag_70\n      swap2\n      swap1\n      tag_71\n      jump\t// in\n    tag_70:\n      swap3\n      pop\n      pop\n      dup2\n      swap1\n      sstore\n      pop\n        /* \"fund_me/A8.sol\":733:1015  function fund() public payable{... */\n      jump\t// out\n        /* \"fund_me/A8.sol\":278:311  uint256 public min_USD = 5 * 1e18 */\n    tag_33:\n      sload(0x00)\n      dup2\n      jump\t// out\n        /* \"fund_me/A4_price_converter_library.sol\":658:877  function getConvertion(uint256 ETH_amount) internal view returns(uint256){... */\n    tag_65:\n        /* \"fund_me/A4_price_converter_library.sol\":723:730  uint256 */\n      0x00\n        /* \"fund_me/A4_price_converter_library.sol\":742:759  uint256 ETH_price */\n      dup1\n        /* \"fund_me/A4_price_converter_library.sol\":762:772  getPrice() */\n      tag_73\n        /* \"fund_me/A4_price_converter_library.sol\":762:770  getPrice */\n      tag_74\n        /* \"fund_me/A4_price_converter_library.sol\":762:772  getPrice() */\n      jump\t// in\n    tag_73:\n        /* \"fund_me/A4_price_converter_library.sol\":742:772  uint256 ETH_price = getPrice() */\n      swap1\n      pop\n        /* \"fund_me/A4_price_converter_library.sol\":783:804  uint256 amount_in_USD */\n      0x00\n        /* \"fund_me/A4_price_converter_library.sol\":834:838  1e18 */\n      0x0de0b6b3a7640000\n        /* \"fund_me/A4_price_converter_library.sol\":821:830  ETH_price */\n      dup3\n        /* \"fund_me/A4_price_converter_library.sol\":808:818  ETH_amount */\n      dup6\n        /* \"fund_me/A4_price_converter_library.sol\":808:830  ETH_amount * ETH_price */\n      tag_75\n      swap2\n      swap1\n      tag_76\n      jump\t// in\n    tag_75:\n        /* \"fund_me/A4_price_converter_library.sol\":807:838  (ETH_amount * ETH_price) / 1e18 */\n      tag_77\n      swap2\n      swap1\n      tag_78\n      jump\t// in\n    tag_77:\n        /* \"fund_me/A4_price_converter_library.sol\":783:838  uint256 amount_in_USD = (ETH_amount * ETH_price) / 1e18 */\n      swap1\n      pop\n        /* \"fund_me/A4_price_converter_library.sol\":856:869  amount_in_USD */\n      dup1\n        /* \"fund_me/A4_price_converter_library.sol\":849:869  return amount_in_USD */\n      swap3\n      pop\n      pop\n      pop\n        /* \"fund_me/A4_price_converter_library.sol\":658:877  function getConvertion(uint256 ETH_amount) internal view returns(uint256){... */\n      swap2\n      swap1\n      pop\n      jump\t// out\n        /* \"fund_me/A4_price_converter_library.sol\":382:650  function getPrice() internal view returns(uint256){... */\n    tag_74:\n        /* \"fund_me/A4_price_converter_library.sol\":424:431  uint256 */\n      0x00\n        /* \"fund_me/A4_price_converter_library.sol\":443:475  AggregatorV3Interface price_feed */\n      dup1\n        /* \"fund_me/A4_price_converter_library.sol\":500:542  0x694AA1769357215DE4FAC081bf1f309aDC325306 */\n      0x694aa1769357215de4fac081bf1f309adc325306\n        /* \"fund_me/A4_price_converter_library.sol\":443:543  AggregatorV3Interface price_feed = AggregatorV3Interface(0x694AA1769357215DE4FAC081bf1f309aDC325306) */\n      swap1\n      pop\n        /* \"fund_me/A4_price_converter_library.sol\":556:568  int256 price */\n      0x00\n        /* \"fund_me/A4_price_converter_library.sol\":575:585  price_feed */\n      dup2\n        /* \"fund_me/A4_price_converter_library.sol\":575:601  price_feed.latestRoundData */\n      0xffffffffffffffffffffffffffffffffffffffff\n      and\n      0xfeaf968c\n        /* \"fund_me/A4_price_converter_library.sol\":575:603  price_feed.latestRoundData() */\n      mload(0x40)\n      dup2\n      0xffffffff\n      and\n      0xe0\n      shl\n      dup2\n      mstore\n      0x04\n      add\n      0xa0\n      mload(0x40)\n      dup1\n      dup4\n      sub\n      dup2\n      dup7\n      gas\n      staticcall\n      iszero\n      dup1\n      iszero\n      tag_81\n      jumpi\n      returndatasize\n      0x00\n      dup1\n      returndatacopy\n      revert(0x00, returndatasize)\n    tag_81:\n      pop\n      pop\n      pop\n      pop\n      mload(0x40)\n      returndatasize\n      not(0x1f)\n      0x1f\n      dup3\n      add\n      and\n      dup3\n      add\n      dup1\n      0x40\n      mstore\n      pop\n      dup2\n      add\n      swap1\n      tag_82\n      swap2\n      swap1\n      tag_83\n      jump\t// in\n    tag_82:\n        /* \"fund_me/A4_price_converter_library.sol\":554:603  (,int256 price,,,) = price_feed.latestRoundData() */\n      pop\n      pop\n      pop\n      swap2\n      pop\n      pop\n        /* \"fund_me/A4_price_converter_library.sol\":637:641  1e18 */\n      0x0de0b6b3a7640000\n        /* \"fund_me/A4_price_converter_library.sol\":629:634  price */\n      dup2\n        /* \"fund_me/A4_price_converter_library.sol\":629:641  price * 1e18 */\n      tag_84\n      swap2\n      swap1\n      tag_85\n      jump\t// in\n    tag_84:\n        /* \"fund_me/A4_price_converter_library.sol\":614:642  return uint256(price * 1e18) */\n      swap3\n      pop\n      pop\n      pop\n        /* \"fund_me/A4_price_converter_library.sol\":382:650  function getPrice() internal view returns(uint256){... */\n      swap1\n      jump\t// out\n    tag_54:\n      dup3\n      dup1\n      sload\n      dup3\n      dup3\n      sstore\n      swap1\n      0x00\n      mstore\n      keccak256(0x00, 0x20)\n      swap1\n      dup2\n      add\n      swap3\n      dup3\n      iszero\n      tag_86\n      jumpi\n      swap2\n      0x20\n      mul\n      dup3\n      add\n    tag_87:\n      dup3\n      dup2\n      gt\n      iszero\n      tag_88\n      jumpi\n      dup3\n      mload\n      dup3\n      exp(0x0100, 0x00)\n      dup2\n      sload\n      dup2\n      0xffffffffffffffffffffffffffffffffffffffff\n      mul\n      not\n      and\n      swap1\n      dup4\n      0xffffffffffffffffffffffffffffffffffffffff\n      and\n      mul\n      or\n      swap1\n      sstore\n      pop\n      swap2\n      0x20\n      add\n      swap2\n      swap1\n      0x01\n      add\n      swap1\n      jump(tag_87)\n    tag_88:\n    tag_86:\n      pop\n      swap1\n      pop\n      tag_89\n      swap2\n      swap1\n      tag_90\n      jump\t// in\n    tag_89:\n      pop\n      swap1\n      jump\t// out\n    tag_90:\n    tag_91:\n      dup1\n      dup3\n      gt\n      iszero\n      tag_92\n      jumpi\n      0x00\n      dup2\n      0x00\n      swap1\n      sstore\n      pop\n      0x01\n      add\n      jump(tag_91)\n    tag_92:\n      pop\n      swap1\n      jump\t// out\n        /* \"#utility.yul\":88:205   */\n    tag_94:\n        /* \"#utility.yul\":197:198   */\n      0x00\n        /* \"#utility.yul\":194:195   */\n      dup1\n        /* \"#utility.yul\":187:199   */\n      revert\n        /* \"#utility.yul\":334:411   */\n    tag_96:\n        /* \"#utility.yul\":371:378   */\n      0x00\n        /* \"#utility.yul\":400:405   */\n      dup2\n        /* \"#utility.yul\":389:405   */\n      swap1\n      pop\n        /* \"#utility.yul\":334:411   */\n      swap2\n      swap1\n      pop\n      jump\t// out\n        /* \"#utility.yul\":417:539   */\n    tag_97:\n        /* \"#utility.yul\":490:514   */\n      tag_130\n        /* \"#utility.yul\":508:513   */\n      dup2\n        /* \"#utility.yul\":490:514   */\n      tag_96\n      jump\t// in\n    tag_130:\n        /* \"#utility.yul\":483:488   */\n      dup2\n        /* \"#utility.yul\":480:515   */\n      eq\n        /* \"#utility.yul\":470:533   */\n      tag_131\n      jumpi\n        /* \"#utility.yul\":529:530   */\n      0x00\n        /* \"#utility.yul\":526:527   */\n      dup1\n        /* \"#utility.yul\":519:531   */\n      revert\n        /* \"#utility.yul\":470:533   */\n    tag_131:\n        /* \"#utility.yul\":417:539   */\n      pop\n      jump\t// out\n        /* \"#utility.yul\":545:684   */\n    tag_98:\n        /* \"#utility.yul\":591:596   */\n      0x00\n        /* \"#utility.yul\":629:635   */\n      dup2\n        /* \"#utility.yul\":616:636   */\n      calldataload\n        /* \"#utility.yul\":607:636   */\n      swap1\n      pop\n        /* \"#utility.yul\":645:678   */\n      tag_133\n        /* \"#utility.yul\":672:677   */\n      dup2\n        /* \"#utility.yul\":645:678   */\n      tag_97\n      jump\t// in\n    tag_133:\n        /* \"#utility.yul\":545:684   */\n      swap3\n      swap2\n      pop\n      pop\n      jump\t// out\n        /* \"#utility.yul\":690:1019   */\n    tag_11:\n        /* \"#utility.yul\":749:755   */\n      0x00\n        /* \"#utility.yul\":798:800   */\n      0x20\n        /* \"#utility.yul\":786:795   */\n      dup3\n        /* \"#utility.yul\":777:784   */\n      dup5\n        /* \"#utility.yul\":773:796   */\n      sub\n        /* \"#utility.yul\":769:801   */\n      slt\n        /* \"#utility.yul\":766:885   */\n      iszero\n      tag_135\n      jumpi\n        /* \"#utility.yul\":804:883   */\n      tag_136\n      tag_94\n      jump\t// in\n    tag_136:\n        /* \"#utility.yul\":766:885   */\n    tag_135:\n        /* \"#utility.yul\":924:925   */\n      0x00\n        /* \"#utility.yul\":949:1002   */\n      tag_137\n        /* \"#utility.yul\":994:1001   */\n      dup5\n        /* \"#utility.yul\":985:991   */\n      dup3\n        /* \"#utility.yul\":974:983   */\n      dup6\n        /* \"#utility.yul\":970:992   */\n      add\n        /* \"#utility.yul\":949:1002   */\n      tag_98\n      jump\t// in\n    tag_137:\n        /* \"#utility.yul\":939:1002   */\n      swap2\n      pop\n        /* \"#utility.yul\":895:1012   */\n      pop\n        /* \"#utility.yul\":690:1019   */\n      swap3\n      swap2\n      pop\n      pop\n      jump\t// out\n        /* \"#utility.yul\":1025:1151   */\n    tag_99:\n        /* \"#utility.yul\":1062:1069   */\n      0x00\n        /* \"#utility.yul\":1102:1144   */\n      0xffffffffffffffffffffffffffffffffffffffff\n        /* \"#utility.yul\":1095:1100   */\n      dup3\n        /* \"#utility.yul\":1091:1145   */\n      and\n        /* \"#utility.yul\":1080:1145   */\n      swap1\n      pop\n        /* \"#utility.yul\":1025:1151   */\n      swap2\n      swap1\n      pop\n      jump\t// out\n        /* \"#utility.yul\":1157:1253   */\n    tag_100:\n        /* \"#utility.yul\":1194:1201   */\n      0x00\n        /* \"#utility.yul\":1223:1247   */\n      tag_140\n        /* \"#utility.yul\":1241:1246   */\n      dup3\n        /* \"#utility.yul\":1223:1247   */\n      tag_99\n      jump\t// in\n    tag_140:\n        /* \"#utility.yul\":1212:1247   */\n      swap1\n      pop\n        /* \"#utility.yul\":1157:1253   */\n      swap2\n      swap1\n      pop\n      jump\t// out\n        /* \"#utility.yul\":1259:1377   */\n    tag_101:\n        /* \"#utility.yul\":1346:1370   */\n      tag_142\n        /* \"#utility.yul\":1364:1369   */\n      dup2\n        /* \"#utility.yul\":1346:1370   */\n      tag_100\n      jump\t// in\n    tag_142:\n        /* \"#utility.yul\":1341:1344   */\n      dup3\n        /* \"#utility.yul\":1334:1371   */\n      mstore\n        /* \"#utility.yul\":1259:1377   */\n      pop\n      pop\n      jump\t// out\n        /* \"#utility.yul\":1383:1605   */\n    tag_14:\n        /* \"#utility.yul\":1476:1480   */\n      0x00\n        /* \"#utility.yul\":1514:1516   */\n      0x20\n        /* \"#utility.yul\":1503:1512   */\n      dup3\n        /* \"#utility.yul\":1499:1517   */\n      add\n        /* \"#utility.yul\":1491:1517   */\n      swap1\n      pop\n        /* \"#utility.yul\":1527:1598   */\n      tag_144\n        /* \"#utility.yul\":1595:1596   */\n      0x00\n        /* \"#utility.yul\":1584:1593   */\n      dup4\n        /* \"#utility.yul\":1580:1597   */\n      add\n        /* \"#utility.yul\":1571:1577   */\n      dup5\n        /* \"#utility.yul\":1527:1598   */\n      tag_101\n      jump\t// in\n    tag_144:\n        /* \"#utility.yul\":1383:1605   */\n      swap3\n      swap2\n      pop\n      pop\n      jump\t// out\n        /* \"#utility.yul\":1611:1733   */\n    tag_102:\n        /* \"#utility.yul\":1684:1708   */\n      tag_146\n        /* \"#utility.yul\":1702:1707   */\n      dup2\n        /* \"#utility.yul\":1684:1708   */\n      tag_100\n      jump\t// in\n    tag_146:\n        /* \"#utility.yul\":1677:1682   */\n      dup2\n        /* \"#utility.yul\":1674:1709   */\n      eq\n        /* \"#utility.yul\":1664:1727   */\n      tag_147\n      jumpi\n        /* \"#utility.yul\":1723:1724   */\n      0x00\n        /* \"#utility.yul\":1720:1721   */\n      dup1\n        /* \"#utility.yul\":1713:1725   */\n      revert\n        /* \"#utility.yul\":1664:1727   */\n    tag_147:\n        /* \"#utility.yul\":1611:1733   */\n      pop\n      jump\t// out\n        /* \"#utility.yul\":1739:1878   */\n    tag_103:\n        /* \"#utility.yul\":1785:1790   */\n      0x00\n        /* \"#utility.yul\":1823:1829   */\n      dup2\n        /* \"#utility.yul\":1810:1830   */\n      calldataload\n        /* \"#utility.yul\":1801:1830   */\n      swap1\n      pop\n        /* \"#utility.yul\":1839:1872   */\n      tag_149\n        /* \"#utility.yul\":1866:1871   */\n      dup2\n        /* \"#utility.yul\":1839:1872   */\n      tag_102\n      jump\t// in\n    tag_149:\n        /* \"#utility.yul\":1739:1878   */\n      swap3\n      swap2\n      pop\n      pop\n      jump\t// out\n        /* \"#utility.yul\":1884:2213   */\n    tag_25:\n        /* \"#utility.yul\":1943:1949   */\n      0x00\n        /* \"#utility.yul\":1992:1994   */\n      0x20\n        /* \"#utility.yul\":1980:1989   */\n      dup3\n        /* \"#utility.yul\":1971:1978   */\n      dup5\n        /* \"#utility.yul\":1967:1990   */\n      sub\n        /* \"#utility.yul\":1963:1995   */\n      slt\n        /* \"#utility.yul\":1960:2079   */\n      iszero\n      tag_151\n      jumpi\n        /* \"#utility.yul\":1998:2077   */\n      tag_152\n      tag_94\n      jump\t// in\n    tag_152:\n        /* \"#utility.yul\":1960:2079   */\n    tag_151:\n        /* \"#utility.yul\":2118:2119   */\n      0x00\n        /* \"#utility.yul\":2143:2196   */\n      tag_153\n        /* \"#utility.yul\":2188:2195   */\n      dup5\n        /* \"#utility.yul\":2179:2185   */\n      dup3\n        /* \"#utility.yul\":2168:2177   */\n      dup6\n        /* \"#utility.yul\":2164:2186   */\n      add\n        /* \"#utility.yul\":2143:2196   */\n      tag_103\n      jump\t// in\n    tag_153:\n        /* \"#utility.yul\":2133:2196   */\n      swap2\n      pop\n        /* \"#utility.yul\":2089:2206   */\n      pop\n        /* \"#utility.yul\":1884:2213   */\n      swap3\n      swap2\n      pop\n      pop\n      jump\t// out\n        /* \"#utility.yul\":2219:2337   */\n    tag_104:\n        /* \"#utility.yul\":2306:2330   */\n      tag_155\n        /* \"#utility.yul\":2324:2329   */\n      dup2\n        /* \"#utility.yul\":2306:2330   */\n      tag_96\n      jump\t// in\n    tag_155:\n        /* \"#utility.yul\":2301:2304   */\n      dup3\n        /* \"#utility.yul\":2294:2331   */\n      mstore\n        /* \"#utility.yul\":2219:2337   */\n      pop\n      pop\n      jump\t// out\n        /* \"#utility.yul\":2343:2565   */\n    tag_28:\n        /* \"#utility.yul\":2436:2440   */\n      0x00\n        /* \"#utility.yul\":2474:2476   */\n      0x20\n        /* \"#utility.yul\":2463:2472   */\n      dup3\n        /* \"#utility.yul\":2459:2477   */\n      add\n        /* \"#utility.yul\":2451:2477   */\n      swap1\n      pop\n        /* \"#utility.yul\":2487:2558   */\n      tag_157\n        /* \"#utility.yul\":2555:2556   */\n      0x00\n        /* \"#utility.yul\":2544:2553   */\n      dup4\n        /* \"#utility.yul\":2540:2557   */\n      add\n        /* \"#utility.yul\":2531:2537   */\n      dup5\n        /* \"#utility.yul\":2487:2558   */\n      tag_104\n      jump\t// in\n    tag_157:\n        /* \"#utility.yul\":2343:2565   */\n      swap3\n      swap2\n      pop\n      pop\n      jump\t// out\n        /* \"#utility.yul\":2571:2740   */\n    tag_105:\n        /* \"#utility.yul\":2655:2666   */\n      0x00\n        /* \"#utility.yul\":2689:2695   */\n      dup3\n        /* \"#utility.yul\":2684:2687   */\n      dup3\n        /* \"#utility.yul\":2677:2696   */\n      mstore\n        /* \"#utility.yul\":2729:2733   */\n      0x20\n        /* \"#utility.yul\":2724:2727   */\n      dup3\n        /* \"#utility.yul\":2720:2734   */\n      add\n        /* \"#utility.yul\":2705:2734   */\n      swap1\n      pop\n        /* \"#utility.yul\":2571:2740   */\n      swap3\n      swap2\n      pop\n      pop\n      jump\t// out\n        /* \"#utility.yul\":2746:2909   */\n    tag_106:\n        /* \"#utility.yul\":2886:2901   */\n      0x4d757374206265206f776e657200000000000000000000000000000000000000\n        /* \"#utility.yul\":2882:2883   */\n      0x00\n        /* \"#utility.yul\":2874:2880   */\n      dup3\n        /* \"#utility.yul\":2870:2884   */\n      add\n        /* \"#utility.yul\":2863:2902   */\n      mstore\n        /* \"#utility.yul\":2746:2909   */\n      pop\n      jump\t// out\n        /* \"#utility.yul\":2915:3281   */\n    tag_107:\n        /* \"#utility.yul\":3057:3060   */\n      0x00\n        /* \"#utility.yul\":3078:3145   */\n      tag_161\n        /* \"#utility.yul\":3142:3144   */\n      0x0d\n        /* \"#utility.yul\":3137:3140   */\n      dup4\n        /* \"#utility.yul\":3078:3145   */\n      tag_105\n      jump\t// in\n    tag_161:\n        /* \"#utility.yul\":3071:3145   */\n      swap2\n      pop\n        /* \"#utility.yul\":3154:3247   */\n      tag_162\n        /* \"#utility.yul\":3243:3246   */\n      dup3\n        /* \"#utility.yul\":3154:3247   */\n      tag_106\n      jump\t// in\n    tag_162:\n        /* \"#utility.yul\":3272:3274   */\n      0x20\n        /* \"#utility.yul\":3267:3270   */\n      dup3\n        /* \"#utility.yul\":3263:3275   */\n      add\n        /* \"#utility.yul\":3256:3275   */\n      swap1\n      pop\n        /* \"#utility.yul\":2915:3281   */\n      swap2\n      swap1\n      pop\n      jump\t// out\n        /* \"#utility.yul\":3287:3706   */\n    tag_40:\n        /* \"#utility.yul\":3453:3457   */\n      0x00\n        /* \"#utility.yul\":3491:3493   */\n      0x20\n        /* \"#utility.yul\":3480:3489   */\n      dup3\n        /* \"#utility.yul\":3476:3494   */\n      add\n        /* \"#utility.yul\":3468:3494   */\n      swap1\n      pop\n        /* \"#utility.yul\":3540:3549   */\n      dup2\n        /* \"#utility.yul\":3534:3538   */\n      dup2\n        /* \"#utility.yul\":3530:3550   */\n      sub\n        /* \"#utility.yul\":3526:3527   */\n      0x00\n        /* \"#utility.yul\":3515:3524   */\n      dup4\n        /* \"#utility.yul\":3511:3528   */\n      add\n        /* \"#utility.yul\":3504:3551   */\n      mstore\n        /* \"#utility.yul\":3568:3699   */\n      tag_164\n        /* \"#utility.yul\":3694:3698   */\n      dup2\n        /* \"#utility.yul\":3568:3699   */\n      tag_107\n      jump\t// in\n    tag_164:\n        /* \"#utility.yul\":3560:3699   */\n      swap1\n      pop\n        /* \"#utility.yul\":3287:3706   */\n      swap2\n      swap1\n      pop\n      jump\t// out\n        /* \"#utility.yul\":3712:3892   */\n    tag_47:\n        /* \"#utility.yul\":3760:3837   */\n      0x4e487b7100000000000000000000000000000000000000000000000000000000\n        /* \"#utility.yul\":3757:3758   */\n      0x00\n        /* \"#utility.yul\":3750:3838   */\n      mstore\n        /* \"#utility.yul\":3857:3861   */\n      0x32\n        /* \"#utility.yul\":3854:3855   */\n      0x04\n        /* \"#utility.yul\":3847:3862   */\n      mstore\n        /* \"#utility.yul\":3881:3885   */\n      0x24\n        /* \"#utility.yul\":3878:3879   */\n      0x00\n        /* \"#utility.yul\":3871:3886   */\n      revert\n        /* \"#utility.yul\":3898:4078   */\n    tag_51:\n        /* \"#utility.yul\":3946:4023   */\n      0x4e487b7100000000000000000000000000000000000000000000000000000000\n        /* \"#utility.yul\":3943:3944   */\n      0x00\n        /* \"#utility.yul\":3936:4024   */\n      mstore\n        /* \"#utility.yul\":4043:4047   */\n      0x41\n        /* \"#utility.yul\":4040:4041   */\n      0x04\n        /* \"#utility.yul\":4033:4048   */\n      mstore\n        /* \"#utility.yul\":4067:4071   */\n      0x24\n        /* \"#utility.yul\":4064:4065   */\n      0x00\n        /* \"#utility.yul\":4057:4072   */\n      revert\n        /* \"#utility.yul\":4084:4231   */\n    tag_108:\n        /* \"#utility.yul\":4185:4196   */\n      0x00\n        /* \"#utility.yul\":4222:4225   */\n      dup2\n        /* \"#utility.yul\":4207:4225   */\n      swap1\n      pop\n        /* \"#utility.yul\":4084:4231   */\n      swap3\n      swap2\n      pop\n      pop\n      jump\t// out\n        /* \"#utility.yul\":4237:4351   */\n    tag_109:\n      pop\n      jump\t// out\n        /* \"#utility.yul\":4357:4755   */\n    tag_110:\n        /* \"#utility.yul\":4516:4519   */\n      0x00\n        /* \"#utility.yul\":4537:4620   */\n      tag_170\n        /* \"#utility.yul\":4618:4619   */\n      0x00\n        /* \"#utility.yul\":4613:4616   */\n      dup4\n        /* \"#utility.yul\":4537:4620   */\n      tag_108\n      jump\t// in\n    tag_170:\n        /* \"#utility.yul\":4530:4620   */\n      swap2\n      pop\n        /* \"#utility.yul\":4629:4722   */\n      tag_171\n        /* \"#utility.yul\":4718:4721   */\n      dup3\n        /* \"#utility.yul\":4629:4722   */\n      tag_109\n      jump\t// in\n    tag_171:\n        /* \"#utility.yul\":4747:4748   */\n      0x00\n        /* \"#utility.yul\":4742:4745   */\n      dup3\n        /* \"#utility.yul\":4738:4749   */\n      add\n        /* \"#utility.yul\":4731:4749   */\n      swap1\n      pop\n        /* \"#utility.yul\":4357:4755   */\n      swap2\n      swap1\n      pop\n      jump\t// out\n        /* \"#utility.yul\":4761:5140   */\n    tag_56:\n        /* \"#utility.yul\":4945:4948   */\n      0x00\n        /* \"#utility.yul\":4967:5114   */\n      tag_173\n        /* \"#utility.yul\":5110:5113   */\n      dup3\n        /* \"#utility.yul\":4967:5114   */\n      tag_110\n      jump\t// in\n    tag_173:\n        /* \"#utility.yul\":4960:5114   */\n      swap2\n      pop\n        /* \"#utility.yul\":5131:5134   */\n      dup2\n        /* \"#utility.yul\":5124:5134   */\n      swap1\n      pop\n        /* \"#utility.yul\":4761:5140   */\n      swap2\n      swap1\n      pop\n      jump\t// out\n        /* \"#utility.yul\":5146:5310   */\n    tag_111:\n        /* \"#utility.yul\":5286:5302   */\n      0x53656e64696e67206661696c6564000000000000000000000000000000000000\n        /* \"#utility.yul\":5282:5283   */\n      0x00\n        /* \"#utility.yul\":5274:5280   */\n      dup3\n        /* \"#utility.yul\":5270:5284   */\n      add\n        /* \"#utility.yul\":5263:5303   */\n      mstore\n        /* \"#utility.yul\":5146:5310   */\n      pop\n      jump\t// out\n        /* \"#utility.yul\":5316:5682   */\n    tag_112:\n        /* \"#utility.yul\":5458:5461   */\n      0x00\n        /* \"#utility.yul\":5479:5546   */\n      tag_176\n        /* \"#utility.yul\":5543:5545   */\n      0x0e\n        /* \"#utility.yul\":5538:5541   */\n      dup4\n        /* \"#utility.yul\":5479:5546   */\n      tag_105\n      jump\t// in\n    tag_176:\n        /* \"#utility.yul\":5472:5546   */\n      swap2\n      pop\n        /* \"#utility.yul\":5555:5648   */\n      tag_177\n        /* \"#utility.yul\":5644:5647   */\n      dup3\n        /* \"#utility.yul\":5555:5648   */\n      tag_111\n      jump\t// in\n    tag_177:\n        /* \"#utility.yul\":5673:5675   */\n      0x20\n        /* \"#utility.yul\":5668:5671   */\n      dup3\n        /* \"#utility.yul\":5664:5676   */\n      add\n        /* \"#utility.yul\":5657:5676   */\n      swap1\n      pop\n        /* \"#utility.yul\":5316:5682   */\n      swap2\n      swap1\n      pop\n      jump\t// out\n        /* \"#utility.yul\":5688:6107   */\n    tag_62:\n        /* \"#utility.yul\":5854:5858   */\n      0x00\n        /* \"#utility.yul\":5892:5894   */\n      0x20\n        /* \"#utility.yul\":5881:5890   */\n      dup3\n        /* \"#utility.yul\":5877:5895   */\n      add\n        /* \"#utility.yul\":5869:5895   */\n      swap1\n      pop\n        /* \"#utility.yul\":5941:5950   */\n      dup2\n        /* \"#utility.yul\":5935:5939   */\n      dup2\n        /* \"#utility.yul\":5931:5951   */\n      sub\n        /* \"#utility.yul\":5927:5928   */\n      0x00\n        /* \"#utility.yul\":5916:5925   */\n      dup4\n        /* \"#utility.yul\":5912:5929   */\n      add\n        /* \"#utility.yul\":5905:5952   */\n      mstore\n        /* \"#utility.yul\":5969:6100   */\n      tag_179\n        /* \"#utility.yul\":6095:6099   */\n      dup2\n        /* \"#utility.yul\":5969:6100   */\n      tag_112\n      jump\t// in\n    tag_179:\n        /* \"#utility.yul\":5961:6100   */\n      swap1\n      pop\n        /* \"#utility.yul\":5688:6107   */\n      swap2\n      swap1\n      pop\n      jump\t// out\n        /* \"#utility.yul\":6113:6277   */\n    tag_113:\n        /* \"#utility.yul\":6253:6269   */\n      0x455448206e6f7420656e6f756768000000000000000000000000000000000000\n        /* \"#utility.yul\":6249:6250   */\n      0x00\n        /* \"#utility.yul\":6241:6247   */\n      dup3\n        /* \"#utility.yul\":6237:6251   */\n      add\n        /* \"#utility.yul\":6230:6270   */\n      mstore\n        /* \"#utility.yul\":6113:6277   */\n      pop\n      jump\t// out\n        /* \"#utility.yul\":6283:6649   */\n    tag_114:\n        /* \"#utility.yul\":6425:6428   */\n      0x00\n        /* \"#utility.yul\":6446:6513   */\n      tag_182\n        /* \"#utility.yul\":6510:6512   */\n      0x0e\n        /* \"#utility.yul\":6505:6508   */\n      dup4\n        /* \"#utility.yul\":6446:6513   */\n      tag_105\n      jump\t// in\n    tag_182:\n        /* \"#utility.yul\":6439:6513   */\n      swap2\n      pop\n        /* \"#utility.yul\":6522:6615   */\n      tag_183\n        /* \"#utility.yul\":6611:6614   */\n      dup3\n        /* \"#utility.yul\":6522:6615   */\n      tag_113\n      jump\t// in\n    tag_183:\n        /* \"#utility.yul\":6640:6642   */\n      0x20\n        /* \"#utility.yul\":6635:6638   */\n      dup3\n        /* \"#utility.yul\":6631:6643   */\n      add\n        /* \"#utility.yul\":6624:6643   */\n      swap1\n      pop\n        /* \"#utility.yul\":6283:6649   */\n      swap2\n      swap1\n      pop\n      jump\t// out\n        /* \"#utility.yul\":6655:7074   */\n    tag_68:\n        /* \"#utility.yul\":6821:6825   */\n      0x00\n        /* \"#utility.yul\":6859:6861   */\n      0x20\n        /* \"#utility.yul\":6848:6857   */\n      dup3\n        /* \"#utility.yul\":6844:6862   */\n      add\n        /* \"#utility.yul\":6836:6862   */\n      swap1\n      pop\n        /* \"#utility.yul\":6908:6917   */\n      dup2\n        /* \"#utility.yul\":6902:6906   */\n      dup2\n        /* \"#utility.yul\":6898:6918   */\n      sub\n        /* \"#utility.yul\":6894:6895   */\n      0x00\n        /* \"#utility.yul\":6883:6892   */\n      dup4\n        /* \"#utility.yul\":6879:6896   */\n      add\n        /* \"#utility.yul\":6872:6919   */\n      mstore\n        /* \"#utility.yul\":6936:7067   */\n      tag_185\n        /* \"#utility.yul\":7062:7066   */\n      dup2\n        /* \"#utility.yul\":6936:7067   */\n      tag_114\n      jump\t// in\n    tag_185:\n        /* \"#utility.yul\":6928:7067   */\n      swap1\n      pop\n        /* \"#utility.yul\":6655:7074   */\n      swap2\n      swap1\n      pop\n      jump\t// out\n        /* \"#utility.yul\":7080:7260   */\n    tag_115:\n        /* \"#utility.yul\":7128:7205   */\n      0x4e487b7100000000000000000000000000000000000000000000000000000000\n        /* \"#utility.yul\":7125:7126   */\n      0x00\n        /* \"#utility.yul\":7118:7206   */\n      mstore\n        /* \"#utility.yul\":7225:7229   */\n      0x11\n        /* \"#utility.yul\":7222:7223   */\n      0x04\n        /* \"#utility.yul\":7215:7230   */\n      mstore\n        /* \"#utility.yul\":7249:7253   */\n      0x24\n        /* \"#utility.yul\":7246:7247   */\n      0x00\n        /* \"#utility.yul\":7239:7254   */\n      revert\n        /* \"#utility.yul\":7266:7457   */\n    tag_71:\n        /* \"#utility.yul\":7306:7309   */\n      0x00\n        /* \"#utility.yul\":7325:7345   */\n      tag_188\n        /* \"#utility.yul\":7343:7344   */\n      dup3\n        /* \"#utility.yul\":7325:7345   */\n      tag_96\n      jump\t// in\n    tag_188:\n        /* \"#utility.yul\":7320:7345   */\n      swap2\n      pop\n        /* \"#utility.yul\":7359:7379   */\n      tag_189\n        /* \"#utility.yul\":7377:7378   */\n      dup4\n        /* \"#utility.yul\":7359:7379   */\n      tag_96\n      jump\t// in\n    tag_189:\n        /* \"#utility.yul\":7354:7379   */\n      swap3\n      pop\n        /* \"#utility.yul\":7402:7403   */\n      dup3\n        /* \"#utility.yul\":7399:7400   */\n      dup3\n        /* \"#utility.yul\":7395:7404   */\n      add\n        /* \"#utility.yul\":7388:7404   */\n      swap1\n      pop\n        /* \"#utility.yul\":7423:7426   */\n      dup1\n        /* \"#utility.yul\":7420:7421   */\n      dup3\n        /* \"#utility.yul\":7417:7427   */\n      gt\n        /* \"#utility.yul\":7414:7450   */\n      iszero\n      tag_190\n      jumpi\n        /* \"#utility.yul\":7430:7448   */\n      tag_191\n      tag_115\n      jump\t// in\n    tag_191:\n        /* \"#utility.yul\":7414:7450   */\n    tag_190:\n        /* \"#utility.yul\":7266:7457   */\n      swap3\n      swap2\n      pop\n      pop\n      jump\t// out\n        /* \"#utility.yul\":7463:7873   */\n    tag_76:\n        /* \"#utility.yul\":7503:7510   */\n      0x00\n        /* \"#utility.yul\":7526:7546   */\n      tag_193\n        /* \"#utility.yul\":7544:7545   */\n      dup3\n        /* \"#utility.yul\":7526:7546   */\n      tag_96\n      jump\t// in\n    tag_193:\n        /* \"#utility.yul\":7521:7546   */\n      swap2\n      pop\n        /* \"#utility.yul\":7560:7580   */\n      tag_194\n        /* \"#utility.yul\":7578:7579   */\n      dup4\n        /* \"#utility.yul\":7560:7580   */\n      tag_96\n      jump\t// in\n    tag_194:\n        /* \"#utility.yul\":7555:7580   */\n      swap3\n      pop\n        /* \"#utility.yul\":7615:7616   */\n      dup3\n        /* \"#utility.yul\":7612:7613   */\n      dup3\n        /* \"#utility.yul\":7608:7617   */\n      mul\n        /* \"#utility.yul\":7637:7667   */\n      tag_195\n        /* \"#utility.yul\":7655:7666   */\n      dup2\n        /* \"#utility.yul\":7637:7667   */\n      tag_96\n      jump\t// in\n    tag_195:\n        /* \"#utility.yul\":7626:7667   */\n      swap2\n      pop\n        /* \"#utility.yul\":7816:7817   */\n      dup3\n        /* \"#utility.yul\":7807:7814   */\n      dup3\n        /* \"#utility.yul\":7803:7818   */\n      div\n        /* \"#utility.yul\":7800:7801   */\n      dup5\n        /* \"#utility.yul\":7797:7819   */\n      eq\n        /* \"#utility.yul\":7777:7778   */\n      dup4\n        /* \"#utility.yul\":7770:7779   */\n      iszero\n        /* \"#utility.yul\":7750:7833   */\n      or\n        /* \"#utility.yul\":7727:7866   */\n      tag_196\n      jumpi\n        /* \"#utility.yul\":7846:7864   */\n      tag_197\n      tag_115\n      jump\t// in\n    tag_197:\n        /* \"#utility.yul\":7727:7866   */\n    tag_196:\n        /* \"#utility.yul\":7511:7873   */\n      pop\n        /* \"#utility.yul\":7463:7873   */\n      swap3\n      swap2\n      pop\n      pop\n      jump\t// out\n        /* \"#utility.yul\":7879:8059   */\n    tag_116:\n        /* \"#utility.yul\":7927:8004   */\n      0x4e487b7100000000000000000000000000000000000000000000000000000000\n        /* \"#utility.yul\":7924:7925   */\n      0x00\n        /* \"#utility.yul\":7917:8005   */\n      mstore\n        /* \"#utility.yul\":8024:8028   */\n      0x12\n        /* \"#utility.yul\":8021:8022   */\n      0x04\n        /* \"#utility.yul\":8014:8029   */\n      mstore\n        /* \"#utility.yul\":8048:8052   */\n      0x24\n        /* \"#utility.yul\":8045:8046   */\n      0x00\n        /* \"#utility.yul\":8038:8053   */\n      revert\n        /* \"#utility.yul\":8065:8250   */\n    tag_78:\n        /* \"#utility.yul\":8105:8106   */\n      0x00\n        /* \"#utility.yul\":8122:8142   */\n      tag_200\n        /* \"#utility.yul\":8140:8141   */\n      dup3\n        /* \"#utility.yul\":8122:8142   */\n      tag_96\n      jump\t// in\n    tag_200:\n        /* \"#utility.yul\":8117:8142   */\n      swap2\n      pop\n        /* \"#utility.yul\":8156:8176   */\n      tag_201\n        /* \"#utility.yul\":8174:8175   */\n      dup4\n        /* \"#utility.yul\":8156:8176   */\n      tag_96\n      jump\t// in\n    tag_201:\n        /* \"#utility.yul\":8151:8176   */\n      swap3\n      pop\n        /* \"#utility.yul\":8195:8196   */\n      dup3\n        /* \"#utility.yul\":8185:8220   */\n      tag_202\n      jumpi\n        /* \"#utility.yul\":8200:8218   */\n      tag_203\n      tag_116\n      jump\t// in\n    tag_203:\n        /* \"#utility.yul\":8185:8220   */\n    tag_202:\n        /* \"#utility.yul\":8242:8243   */\n      dup3\n        /* \"#utility.yul\":8239:8240   */\n      dup3\n        /* \"#utility.yul\":8235:8244   */\n      div\n        /* \"#utility.yul\":8230:8244   */\n      swap1\n      pop\n        /* \"#utility.yul\":8065:8250   */\n      swap3\n      swap2\n      pop\n      pop\n      jump\t// out\n        /* \"#utility.yul\":8256:8361   */\n    tag_117:\n        /* \"#utility.yul\":8292:8299   */\n      0x00\n        /* \"#utility.yul\":8332:8354   */\n      0xffffffffffffffffffff\n        /* \"#utility.yul\":8325:8330   */\n      dup3\n        /* \"#utility.yul\":8321:8355   */\n      and\n        /* \"#utility.yul\":8310:8355   */\n      swap1\n      pop\n        /* \"#utility.yul\":8256:8361   */\n      swap2\n      swap1\n      pop\n      jump\t// out\n        /* \"#utility.yul\":8367:8487   */\n    tag_118:\n        /* \"#utility.yul\":8439:8462   */\n      tag_206\n        /* \"#utility.yul\":8456:8461   */\n      dup2\n        /* \"#utility.yul\":8439:8462   */\n      tag_117\n      jump\t// in\n    tag_206:\n        /* \"#utility.yul\":8432:8437   */\n      dup2\n        /* \"#utility.yul\":8429:8463   */\n      eq\n        /* \"#utility.yul\":8419:8481   */\n      tag_207\n      jumpi\n        /* \"#utility.yul\":8477:8478   */\n      0x00\n        /* \"#utility.yul\":8474:8475   */\n      dup1\n        /* \"#utility.yul\":8467:8479   */\n      revert\n        /* \"#utility.yul\":8419:8481   */\n    tag_207:\n        /* \"#utility.yul\":8367:8487   */\n      pop\n      jump\t// out\n        /* \"#utility.yul\":8493:8634   */\n    tag_119:\n        /* \"#utility.yul\":8549:8554   */\n      0x00\n        /* \"#utility.yul\":8580:8586   */\n      dup2\n        /* \"#utility.yul\":8574:8587   */\n      mload\n        /* \"#utility.yul\":8565:8587   */\n      swap1\n      pop\n        /* \"#utility.yul\":8596:8628   */\n      tag_209\n        /* \"#utility.yul\":8622:8627   */\n      dup2\n        /* \"#utility.yul\":8596:8628   */\n      tag_118\n      jump\t// in\n    tag_209:\n        /* \"#utility.yul\":8493:8634   */\n      swap3\n      swap2\n      pop\n      pop\n      jump\t// out\n        /* \"#utility.yul\":8640:8716   */\n    tag_120:\n        /* \"#utility.yul\":8676:8683   */\n      0x00\n        /* \"#utility.yul\":8705:8710   */\n      dup2\n        /* \"#utility.yul\":8694:8710   */\n      swap1\n      pop\n        /* \"#utility.yul\":8640:8716   */\n      swap2\n      swap1\n      pop\n      jump\t// out\n        /* \"#utility.yul\":8722:8842   */\n    tag_121:\n        /* \"#utility.yul\":8794:8817   */\n      tag_212\n        /* \"#utility.yul\":8811:8816   */\n      dup2\n        /* \"#utility.yul\":8794:8817   */\n      tag_120\n      jump\t// in\n    tag_212:\n        /* \"#utility.yul\":8787:8792   */\n      dup2\n        /* \"#utility.yul\":8784:8818   */\n      eq\n        /* \"#utility.yul\":8774:8836   */\n      tag_213\n      jumpi\n        /* \"#utility.yul\":8832:8833   */\n      0x00\n        /* \"#utility.yul\":8829:8830   */\n      dup1\n        /* \"#utility.yul\":8822:8834   */\n      revert\n        /* \"#utility.yul\":8774:8836   */\n    tag_213:\n        /* \"#utility.yul\":8722:8842   */\n      pop\n      jump\t// out\n        /* \"#utility.yul\":8848:8989   */\n    tag_122:\n        /* \"#utility.yul\":8904:8909   */\n      0x00\n        /* \"#utility.yul\":8935:8941   */\n      dup2\n        /* \"#utility.yul\":8929:8942   */\n      mload\n        /* \"#utility.yul\":8920:8942   */\n      swap1\n      pop\n        /* \"#utility.yul\":8951:8983   */\n      tag_215\n        /* \"#utility.yul\":8977:8982   */\n      dup2\n        /* \"#utility.yul\":8951:8983   */\n      tag_121\n      jump\t// in\n    tag_215:\n        /* \"#utility.yul\":8848:8989   */\n      swap3\n      swap2\n      pop\n      pop\n      jump\t// out\n        /* \"#utility.yul\":8995:9138   */\n    tag_123:\n        /* \"#utility.yul\":9052:9057   */\n      0x00\n        /* \"#utility.yul\":9083:9089   */\n      dup2\n        /* \"#utility.yul\":9077:9090   */\n      mload\n        /* \"#utility.yul\":9068:9090   */\n      swap1\n      pop\n        /* \"#utility.yul\":9099:9132   */\n      tag_217\n        /* \"#utility.yul\":9126:9131   */\n      dup2\n        /* \"#utility.yul\":9099:9132   */\n      tag_97\n      jump\t// in\n    tag_217:\n        /* \"#utility.yul\":8995:9138   */\n      swap3\n      swap2\n      pop\n      pop\n      jump\t// out\n        /* \"#utility.yul\":9144:10115   */\n    tag_83:\n        /* \"#utility.yul\":9247:9253   */\n      0x00\n        /* \"#utility.yul\":9255:9261   */\n      dup1\n        /* \"#utility.yul\":9263:9269   */\n      0x00\n        /* \"#utility.yul\":9271:9277   */\n      dup1\n        /* \"#utility.yul\":9279:9285   */\n      0x00\n        /* \"#utility.yul\":9328:9331   */\n      0xa0\n        /* \"#utility.yul\":9316:9325   */\n      dup7\n        /* \"#utility.yul\":9307:9314   */\n      dup9\n        /* \"#utility.yul\":9303:9326   */\n      sub\n        /* \"#utility.yul\":9299:9332   */\n      slt\n        /* \"#utility.yul\":9296:9416   */\n      iszero\n      tag_219\n      jumpi\n        /* \"#utility.yul\":9335:9414   */\n      tag_220\n      tag_94\n      jump\t// in\n    tag_220:\n        /* \"#utility.yul\":9296:9416   */\n    tag_219:\n        /* \"#utility.yul\":9455:9456   */\n      0x00\n        /* \"#utility.yul\":9480:9543   */\n      tag_221\n        /* \"#utility.yul\":9535:9542   */\n      dup9\n        /* \"#utility.yul\":9526:9532   */\n      dup3\n        /* \"#utility.yul\":9515:9524   */\n      dup10\n        /* \"#utility.yul\":9511:9533   */\n      add\n        /* \"#utility.yul\":9480:9543   */\n      tag_119\n      jump\t// in\n    tag_221:\n        /* \"#utility.yul\":9470:9543   */\n      swap6\n      pop\n        /* \"#utility.yul\":9426:9553   */\n      pop\n        /* \"#utility.yul\":9592:9594   */\n      0x20\n        /* \"#utility.yul\":9618:9681   */\n      tag_222\n        /* \"#utility.yul\":9673:9680   */\n      dup9\n        /* \"#utility.yul\":9664:9670   */\n      dup3\n        /* \"#utility.yul\":9653:9662   */\n      dup10\n        /* \"#utility.yul\":9649:9671   */\n      add\n        /* \"#utility.yul\":9618:9681   */\n      tag_122\n      jump\t// in\n    tag_222:\n        /* \"#utility.yul\":9608:9681   */\n      swap5\n      pop\n        /* \"#utility.yul\":9563:9691   */\n      pop\n        /* \"#utility.yul\":9730:9732   */\n      0x40\n        /* \"#utility.yul\":9756:9820   */\n      tag_223\n        /* \"#utility.yul\":9812:9819   */\n      dup9\n        /* \"#utility.yul\":9803:9809   */\n      dup3\n        /* \"#utility.yul\":9792:9801   */\n      dup10\n        /* \"#utility.yul\":9788:9810   */\n      add\n        /* \"#utility.yul\":9756:9820   */\n      tag_123\n      jump\t// in\n    tag_223:\n        /* \"#utility.yul\":9746:9820   */\n      swap4\n      pop\n        /* \"#utility.yul\":9701:9830   */\n      pop\n        /* \"#utility.yul\":9869:9871   */\n      0x60\n        /* \"#utility.yul\":9895:9959   */\n      tag_224\n        /* \"#utility.yul\":9951:9958   */\n      dup9\n        /* \"#utility.yul\":9942:9948   */\n      dup3\n        /* \"#utility.yul\":9931:9940   */\n      dup10\n        /* \"#utility.yul\":9927:9949   */\n      add\n        /* \"#utility.yul\":9895:9959   */\n      tag_123\n      jump\t// in\n    tag_224:\n        /* \"#utility.yul\":9885:9959   */\n      swap3\n      pop\n        /* \"#utility.yul\":9840:9969   */\n      pop\n        /* \"#utility.yul\":10008:10011   */\n      0x80\n        /* \"#utility.yul\":10035:10098   */\n      tag_225\n        /* \"#utility.yul\":10090:10097   */\n      dup9\n        /* \"#utility.yul\":10081:10087   */\n      dup3\n        /* \"#utility.yul\":10070:10079   */\n      dup10\n        /* \"#utility.yul\":10066:10088   */\n      add\n        /* \"#utility.yul\":10035:10098   */\n      tag_119\n      jump\t// in\n    tag_225:\n        /* \"#utility.yul\":10025:10098   */\n      swap2\n      pop\n        /* \"#utility.yul\":9979:10108   */\n      pop\n        /* \"#utility.yul\":9144:10115   */\n      swap3\n      swap6\n      pop\n      swap3\n      swap6\n      swap1\n      swap4\n      pop\n      jump\t// out\n        /* \"#utility.yul\":10121:10677   */\n    tag_85:\n        /* \"#utility.yul\":10160:10167   */\n      0x00\n        /* \"#utility.yul\":10183:10202   */\n      tag_227\n        /* \"#utility.yul\":10200:10201   */\n      dup3\n        /* \"#utility.yul\":10183:10202   */\n      tag_120\n      jump\t// in\n    tag_227:\n        /* \"#utility.yul\":10178:10202   */\n      swap2\n      pop\n        /* \"#utility.yul\":10216:10235   */\n      tag_228\n        /* \"#utility.yul\":10233:10234   */\n      dup4\n        /* \"#utility.yul\":10216:10235   */\n      tag_120\n      jump\t// in\n    tag_228:\n        /* \"#utility.yul\":10211:10235   */\n      swap3\n      pop\n        /* \"#utility.yul\":10270:10271   */\n      dup3\n        /* \"#utility.yul\":10267:10268   */\n      dup3\n        /* \"#utility.yul\":10263:10272   */\n      mul\n        /* \"#utility.yul\":10292:10321   */\n      tag_229\n        /* \"#utility.yul\":10309:10320   */\n      dup2\n        /* \"#utility.yul\":10292:10321   */\n      tag_120\n      jump\t// in\n    tag_229:\n        /* \"#utility.yul\":10281:10321   */\n      swap2\n      pop\n        /* \"#utility.yul\":10379:10445   */\n      0x8000000000000000000000000000000000000000000000000000000000000000\n        /* \"#utility.yul\":10376:10377   */\n      dup5\n        /* \"#utility.yul\":10373:10446   */\n      eq\n        /* \"#utility.yul\":10369:10370   */\n      0x00\n        /* \"#utility.yul\":10366:10367   */\n      dup5\n        /* \"#utility.yul\":10362:10371   */\n      slt\n        /* \"#utility.yul\":10358:10447   */\n      and\n        /* \"#utility.yul\":10355:10470   */\n      iszero\n      tag_230\n      jumpi\n        /* \"#utility.yul\":10450:10468   */\n      tag_231\n      tag_115\n      jump\t// in\n    tag_231:\n        /* \"#utility.yul\":10355:10470   */\n    tag_230:\n        /* \"#utility.yul\":10620:10621   */\n      dup3\n        /* \"#utility.yul\":10611:10618   */\n      dup3\n        /* \"#utility.yul\":10606:10622   */\n      sdiv\n        /* \"#utility.yul\":10603:10604   */\n      dup5\n        /* \"#utility.yul\":10600:10623   */\n      eq\n        /* \"#utility.yul\":10580:10581   */\n      dup4\n        /* \"#utility.yul\":10573:10582   */\n      iszero\n        /* \"#utility.yul\":10553:10637   */\n      or\n        /* \"#utility.yul\":10530:10670   */\n      tag_232\n      jumpi\n        /* \"#utility.yul\":10650:10668   */\n      tag_233\n      tag_115\n      jump\t// in\n    tag_233:\n        /* \"#utility.yul\":10530:10670   */\n    tag_232:\n        /* \"#utility.yul\":10168:10677   */\n      pop\n        /* \"#utility.yul\":10121:10677   */\n      swap3\n      swap2\n      pop\n      pop\n      jump\t// out\n\n    auxdata: 0xa264697066735822122098196af546864323e2357cda432859a540b606cb0b64a70693da1397625e10c764736f6c63430008180033\n}\n",
				"bytecode": {
					"linkReferences": {},
					"object": "6080604052674563918244f400005f5534801561001a575f80fd5b503360035f6101000a81548173ffffffffffffffffffffffffffffffffffffffff021916908373ffffffffffffffffffffffffffffffffffffffff160217905550610c39806100685f395ff3fe608060405260043610610054575f3560e01c806332c35cdc146100585780633ccfd60b146100945780638da5cb5b146100aa578063a6878279146100d4578063b60d428814610110578063eb2aae5c1461011a575b5f80fd5b348015610063575f80fd5b5061007e600480360381019061007991906106af565b610144565b60405161008b9190610719565b60405180910390f35b34801561009f575f80fd5b506100a861017f565b005b3480156100b5575f80fd5b506100be6103b7565b6040516100cb9190610719565b60405180910390f35b3480156100df575f80fd5b506100fa60048036038101906100f5919061075c565b6103dc565b6040516101079190610796565b60405180910390f35b6101186103f1565b005b348015610125575f80fd5b5061012e6104f1565b60405161013b9190610796565b60405180910390f35b60018181548110610153575f80fd5b905f5260205f20015f915054906101000a900473ffffffffffffffffffffffffffffffffffffffff1681565b3373ffffffffffffffffffffffffffffffffffffffff1660035f9054906101000a900473ffffffffffffffffffffffffffffffffffffffff1673ffffffffffffffffffffffffffffffffffffffff161461020e576040517f08c379a000000000000000000000000000000000000000000000000000000000815260040161020590610809565b60405180910390fd5b5f5b6001805490508110156102ac575f6001828154811061023257610231610827565b5b905f5260205f20015f9054906101000a900473ffffffffffffffffffffffffffffffffffffffff1690505f60025f8373ffffffffffffffffffffffffffffffffffffffff1673ffffffffffffffffffffffffffffffffffffffff1681526020019081526020015f2081905550508080600101915050610210565b505f67ffffffffffffffff8111156102c7576102c6610854565b5b6040519080825280602002602001820160405280156102f55781602001602082028036833780820191505090505b506001908051906020019061030b9291906105d6565b505f3373ffffffffffffffffffffffffffffffffffffffff1647604051610331906108ae565b5f6040518083038185875af1925050503d805f811461036b576040519150601f19603f3d011682016040523d82523d5f602084013e610370565b606091505b50509050806103b4576040517f08c379a00000000000000000000000000000000000000000000000000000000081526004016103ab9061090c565b60405180910390fd5b50565b60035f9054906101000a900473ffffffffffffffffffffffffffffffffffffffff1681565b6002602052805f5260405f205f915090505481565b5f546103fc346104f6565b1161043c576040517f08c379a000000000000000000000000000000000000000000000000000000000815260040161043390610974565b60405180910390fd5b600133908060018154018082558091505060019003905f5260205f20015f9091909190916101000a81548173ffffffffffffffffffffffffffffffffffffffff021916908373ffffffffffffffffffffffffffffffffffffffff1602179055503460025f3373ffffffffffffffffffffffffffffffffffffffff1673ffffffffffffffffffffffffffffffffffffffff1681526020019081526020015f205f8282546104e891906109bf565b92505081905550565b5f5481565b5f8061050061052e565b90505f670de0b6b3a7640000828561051891906109f2565b6105229190610a60565b90508092505050919050565b5f8073694aa1769357215de4fac081bf1f309adc32530690505f8173ffffffffffffffffffffffffffffffffffffffff1663feaf968c6040518163ffffffff1660e01b815260040160a060405180830381865afa158015610591573d5f803e3d5ffd5b505050506040513d601f19601f820116820180604052508101906105b59190610b16565b505050915050670de0b6b3a7640000816105cf9190610b8d565b9250505090565b828054828255905f5260205f2090810192821561064c579160200282015b8281111561064b578251825f6101000a81548173ffffffffffffffffffffffffffffffffffffffff021916908373ffffffffffffffffffffffffffffffffffffffff160217905550916020019190600101906105f4565b5b509050610659919061065d565b5090565b5b80821115610674575f815f90555060010161065e565b5090565b5f80fd5b5f819050919050565b61068e8161067c565b8114610698575f80fd5b50565b5f813590506106a981610685565b92915050565b5f602082840312156106c4576106c3610678565b5b5f6106d18482850161069b565b91505092915050565b5f73ffffffffffffffffffffffffffffffffffffffff82169050919050565b5f610703826106da565b9050919050565b610713816106f9565b82525050565b5f60208201905061072c5f83018461070a565b92915050565b61073b816106f9565b8114610745575f80fd5b50565b5f8135905061075681610732565b92915050565b5f6020828403121561077157610770610678565b5b5f61077e84828501610748565b91505092915050565b6107908161067c565b82525050565b5f6020820190506107a95f830184610787565b92915050565b5f82825260208201905092915050565b7f4d757374206265206f776e6572000000000000000000000000000000000000005f82015250565b5f6107f3600d836107af565b91506107fe826107bf565b602082019050919050565b5f6020820190508181035f830152610820816107e7565b9050919050565b7f4e487b71000000000000000000000000000000000000000000000000000000005f52603260045260245ffd5b7f4e487b71000000000000000000000000000000000000000000000000000000005f52604160045260245ffd5b5f81905092915050565b50565b5f6108995f83610881565b91506108a48261088b565b5f82019050919050565b5f6108b88261088e565b9150819050919050565b7f53656e64696e67206661696c65640000000000000000000000000000000000005f82015250565b5f6108f6600e836107af565b9150610901826108c2565b602082019050919050565b5f6020820190508181035f830152610923816108ea565b9050919050565b7f455448206e6f7420656e6f7567680000000000000000000000000000000000005f82015250565b5f61095e600e836107af565b91506109698261092a565b602082019050919050565b5f6020820190508181035f83015261098b81610952565b9050919050565b7f4e487b71000000000000000000000000000000000000000000000000000000005f52601160045260245ffd5b5f6109c98261067c565b91506109d48361067c565b92508282019050808211156109ec576109eb610992565b5b92915050565b5f6109fc8261067c565b9150610a078361067c565b9250828202610a158161067c565b91508282048414831517610a2c57610a2b610992565b5b5092915050565b7f4e487b71000000000000000000000000000000000000000000000000000000005f52601260045260245ffd5b5f610a6a8261067c565b9150610a758361067c565b925082610a8557610a84610a33565b5b828204905092915050565b5f69ffffffffffffffffffff82169050919050565b610aae81610a90565b8114610ab8575f80fd5b50565b5f81519050610ac981610aa5565b92915050565b5f819050919050565b610ae181610acf565b8114610aeb575f80fd5b50565b5f81519050610afc81610ad8565b92915050565b5f81519050610b1081610685565b92915050565b5f805f805f60a08688031215610b2f57610b2e610678565b5b5f610b3c88828901610abb565b9550506020610b4d88828901610aee565b9450506040610b5e88828901610b02565b9350506060610b6f88828901610b02565b9250506080610b8088828901610abb565b9150509295509295909350565b5f610b9782610acf565b9150610ba283610acf565b9250828202610bb081610acf565b91507f800000000000000000000000000000000000000000000000000000000000000084145f84121615610be757610be6610992565b5b8282058414831517610bfc57610bfb610992565b5b509291505056fea264697066735822122098196af546864323e2357cda432859a540b606cb0b64a70693da1397625e10c764736f6c63430008180033",
					"opcodes": "PUSH1 0x80 PUSH1 0x40 MSTORE PUSH8 0x4563918244F40000 PUSH0 SSTORE CALLVALUE DUP1 ISZERO PUSH2 0x1A JUMPI PUSH0 DUP1 REVERT JUMPDEST POP CALLER PUSH1 0x3 PUSH0 PUSH2 0x100 EXP DUP2 SLOAD DUP2 PUSH20 0xFFFFFFFFFFFFFFFFFFFFFFFFFFFFFFFFFFFFFFFF MUL NOT AND SWAP1 DUP4 PUSH20 0xFFFFFFFFFFFFFFFFFFFFFFFFFFFFFFFFFFFFFFFF AND MUL OR SWAP1 SSTORE POP PUSH2 0xC39 DUP1 PUSH2 0x68 PUSH0 CODECOPY PUSH0 RETURN INVALID PUSH1 0x80 PUSH1 0x40 MSTORE PUSH1 0x4 CALLDATASIZE LT PUSH2 0x54 JUMPI PUSH0 CALLDATALOAD PUSH1 0xE0 SHR DUP1 PUSH4 0x32C35CDC EQ PUSH2 0x58 JUMPI DUP1 PUSH4 0x3CCFD60B EQ PUSH2 0x94 JUMPI DUP1 PUSH4 0x8DA5CB5B EQ PUSH2 0xAA JUMPI DUP1 PUSH4 0xA6878279 EQ PUSH2 0xD4 JUMPI DUP1 PUSH4 0xB60D4288 EQ PUSH2 0x110 JUMPI DUP1 PUSH4 0xEB2AAE5C EQ PUSH2 0x11A JUMPI JUMPDEST PUSH0 DUP1 REVERT JUMPDEST CALLVALUE DUP1 ISZERO PUSH2 0x63 JUMPI PUSH0 DUP1 REVERT JUMPDEST POP PUSH2 0x7E PUSH1 0x4 DUP1 CALLDATASIZE SUB DUP2 ADD SWAP1 PUSH2 0x79 SWAP2 SWAP1 PUSH2 0x6AF JUMP JUMPDEST PUSH2 0x144 JUMP JUMPDEST PUSH1 0x40 MLOAD PUSH2 0x8B SWAP2 SWAP1 PUSH2 0x719 JUMP JUMPDEST PUSH1 0x40 MLOAD DUP1 SWAP2 SUB SWAP1 RETURN JUMPDEST CALLVALUE DUP1 ISZERO PUSH2 0x9F JUMPI PUSH0 DUP1 REVERT JUMPDEST POP PUSH2 0xA8 PUSH2 0x17F JUMP JUMPDEST STOP JUMPDEST CALLVALUE DUP1 ISZERO PUSH2 0xB5 JUMPI PUSH0 DUP1 REVERT JUMPDEST POP PUSH2 0xBE PUSH2 0x3B7 JUMP JUMPDEST PUSH1 0x40 MLOAD PUSH2 0xCB SWAP2 SWAP1 PUSH2 0x719 JUMP JUMPDEST PUSH1 0x40 MLOAD DUP1 SWAP2 SUB SWAP1 RETURN JUMPDEST CALLVALUE DUP1 ISZERO PUSH2 0xDF JUMPI PUSH0 DUP1 REVERT JUMPDEST POP PUSH2 0xFA PUSH1 0x4 DUP1 CALLDATASIZE SUB DUP2 ADD SWAP1 PUSH2 0xF5 SWAP2 SWAP1 PUSH2 0x75C JUMP JUMPDEST PUSH2 0x3DC JUMP JUMPDEST PUSH1 0x40 MLOAD PUSH2 0x107 SWAP2 SWAP1 PUSH2 0x796 JUMP JUMPDEST PUSH1 0x40 MLOAD DUP1 SWAP2 SUB SWAP1 RETURN JUMPDEST PUSH2 0x118 PUSH2 0x3F1 JUMP JUMPDEST STOP JUMPDEST CALLVALUE DUP1 ISZERO PUSH2 0x125 JUMPI PUSH0 DUP1 REVERT JUMPDEST POP PUSH2 0x12E PUSH2 0x4F1 JUMP JUMPDEST PUSH1 0x40 MLOAD PUSH2 0x13B SWAP2 SWAP1 PUSH2 0x796 JUMP JUMPDEST PUSH1 0x40 MLOAD DUP1 SWAP2 SUB SWAP1 RETURN JUMPDEST PUSH1 0x1 DUP2 DUP2 SLOAD DUP2 LT PUSH2 0x153 JUMPI PUSH0 DUP1 REVERT JUMPDEST SWAP1 PUSH0 MSTORE PUSH1 0x20 PUSH0 KECCAK256 ADD PUSH0 SWAP2 POP SLOAD SWAP1 PUSH2 0x100 EXP SWAP1 DIV PUSH20 0xFFFFFFFFFFFFFFFFFFFFFFFFFFFFFFFFFFFFFFFF AND DUP2 JUMP JUMPDEST CALLER PUSH20 0xFFFFFFFFFFFFFFFFFFFFFFFFFFFFFFFFFFFFFFFF AND PUSH1 0x3 PUSH0 SWAP1 SLOAD SWAP1 PUSH2 0x100 EXP SWAP1 DIV PUSH20 0xFFFFFFFFFFFFFFFFFFFFFFFFFFFFFFFFFFFFFFFF AND PUSH20 0xFFFFFFFFFFFFFFFFFFFFFFFFFFFFFFFFFFFFFFFF AND EQ PUSH2 0x20E JUMPI PUSH1 0x40 MLOAD PUSH32 0x8C379A000000000000000000000000000000000000000000000000000000000 DUP2 MSTORE PUSH1 0x4 ADD PUSH2 0x205 SWAP1 PUSH2 0x809 JUMP JUMPDEST PUSH1 0x40 MLOAD DUP1 SWAP2 SUB SWAP1 REVERT JUMPDEST PUSH0 JUMPDEST PUSH1 0x1 DUP1 SLOAD SWAP1 POP DUP2 LT ISZERO PUSH2 0x2AC JUMPI PUSH0 PUSH1 0x1 DUP3 DUP2 SLOAD DUP2 LT PUSH2 0x232 JUMPI PUSH2 0x231 PUSH2 0x827 JUMP JUMPDEST JUMPDEST SWAP1 PUSH0 MSTORE PUSH1 0x20 PUSH0 KECCAK256 ADD PUSH0 SWAP1 SLOAD SWAP1 PUSH2 0x100 EXP SWAP1 DIV PUSH20 0xFFFFFFFFFFFFFFFFFFFFFFFFFFFFFFFFFFFFFFFF AND SWAP1 POP PUSH0 PUSH1 0x2 PUSH0 DUP4 PUSH20 0xFFFFFFFFFFFFFFFFFFFFFFFFFFFFFFFFFFFFFFFF AND PUSH20 0xFFFFFFFFFFFFFFFFFFFFFFFFFFFFFFFFFFFFFFFF AND DUP2 MSTORE PUSH1 0x20 ADD SWAP1 DUP2 MSTORE PUSH1 0x20 ADD PUSH0 KECCAK256 DUP2 SWAP1 SSTORE POP POP DUP1 DUP1 PUSH1 0x1 ADD SWAP2 POP POP PUSH2 0x210 JUMP JUMPDEST POP PUSH0 PUSH8 0xFFFFFFFFFFFFFFFF DUP2 GT ISZERO PUSH2 0x2C7 JUMPI PUSH2 0x2C6 PUSH2 0x854 JUMP JUMPDEST JUMPDEST PUSH1 0x40 MLOAD SWAP1 DUP1 DUP3 MSTORE DUP1 PUSH1 0x20 MUL PUSH1 0x20 ADD DUP3 ADD PUSH1 0x40 MSTORE DUP1 ISZERO PUSH2 0x2F5 JUMPI DUP2 PUSH1 0x20 ADD PUSH1 0x20 DUP3 MUL DUP1 CALLDATASIZE DUP4 CALLDATACOPY DUP1 DUP3 ADD SWAP2 POP POP SWAP1 POP JUMPDEST POP PUSH1 0x1 SWAP1 DUP1 MLOAD SWAP1 PUSH1 0x20 ADD SWAP1 PUSH2 0x30B SWAP3 SWAP2 SWAP1 PUSH2 0x5D6 JUMP JUMPDEST POP PUSH0 CALLER PUSH20 0xFFFFFFFFFFFFFFFFFFFFFFFFFFFFFFFFFFFFFFFF AND SELFBALANCE PUSH1 0x40 MLOAD PUSH2 0x331 SWAP1 PUSH2 0x8AE JUMP JUMPDEST PUSH0 PUSH1 0x40 MLOAD DUP1 DUP4 SUB DUP2 DUP6 DUP8 GAS CALL SWAP3 POP POP POP RETURNDATASIZE DUP1 PUSH0 DUP2 EQ PUSH2 0x36B JUMPI PUSH1 0x40 MLOAD SWAP2 POP PUSH1 0x1F NOT PUSH1 0x3F RETURNDATASIZE ADD AND DUP3 ADD PUSH1 0x40 MSTORE RETURNDATASIZE DUP3 MSTORE RETURNDATASIZE PUSH0 PUSH1 0x20 DUP5 ADD RETURNDATACOPY PUSH2 0x370 JUMP JUMPDEST PUSH1 0x60 SWAP2 POP JUMPDEST POP POP SWAP1 POP DUP1 PUSH2 0x3B4 JUMPI PUSH1 0x40 MLOAD PUSH32 0x8C379A000000000000000000000000000000000000000000000000000000000 DUP2 MSTORE PUSH1 0x4 ADD PUSH2 0x3AB SWAP1 PUSH2 0x90C JUMP JUMPDEST PUSH1 0x40 MLOAD DUP1 SWAP2 SUB SWAP1 REVERT JUMPDEST POP JUMP JUMPDEST PUSH1 0x3 PUSH0 SWAP1 SLOAD SWAP1 PUSH2 0x100 EXP SWAP1 DIV PUSH20 0xFFFFFFFFFFFFFFFFFFFFFFFFFFFFFFFFFFFFFFFF AND DUP2 JUMP JUMPDEST PUSH1 0x2 PUSH1 0x20 MSTORE DUP1 PUSH0 MSTORE PUSH1 0x40 PUSH0 KECCAK256 PUSH0 SWAP2 POP SWAP1 POP SLOAD DUP2 JUMP JUMPDEST PUSH0 SLOAD PUSH2 0x3FC CALLVALUE PUSH2 0x4F6 JUMP JUMPDEST GT PUSH2 0x43C JUMPI PUSH1 0x40 MLOAD PUSH32 0x8C379A000000000000000000000000000000000000000000000000000000000 DUP2 MSTORE PUSH1 0x4 ADD PUSH2 0x433 SWAP1 PUSH2 0x974 JUMP JUMPDEST PUSH1 0x40 MLOAD DUP1 SWAP2 SUB SWAP1 REVERT JUMPDEST PUSH1 0x1 CALLER SWAP1 DUP1 PUSH1 0x1 DUP2 SLOAD ADD DUP1 DUP3 SSTORE DUP1 SWAP2 POP POP PUSH1 0x1 SWAP1 SUB SWAP1 PUSH0 MSTORE PUSH1 0x20 PUSH0 KECCAK256 ADD PUSH0 SWAP1 SWAP2 SWAP1 SWAP2 SWAP1 SWAP2 PUSH2 0x100 EXP DUP2 SLOAD DUP2 PUSH20 0xFFFFFFFFFFFFFFFFFFFFFFFFFFFFFFFFFFFFFFFF MUL NOT AND SWAP1 DUP4 PUSH20 0xFFFFFFFFFFFFFFFFFFFFFFFFFFFFFFFFFFFFFFFF AND MUL OR SWAP1 SSTORE POP CALLVALUE PUSH1 0x2 PUSH0 CALLER PUSH20 0xFFFFFFFFFFFFFFFFFFFFFFFFFFFFFFFFFFFFFFFF AND PUSH20 0xFFFFFFFFFFFFFFFFFFFFFFFFFFFFFFFFFFFFFFFF AND DUP2 MSTORE PUSH1 0x20 ADD SWAP1 DUP2 MSTORE PUSH1 0x20 ADD PUSH0 KECCAK256 PUSH0 DUP3 DUP3 SLOAD PUSH2 0x4E8 SWAP2 SWAP1 PUSH2 0x9BF JUMP JUMPDEST SWAP3 POP POP DUP2 SWAP1 SSTORE POP JUMP JUMPDEST PUSH0 SLOAD DUP2 JUMP JUMPDEST PUSH0 DUP1 PUSH2 0x500 PUSH2 0x52E JUMP JUMPDEST SWAP1 POP PUSH0 PUSH8 0xDE0B6B3A7640000 DUP3 DUP6 PUSH2 0x518 SWAP2 SWAP1 PUSH2 0x9F2 JUMP JUMPDEST PUSH2 0x522 SWAP2 SWAP1 PUSH2 0xA60 JUMP JUMPDEST SWAP1 POP DUP1 SWAP3 POP POP POP SWAP2 SWAP1 POP JUMP JUMPDEST PUSH0 DUP1 PUSH20 0x694AA1769357215DE4FAC081BF1F309ADC325306 SWAP1 POP PUSH0 DUP2 PUSH20 0xFFFFFFFFFFFFFFFFFFFFFFFFFFFFFFFFFFFFFFFF AND PUSH4 0xFEAF968C PUSH1 0x40 MLOAD DUP2 PUSH4 0xFFFFFFFF AND PUSH1 0xE0 SHL DUP2 MSTORE PUSH1 0x4 ADD PUSH1 0xA0 PUSH1 0x40 MLOAD DUP1 DUP4 SUB DUP2 DUP7 GAS STATICCALL ISZERO DUP1 ISZERO PUSH2 0x591 JUMPI RETURNDATASIZE PUSH0 DUP1 RETURNDATACOPY RETURNDATASIZE PUSH0 REVERT JUMPDEST POP POP POP POP PUSH1 0x40 MLOAD RETURNDATASIZE PUSH1 0x1F NOT PUSH1 0x1F DUP3 ADD AND DUP3 ADD DUP1 PUSH1 0x40 MSTORE POP DUP2 ADD SWAP1 PUSH2 0x5B5 SWAP2 SWAP1 PUSH2 0xB16 JUMP JUMPDEST POP POP POP SWAP2 POP POP PUSH8 0xDE0B6B3A7640000 DUP2 PUSH2 0x5CF SWAP2 SWAP1 PUSH2 0xB8D JUMP JUMPDEST SWAP3 POP POP POP SWAP1 JUMP JUMPDEST DUP3 DUP1 SLOAD DUP3 DUP3 SSTORE SWAP1 PUSH0 MSTORE PUSH1 0x20 PUSH0 KECCAK256 SWAP1 DUP2 ADD SWAP3 DUP3 ISZERO PUSH2 0x64C JUMPI SWAP2 PUSH1 0x20 MUL DUP3 ADD JUMPDEST DUP3 DUP2 GT ISZERO PUSH2 0x64B JUMPI DUP3 MLOAD DUP3 PUSH0 PUSH2 0x100 EXP DUP2 SLOAD DUP2 PUSH20 0xFFFFFFFFFFFFFFFFFFFFFFFFFFFFFFFFFFFFFFFF MUL NOT AND SWAP1 DUP4 PUSH20 0xFFFFFFFFFFFFFFFFFFFFFFFFFFFFFFFFFFFFFFFF AND MUL OR SWAP1 SSTORE POP SWAP2 PUSH1 0x20 ADD SWAP2 SWAP1 PUSH1 0x1 ADD SWAP1 PUSH2 0x5F4 JUMP JUMPDEST JUMPDEST POP SWAP1 POP PUSH2 0x659 SWAP2 SWAP1 PUSH2 0x65D JUMP JUMPDEST POP SWAP1 JUMP JUMPDEST JUMPDEST DUP1 DUP3 GT ISZERO PUSH2 0x674 JUMPI PUSH0 DUP2 PUSH0 SWAP1 SSTORE POP PUSH1 0x1 ADD PUSH2 0x65E JUMP JUMPDEST POP SWAP1 JUMP JUMPDEST PUSH0 DUP1 REVERT JUMPDEST PUSH0 DUP2 SWAP1 POP SWAP2 SWAP1 POP JUMP JUMPDEST PUSH2 0x68E DUP2 PUSH2 0x67C JUMP JUMPDEST DUP2 EQ PUSH2 0x698 JUMPI PUSH0 DUP1 REVERT JUMPDEST POP JUMP JUMPDEST PUSH0 DUP2 CALLDATALOAD SWAP1 POP PUSH2 0x6A9 DUP2 PUSH2 0x685 JUMP JUMPDEST SWAP3 SWAP2 POP POP JUMP JUMPDEST PUSH0 PUSH1 0x20 DUP3 DUP5 SUB SLT ISZERO PUSH2 0x6C4 JUMPI PUSH2 0x6C3 PUSH2 0x678 JUMP JUMPDEST JUMPDEST PUSH0 PUSH2 0x6D1 DUP5 DUP3 DUP6 ADD PUSH2 0x69B JUMP JUMPDEST SWAP2 POP POP SWAP3 SWAP2 POP POP JUMP JUMPDEST PUSH0 PUSH20 0xFFFFFFFFFFFFFFFFFFFFFFFFFFFFFFFFFFFFFFFF DUP3 AND SWAP1 POP SWAP2 SWAP1 POP JUMP JUMPDEST PUSH0 PUSH2 0x703 DUP3 PUSH2 0x6DA JUMP JUMPDEST SWAP1 POP SWAP2 SWAP1 POP JUMP JUMPDEST PUSH2 0x713 DUP2 PUSH2 0x6F9 JUMP JUMPDEST DUP3 MSTORE POP POP JUMP JUMPDEST PUSH0 PUSH1 0x20 DUP3 ADD SWAP1 POP PUSH2 0x72C PUSH0 DUP4 ADD DUP5 PUSH2 0x70A JUMP JUMPDEST SWAP3 SWAP2 POP POP JUMP JUMPDEST PUSH2 0x73B DUP2 PUSH2 0x6F9 JUMP JUMPDEST DUP2 EQ PUSH2 0x745 JUMPI PUSH0 DUP1 REVERT JUMPDEST POP JUMP JUMPDEST PUSH0 DUP2 CALLDATALOAD SWAP1 POP PUSH2 0x756 DUP2 PUSH2 0x732 JUMP JUMPDEST SWAP3 SWAP2 POP POP JUMP JUMPDEST PUSH0 PUSH1 0x20 DUP3 DUP5 SUB SLT ISZERO PUSH2 0x771 JUMPI PUSH2 0x770 PUSH2 0x678 JUMP JUMPDEST JUMPDEST PUSH0 PUSH2 0x77E DUP5 DUP3 DUP6 ADD PUSH2 0x748 JUMP JUMPDEST SWAP2 POP POP SWAP3 SWAP2 POP POP JUMP JUMPDEST PUSH2 0x790 DUP2 PUSH2 0x67C JUMP JUMPDEST DUP3 MSTORE POP POP JUMP JUMPDEST PUSH0 PUSH1 0x20 DUP3 ADD SWAP1 POP PUSH2 0x7A9 PUSH0 DUP4 ADD DUP5 PUSH2 0x787 JUMP JUMPDEST SWAP3 SWAP2 POP POP JUMP JUMPDEST PUSH0 DUP3 DUP3 MSTORE PUSH1 0x20 DUP3 ADD SWAP1 POP SWAP3 SWAP2 POP POP JUMP JUMPDEST PUSH32 0x4D757374206265206F776E657200000000000000000000000000000000000000 PUSH0 DUP3 ADD MSTORE POP JUMP JUMPDEST PUSH0 PUSH2 0x7F3 PUSH1 0xD DUP4 PUSH2 0x7AF JUMP JUMPDEST SWAP2 POP PUSH2 0x7FE DUP3 PUSH2 0x7BF JUMP JUMPDEST PUSH1 0x20 DUP3 ADD SWAP1 POP SWAP2 SWAP1 POP JUMP JUMPDEST PUSH0 PUSH1 0x20 DUP3 ADD SWAP1 POP DUP2 DUP2 SUB PUSH0 DUP4 ADD MSTORE PUSH2 0x820 DUP2 PUSH2 0x7E7 JUMP JUMPDEST SWAP1 POP SWAP2 SWAP1 POP JUMP JUMPDEST PUSH32 0x4E487B7100000000000000000000000000000000000000000000000000000000 PUSH0 MSTORE PUSH1 0x32 PUSH1 0x4 MSTORE PUSH1 0x24 PUSH0 REVERT JUMPDEST PUSH32 0x4E487B7100000000000000000000000000000000000000000000000000000000 PUSH0 MSTORE PUSH1 0x41 PUSH1 0x4 MSTORE PUSH1 0x24 PUSH0 REVERT JUMPDEST PUSH0 DUP2 SWAP1 POP SWAP3 SWAP2 POP POP JUMP JUMPDEST POP JUMP JUMPDEST PUSH0 PUSH2 0x899 PUSH0 DUP4 PUSH2 0x881 JUMP JUMPDEST SWAP2 POP PUSH2 0x8A4 DUP3 PUSH2 0x88B JUMP JUMPDEST PUSH0 DUP3 ADD SWAP1 POP SWAP2 SWAP1 POP JUMP JUMPDEST PUSH0 PUSH2 0x8B8 DUP3 PUSH2 0x88E JUMP JUMPDEST SWAP2 POP DUP2 SWAP1 POP SWAP2 SWAP1 POP JUMP JUMPDEST PUSH32 0x53656E64696E67206661696C6564000000000000000000000000000000000000 PUSH0 DUP3 ADD MSTORE POP JUMP JUMPDEST PUSH0 PUSH2 0x8F6 PUSH1 0xE DUP4 PUSH2 0x7AF JUMP JUMPDEST SWAP2 POP PUSH2 0x901 DUP3 PUSH2 0x8C2 JUMP JUMPDEST PUSH1 0x20 DUP3 ADD SWAP1 POP SWAP2 SWAP1 POP JUMP JUMPDEST PUSH0 PUSH1 0x20 DUP3 ADD SWAP1 POP DUP2 DUP2 SUB PUSH0 DUP4 ADD MSTORE PUSH2 0x923 DUP2 PUSH2 0x8EA JUMP JUMPDEST SWAP1 POP SWAP2 SWAP1 POP JUMP JUMPDEST PUSH32 0x455448206E6F7420656E6F756768000000000000000000000000000000000000 PUSH0 DUP3 ADD MSTORE POP JUMP JUMPDEST PUSH0 PUSH2 0x95E PUSH1 0xE DUP4 PUSH2 0x7AF JUMP JUMPDEST SWAP2 POP PUSH2 0x969 DUP3 PUSH2 0x92A JUMP JUMPDEST PUSH1 0x20 DUP3 ADD SWAP1 POP SWAP2 SWAP1 POP JUMP JUMPDEST PUSH0 PUSH1 0x20 DUP3 ADD SWAP1 POP DUP2 DUP2 SUB PUSH0 DUP4 ADD MSTORE PUSH2 0x98B DUP2 PUSH2 0x952 JUMP JUMPDEST SWAP1 POP SWAP2 SWAP1 POP JUMP JUMPDEST PUSH32 0x4E487B7100000000000000000000000000000000000000000000000000000000 PUSH0 MSTORE PUSH1 0x11 PUSH1 0x4 MSTORE PUSH1 0x24 PUSH0 REVERT JUMPDEST PUSH0 PUSH2 0x9C9 DUP3 PUSH2 0x67C JUMP JUMPDEST SWAP2 POP PUSH2 0x9D4 DUP4 PUSH2 0x67C JUMP JUMPDEST SWAP3 POP DUP3 DUP3 ADD SWAP1 POP DUP1 DUP3 GT ISZERO PUSH2 0x9EC JUMPI PUSH2 0x9EB PUSH2 0x992 JUMP JUMPDEST JUMPDEST SWAP3 SWAP2 POP POP JUMP JUMPDEST PUSH0 PUSH2 0x9FC DUP3 PUSH2 0x67C JUMP JUMPDEST SWAP2 POP PUSH2 0xA07 DUP4 PUSH2 0x67C JUMP JUMPDEST SWAP3 POP DUP3 DUP3 MUL PUSH2 0xA15 DUP2 PUSH2 0x67C JUMP JUMPDEST SWAP2 POP DUP3 DUP3 DIV DUP5 EQ DUP4 ISZERO OR PUSH2 0xA2C JUMPI PUSH2 0xA2B PUSH2 0x992 JUMP JUMPDEST JUMPDEST POP SWAP3 SWAP2 POP POP JUMP JUMPDEST PUSH32 0x4E487B7100000000000000000000000000000000000000000000000000000000 PUSH0 MSTORE PUSH1 0x12 PUSH1 0x4 MSTORE PUSH1 0x24 PUSH0 REVERT JUMPDEST PUSH0 PUSH2 0xA6A DUP3 PUSH2 0x67C JUMP JUMPDEST SWAP2 POP PUSH2 0xA75 DUP4 PUSH2 0x67C JUMP JUMPDEST SWAP3 POP DUP3 PUSH2 0xA85 JUMPI PUSH2 0xA84 PUSH2 0xA33 JUMP JUMPDEST JUMPDEST DUP3 DUP3 DIV SWAP1 POP SWAP3 SWAP2 POP POP JUMP JUMPDEST PUSH0 PUSH10 0xFFFFFFFFFFFFFFFFFFFF DUP3 AND SWAP1 POP SWAP2 SWAP1 POP JUMP JUMPDEST PUSH2 0xAAE DUP2 PUSH2 0xA90 JUMP JUMPDEST DUP2 EQ PUSH2 0xAB8 JUMPI PUSH0 DUP1 REVERT JUMPDEST POP JUMP JUMPDEST PUSH0 DUP2 MLOAD SWAP1 POP PUSH2 0xAC9 DUP2 PUSH2 0xAA5 JUMP JUMPDEST SWAP3 SWAP2 POP POP JUMP JUMPDEST PUSH0 DUP2 SWAP1 POP SWAP2 SWAP1 POP JUMP JUMPDEST PUSH2 0xAE1 DUP2 PUSH2 0xACF JUMP JUMPDEST DUP2 EQ PUSH2 0xAEB JUMPI PUSH0 DUP1 REVERT JUMPDEST POP JUMP JUMPDEST PUSH0 DUP2 MLOAD SWAP1 POP PUSH2 0xAFC DUP2 PUSH2 0xAD8 JUMP JUMPDEST SWAP3 SWAP2 POP POP JUMP JUMPDEST PUSH0 DUP2 MLOAD SWAP1 POP PUSH2 0xB10 DUP2 PUSH2 0x685 JUMP JUMPDEST SWAP3 SWAP2 POP POP JUMP JUMPDEST PUSH0 DUP1 PUSH0 DUP1 PUSH0 PUSH1 0xA0 DUP7 DUP9 SUB SLT ISZERO PUSH2 0xB2F JUMPI PUSH2 0xB2E PUSH2 0x678 JUMP JUMPDEST JUMPDEST PUSH0 PUSH2 0xB3C DUP9 DUP3 DUP10 ADD PUSH2 0xABB JUMP JUMPDEST SWAP6 POP POP PUSH1 0x20 PUSH2 0xB4D DUP9 DUP3 DUP10 ADD PUSH2 0xAEE JUMP JUMPDEST SWAP5 POP POP PUSH1 0x40 PUSH2 0xB5E DUP9 DUP3 DUP10 ADD PUSH2 0xB02 JUMP JUMPDEST SWAP4 POP POP PUSH1 0x60 PUSH2 0xB6F DUP9 DUP3 DUP10 ADD PUSH2 0xB02 JUMP JUMPDEST SWAP3 POP POP PUSH1 0x80 PUSH2 0xB80 DUP9 DUP3 DUP10 ADD PUSH2 0xABB JUMP JUMPDEST SWAP2 POP POP SWAP3 SWAP6 POP SWAP3 SWAP6 SWAP1 SWAP4 POP JUMP JUMPDEST PUSH0 PUSH2 0xB97 DUP3 PUSH2 0xACF JUMP JUMPDEST SWAP2 POP PUSH2 0xBA2 DUP4 PUSH2 0xACF JUMP JUMPDEST SWAP3 POP DUP3 DUP3 MUL PUSH2 0xBB0 DUP2 PUSH2 0xACF JUMP JUMPDEST SWAP2 POP PUSH32 0x8000000000000000000000000000000000000000000000000000000000000000 DUP5 EQ PUSH0 DUP5 SLT AND ISZERO PUSH2 0xBE7 JUMPI PUSH2 0xBE6 PUSH2 0x992 JUMP JUMPDEST JUMPDEST DUP3 DUP3 SDIV DUP5 EQ DUP4 ISZERO OR PUSH2 0xBFC JUMPI PUSH2 0xBFB PUSH2 0x992 JUMP JUMPDEST JUMPDEST POP SWAP3 SWAP2 POP POP JUMP INVALID LOG2 PUSH5 0x6970667358 0x22 SLT KECCAK256 SWAP9 NOT PUSH11 0xF546864323E2357CDA4328 MSIZE 0xA5 BLOCKHASH 0xB6 MOD 0xCB SIGNEXTEND PUSH5 0xA70693DA13 SWAP8 PUSH3 0x5E10C7 PUSH5 0x736F6C6343 STOP ADDMOD XOR STOP CALLER "
				},
				"gasEstimates": {
					"creation": {
						"codeDepositCost": "625800",
						"executionCost": "47025",
						"totalCost": "672825"
					},
					"external": {
						"address_to_amount(address)": "2846",
						"fund()": "infinite",
						"min_USD()": "2512",
						"owner()": "2530",
						"sender_Adresses(uint256)": "4922",
						"withdraw()": "infinite"
					}
				},
				"methodIdentifiers": {
					"address_to_amount(address)": "a6878279",
					"fund()": "b60d4288",
					"min_USD()": "eb2aae5c",
					"owner()": "8da5cb5b",
					"sender_Adresses(uint256)": "32c35cdc",
					"withdraw()": "3ccfd60b"
				}
			},
			"storageLayout": {
				"storage": [
					{
						"astId": 112,
						"contract": "fund_me/A8.sol:FundMeA8",
						"label": "min_USD",
						"offset": 0,
						"slot": "0",
						"type": "t_uint256"
					},
					{
						"astId": 115,
						"contract": "fund_me/A8.sol:FundMeA8",
						"label": "sender_Adresses",
						"offset": 0,
						"slot": "1",
						"type": "t_array(t_address)dyn_storage"
					},
					{
						"astId": 119,
						"contract": "fund_me/A8.sol:FundMeA8",
						"label": "address_to_amount",
						"offset": 0,
						"slot": "2",
						"type": "t_mapping(t_address,t_uint256)"
					},
					{
						"astId": 121,
						"contract": "fund_me/A8.sol:FundMeA8",
						"label": "owner",
						"offset": 0,
						"slot": "3",
						"type": "t_address"
					}
				],
				"types": {
					"t_address": {
						"encoding": "inplace",
						"label": "address",
						"numberOfBytes": "20"
					},
					"t_array(t_address)dyn_storage": {
						"base": "t_address",
						"encoding": "dynamic_array",
						"label": "address[]",
						"numberOfBytes": "32"
					},
					"t_mapping(t_address,t_uint256)": {
						"encoding": "mapping",
						"key": "t_address",
						"label": "mapping(address => uint256)",
						"numberOfBytes": "32",
						"value": "t_uint256"
					},
					"t_uint256": {
						"encoding": "inplace",
						"label": "uint256",
						"numberOfBytes": "32"
					}
				}
			},
			"userdoc": {
				"kind": "user",
				"methods": {},
				"version": 1
			}
		}
	}
}