{
	"fund_me/A2.sol": {
		"FundMeA2": {
			"abi": [
				{
					"inputs": [],
					"name": "fund",
					"outputs": [],
					"stateMutability": "payable",
					"type": "function"
				},
				{
					"inputs": [
						{
							"internalType": "uint256",
							"name": "ETH_amount",
							"type": "uint256"
						}
					],
					"name": "getConvertion",
					"outputs": [
						{
							"internalType": "uint256",
							"name": "",
							"type": "uint256"
						}
					],
					"stateMutability": "view",
					"type": "function"
				},
				{
					"inputs": [],
					"name": "getPrice",
					"outputs": [
						{
							"internalType": "uint256",
							"name": "",
							"type": "uint256"
						}
					],
					"stateMutability": "view",
					"type": "function"
				},
				{
					"inputs": [],
					"name": "min_USD",
					"outputs": [
						{
							"internalType": "uint256",
							"name": "",
							"type": "uint256"
						}
					],
					"stateMutability": "view",
					"type": "function"
				}
			],
			"devdoc": {
				"kind": "dev",
				"methods": {},
				"version": 1
			},
			"evm": {
				"assembly": "    /* \"fund_me/A2.sol\":168:870  contract FundMeA2{... */\n  mstore(0x40, 0x80)\n    /* \"fund_me/A2.sol\":217:225  5 * 1e18 */\n  0x4563918244f40000\n    /* \"fund_me/A2.sol\":192:225  uint256 public min_USD = 5 * 1e18 */\n  0x00\n  sstore\n    /* \"fund_me/A2.sol\":168:870  contract FundMeA2{... */\n  callvalue\n  dup1\n  iszero\n  tag_1\n  jumpi\n  0x00\n  dup1\n  revert\ntag_1:\n  pop\n  dataSize(sub_0)\n  dup1\n  dataOffset(sub_0)\n  0x00\n  codecopy\n  0x00\n  return\nstop\n\nsub_0: assembly {\n        /* \"fund_me/A2.sol\":168:870  contract FundMeA2{... */\n      mstore(0x40, 0x80)\n      jumpi(tag_1, lt(calldatasize, 0x04))\n      shr(0xe0, calldataload(0x00))\n      dup1\n      0x98d5fdca\n      eq\n      tag_2\n      jumpi\n      dup1\n      0xb60d4288\n      eq\n      tag_3\n      jumpi\n      dup1\n      0xeb2aae5c\n      eq\n      tag_4\n      jumpi\n      dup1\n      0xf8b6f778\n      eq\n      tag_5\n      jumpi\n    tag_1:\n      0x00\n      dup1\n      revert\n        /* \"fund_me/A2.sol\":374:640  function getPrice() public view returns(uint256){... */\n    tag_2:\n      callvalue\n      dup1\n      iszero\n      tag_6\n      jumpi\n      0x00\n      dup1\n      revert\n    tag_6:\n      pop\n      tag_7\n      tag_8\n      jump\t// in\n    tag_7:\n      mload(0x40)\n      tag_9\n      swap2\n      swap1\n      tag_10\n      jump\t// in\n    tag_9:\n      mload(0x40)\n      dup1\n      swap2\n      sub\n      swap1\n      return\n        /* \"fund_me/A2.sol\":234:329  function fund() public payable{... */\n    tag_3:\n      tag_11\n      tag_12\n      jump\t// in\n    tag_11:\n      stop\n        /* \"fund_me/A2.sol\":192:225  uint256 public min_USD = 5 * 1e18 */\n    tag_4:\n      callvalue\n      dup1\n      iszero\n      tag_13\n      jumpi\n      0x00\n      dup1\n      revert\n    tag_13:\n      pop\n      tag_14\n      tag_15\n      jump\t// in\n    tag_14:\n      mload(0x40)\n      tag_16\n      swap2\n      swap1\n      tag_10\n      jump\t// in\n    tag_16:\n      mload(0x40)\n      dup1\n      swap2\n      sub\n      swap1\n      return\n        /* \"fund_me/A2.sol\":648:865  function getConvertion(uint256 ETH_amount) public view returns(uint256){... */\n    tag_5:\n      callvalue\n      dup1\n      iszero\n      tag_17\n      jumpi\n      0x00\n      dup1\n      revert\n    tag_17:\n      pop\n      tag_18\n      0x04\n      dup1\n      calldatasize\n      sub\n      dup2\n      add\n      swap1\n      tag_19\n      swap2\n      swap1\n      tag_20\n      jump\t// in\n    tag_19:\n      tag_21\n      jump\t// in\n    tag_18:\n      mload(0x40)\n      tag_22\n      swap2\n      swap1\n      tag_10\n      jump\t// in\n    tag_22:\n      mload(0x40)\n      dup1\n      swap2\n      sub\n      swap1\n      return\n        /* \"fund_me/A2.sol\":374:640  function getPrice() public view returns(uint256){... */\n    tag_8:\n        /* \"fund_me/A2.sol\":414:421  uint256 */\n      0x00\n        /* \"fund_me/A2.sol\":433:465  AggregatorV3Interface price_feed */\n      dup1\n        /* \"fund_me/A2.sol\":490:532  0x694AA1769357215DE4FAC081bf1f309aDC325306 */\n      0x694aa1769357215de4fac081bf1f309adc325306\n        /* \"fund_me/A2.sol\":433:533  AggregatorV3Interface price_feed = AggregatorV3Interface(0x694AA1769357215DE4FAC081bf1f309aDC325306) */\n      swap1\n      pop\n        /* \"fund_me/A2.sol\":546:558  int256 price */\n      0x00\n        /* \"fund_me/A2.sol\":565:575  price_feed */\n      dup2\n        /* \"fund_me/A2.sol\":565:591  price_feed.latestRoundData */\n      0xffffffffffffffffffffffffffffffffffffffff\n      and\n      0xfeaf968c\n        /* \"fund_me/A2.sol\":565:593  price_feed.latestRoundData() */\n      mload(0x40)\n      dup2\n      0xffffffff\n      and\n      0xe0\n      shl\n      dup2\n      mstore\n      0x04\n      add\n      0xa0\n      mload(0x40)\n      dup1\n      dup4\n      sub\n      dup2\n      dup7\n      gas\n      staticcall\n      iszero\n      dup1\n      iszero\n      tag_25\n      jumpi\n      returndatasize\n      0x00\n      dup1\n      returndatacopy\n      revert(0x00, returndatasize)\n    tag_25:\n      pop\n      pop\n      pop\n      pop\n      mload(0x40)\n      returndatasize\n      not(0x1f)\n      0x1f\n      dup3\n      add\n      and\n      dup3\n      add\n      dup1\n      0x40\n      mstore\n      pop\n      dup2\n      add\n      swap1\n      tag_26\n      swap2\n      swap1\n      tag_27\n      jump\t// in\n    tag_26:\n        /* \"fund_me/A2.sol\":544:593  (,int256 price,,,) = price_feed.latestRoundData() */\n      pop\n      pop\n      pop\n      swap2\n      pop\n      pop\n        /* \"fund_me/A2.sol\":627:631  1e18 */\n      0x0de0b6b3a7640000\n        /* \"fund_me/A2.sol\":619:624  price */\n      dup2\n        /* \"fund_me/A2.sol\":619:631  price * 1e18 */\n      tag_28\n      swap2\n      swap1\n      tag_29\n      jump\t// in\n    tag_28:\n        /* \"fund_me/A2.sol\":604:632  return uint256(price * 1e18) */\n      swap3\n      pop\n      pop\n      pop\n        /* \"fund_me/A2.sol\":374:640  function getPrice() public view returns(uint256){... */\n      swap1\n      jump\t// out\n        /* \"fund_me/A2.sol\":234:329  function fund() public payable{... */\n    tag_12:\n        /* \"fund_me/A2.sol\":295:302  min_USD */\n      sload(0x00)\n        /* \"fund_me/A2.sol\":283:292  msg.value */\n      callvalue\n        /* \"fund_me/A2.sol\":283:302  msg.value > min_USD */\n      gt\n        /* \"fund_me/A2.sol\":275:321  require(msg.value > min_USD, \"ETH not enough\") */\n      tag_31\n      jumpi\n      mload(0x40)\n      0x08c379a000000000000000000000000000000000000000000000000000000000\n      dup2\n      mstore\n      0x04\n      add\n      tag_32\n      swap1\n      tag_33\n      jump\t// in\n    tag_32:\n      mload(0x40)\n      dup1\n      swap2\n      sub\n      swap1\n      revert\n    tag_31:\n        /* \"fund_me/A2.sol\":234:329  function fund() public payable{... */\n      jump\t// out\n        /* \"fund_me/A2.sol\":192:225  uint256 public min_USD = 5 * 1e18 */\n    tag_15:\n      sload(0x00)\n      dup2\n      jump\t// out\n        /* \"fund_me/A2.sol\":648:865  function getConvertion(uint256 ETH_amount) public view returns(uint256){... */\n    tag_21:\n        /* \"fund_me/A2.sol\":711:718  uint256 */\n      0x00\n        /* \"fund_me/A2.sol\":730:747  uint256 ETH_price */\n      dup1\n        /* \"fund_me/A2.sol\":750:760  getPrice() */\n      tag_35\n        /* \"fund_me/A2.sol\":750:758  getPrice */\n      tag_8\n        /* \"fund_me/A2.sol\":750:760  getPrice() */\n      jump\t// in\n    tag_35:\n        /* \"fund_me/A2.sol\":730:760  uint256 ETH_price = getPrice() */\n      swap1\n      pop\n        /* \"fund_me/A2.sol\":771:792  uint256 amount_in_USD */\n      0x00\n        /* \"fund_me/A2.sol\":822:826  1e18 */\n      0x0de0b6b3a7640000\n        /* \"fund_me/A2.sol\":809:818  ETH_price */\n      dup3\n        /* \"fund_me/A2.sol\":796:806  ETH_amount */\n      dup6\n        /* \"fund_me/A2.sol\":796:818  ETH_amount * ETH_price */\n      tag_36\n      swap2\n      swap1\n      tag_37\n      jump\t// in\n    tag_36:\n        /* \"fund_me/A2.sol\":795:826  (ETH_amount * ETH_price) / 1e18 */\n      tag_38\n      swap2\n      swap1\n      tag_39\n      jump\t// in\n    tag_38:\n        /* \"fund_me/A2.sol\":771:826  uint256 amount_in_USD = (ETH_amount * ETH_price) / 1e18 */\n      swap1\n      pop\n        /* \"fund_me/A2.sol\":844:857  amount_in_USD */\n      dup1\n        /* \"fund_me/A2.sol\":837:857  return amount_in_USD */\n      swap3\n      pop\n      pop\n      pop\n        /* \"fund_me/A2.sol\":648:865  function getConvertion(uint256 ETH_amount) public view returns(uint256){... */\n      swap2\n      swap1\n      pop\n      jump\t// out\n        /* \"#utility.yul\":7:84   */\n    tag_40:\n        /* \"#utility.yul\":44:51   */\n      0x00\n        /* \"#utility.yul\":73:78   */\n      dup2\n        /* \"#utility.yul\":62:78   */\n      swap1\n      pop\n        /* \"#utility.yul\":7:84   */\n      swap2\n      swap1\n      pop\n      jump\t// out\n        /* \"#utility.yul\":90:208   */\n    tag_41:\n        /* \"#utility.yul\":177:201   */\n      tag_62\n        /* \"#utility.yul\":195:200   */\n      dup2\n        /* \"#utility.yul\":177:201   */\n      tag_40\n      jump\t// in\n    tag_62:\n        /* \"#utility.yul\":172:175   */\n      dup3\n        /* \"#utility.yul\":165:202   */\n      mstore\n        /* \"#utility.yul\":90:208   */\n      pop\n      pop\n      jump\t// out\n        /* \"#utility.yul\":214:436   */\n    tag_10:\n        /* \"#utility.yul\":307:311   */\n      0x00\n        /* \"#utility.yul\":345:347   */\n      0x20\n        /* \"#utility.yul\":334:343   */\n      dup3\n        /* \"#utility.yul\":330:348   */\n      add\n        /* \"#utility.yul\":322:348   */\n      swap1\n      pop\n        /* \"#utility.yul\":358:429   */\n      tag_64\n        /* \"#utility.yul\":426:427   */\n      0x00\n        /* \"#utility.yul\":415:424   */\n      dup4\n        /* \"#utility.yul\":411:428   */\n      add\n        /* \"#utility.yul\":402:408   */\n      dup5\n        /* \"#utility.yul\":358:429   */\n      tag_41\n      jump\t// in\n    tag_64:\n        /* \"#utility.yul\":214:436   */\n      swap3\n      swap2\n      pop\n      pop\n      jump\t// out\n        /* \"#utility.yul\":523:640   */\n    tag_43:\n        /* \"#utility.yul\":632:633   */\n      0x00\n        /* \"#utility.yul\":629:630   */\n      dup1\n        /* \"#utility.yul\":622:634   */\n      revert\n        /* \"#utility.yul\":769:891   */\n    tag_45:\n        /* \"#utility.yul\":842:866   */\n      tag_69\n        /* \"#utility.yul\":860:865   */\n      dup2\n        /* \"#utility.yul\":842:866   */\n      tag_40\n      jump\t// in\n    tag_69:\n        /* \"#utility.yul\":835:840   */\n      dup2\n        /* \"#utility.yul\":832:867   */\n      eq\n        /* \"#utility.yul\":822:885   */\n      tag_70\n      jumpi\n        /* \"#utility.yul\":881:882   */\n      0x00\n        /* \"#utility.yul\":878:879   */\n      dup1\n        /* \"#utility.yul\":871:883   */\n      revert\n        /* \"#utility.yul\":822:885   */\n    tag_70:\n        /* \"#utility.yul\":769:891   */\n      pop\n      jump\t// out\n        /* \"#utility.yul\":897:1036   */\n    tag_46:\n        /* \"#utility.yul\":943:948   */\n      0x00\n        /* \"#utility.yul\":981:987   */\n      dup2\n        /* \"#utility.yul\":968:988   */\n      calldataload\n        /* \"#utility.yul\":959:988   */\n      swap1\n      pop\n        /* \"#utility.yul\":997:1030   */\n      tag_72\n        /* \"#utility.yul\":1024:1029   */\n      dup2\n        /* \"#utility.yul\":997:1030   */\n      tag_45\n      jump\t// in\n    tag_72:\n        /* \"#utility.yul\":897:1036   */\n      swap3\n      swap2\n      pop\n      pop\n      jump\t// out\n        /* \"#utility.yul\":1042:1371   */\n    tag_20:\n        /* \"#utility.yul\":1101:1107   */\n      0x00\n        /* \"#utility.yul\":1150:1152   */\n      0x20\n        /* \"#utility.yul\":1138:1147   */\n      dup3\n        /* \"#utility.yul\":1129:1136   */\n      dup5\n        /* \"#utility.yul\":1125:1148   */\n      sub\n        /* \"#utility.yul\":1121:1153   */\n      slt\n        /* \"#utility.yul\":1118:1237   */\n      iszero\n      tag_74\n      jumpi\n        /* \"#utility.yul\":1156:1235   */\n      tag_75\n      tag_43\n      jump\t// in\n    tag_75:\n        /* \"#utility.yul\":1118:1237   */\n    tag_74:\n        /* \"#utility.yul\":1276:1277   */\n      0x00\n        /* \"#utility.yul\":1301:1354   */\n      tag_76\n        /* \"#utility.yul\":1346:1353   */\n      dup5\n        /* \"#utility.yul\":1337:1343   */\n      dup3\n        /* \"#utility.yul\":1326:1335   */\n      dup6\n        /* \"#utility.yul\":1322:1344   */\n      add\n        /* \"#utility.yul\":1301:1354   */\n      tag_46\n      jump\t// in\n    tag_76:\n        /* \"#utility.yul\":1291:1354   */\n      swap2\n      pop\n        /* \"#utility.yul\":1247:1364   */\n      pop\n        /* \"#utility.yul\":1042:1371   */\n      swap3\n      swap2\n      pop\n      pop\n      jump\t// out\n        /* \"#utility.yul\":1377:1482   */\n    tag_47:\n        /* \"#utility.yul\":1413:1420   */\n      0x00\n        /* \"#utility.yul\":1453:1475   */\n      0xffffffffffffffffffff\n        /* \"#utility.yul\":1446:1451   */\n      dup3\n        /* \"#utility.yul\":1442:1476   */\n      and\n        /* \"#utility.yul\":1431:1476   */\n      swap1\n      pop\n        /* \"#utility.yul\":1377:1482   */\n      swap2\n      swap1\n      pop\n      jump\t// out\n        /* \"#utility.yul\":1488:1608   */\n    tag_48:\n        /* \"#utility.yul\":1560:1583   */\n      tag_79\n        /* \"#utility.yul\":1577:1582   */\n      dup2\n        /* \"#utility.yul\":1560:1583   */\n      tag_47\n      jump\t// in\n    tag_79:\n        /* \"#utility.yul\":1553:1558   */\n      dup2\n        /* \"#utility.yul\":1550:1584   */\n      eq\n        /* \"#utility.yul\":1540:1602   */\n      tag_80\n      jumpi\n        /* \"#utility.yul\":1598:1599   */\n      0x00\n        /* \"#utility.yul\":1595:1596   */\n      dup1\n        /* \"#utility.yul\":1588:1600   */\n      revert\n        /* \"#utility.yul\":1540:1602   */\n    tag_80:\n        /* \"#utility.yul\":1488:1608   */\n      pop\n      jump\t// out\n        /* \"#utility.yul\":1614:1755   */\n    tag_49:\n        /* \"#utility.yul\":1670:1675   */\n      0x00\n        /* \"#utility.yul\":1701:1707   */\n      dup2\n        /* \"#utility.yul\":1695:1708   */\n      mload\n        /* \"#utility.yul\":1686:1708   */\n      swap1\n      pop\n        /* \"#utility.yul\":1717:1749   */\n      tag_82\n        /* \"#utility.yul\":1743:1748   */\n      dup2\n        /* \"#utility.yul\":1717:1749   */\n      tag_48\n      jump\t// in\n    tag_82:\n        /* \"#utility.yul\":1614:1755   */\n      swap3\n      swap2\n      pop\n      pop\n      jump\t// out\n        /* \"#utility.yul\":1761:1837   */\n    tag_50:\n        /* \"#utility.yul\":1797:1804   */\n      0x00\n        /* \"#utility.yul\":1826:1831   */\n      dup2\n        /* \"#utility.yul\":1815:1831   */\n      swap1\n      pop\n        /* \"#utility.yul\":1761:1837   */\n      swap2\n      swap1\n      pop\n      jump\t// out\n        /* \"#utility.yul\":1843:1963   */\n    tag_51:\n        /* \"#utility.yul\":1915:1938   */\n      tag_85\n        /* \"#utility.yul\":1932:1937   */\n      dup2\n        /* \"#utility.yul\":1915:1938   */\n      tag_50\n      jump\t// in\n    tag_85:\n        /* \"#utility.yul\":1908:1913   */\n      dup2\n        /* \"#utility.yul\":1905:1939   */\n      eq\n        /* \"#utility.yul\":1895:1957   */\n      tag_86\n      jumpi\n        /* \"#utility.yul\":1953:1954   */\n      0x00\n        /* \"#utility.yul\":1950:1951   */\n      dup1\n        /* \"#utility.yul\":1943:1955   */\n      revert\n        /* \"#utility.yul\":1895:1957   */\n    tag_86:\n        /* \"#utility.yul\":1843:1963   */\n      pop\n      jump\t// out\n        /* \"#utility.yul\":1969:2110   */\n    tag_52:\n        /* \"#utility.yul\":2025:2030   */\n      0x00\n        /* \"#utility.yul\":2056:2062   */\n      dup2\n        /* \"#utility.yul\":2050:2063   */\n      mload\n        /* \"#utility.yul\":2041:2063   */\n      swap1\n      pop\n        /* \"#utility.yul\":2072:2104   */\n      tag_88\n        /* \"#utility.yul\":2098:2103   */\n      dup2\n        /* \"#utility.yul\":2072:2104   */\n      tag_51\n      jump\t// in\n    tag_88:\n        /* \"#utility.yul\":1969:2110   */\n      swap3\n      swap2\n      pop\n      pop\n      jump\t// out\n        /* \"#utility.yul\":2116:2259   */\n    tag_53:\n        /* \"#utility.yul\":2173:2178   */\n      0x00\n        /* \"#utility.yul\":2204:2210   */\n      dup2\n        /* \"#utility.yul\":2198:2211   */\n      mload\n        /* \"#utility.yul\":2189:2211   */\n      swap1\n      pop\n        /* \"#utility.yul\":2220:2253   */\n      tag_90\n        /* \"#utility.yul\":2247:2252   */\n      dup2\n        /* \"#utility.yul\":2220:2253   */\n      tag_45\n      jump\t// in\n    tag_90:\n        /* \"#utility.yul\":2116:2259   */\n      swap3\n      swap2\n      pop\n      pop\n      jump\t// out\n        /* \"#utility.yul\":2265:3236   */\n    tag_27:\n        /* \"#utility.yul\":2368:2374   */\n      0x00\n        /* \"#utility.yul\":2376:2382   */\n      dup1\n        /* \"#utility.yul\":2384:2390   */\n      0x00\n        /* \"#utility.yul\":2392:2398   */\n      dup1\n        /* \"#utility.yul\":2400:2406   */\n      0x00\n        /* \"#utility.yul\":2449:2452   */\n      0xa0\n        /* \"#utility.yul\":2437:2446   */\n      dup7\n        /* \"#utility.yul\":2428:2435   */\n      dup9\n        /* \"#utility.yul\":2424:2447   */\n      sub\n        /* \"#utility.yul\":2420:2453   */\n      slt\n        /* \"#utility.yul\":2417:2537   */\n      iszero\n      tag_92\n      jumpi\n        /* \"#utility.yul\":2456:2535   */\n      tag_93\n      tag_43\n      jump\t// in\n    tag_93:\n        /* \"#utility.yul\":2417:2537   */\n    tag_92:\n        /* \"#utility.yul\":2576:2577   */\n      0x00\n        /* \"#utility.yul\":2601:2664   */\n      tag_94\n        /* \"#utility.yul\":2656:2663   */\n      dup9\n        /* \"#utility.yul\":2647:2653   */\n      dup3\n        /* \"#utility.yul\":2636:2645   */\n      dup10\n        /* \"#utility.yul\":2632:2654   */\n      add\n        /* \"#utility.yul\":2601:2664   */\n      tag_49\n      jump\t// in\n    tag_94:\n        /* \"#utility.yul\":2591:2664   */\n      swap6\n      pop\n        /* \"#utility.yul\":2547:2674   */\n      pop\n        /* \"#utility.yul\":2713:2715   */\n      0x20\n        /* \"#utility.yul\":2739:2802   */\n      tag_95\n        /* \"#utility.yul\":2794:2801   */\n      dup9\n        /* \"#utility.yul\":2785:2791   */\n      dup3\n        /* \"#utility.yul\":2774:2783   */\n      dup10\n        /* \"#utility.yul\":2770:2792   */\n      add\n        /* \"#utility.yul\":2739:2802   */\n      tag_52\n      jump\t// in\n    tag_95:\n        /* \"#utility.yul\":2729:2802   */\n      swap5\n      pop\n        /* \"#utility.yul\":2684:2812   */\n      pop\n        /* \"#utility.yul\":2851:2853   */\n      0x40\n        /* \"#utility.yul\":2877:2941   */\n      tag_96\n        /* \"#utility.yul\":2933:2940   */\n      dup9\n        /* \"#utility.yul\":2924:2930   */\n      dup3\n        /* \"#utility.yul\":2913:2922   */\n      dup10\n        /* \"#utility.yul\":2909:2931   */\n      add\n        /* \"#utility.yul\":2877:2941   */\n      tag_53\n      jump\t// in\n    tag_96:\n        /* \"#utility.yul\":2867:2941   */\n      swap4\n      pop\n        /* \"#utility.yul\":2822:2951   */\n      pop\n        /* \"#utility.yul\":2990:2992   */\n      0x60\n        /* \"#utility.yul\":3016:3080   */\n      tag_97\n        /* \"#utility.yul\":3072:3079   */\n      dup9\n        /* \"#utility.yul\":3063:3069   */\n      dup3\n        /* \"#utility.yul\":3052:3061   */\n      dup10\n        /* \"#utility.yul\":3048:3070   */\n      add\n        /* \"#utility.yul\":3016:3080   */\n      tag_53\n      jump\t// in\n    tag_97:\n        /* \"#utility.yul\":3006:3080   */\n      swap3\n      pop\n        /* \"#utility.yul\":2961:3090   */\n      pop\n        /* \"#utility.yul\":3129:3132   */\n      0x80\n        /* \"#utility.yul\":3156:3219   */\n      tag_98\n        /* \"#utility.yul\":3211:3218   */\n      dup9\n        /* \"#utility.yul\":3202:3208   */\n      dup3\n        /* \"#utility.yul\":3191:3200   */\n      dup10\n        /* \"#utility.yul\":3187:3209   */\n      add\n        /* \"#utility.yul\":3156:3219   */\n      tag_49\n      jump\t// in\n    tag_98:\n        /* \"#utility.yul\":3146:3219   */\n      swap2\n      pop\n        /* \"#utility.yul\":3100:3229   */\n      pop\n        /* \"#utility.yul\":2265:3236   */\n      swap3\n      swap6\n      pop\n      swap3\n      swap6\n      swap1\n      swap4\n      pop\n      jump\t// out\n        /* \"#utility.yul\":3242:3422   */\n    tag_54:\n        /* \"#utility.yul\":3290:3367   */\n      0x4e487b7100000000000000000000000000000000000000000000000000000000\n        /* \"#utility.yul\":3287:3288   */\n      0x00\n        /* \"#utility.yul\":3280:3368   */\n      mstore\n        /* \"#utility.yul\":3387:3391   */\n      0x11\n        /* \"#utility.yul\":3384:3385   */\n      0x04\n        /* \"#utility.yul\":3377:3392   */\n      mstore\n        /* \"#utility.yul\":3411:3415   */\n      0x24\n        /* \"#utility.yul\":3408:3409   */\n      0x00\n        /* \"#utility.yul\":3401:3416   */\n      revert\n        /* \"#utility.yul\":3428:3984   */\n    tag_29:\n        /* \"#utility.yul\":3467:3474   */\n      0x00\n        /* \"#utility.yul\":3490:3509   */\n      tag_101\n        /* \"#utility.yul\":3507:3508   */\n      dup3\n        /* \"#utility.yul\":3490:3509   */\n      tag_50\n      jump\t// in\n    tag_101:\n        /* \"#utility.yul\":3485:3509   */\n      swap2\n      pop\n        /* \"#utility.yul\":3523:3542   */\n      tag_102\n        /* \"#utility.yul\":3540:3541   */\n      dup4\n        /* \"#utility.yul\":3523:3542   */\n      tag_50\n      jump\t// in\n    tag_102:\n        /* \"#utility.yul\":3518:3542   */\n      swap3\n      pop\n        /* \"#utility.yul\":3577:3578   */\n      dup3\n        /* \"#utility.yul\":3574:3575   */\n      dup3\n        /* \"#utility.yul\":3570:3579   */\n      mul\n        /* \"#utility.yul\":3599:3628   */\n      tag_103\n        /* \"#utility.yul\":3616:3627   */\n      dup2\n        /* \"#utility.yul\":3599:3628   */\n      tag_50\n      jump\t// in\n    tag_103:\n        /* \"#utility.yul\":3588:3628   */\n      swap2\n      pop\n        /* \"#utility.yul\":3686:3752   */\n      0x8000000000000000000000000000000000000000000000000000000000000000\n        /* \"#utility.yul\":3683:3684   */\n      dup5\n        /* \"#utility.yul\":3680:3753   */\n      eq\n        /* \"#utility.yul\":3676:3677   */\n      0x00\n        /* \"#utility.yul\":3673:3674   */\n      dup5\n        /* \"#utility.yul\":3669:3678   */\n      slt\n        /* \"#utility.yul\":3665:3754   */\n      and\n        /* \"#utility.yul\":3662:3777   */\n      iszero\n      tag_104\n      jumpi\n        /* \"#utility.yul\":3757:3775   */\n      tag_105\n      tag_54\n      jump\t// in\n    tag_105:\n        /* \"#utility.yul\":3662:3777   */\n    tag_104:\n        /* \"#utility.yul\":3927:3928   */\n      dup3\n        /* \"#utility.yul\":3918:3925   */\n      dup3\n        /* \"#utility.yul\":3913:3929   */\n      sdiv\n        /* \"#utility.yul\":3910:3911   */\n      dup5\n        /* \"#utility.yul\":3907:3930   */\n      eq\n        /* \"#utility.yul\":3887:3888   */\n      dup4\n        /* \"#utility.yul\":3880:3889   */\n      iszero\n        /* \"#utility.yul\":3860:3944   */\n      or\n        /* \"#utility.yul\":3837:3977   */\n      tag_106\n      jumpi\n        /* \"#utility.yul\":3957:3975   */\n      tag_107\n      tag_54\n      jump\t// in\n    tag_107:\n        /* \"#utility.yul\":3837:3977   */\n    tag_106:\n        /* \"#utility.yul\":3475:3984   */\n      pop\n        /* \"#utility.yul\":3428:3984   */\n      swap3\n      swap2\n      pop\n      pop\n      jump\t// out\n        /* \"#utility.yul\":3990:4159   */\n    tag_55:\n        /* \"#utility.yul\":4074:4085   */\n      0x00\n        /* \"#utility.yul\":4108:4114   */\n      dup3\n        /* \"#utility.yul\":4103:4106   */\n      dup3\n        /* \"#utility.yul\":4096:4115   */\n      mstore\n        /* \"#utility.yul\":4148:4152   */\n      0x20\n        /* \"#utility.yul\":4143:4146   */\n      dup3\n        /* \"#utility.yul\":4139:4153   */\n      add\n        /* \"#utility.yul\":4124:4153   */\n      swap1\n      pop\n        /* \"#utility.yul\":3990:4159   */\n      swap3\n      swap2\n      pop\n      pop\n      jump\t// out\n        /* \"#utility.yul\":4165:4329   */\n    tag_56:\n        /* \"#utility.yul\":4305:4321   */\n      0x455448206e6f7420656e6f756768000000000000000000000000000000000000\n        /* \"#utility.yul\":4301:4302   */\n      0x00\n        /* \"#utility.yul\":4293:4299   */\n      dup3\n        /* \"#utility.yul\":4289:4303   */\n      add\n        /* \"#utility.yul\":4282:4322   */\n      mstore\n        /* \"#utility.yul\":4165:4329   */\n      pop\n      jump\t// out\n        /* \"#utility.yul\":4335:4701   */\n    tag_57:\n        /* \"#utility.yul\":4477:4480   */\n      0x00\n        /* \"#utility.yul\":4498:4565   */\n      tag_111\n        /* \"#utility.yul\":4562:4564   */\n      0x0e\n        /* \"#utility.yul\":4557:4560   */\n      dup4\n        /* \"#utility.yul\":4498:4565   */\n      tag_55\n      jump\t// in\n    tag_111:\n        /* \"#utility.yul\":4491:4565   */\n      swap2\n      pop\n        /* \"#utility.yul\":4574:4667   */\n      tag_112\n        /* \"#utility.yul\":4663:4666   */\n      dup3\n        /* \"#utility.yul\":4574:4667   */\n      tag_56\n      jump\t// in\n    tag_112:\n        /* \"#utility.yul\":4692:4694   */\n      0x20\n        /* \"#utility.yul\":4687:4690   */\n      dup3\n        /* \"#utility.yul\":4683:4695   */\n      add\n        /* \"#utility.yul\":4676:4695   */\n      swap1\n      pop\n        /* \"#utility.yul\":4335:4701   */\n      swap2\n      swap1\n      pop\n      jump\t// out\n        /* \"#utility.yul\":4707:5126   */\n    tag_33:\n        /* \"#utility.yul\":4873:4877   */\n      0x00\n        /* \"#utility.yul\":4911:4913   */\n      0x20\n        /* \"#utility.yul\":4900:4909   */\n      dup3\n        /* \"#utility.yul\":4896:4914   */\n      add\n        /* \"#utility.yul\":4888:4914   */\n      swap1\n      pop\n        /* \"#utility.yul\":4960:4969   */\n      dup2\n        /* \"#utility.yul\":4954:4958   */\n      dup2\n        /* \"#utility.yul\":4950:4970   */\n      sub\n        /* \"#utility.yul\":4946:4947   */\n      0x00\n        /* \"#utility.yul\":4935:4944   */\n      dup4\n        /* \"#utility.yul\":4931:4948   */\n      add\n        /* \"#utility.yul\":4924:4971   */\n      mstore\n        /* \"#utility.yul\":4988:5119   */\n      tag_114\n        /* \"#utility.yul\":5114:5118   */\n      dup2\n        /* \"#utility.yul\":4988:5119   */\n      tag_57\n      jump\t// in\n    tag_114:\n        /* \"#utility.yul\":4980:5119   */\n      swap1\n      pop\n        /* \"#utility.yul\":4707:5126   */\n      swap2\n      swap1\n      pop\n      jump\t// out\n        /* \"#utility.yul\":5132:5542   */\n    tag_37:\n        /* \"#utility.yul\":5172:5179   */\n      0x00\n        /* \"#utility.yul\":5195:5215   */\n      tag_116\n        /* \"#utility.yul\":5213:5214   */\n      dup3\n        /* \"#utility.yul\":5195:5215   */\n      tag_40\n      jump\t// in\n    tag_116:\n        /* \"#utility.yul\":5190:5215   */\n      swap2\n      pop\n        /* \"#utility.yul\":5229:5249   */\n      tag_117\n        /* \"#utility.yul\":5247:5248   */\n      dup4\n        /* \"#utility.yul\":5229:5249   */\n      tag_40\n      jump\t// in\n    tag_117:\n        /* \"#utility.yul\":5224:5249   */\n      swap3\n      pop\n        /* \"#utility.yul\":5284:5285   */\n      dup3\n        /* \"#utility.yul\":5281:5282   */\n      dup3\n        /* \"#utility.yul\":5277:5286   */\n      mul\n        /* \"#utility.yul\":5306:5336   */\n      tag_118\n        /* \"#utility.yul\":5324:5335   */\n      dup2\n        /* \"#utility.yul\":5306:5336   */\n      tag_40\n      jump\t// in\n    tag_118:\n        /* \"#utility.yul\":5295:5336   */\n      swap2\n      pop\n        /* \"#utility.yul\":5485:5486   */\n      dup3\n        /* \"#utility.yul\":5476:5483   */\n      dup3\n        /* \"#utility.yul\":5472:5487   */\n      div\n        /* \"#utility.yul\":5469:5470   */\n      dup5\n        /* \"#utility.yul\":5466:5488   */\n      eq\n        /* \"#utility.yul\":5446:5447   */\n      dup4\n        /* \"#utility.yul\":5439:5448   */\n      iszero\n        /* \"#utility.yul\":5419:5502   */\n      or\n        /* \"#utility.yul\":5396:5535   */\n      tag_119\n      jumpi\n        /* \"#utility.yul\":5515:5533   */\n      tag_120\n      tag_54\n      jump\t// in\n    tag_120:\n        /* \"#utility.yul\":5396:5535   */\n    tag_119:\n        /* \"#utility.yul\":5180:5542   */\n      pop\n        /* \"#utility.yul\":5132:5542   */\n      swap3\n      swap2\n      pop\n      pop\n      jump\t// out\n        /* \"#utility.yul\":5548:5728   */\n    tag_58:\n        /* \"#utility.yul\":5596:5673   */\n      0x4e487b7100000000000000000000000000000000000000000000000000000000\n        /* \"#utility.yul\":5593:5594   */\n      0x00\n        /* \"#utility.yul\":5586:5674   */\n      mstore\n        /* \"#utility.yul\":5693:5697   */\n      0x12\n        /* \"#utility.yul\":5690:5691   */\n      0x04\n        /* \"#utility.yul\":5683:5698   */\n      mstore\n        /* \"#utility.yul\":5717:5721   */\n      0x24\n        /* \"#utility.yul\":5714:5715   */\n      0x00\n        /* \"#utility.yul\":5707:5722   */\n      revert\n        /* \"#utility.yul\":5734:5919   */\n    tag_39:\n        /* \"#utility.yul\":5774:5775   */\n      0x00\n        /* \"#utility.yul\":5791:5811   */\n      tag_123\n        /* \"#utility.yul\":5809:5810   */\n      dup3\n        /* \"#utility.yul\":5791:5811   */\n      tag_40\n      jump\t// in\n    tag_123:\n        /* \"#utility.yul\":5786:5811   */\n      swap2\n      pop\n        /* \"#utility.yul\":5825:5845   */\n      tag_124\n        /* \"#utility.yul\":5843:5844   */\n      dup4\n        /* \"#utility.yul\":5825:5845   */\n      tag_40\n      jump\t// in\n    tag_124:\n        /* \"#utility.yul\":5820:5845   */\n      swap3\n      pop\n        /* \"#utility.yul\":5864:5865   */\n      dup3\n        /* \"#utility.yul\":5854:5889   */\n      tag_125\n      jumpi\n        /* \"#utility.yul\":5869:5887   */\n      tag_126\n      tag_58\n      jump\t// in\n    tag_126:\n        /* \"#utility.yul\":5854:5889   */\n    tag_125:\n        /* \"#utility.yul\":5911:5912   */\n      dup3\n        /* \"#utility.yul\":5908:5909   */\n      dup3\n        /* \"#utility.yul\":5904:5913   */\n      div\n        /* \"#utility.yul\":5899:5913   */\n      swap1\n      pop\n        /* \"#utility.yul\":5734:5919   */\n      swap3\n      swap2\n      pop\n      pop\n      jump\t// out\n\n    auxdata: 0xa26469706673582212206a4e14f2ae86eb7151ac1ac2c642c62f90e40b6594efc486b0d86b599805c26764736f6c63430008180033\n}\n",
				"bytecode": {
					"linkReferences": {},
					"object": "6080604052674563918244f400005f5534801561001a575f80fd5b5061057c806100285f395ff3fe60806040526004361061003e575f3560e01c806398d5fdca14610042578063b60d42881461006c578063eb2aae5c14610076578063f8b6f778146100a0575b5f80fd5b34801561004d575f80fd5b506100566100dc565b604051610063919061021e565b60405180910390f35b610074610184565b005b348015610081575f80fd5b5061008a6101c9565b604051610097919061021e565b60405180910390f35b3480156100ab575f80fd5b506100c660048036038101906100c19190610265565b6101ce565b6040516100d3919061021e565b60405180910390f35b5f8073694aa1769357215de4fac081bf1f309adc32530690505f8173ffffffffffffffffffffffffffffffffffffffff1663feaf968c6040518163ffffffff1660e01b815260040160a060405180830381865afa15801561013f573d5f803e3d5ffd5b505050506040513d601f19601f820116820180604052508101906101639190610316565b505050915050670de0b6b3a76400008161017d91906103ba565b9250505090565b5f5434116101c7576040517f08c379a00000000000000000000000000000000000000000000000000000000081526004016101be9061048a565b60405180910390fd5b565b5f5481565b5f806101d86100dc565b90505f670de0b6b3a764000082856101f091906104a8565b6101fa9190610516565b90508092505050919050565b5f819050919050565b61021881610206565b82525050565b5f6020820190506102315f83018461020f565b92915050565b5f80fd5b61024481610206565b811461024e575f80fd5b50565b5f8135905061025f8161023b565b92915050565b5f6020828403121561027a57610279610237565b5b5f61028784828501610251565b91505092915050565b5f69ffffffffffffffffffff82169050919050565b6102ae81610290565b81146102b8575f80fd5b50565b5f815190506102c9816102a5565b92915050565b5f819050919050565b6102e1816102cf565b81146102eb575f80fd5b50565b5f815190506102fc816102d8565b92915050565b5f815190506103108161023b565b92915050565b5f805f805f60a0868803121561032f5761032e610237565b5b5f61033c888289016102bb565b955050602061034d888289016102ee565b945050604061035e88828901610302565b935050606061036f88828901610302565b9250506080610380888289016102bb565b9150509295509295909350565b7f4e487b71000000000000000000000000000000000000000000000000000000005f52601160045260245ffd5b5f6103c4826102cf565b91506103cf836102cf565b92508282026103dd816102cf565b91507f800000000000000000000000000000000000000000000000000000000000000084145f841216156104145761041361038d565b5b82820584148315176104295761042861038d565b5b5092915050565b5f82825260208201905092915050565b7f455448206e6f7420656e6f7567680000000000000000000000000000000000005f82015250565b5f610474600e83610430565b915061047f82610440565b602082019050919050565b5f6020820190508181035f8301526104a181610468565b9050919050565b5f6104b282610206565b91506104bd83610206565b92508282026104cb81610206565b915082820484148315176104e2576104e161038d565b5b5092915050565b7f4e487b71000000000000000000000000000000000000000000000000000000005f52601260045260245ffd5b5f61052082610206565b915061052b83610206565b92508261053b5761053a6104e9565b5b82820490509291505056fea26469706673582212206a4e14f2ae86eb7151ac1ac2c642c62f90e40b6594efc486b0d86b599805c26764736f6c63430008180033",
					"opcodes": "PUSH1 0x80 PUSH1 0x40 MSTORE PUSH8 0x4563918244F40000 PUSH0 SSTORE CALLVALUE DUP1 ISZERO PUSH2 0x1A JUMPI PUSH0 DUP1 REVERT JUMPDEST POP PUSH2 0x57C DUP1 PUSH2 0x28 PUSH0 CODECOPY PUSH0 RETURN INVALID PUSH1 0x80 PUSH1 0x40 MSTORE PUSH1 0x4 CALLDATASIZE LT PUSH2 0x3E JUMPI PUSH0 CALLDATALOAD PUSH1 0xE0 SHR DUP1 PUSH4 0x98D5FDCA EQ PUSH2 0x42 JUMPI DUP1 PUSH4 0xB60D4288 EQ PUSH2 0x6C JUMPI DUP1 PUSH4 0xEB2AAE5C EQ PUSH2 0x76 JUMPI DUP1 PUSH4 0xF8B6F778 EQ PUSH2 0xA0 JUMPI JUMPDEST PUSH0 DUP1 REVERT JUMPDEST CALLVALUE DUP1 ISZERO PUSH2 0x4D JUMPI PUSH0 DUP1 REVERT JUMPDEST POP PUSH2 0x56 PUSH2 0xDC JUMP JUMPDEST PUSH1 0x40 MLOAD PUSH2 0x63 SWAP2 SWAP1 PUSH2 0x21E JUMP JUMPDEST PUSH1 0x40 MLOAD DUP1 SWAP2 SUB SWAP1 RETURN JUMPDEST PUSH2 0x74 PUSH2 0x184 JUMP JUMPDEST STOP JUMPDEST CALLVALUE DUP1 ISZERO PUSH2 0x81 JUMPI PUSH0 DUP1 REVERT JUMPDEST POP PUSH2 0x8A PUSH2 0x1C9 JUMP JUMPDEST PUSH1 0x40 MLOAD PUSH2 0x97 SWAP2 SWAP1 PUSH2 0x21E JUMP JUMPDEST PUSH1 0x40 MLOAD DUP1 SWAP2 SUB SWAP1 RETURN JUMPDEST CALLVALUE DUP1 ISZERO PUSH2 0xAB JUMPI PUSH0 DUP1 REVERT JUMPDEST POP PUSH2 0xC6 PUSH1 0x4 DUP1 CALLDATASIZE SUB DUP2 ADD SWAP1 PUSH2 0xC1 SWAP2 SWAP1 PUSH2 0x265 JUMP JUMPDEST PUSH2 0x1CE JUMP JUMPDEST PUSH1 0x40 MLOAD PUSH2 0xD3 SWAP2 SWAP1 PUSH2 0x21E JUMP JUMPDEST PUSH1 0x40 MLOAD DUP1 SWAP2 SUB SWAP1 RETURN JUMPDEST PUSH0 DUP1 PUSH20 0x694AA1769357215DE4FAC081BF1F309ADC325306 SWAP1 POP PUSH0 DUP2 PUSH20 0xFFFFFFFFFFFFFFFFFFFFFFFFFFFFFFFFFFFFFFFF AND PUSH4 0xFEAF968C PUSH1 0x40 MLOAD DUP2 PUSH4 0xFFFFFFFF AND PUSH1 0xE0 SHL DUP2 MSTORE PUSH1 0x4 ADD PUSH1 0xA0 PUSH1 0x40 MLOAD DUP1 DUP4 SUB DUP2 DUP7 GAS STATICCALL ISZERO DUP1 ISZERO PUSH2 0x13F JUMPI RETURNDATASIZE PUSH0 DUP1 RETURNDATACOPY RETURNDATASIZE PUSH0 REVERT JUMPDEST POP POP POP POP PUSH1 0x40 MLOAD RETURNDATASIZE PUSH1 0x1F NOT PUSH1 0x1F DUP3 ADD AND DUP3 ADD DUP1 PUSH1 0x40 MSTORE POP DUP2 ADD SWAP1 PUSH2 0x163 SWAP2 SWAP1 PUSH2 0x316 JUMP JUMPDEST POP POP POP SWAP2 POP POP PUSH8 0xDE0B6B3A7640000 DUP2 PUSH2 0x17D SWAP2 SWAP1 PUSH2 0x3BA JUMP JUMPDEST SWAP3 POP POP POP SWAP1 JUMP JUMPDEST PUSH0 SLOAD CALLVALUE GT PUSH2 0x1C7 JUMPI PUSH1 0x40 MLOAD PUSH32 0x8C379A000000000000000000000000000000000000000000000000000000000 DUP2 MSTORE PUSH1 0x4 ADD PUSH2 0x1BE SWAP1 PUSH2 0x48A JUMP JUMPDEST PUSH1 0x40 MLOAD DUP1 SWAP2 SUB SWAP1 REVERT JUMPDEST JUMP JUMPDEST PUSH0 SLOAD DUP2 JUMP JUMPDEST PUSH0 DUP1 PUSH2 0x1D8 PUSH2 0xDC JUMP JUMPDEST SWAP1 POP PUSH0 PUSH8 0xDE0B6B3A7640000 DUP3 DUP6 PUSH2 0x1F0 SWAP2 SWAP1 PUSH2 0x4A8 JUMP JUMPDEST PUSH2 0x1FA SWAP2 SWAP1 PUSH2 0x516 JUMP JUMPDEST SWAP1 POP DUP1 SWAP3 POP POP POP SWAP2 SWAP1 POP JUMP JUMPDEST PUSH0 DUP2 SWAP1 POP SWAP2 SWAP1 POP JUMP JUMPDEST PUSH2 0x218 DUP2 PUSH2 0x206 JUMP JUMPDEST DUP3 MSTORE POP POP JUMP JUMPDEST PUSH0 PUSH1 0x20 DUP3 ADD SWAP1 POP PUSH2 0x231 PUSH0 DUP4 ADD DUP5 PUSH2 0x20F JUMP JUMPDEST SWAP3 SWAP2 POP POP JUMP JUMPDEST PUSH0 DUP1 REVERT JUMPDEST PUSH2 0x244 DUP2 PUSH2 0x206 JUMP JUMPDEST DUP2 EQ PUSH2 0x24E JUMPI PUSH0 DUP1 REVERT JUMPDEST POP JUMP JUMPDEST PUSH0 DUP2 CALLDATALOAD SWAP1 POP PUSH2 0x25F DUP2 PUSH2 0x23B JUMP JUMPDEST SWAP3 SWAP2 POP POP JUMP JUMPDEST PUSH0 PUSH1 0x20 DUP3 DUP5 SUB SLT ISZERO PUSH2 0x27A JUMPI PUSH2 0x279 PUSH2 0x237 JUMP JUMPDEST JUMPDEST PUSH0 PUSH2 0x287 DUP5 DUP3 DUP6 ADD PUSH2 0x251 JUMP JUMPDEST SWAP2 POP POP SWAP3 SWAP2 POP POP JUMP JUMPDEST PUSH0 PUSH10 0xFFFFFFFFFFFFFFFFFFFF DUP3 AND SWAP1 POP SWAP2 SWAP1 POP JUMP JUMPDEST PUSH2 0x2AE DUP2 PUSH2 0x290 JUMP JUMPDEST DUP2 EQ PUSH2 0x2B8 JUMPI PUSH0 DUP1 REVERT JUMPDEST POP JUMP JUMPDEST PUSH0 DUP2 MLOAD SWAP1 POP PUSH2 0x2C9 DUP2 PUSH2 0x2A5 JUMP JUMPDEST SWAP3 SWAP2 POP POP JUMP JUMPDEST PUSH0 DUP2 SWAP1 POP SWAP2 SWAP1 POP JUMP JUMPDEST PUSH2 0x2E1 DUP2 PUSH2 0x2CF JUMP JUMPDEST DUP2 EQ PUSH2 0x2EB JUMPI PUSH0 DUP1 REVERT JUMPDEST POP JUMP JUMPDEST PUSH0 DUP2 MLOAD SWAP1 POP PUSH2 0x2FC DUP2 PUSH2 0x2D8 JUMP JUMPDEST SWAP3 SWAP2 POP POP JUMP JUMPDEST PUSH0 DUP2 MLOAD SWAP1 POP PUSH2 0x310 DUP2 PUSH2 0x23B JUMP JUMPDEST SWAP3 SWAP2 POP POP JUMP JUMPDEST PUSH0 DUP1 PUSH0 DUP1 PUSH0 PUSH1 0xA0 DUP7 DUP9 SUB SLT ISZERO PUSH2 0x32F JUMPI PUSH2 0x32E PUSH2 0x237 JUMP JUMPDEST JUMPDEST PUSH0 PUSH2 0x33C DUP9 DUP3 DUP10 ADD PUSH2 0x2BB JUMP JUMPDEST SWAP6 POP POP PUSH1 0x20 PUSH2 0x34D DUP9 DUP3 DUP10 ADD PUSH2 0x2EE JUMP JUMPDEST SWAP5 POP POP PUSH1 0x40 PUSH2 0x35E DUP9 DUP3 DUP10 ADD PUSH2 0x302 JUMP JUMPDEST SWAP4 POP POP PUSH1 0x60 PUSH2 0x36F DUP9 DUP3 DUP10 ADD PUSH2 0x302 JUMP JUMPDEST SWAP3 POP POP PUSH1 0x80 PUSH2 0x380 DUP9 DUP3 DUP10 ADD PUSH2 0x2BB JUMP JUMPDEST SWAP2 POP POP SWAP3 SWAP6 POP SWAP3 SWAP6 SWAP1 SWAP4 POP JUMP JUMPDEST PUSH32 0x4E487B7100000000000000000000000000000000000000000000000000000000 PUSH0 MSTORE PUSH1 0x11 PUSH1 0x4 MSTORE PUSH1 0x24 PUSH0 REVERT JUMPDEST PUSH0 PUSH2 0x3C4 DUP3 PUSH2 0x2CF JUMP JUMPDEST SWAP2 POP PUSH2 0x3CF DUP4 PUSH2 0x2CF JUMP JUMPDEST SWAP3 POP DUP3 DUP3 MUL PUSH2 0x3DD DUP2 PUSH2 0x2CF JUMP JUMPDEST SWAP2 POP PUSH32 0x8000000000000000000000000000000000000000000000000000000000000000 DUP5 EQ PUSH0 DUP5 SLT AND ISZERO PUSH2 0x414 JUMPI PUSH2 0x413 PUSH2 0x38D JUMP JUMPDEST JUMPDEST DUP3 DUP3 SDIV DUP5 EQ DUP4 ISZERO OR PUSH2 0x429 JUMPI PUSH2 0x428 PUSH2 0x38D JUMP JUMPDEST JUMPDEST POP SWAP3 SWAP2 POP POP JUMP JUMPDEST PUSH0 DUP3 DUP3 MSTORE PUSH1 0x20 DUP3 ADD SWAP1 POP SWAP3 SWAP2 POP POP JUMP JUMPDEST PUSH32 0x455448206E6F7420656E6F756768000000000000000000000000000000000000 PUSH0 DUP3 ADD MSTORE POP JUMP JUMPDEST PUSH0 PUSH2 0x474 PUSH1 0xE DUP4 PUSH2 0x430 JUMP JUMPDEST SWAP2 POP PUSH2 0x47F DUP3 PUSH2 0x440 JUMP JUMPDEST PUSH1 0x20 DUP3 ADD SWAP1 POP SWAP2 SWAP1 POP JUMP JUMPDEST PUSH0 PUSH1 0x20 DUP3 ADD SWAP1 POP DUP2 DUP2 SUB PUSH0 DUP4 ADD MSTORE PUSH2 0x4A1 DUP2 PUSH2 0x468 JUMP JUMPDEST SWAP1 POP SWAP2 SWAP1 POP JUMP JUMPDEST PUSH0 PUSH2 0x4B2 DUP3 PUSH2 0x206 JUMP JUMPDEST SWAP2 POP PUSH2 0x4BD DUP4 PUSH2 0x206 JUMP JUMPDEST SWAP3 POP DUP3 DUP3 MUL PUSH2 0x4CB DUP2 PUSH2 0x206 JUMP JUMPDEST SWAP2 POP DUP3 DUP3 DIV DUP5 EQ DUP4 ISZERO OR PUSH2 0x4E2 JUMPI PUSH2 0x4E1 PUSH2 0x38D JUMP JUMPDEST JUMPDEST POP SWAP3 SWAP2 POP POP JUMP JUMPDEST PUSH32 0x4E487B7100000000000000000000000000000000000000000000000000000000 PUSH0 MSTORE PUSH1 0x12 PUSH1 0x4 MSTORE PUSH1 0x24 PUSH0 REVERT JUMPDEST PUSH0 PUSH2 0x520 DUP3 PUSH2 0x206 JUMP JUMPDEST SWAP2 POP PUSH2 0x52B DUP4 PUSH2 0x206 JUMP JUMPDEST SWAP3 POP DUP3 PUSH2 0x53B JUMPI PUSH2 0x53A PUSH2 0x4E9 JUMP JUMPDEST JUMPDEST DUP3 DUP3 DIV SWAP1 POP SWAP3 SWAP2 POP POP JUMP INVALID LOG2 PUSH5 0x6970667358 0x22 SLT KECCAK256 PUSH11 0x4E14F2AE86EB7151AC1AC2 0xC6 TIMESTAMP 0xC6 0x2F SWAP1 0xE4 SIGNEXTEND PUSH6 0x94EFC486B0D8 PUSH12 0x599805C26764736F6C634300 ADDMOD XOR STOP CALLER "
				},
				"gasEstimates": {
					"creation": {
						"codeDepositCost": "280800",
						"executionCost": "22421",
						"totalCost": "303221"
					},
					"external": {
						"fund()": "2524",
						"getConvertion(uint256)": "infinite",
						"getPrice()": "infinite",
						"min_USD()": "2446"
					}
				},
				"methodIdentifiers": {
					"fund()": "b60d4288",
					"getConvertion(uint256)": "f8b6f778",
					"getPrice()": "98d5fdca",
					"min_USD()": "eb2aae5c"
				}
			},
			"storageLayout": {
				"storage": [
					{
						"astId": 54,
						"contract": "fund_me/A2.sol:FundMeA2",
						"label": "min_USD",
						"offset": 0,
						"slot": "0",
						"type": "t_uint256"
					}
				],
				"types": {
					"t_uint256": {
						"encoding": "inplace",
						"label": "uint256",
						"numberOfBytes": "32"
					}
				}
			},
			"userdoc": {
				"kind": "user",
				"methods": {},
				"version": 1
			}
		}
	}
}