{
	"fund_me/A3.sol": {
		"FundMeA3": {
			"abi": [
				{
					"inputs": [
						{
							"internalType": "address",
							"name": "",
							"type": "address"
						}
					],
					"name": "address_to_amount",
					"outputs": [
						{
							"internalType": "uint256",
							"name": "",
							"type": "uint256"
						}
					],
					"stateMutability": "view",
					"type": "function"
				},
				{
					"inputs": [],
					"name": "fund",
					"outputs": [],
					"stateMutability": "payable",
					"type": "function"
				},
				{
					"inputs": [
						{
							"internalType": "uint256",
							"name": "ETH_amount",
							"type": "uint256"
						}
					],
					"name": "getConvertion",
					"outputs": [
						{
							"internalType": "uint256",
							"name": "",
							"type": "uint256"
						}
					],
					"stateMutability": "view",
					"type": "function"
				},
				{
					"inputs": [],
					"name": "getPrice",
					"outputs": [
						{
							"internalType": "uint256",
							"name": "",
							"type": "uint256"
						}
					],
					"stateMutability": "view",
					"type": "function"
				},
				{
					"inputs": [],
					"name": "min_USD",
					"outputs": [
						{
							"internalType": "uint256",
							"name": "",
							"type": "uint256"
						}
					],
					"stateMutability": "view",
					"type": "function"
				},
				{
					"inputs": [
						{
							"internalType": "uint256",
							"name": "",
							"type": "uint256"
						}
					],
					"name": "sender_Adresses",
					"outputs": [
						{
							"internalType": "address",
							"name": "",
							"type": "address"
						}
					],
					"stateMutability": "view",
					"type": "function"
				}
			],
			"devdoc": {
				"kind": "dev",
				"methods": {},
				"version": 1
			},
			"evm": {
				"assembly": "    /* \"fund_me/A3.sol\":168:1110  contract FundMeA3{... */\n  mstore(0x40, 0x80)\n    /* \"fund_me/A3.sol\":217:225  5 * 1e18 */\n  0x4563918244f40000\n    /* \"fund_me/A3.sol\":192:225  uint256 public min_USD = 5 * 1e18 */\n  0x00\n  sstore\n    /* \"fund_me/A3.sol\":168:1110  contract FundMeA3{... */\n  callvalue\n  dup1\n  iszero\n  tag_1\n  jumpi\n  0x00\n  dup1\n  revert\ntag_1:\n  pop\n  dataSize(sub_0)\n  dup1\n  dataOffset(sub_0)\n  0x00\n  codecopy\n  0x00\n  return\nstop\n\nsub_0: assembly {\n        /* \"fund_me/A3.sol\":168:1110  contract FundMeA3{... */\n      mstore(0x40, 0x80)\n      jumpi(tag_1, lt(calldatasize, 0x04))\n      shr(0xe0, calldataload(0x00))\n      dup1\n      0x32c35cdc\n      eq\n      tag_2\n      jumpi\n      dup1\n      0x98d5fdca\n      eq\n      tag_3\n      jumpi\n      dup1\n      0xa6878279\n      eq\n      tag_4\n      jumpi\n      dup1\n      0xb60d4288\n      eq\n      tag_5\n      jumpi\n      dup1\n      0xeb2aae5c\n      eq\n      tag_6\n      jumpi\n      dup1\n      0xf8b6f778\n      eq\n      tag_7\n      jumpi\n    tag_1:\n      0x00\n      dup1\n      revert\n        /* \"fund_me/A3.sol\":232:264  address[] public sender_Adresses */\n    tag_2:\n      callvalue\n      dup1\n      iszero\n      tag_8\n      jumpi\n      0x00\n      dup1\n      revert\n    tag_8:\n      pop\n      tag_9\n      0x04\n      dup1\n      calldatasize\n      sub\n      dup2\n      add\n      swap1\n      tag_10\n      swap2\n      swap1\n      tag_11\n      jump\t// in\n    tag_10:\n      tag_12\n      jump\t// in\n    tag_9:\n      mload(0x40)\n      tag_13\n      swap2\n      swap1\n      tag_14\n      jump\t// in\n    tag_13:\n      mload(0x40)\n      dup1\n      swap2\n      sub\n      swap1\n      return\n        /* \"fund_me/A3.sol\":614:880  function getPrice() public view returns(uint256){... */\n    tag_3:\n      callvalue\n      dup1\n      iszero\n      tag_15\n      jumpi\n      0x00\n      dup1\n      revert\n    tag_15:\n      pop\n      tag_16\n      tag_17\n      jump\t// in\n    tag_16:\n      mload(0x40)\n      tag_18\n      swap2\n      swap1\n      tag_19\n      jump\t// in\n    tag_18:\n      mload(0x40)\n      dup1\n      swap2\n      sub\n      swap1\n      return\n        /* \"fund_me/A3.sol\":271:323  mapping(address => uint256) public address_to_amount */\n    tag_4:\n      callvalue\n      dup1\n      iszero\n      tag_20\n      jumpi\n      0x00\n      dup1\n      revert\n    tag_20:\n      pop\n      tag_21\n      0x04\n      dup1\n      calldatasize\n      sub\n      dup2\n      add\n      swap1\n      tag_22\n      swap2\n      swap1\n      tag_23\n      jump\t// in\n    tag_22:\n      tag_24\n      jump\t// in\n    tag_21:\n      mload(0x40)\n      tag_25\n      swap2\n      swap1\n      tag_19\n      jump\t// in\n    tag_25:\n      mload(0x40)\n      dup1\n      swap2\n      sub\n      swap1\n      return\n        /* \"fund_me/A3.sol\":332:569  function fund() public payable{... */\n    tag_5:\n      tag_26\n      tag_27\n      jump\t// in\n    tag_26:\n      stop\n        /* \"fund_me/A3.sol\":192:225  uint256 public min_USD = 5 * 1e18 */\n    tag_6:\n      callvalue\n      dup1\n      iszero\n      tag_28\n      jumpi\n      0x00\n      dup1\n      revert\n    tag_28:\n      pop\n      tag_29\n      tag_30\n      jump\t// in\n    tag_29:\n      mload(0x40)\n      tag_31\n      swap2\n      swap1\n      tag_19\n      jump\t// in\n    tag_31:\n      mload(0x40)\n      dup1\n      swap2\n      sub\n      swap1\n      return\n        /* \"fund_me/A3.sol\":888:1105  function getConvertion(uint256 ETH_amount) public view returns(uint256){... */\n    tag_7:\n      callvalue\n      dup1\n      iszero\n      tag_32\n      jumpi\n      0x00\n      dup1\n      revert\n    tag_32:\n      pop\n      tag_33\n      0x04\n      dup1\n      calldatasize\n      sub\n      dup2\n      add\n      swap1\n      tag_34\n      swap2\n      swap1\n      tag_11\n      jump\t// in\n    tag_34:\n      tag_35\n      jump\t// in\n    tag_33:\n      mload(0x40)\n      tag_36\n      swap2\n      swap1\n      tag_19\n      jump\t// in\n    tag_36:\n      mload(0x40)\n      dup1\n      swap2\n      sub\n      swap1\n      return\n        /* \"fund_me/A3.sol\":232:264  address[] public sender_Adresses */\n    tag_12:\n      0x01\n      dup2\n      dup2\n      sload\n      dup2\n      lt\n      tag_37\n      jumpi\n      0x00\n      dup1\n      revert\n    tag_37:\n      swap1\n      0x00\n      mstore\n      keccak256(0x00, 0x20)\n      add\n      0x00\n      swap2\n      pop\n      sload\n      swap1\n      0x0100\n      exp\n      swap1\n      div\n      0xffffffffffffffffffffffffffffffffffffffff\n      and\n      dup2\n      jump\t// out\n        /* \"fund_me/A3.sol\":614:880  function getPrice() public view returns(uint256){... */\n    tag_17:\n        /* \"fund_me/A3.sol\":654:661  uint256 */\n      0x00\n        /* \"fund_me/A3.sol\":673:705  AggregatorV3Interface price_feed */\n      dup1\n        /* \"fund_me/A3.sol\":730:772  0x694AA1769357215DE4FAC081bf1f309aDC325306 */\n      0x694aa1769357215de4fac081bf1f309adc325306\n        /* \"fund_me/A3.sol\":673:773  AggregatorV3Interface price_feed = AggregatorV3Interface(0x694AA1769357215DE4FAC081bf1f309aDC325306) */\n      swap1\n      pop\n        /* \"fund_me/A3.sol\":786:798  int256 price */\n      0x00\n        /* \"fund_me/A3.sol\":805:815  price_feed */\n      dup2\n        /* \"fund_me/A3.sol\":805:831  price_feed.latestRoundData */\n      0xffffffffffffffffffffffffffffffffffffffff\n      and\n      0xfeaf968c\n        /* \"fund_me/A3.sol\":805:833  price_feed.latestRoundData() */\n      mload(0x40)\n      dup2\n      0xffffffff\n      and\n      0xe0\n      shl\n      dup2\n      mstore\n      0x04\n      add\n      0xa0\n      mload(0x40)\n      dup1\n      dup4\n      sub\n      dup2\n      dup7\n      gas\n      staticcall\n      iszero\n      dup1\n      iszero\n      tag_41\n      jumpi\n      returndatasize\n      0x00\n      dup1\n      returndatacopy\n      revert(0x00, returndatasize)\n    tag_41:\n      pop\n      pop\n      pop\n      pop\n      mload(0x40)\n      returndatasize\n      not(0x1f)\n      0x1f\n      dup3\n      add\n      and\n      dup3\n      add\n      dup1\n      0x40\n      mstore\n      pop\n      dup2\n      add\n      swap1\n      tag_42\n      swap2\n      swap1\n      tag_43\n      jump\t// in\n    tag_42:\n        /* \"fund_me/A3.sol\":784:833  (,int256 price,,,) = price_feed.latestRoundData() */\n      pop\n      pop\n      pop\n      swap2\n      pop\n      pop\n        /* \"fund_me/A3.sol\":867:871  1e18 */\n      0x0de0b6b3a7640000\n        /* \"fund_me/A3.sol\":859:864  price */\n      dup2\n        /* \"fund_me/A3.sol\":859:871  price * 1e18 */\n      tag_44\n      swap2\n      swap1\n      tag_45\n      jump\t// in\n    tag_44:\n        /* \"fund_me/A3.sol\":844:872  return uint256(price * 1e18) */\n      swap3\n      pop\n      pop\n      pop\n        /* \"fund_me/A3.sol\":614:880  function getPrice() public view returns(uint256){... */\n      swap1\n      jump\t// out\n        /* \"fund_me/A3.sol\":271:323  mapping(address => uint256) public address_to_amount */\n    tag_24:\n      mstore(0x20, 0x02)\n      dup1\n      0x00\n      mstore\n      keccak256(0x00, 0x40)\n      0x00\n      swap2\n      pop\n      swap1\n      pop\n      sload\n      dup2\n      jump\t// out\n        /* \"fund_me/A3.sol\":332:569  function fund() public payable{... */\n    tag_27:\n        /* \"fund_me/A3.sol\":408:415  min_USD */\n      sload(0x00)\n        /* \"fund_me/A3.sol\":381:405  getConvertion(msg.value) */\n      tag_47\n        /* \"fund_me/A3.sol\":395:404  msg.value */\n      callvalue\n        /* \"fund_me/A3.sol\":381:394  getConvertion */\n      tag_35\n        /* \"fund_me/A3.sol\":381:405  getConvertion(msg.value) */\n      jump\t// in\n    tag_47:\n        /* \"fund_me/A3.sol\":381:415  getConvertion(msg.value) > min_USD */\n      gt\n        /* \"fund_me/A3.sol\":373:434  require(getConvertion(msg.value) > min_USD, \"ETH not enough\") */\n      tag_48\n      jumpi\n      mload(0x40)\n      0x08c379a000000000000000000000000000000000000000000000000000000000\n      dup2\n      mstore\n      0x04\n      add\n      tag_49\n      swap1\n      tag_50\n      jump\t// in\n    tag_49:\n      mload(0x40)\n      dup1\n      swap2\n      sub\n      swap1\n      revert\n    tag_48:\n        /* \"fund_me/A3.sol\":445:460  sender_Adresses */\n      0x01\n        /* \"fund_me/A3.sol\":466:476  msg.sender */\n      caller\n        /* \"fund_me/A3.sol\":445:477  sender_Adresses.push(msg.sender) */\n      swap1\n      dup1\n      0x01\n      dup2\n      sload\n      add\n      dup1\n      dup3\n      sstore\n      dup1\n      swap2\n      pop\n      pop\n      0x01\n      swap1\n      sub\n      swap1\n      0x00\n      mstore\n      keccak256(0x00, 0x20)\n      add\n      0x00\n      swap1\n      swap2\n      swap1\n      swap2\n      swap1\n      swap2\n      0x0100\n      exp\n      dup2\n      sload\n      dup2\n      0xffffffffffffffffffffffffffffffffffffffff\n      mul\n      not\n      and\n      swap1\n      dup4\n      0xffffffffffffffffffffffffffffffffffffffff\n      and\n      mul\n      or\n      swap1\n      sstore\n      pop\n        /* \"fund_me/A3.sol\":552:561  msg.value */\n      callvalue\n        /* \"fund_me/A3.sol\":520:537  address_to_amount */\n      0x02\n        /* \"fund_me/A3.sol\":520:549  address_to_amount[msg.sender] */\n      0x00\n        /* \"fund_me/A3.sol\":538:548  msg.sender */\n      caller\n        /* \"fund_me/A3.sol\":520:549  address_to_amount[msg.sender] */\n      0xffffffffffffffffffffffffffffffffffffffff\n      and\n      0xffffffffffffffffffffffffffffffffffffffff\n      and\n      dup2\n      mstore\n      0x20\n      add\n      swap1\n      dup2\n      mstore\n      0x20\n      add\n      0x00\n      keccak256\n      sload\n        /* \"fund_me/A3.sol\":520:561  address_to_amount[msg.sender] + msg.value */\n      tag_52\n      swap2\n      swap1\n      tag_53\n      jump\t// in\n    tag_52:\n        /* \"fund_me/A3.sol\":488:505  address_to_amount */\n      0x02\n        /* \"fund_me/A3.sol\":488:517  address_to_amount[msg.sender] */\n      0x00\n        /* \"fund_me/A3.sol\":506:516  msg.sender */\n      caller\n        /* \"fund_me/A3.sol\":488:517  address_to_amount[msg.sender] */\n      0xffffffffffffffffffffffffffffffffffffffff\n      and\n      0xffffffffffffffffffffffffffffffffffffffff\n      and\n      dup2\n      mstore\n      0x20\n      add\n      swap1\n      dup2\n      mstore\n      0x20\n      add\n      0x00\n      keccak256\n        /* \"fund_me/A3.sol\":488:561  address_to_amount[msg.sender] = address_to_amount[msg.sender] + msg.value */\n      dup2\n      swap1\n      sstore\n      pop\n        /* \"fund_me/A3.sol\":332:569  function fund() public payable{... */\n      jump\t// out\n        /* \"fund_me/A3.sol\":192:225  uint256 public min_USD = 5 * 1e18 */\n    tag_30:\n      sload(0x00)\n      dup2\n      jump\t// out\n        /* \"fund_me/A3.sol\":888:1105  function getConvertion(uint256 ETH_amount) public view returns(uint256){... */\n    tag_35:\n        /* \"fund_me/A3.sol\":951:958  uint256 */\n      0x00\n        /* \"fund_me/A3.sol\":970:987  uint256 ETH_price */\n      dup1\n        /* \"fund_me/A3.sol\":990:1000  getPrice() */\n      tag_55\n        /* \"fund_me/A3.sol\":990:998  getPrice */\n      tag_17\n        /* \"fund_me/A3.sol\":990:1000  getPrice() */\n      jump\t// in\n    tag_55:\n        /* \"fund_me/A3.sol\":970:1000  uint256 ETH_price = getPrice() */\n      swap1\n      pop\n        /* \"fund_me/A3.sol\":1011:1032  uint256 amount_in_USD */\n      0x00\n        /* \"fund_me/A3.sol\":1062:1066  1e18 */\n      0x0de0b6b3a7640000\n        /* \"fund_me/A3.sol\":1049:1058  ETH_price */\n      dup3\n        /* \"fund_me/A3.sol\":1036:1046  ETH_amount */\n      dup6\n        /* \"fund_me/A3.sol\":1036:1058  ETH_amount * ETH_price */\n      tag_56\n      swap2\n      swap1\n      tag_57\n      jump\t// in\n    tag_56:\n        /* \"fund_me/A3.sol\":1035:1066  (ETH_amount * ETH_price) / 1e18 */\n      tag_58\n      swap2\n      swap1\n      tag_59\n      jump\t// in\n    tag_58:\n        /* \"fund_me/A3.sol\":1011:1066  uint256 amount_in_USD = (ETH_amount * ETH_price) / 1e18 */\n      swap1\n      pop\n        /* \"fund_me/A3.sol\":1084:1097  amount_in_USD */\n      dup1\n        /* \"fund_me/A3.sol\":1077:1097  return amount_in_USD */\n      swap3\n      pop\n      pop\n      pop\n        /* \"fund_me/A3.sol\":888:1105  function getConvertion(uint256 ETH_amount) public view returns(uint256){... */\n      swap2\n      swap1\n      pop\n      jump\t// out\n        /* \"#utility.yul\":88:205   */\n    tag_61:\n        /* \"#utility.yul\":197:198   */\n      0x00\n        /* \"#utility.yul\":194:195   */\n      dup1\n        /* \"#utility.yul\":187:199   */\n      revert\n        /* \"#utility.yul\":334:411   */\n    tag_63:\n        /* \"#utility.yul\":371:378   */\n      0x00\n        /* \"#utility.yul\":400:405   */\n      dup2\n        /* \"#utility.yul\":389:405   */\n      swap1\n      pop\n        /* \"#utility.yul\":334:411   */\n      swap2\n      swap1\n      pop\n      jump\t// out\n        /* \"#utility.yul\":417:539   */\n    tag_64:\n        /* \"#utility.yul\":490:514   */\n      tag_90\n        /* \"#utility.yul\":508:513   */\n      dup2\n        /* \"#utility.yul\":490:514   */\n      tag_63\n      jump\t// in\n    tag_90:\n        /* \"#utility.yul\":483:488   */\n      dup2\n        /* \"#utility.yul\":480:515   */\n      eq\n        /* \"#utility.yul\":470:533   */\n      tag_91\n      jumpi\n        /* \"#utility.yul\":529:530   */\n      0x00\n        /* \"#utility.yul\":526:527   */\n      dup1\n        /* \"#utility.yul\":519:531   */\n      revert\n        /* \"#utility.yul\":470:533   */\n    tag_91:\n        /* \"#utility.yul\":417:539   */\n      pop\n      jump\t// out\n        /* \"#utility.yul\":545:684   */\n    tag_65:\n        /* \"#utility.yul\":591:596   */\n      0x00\n        /* \"#utility.yul\":629:635   */\n      dup2\n        /* \"#utility.yul\":616:636   */\n      calldataload\n        /* \"#utility.yul\":607:636   */\n      swap1\n      pop\n        /* \"#utility.yul\":645:678   */\n      tag_93\n        /* \"#utility.yul\":672:677   */\n      dup2\n        /* \"#utility.yul\":645:678   */\n      tag_64\n      jump\t// in\n    tag_93:\n        /* \"#utility.yul\":545:684   */\n      swap3\n      swap2\n      pop\n      pop\n      jump\t// out\n        /* \"#utility.yul\":690:1019   */\n    tag_11:\n        /* \"#utility.yul\":749:755   */\n      0x00\n        /* \"#utility.yul\":798:800   */\n      0x20\n        /* \"#utility.yul\":786:795   */\n      dup3\n        /* \"#utility.yul\":777:784   */\n      dup5\n        /* \"#utility.yul\":773:796   */\n      sub\n        /* \"#utility.yul\":769:801   */\n      slt\n        /* \"#utility.yul\":766:885   */\n      iszero\n      tag_95\n      jumpi\n        /* \"#utility.yul\":804:883   */\n      tag_96\n      tag_61\n      jump\t// in\n    tag_96:\n        /* \"#utility.yul\":766:885   */\n    tag_95:\n        /* \"#utility.yul\":924:925   */\n      0x00\n        /* \"#utility.yul\":949:1002   */\n      tag_97\n        /* \"#utility.yul\":994:1001   */\n      dup5\n        /* \"#utility.yul\":985:991   */\n      dup3\n        /* \"#utility.yul\":974:983   */\n      dup6\n        /* \"#utility.yul\":970:992   */\n      add\n        /* \"#utility.yul\":949:1002   */\n      tag_65\n      jump\t// in\n    tag_97:\n        /* \"#utility.yul\":939:1002   */\n      swap2\n      pop\n        /* \"#utility.yul\":895:1012   */\n      pop\n        /* \"#utility.yul\":690:1019   */\n      swap3\n      swap2\n      pop\n      pop\n      jump\t// out\n        /* \"#utility.yul\":1025:1151   */\n    tag_66:\n        /* \"#utility.yul\":1062:1069   */\n      0x00\n        /* \"#utility.yul\":1102:1144   */\n      0xffffffffffffffffffffffffffffffffffffffff\n        /* \"#utility.yul\":1095:1100   */\n      dup3\n        /* \"#utility.yul\":1091:1145   */\n      and\n        /* \"#utility.yul\":1080:1145   */\n      swap1\n      pop\n        /* \"#utility.yul\":1025:1151   */\n      swap2\n      swap1\n      pop\n      jump\t// out\n        /* \"#utility.yul\":1157:1253   */\n    tag_67:\n        /* \"#utility.yul\":1194:1201   */\n      0x00\n        /* \"#utility.yul\":1223:1247   */\n      tag_100\n        /* \"#utility.yul\":1241:1246   */\n      dup3\n        /* \"#utility.yul\":1223:1247   */\n      tag_66\n      jump\t// in\n    tag_100:\n        /* \"#utility.yul\":1212:1247   */\n      swap1\n      pop\n        /* \"#utility.yul\":1157:1253   */\n      swap2\n      swap1\n      pop\n      jump\t// out\n        /* \"#utility.yul\":1259:1377   */\n    tag_68:\n        /* \"#utility.yul\":1346:1370   */\n      tag_102\n        /* \"#utility.yul\":1364:1369   */\n      dup2\n        /* \"#utility.yul\":1346:1370   */\n      tag_67\n      jump\t// in\n    tag_102:\n        /* \"#utility.yul\":1341:1344   */\n      dup3\n        /* \"#utility.yul\":1334:1371   */\n      mstore\n        /* \"#utility.yul\":1259:1377   */\n      pop\n      pop\n      jump\t// out\n        /* \"#utility.yul\":1383:1605   */\n    tag_14:\n        /* \"#utility.yul\":1476:1480   */\n      0x00\n        /* \"#utility.yul\":1514:1516   */\n      0x20\n        /* \"#utility.yul\":1503:1512   */\n      dup3\n        /* \"#utility.yul\":1499:1517   */\n      add\n        /* \"#utility.yul\":1491:1517   */\n      swap1\n      pop\n        /* \"#utility.yul\":1527:1598   */\n      tag_104\n        /* \"#utility.yul\":1595:1596   */\n      0x00\n        /* \"#utility.yul\":1584:1593   */\n      dup4\n        /* \"#utility.yul\":1580:1597   */\n      add\n        /* \"#utility.yul\":1571:1577   */\n      dup5\n        /* \"#utility.yul\":1527:1598   */\n      tag_68\n      jump\t// in\n    tag_104:\n        /* \"#utility.yul\":1383:1605   */\n      swap3\n      swap2\n      pop\n      pop\n      jump\t// out\n        /* \"#utility.yul\":1611:1729   */\n    tag_69:\n        /* \"#utility.yul\":1698:1722   */\n      tag_106\n        /* \"#utility.yul\":1716:1721   */\n      dup2\n        /* \"#utility.yul\":1698:1722   */\n      tag_63\n      jump\t// in\n    tag_106:\n        /* \"#utility.yul\":1693:1696   */\n      dup3\n        /* \"#utility.yul\":1686:1723   */\n      mstore\n        /* \"#utility.yul\":1611:1729   */\n      pop\n      pop\n      jump\t// out\n        /* \"#utility.yul\":1735:1957   */\n    tag_19:\n        /* \"#utility.yul\":1828:1832   */\n      0x00\n        /* \"#utility.yul\":1866:1868   */\n      0x20\n        /* \"#utility.yul\":1855:1864   */\n      dup3\n        /* \"#utility.yul\":1851:1869   */\n      add\n        /* \"#utility.yul\":1843:1869   */\n      swap1\n      pop\n        /* \"#utility.yul\":1879:1950   */\n      tag_108\n        /* \"#utility.yul\":1947:1948   */\n      0x00\n        /* \"#utility.yul\":1936:1945   */\n      dup4\n        /* \"#utility.yul\":1932:1949   */\n      add\n        /* \"#utility.yul\":1923:1929   */\n      dup5\n        /* \"#utility.yul\":1879:1950   */\n      tag_69\n      jump\t// in\n    tag_108:\n        /* \"#utility.yul\":1735:1957   */\n      swap3\n      swap2\n      pop\n      pop\n      jump\t// out\n        /* \"#utility.yul\":1963:2085   */\n    tag_70:\n        /* \"#utility.yul\":2036:2060   */\n      tag_110\n        /* \"#utility.yul\":2054:2059   */\n      dup2\n        /* \"#utility.yul\":2036:2060   */\n      tag_67\n      jump\t// in\n    tag_110:\n        /* \"#utility.yul\":2029:2034   */\n      dup2\n        /* \"#utility.yul\":2026:2061   */\n      eq\n        /* \"#utility.yul\":2016:2079   */\n      tag_111\n      jumpi\n        /* \"#utility.yul\":2075:2076   */\n      0x00\n        /* \"#utility.yul\":2072:2073   */\n      dup1\n        /* \"#utility.yul\":2065:2077   */\n      revert\n        /* \"#utility.yul\":2016:2079   */\n    tag_111:\n        /* \"#utility.yul\":1963:2085   */\n      pop\n      jump\t// out\n        /* \"#utility.yul\":2091:2230   */\n    tag_71:\n        /* \"#utility.yul\":2137:2142   */\n      0x00\n        /* \"#utility.yul\":2175:2181   */\n      dup2\n        /* \"#utility.yul\":2162:2182   */\n      calldataload\n        /* \"#utility.yul\":2153:2182   */\n      swap1\n      pop\n        /* \"#utility.yul\":2191:2224   */\n      tag_113\n        /* \"#utility.yul\":2218:2223   */\n      dup2\n        /* \"#utility.yul\":2191:2224   */\n      tag_70\n      jump\t// in\n    tag_113:\n        /* \"#utility.yul\":2091:2230   */\n      swap3\n      swap2\n      pop\n      pop\n      jump\t// out\n        /* \"#utility.yul\":2236:2565   */\n    tag_23:\n        /* \"#utility.yul\":2295:2301   */\n      0x00\n        /* \"#utility.yul\":2344:2346   */\n      0x20\n        /* \"#utility.yul\":2332:2341   */\n      dup3\n        /* \"#utility.yul\":2323:2330   */\n      dup5\n        /* \"#utility.yul\":2319:2342   */\n      sub\n        /* \"#utility.yul\":2315:2347   */\n      slt\n        /* \"#utility.yul\":2312:2431   */\n      iszero\n      tag_115\n      jumpi\n        /* \"#utility.yul\":2350:2429   */\n      tag_116\n      tag_61\n      jump\t// in\n    tag_116:\n        /* \"#utility.yul\":2312:2431   */\n    tag_115:\n        /* \"#utility.yul\":2470:2471   */\n      0x00\n        /* \"#utility.yul\":2495:2548   */\n      tag_117\n        /* \"#utility.yul\":2540:2547   */\n      dup5\n        /* \"#utility.yul\":2531:2537   */\n      dup3\n        /* \"#utility.yul\":2520:2529   */\n      dup6\n        /* \"#utility.yul\":2516:2538   */\n      add\n        /* \"#utility.yul\":2495:2548   */\n      tag_71\n      jump\t// in\n    tag_117:\n        /* \"#utility.yul\":2485:2548   */\n      swap2\n      pop\n        /* \"#utility.yul\":2441:2558   */\n      pop\n        /* \"#utility.yul\":2236:2565   */\n      swap3\n      swap2\n      pop\n      pop\n      jump\t// out\n        /* \"#utility.yul\":2571:2676   */\n    tag_72:\n        /* \"#utility.yul\":2607:2614   */\n      0x00\n        /* \"#utility.yul\":2647:2669   */\n      0xffffffffffffffffffff\n        /* \"#utility.yul\":2640:2645   */\n      dup3\n        /* \"#utility.yul\":2636:2670   */\n      and\n        /* \"#utility.yul\":2625:2670   */\n      swap1\n      pop\n        /* \"#utility.yul\":2571:2676   */\n      swap2\n      swap1\n      pop\n      jump\t// out\n        /* \"#utility.yul\":2682:2802   */\n    tag_73:\n        /* \"#utility.yul\":2754:2777   */\n      tag_120\n        /* \"#utility.yul\":2771:2776   */\n      dup2\n        /* \"#utility.yul\":2754:2777   */\n      tag_72\n      jump\t// in\n    tag_120:\n        /* \"#utility.yul\":2747:2752   */\n      dup2\n        /* \"#utility.yul\":2744:2778   */\n      eq\n        /* \"#utility.yul\":2734:2796   */\n      tag_121\n      jumpi\n        /* \"#utility.yul\":2792:2793   */\n      0x00\n        /* \"#utility.yul\":2789:2790   */\n      dup1\n        /* \"#utility.yul\":2782:2794   */\n      revert\n        /* \"#utility.yul\":2734:2796   */\n    tag_121:\n        /* \"#utility.yul\":2682:2802   */\n      pop\n      jump\t// out\n        /* \"#utility.yul\":2808:2949   */\n    tag_74:\n        /* \"#utility.yul\":2864:2869   */\n      0x00\n        /* \"#utility.yul\":2895:2901   */\n      dup2\n        /* \"#utility.yul\":2889:2902   */\n      mload\n        /* \"#utility.yul\":2880:2902   */\n      swap1\n      pop\n        /* \"#utility.yul\":2911:2943   */\n      tag_123\n        /* \"#utility.yul\":2937:2942   */\n      dup2\n        /* \"#utility.yul\":2911:2943   */\n      tag_73\n      jump\t// in\n    tag_123:\n        /* \"#utility.yul\":2808:2949   */\n      swap3\n      swap2\n      pop\n      pop\n      jump\t// out\n        /* \"#utility.yul\":2955:3031   */\n    tag_75:\n        /* \"#utility.yul\":2991:2998   */\n      0x00\n        /* \"#utility.yul\":3020:3025   */\n      dup2\n        /* \"#utility.yul\":3009:3025   */\n      swap1\n      pop\n        /* \"#utility.yul\":2955:3031   */\n      swap2\n      swap1\n      pop\n      jump\t// out\n        /* \"#utility.yul\":3037:3157   */\n    tag_76:\n        /* \"#utility.yul\":3109:3132   */\n      tag_126\n        /* \"#utility.yul\":3126:3131   */\n      dup2\n        /* \"#utility.yul\":3109:3132   */\n      tag_75\n      jump\t// in\n    tag_126:\n        /* \"#utility.yul\":3102:3107   */\n      dup2\n        /* \"#utility.yul\":3099:3133   */\n      eq\n        /* \"#utility.yul\":3089:3151   */\n      tag_127\n      jumpi\n        /* \"#utility.yul\":3147:3148   */\n      0x00\n        /* \"#utility.yul\":3144:3145   */\n      dup1\n        /* \"#utility.yul\":3137:3149   */\n      revert\n        /* \"#utility.yul\":3089:3151   */\n    tag_127:\n        /* \"#utility.yul\":3037:3157   */\n      pop\n      jump\t// out\n        /* \"#utility.yul\":3163:3304   */\n    tag_77:\n        /* \"#utility.yul\":3219:3224   */\n      0x00\n        /* \"#utility.yul\":3250:3256   */\n      dup2\n        /* \"#utility.yul\":3244:3257   */\n      mload\n        /* \"#utility.yul\":3235:3257   */\n      swap1\n      pop\n        /* \"#utility.yul\":3266:3298   */\n      tag_129\n        /* \"#utility.yul\":3292:3297   */\n      dup2\n        /* \"#utility.yul\":3266:3298   */\n      tag_76\n      jump\t// in\n    tag_129:\n        /* \"#utility.yul\":3163:3304   */\n      swap3\n      swap2\n      pop\n      pop\n      jump\t// out\n        /* \"#utility.yul\":3310:3453   */\n    tag_78:\n        /* \"#utility.yul\":3367:3372   */\n      0x00\n        /* \"#utility.yul\":3398:3404   */\n      dup2\n        /* \"#utility.yul\":3392:3405   */\n      mload\n        /* \"#utility.yul\":3383:3405   */\n      swap1\n      pop\n        /* \"#utility.yul\":3414:3447   */\n      tag_131\n        /* \"#utility.yul\":3441:3446   */\n      dup2\n        /* \"#utility.yul\":3414:3447   */\n      tag_64\n      jump\t// in\n    tag_131:\n        /* \"#utility.yul\":3310:3453   */\n      swap3\n      swap2\n      pop\n      pop\n      jump\t// out\n        /* \"#utility.yul\":3459:4430   */\n    tag_43:\n        /* \"#utility.yul\":3562:3568   */\n      0x00\n        /* \"#utility.yul\":3570:3576   */\n      dup1\n        /* \"#utility.yul\":3578:3584   */\n      0x00\n        /* \"#utility.yul\":3586:3592   */\n      dup1\n        /* \"#utility.yul\":3594:3600   */\n      0x00\n        /* \"#utility.yul\":3643:3646   */\n      0xa0\n        /* \"#utility.yul\":3631:3640   */\n      dup7\n        /* \"#utility.yul\":3622:3629   */\n      dup9\n        /* \"#utility.yul\":3618:3641   */\n      sub\n        /* \"#utility.yul\":3614:3647   */\n      slt\n        /* \"#utility.yul\":3611:3731   */\n      iszero\n      tag_133\n      jumpi\n        /* \"#utility.yul\":3650:3729   */\n      tag_134\n      tag_61\n      jump\t// in\n    tag_134:\n        /* \"#utility.yul\":3611:3731   */\n    tag_133:\n        /* \"#utility.yul\":3770:3771   */\n      0x00\n        /* \"#utility.yul\":3795:3858   */\n      tag_135\n        /* \"#utility.yul\":3850:3857   */\n      dup9\n        /* \"#utility.yul\":3841:3847   */\n      dup3\n        /* \"#utility.yul\":3830:3839   */\n      dup10\n        /* \"#utility.yul\":3826:3848   */\n      add\n        /* \"#utility.yul\":3795:3858   */\n      tag_74\n      jump\t// in\n    tag_135:\n        /* \"#utility.yul\":3785:3858   */\n      swap6\n      pop\n        /* \"#utility.yul\":3741:3868   */\n      pop\n        /* \"#utility.yul\":3907:3909   */\n      0x20\n        /* \"#utility.yul\":3933:3996   */\n      tag_136\n        /* \"#utility.yul\":3988:3995   */\n      dup9\n        /* \"#utility.yul\":3979:3985   */\n      dup3\n        /* \"#utility.yul\":3968:3977   */\n      dup10\n        /* \"#utility.yul\":3964:3986   */\n      add\n        /* \"#utility.yul\":3933:3996   */\n      tag_77\n      jump\t// in\n    tag_136:\n        /* \"#utility.yul\":3923:3996   */\n      swap5\n      pop\n        /* \"#utility.yul\":3878:4006   */\n      pop\n        /* \"#utility.yul\":4045:4047   */\n      0x40\n        /* \"#utility.yul\":4071:4135   */\n      tag_137\n        /* \"#utility.yul\":4127:4134   */\n      dup9\n        /* \"#utility.yul\":4118:4124   */\n      dup3\n        /* \"#utility.yul\":4107:4116   */\n      dup10\n        /* \"#utility.yul\":4103:4125   */\n      add\n        /* \"#utility.yul\":4071:4135   */\n      tag_78\n      jump\t// in\n    tag_137:\n        /* \"#utility.yul\":4061:4135   */\n      swap4\n      pop\n        /* \"#utility.yul\":4016:4145   */\n      pop\n        /* \"#utility.yul\":4184:4186   */\n      0x60\n        /* \"#utility.yul\":4210:4274   */\n      tag_138\n        /* \"#utility.yul\":4266:4273   */\n      dup9\n        /* \"#utility.yul\":4257:4263   */\n      dup3\n        /* \"#utility.yul\":4246:4255   */\n      dup10\n        /* \"#utility.yul\":4242:4264   */\n      add\n        /* \"#utility.yul\":4210:4274   */\n      tag_78\n      jump\t// in\n    tag_138:\n        /* \"#utility.yul\":4200:4274   */\n      swap3\n      pop\n        /* \"#utility.yul\":4155:4284   */\n      pop\n        /* \"#utility.yul\":4323:4326   */\n      0x80\n        /* \"#utility.yul\":4350:4413   */\n      tag_139\n        /* \"#utility.yul\":4405:4412   */\n      dup9\n        /* \"#utility.yul\":4396:4402   */\n      dup3\n        /* \"#utility.yul\":4385:4394   */\n      dup10\n        /* \"#utility.yul\":4381:4403   */\n      add\n        /* \"#utility.yul\":4350:4413   */\n      tag_74\n      jump\t// in\n    tag_139:\n        /* \"#utility.yul\":4340:4413   */\n      swap2\n      pop\n        /* \"#utility.yul\":4294:4423   */\n      pop\n        /* \"#utility.yul\":3459:4430   */\n      swap3\n      swap6\n      pop\n      swap3\n      swap6\n      swap1\n      swap4\n      pop\n      jump\t// out\n        /* \"#utility.yul\":4436:4616   */\n    tag_79:\n        /* \"#utility.yul\":4484:4561   */\n      0x4e487b7100000000000000000000000000000000000000000000000000000000\n        /* \"#utility.yul\":4481:4482   */\n      0x00\n        /* \"#utility.yul\":4474:4562   */\n      mstore\n        /* \"#utility.yul\":4581:4585   */\n      0x11\n        /* \"#utility.yul\":4578:4579   */\n      0x04\n        /* \"#utility.yul\":4571:4586   */\n      mstore\n        /* \"#utility.yul\":4605:4609   */\n      0x24\n        /* \"#utility.yul\":4602:4603   */\n      0x00\n        /* \"#utility.yul\":4595:4610   */\n      revert\n        /* \"#utility.yul\":4622:5178   */\n    tag_45:\n        /* \"#utility.yul\":4661:4668   */\n      0x00\n        /* \"#utility.yul\":4684:4703   */\n      tag_142\n        /* \"#utility.yul\":4701:4702   */\n      dup3\n        /* \"#utility.yul\":4684:4703   */\n      tag_75\n      jump\t// in\n    tag_142:\n        /* \"#utility.yul\":4679:4703   */\n      swap2\n      pop\n        /* \"#utility.yul\":4717:4736   */\n      tag_143\n        /* \"#utility.yul\":4734:4735   */\n      dup4\n        /* \"#utility.yul\":4717:4736   */\n      tag_75\n      jump\t// in\n    tag_143:\n        /* \"#utility.yul\":4712:4736   */\n      swap3\n      pop\n        /* \"#utility.yul\":4771:4772   */\n      dup3\n        /* \"#utility.yul\":4768:4769   */\n      dup3\n        /* \"#utility.yul\":4764:4773   */\n      mul\n        /* \"#utility.yul\":4793:4822   */\n      tag_144\n        /* \"#utility.yul\":4810:4821   */\n      dup2\n        /* \"#utility.yul\":4793:4822   */\n      tag_75\n      jump\t// in\n    tag_144:\n        /* \"#utility.yul\":4782:4822   */\n      swap2\n      pop\n        /* \"#utility.yul\":4880:4946   */\n      0x8000000000000000000000000000000000000000000000000000000000000000\n        /* \"#utility.yul\":4877:4878   */\n      dup5\n        /* \"#utility.yul\":4874:4947   */\n      eq\n        /* \"#utility.yul\":4870:4871   */\n      0x00\n        /* \"#utility.yul\":4867:4868   */\n      dup5\n        /* \"#utility.yul\":4863:4872   */\n      slt\n        /* \"#utility.yul\":4859:4948   */\n      and\n        /* \"#utility.yul\":4856:4971   */\n      iszero\n      tag_145\n      jumpi\n        /* \"#utility.yul\":4951:4969   */\n      tag_146\n      tag_79\n      jump\t// in\n    tag_146:\n        /* \"#utility.yul\":4856:4971   */\n    tag_145:\n        /* \"#utility.yul\":5121:5122   */\n      dup3\n        /* \"#utility.yul\":5112:5119   */\n      dup3\n        /* \"#utility.yul\":5107:5123   */\n      sdiv\n        /* \"#utility.yul\":5104:5105   */\n      dup5\n        /* \"#utility.yul\":5101:5124   */\n      eq\n        /* \"#utility.yul\":5081:5082   */\n      dup4\n        /* \"#utility.yul\":5074:5083   */\n      iszero\n        /* \"#utility.yul\":5054:5138   */\n      or\n        /* \"#utility.yul\":5031:5171   */\n      tag_147\n      jumpi\n        /* \"#utility.yul\":5151:5169   */\n      tag_148\n      tag_79\n      jump\t// in\n    tag_148:\n        /* \"#utility.yul\":5031:5171   */\n    tag_147:\n        /* \"#utility.yul\":4669:5178   */\n      pop\n        /* \"#utility.yul\":4622:5178   */\n      swap3\n      swap2\n      pop\n      pop\n      jump\t// out\n        /* \"#utility.yul\":5184:5353   */\n    tag_80:\n        /* \"#utility.yul\":5268:5279   */\n      0x00\n        /* \"#utility.yul\":5302:5308   */\n      dup3\n        /* \"#utility.yul\":5297:5300   */\n      dup3\n        /* \"#utility.yul\":5290:5309   */\n      mstore\n        /* \"#utility.yul\":5342:5346   */\n      0x20\n        /* \"#utility.yul\":5337:5340   */\n      dup3\n        /* \"#utility.yul\":5333:5347   */\n      add\n        /* \"#utility.yul\":5318:5347   */\n      swap1\n      pop\n        /* \"#utility.yul\":5184:5353   */\n      swap3\n      swap2\n      pop\n      pop\n      jump\t// out\n        /* \"#utility.yul\":5359:5523   */\n    tag_81:\n        /* \"#utility.yul\":5499:5515   */\n      0x455448206e6f7420656e6f756768000000000000000000000000000000000000\n        /* \"#utility.yul\":5495:5496   */\n      0x00\n        /* \"#utility.yul\":5487:5493   */\n      dup3\n        /* \"#utility.yul\":5483:5497   */\n      add\n        /* \"#utility.yul\":5476:5516   */\n      mstore\n        /* \"#utility.yul\":5359:5523   */\n      pop\n      jump\t// out\n        /* \"#utility.yul\":5529:5895   */\n    tag_82:\n        /* \"#utility.yul\":5671:5674   */\n      0x00\n        /* \"#utility.yul\":5692:5759   */\n      tag_152\n        /* \"#utility.yul\":5756:5758   */\n      0x0e\n        /* \"#utility.yul\":5751:5754   */\n      dup4\n        /* \"#utility.yul\":5692:5759   */\n      tag_80\n      jump\t// in\n    tag_152:\n        /* \"#utility.yul\":5685:5759   */\n      swap2\n      pop\n        /* \"#utility.yul\":5768:5861   */\n      tag_153\n        /* \"#utility.yul\":5857:5860   */\n      dup3\n        /* \"#utility.yul\":5768:5861   */\n      tag_81\n      jump\t// in\n    tag_153:\n        /* \"#utility.yul\":5886:5888   */\n      0x20\n        /* \"#utility.yul\":5881:5884   */\n      dup3\n        /* \"#utility.yul\":5877:5889   */\n      add\n        /* \"#utility.yul\":5870:5889   */\n      swap1\n      pop\n        /* \"#utility.yul\":5529:5895   */\n      swap2\n      swap1\n      pop\n      jump\t// out\n        /* \"#utility.yul\":5901:6320   */\n    tag_50:\n        /* \"#utility.yul\":6067:6071   */\n      0x00\n        /* \"#utility.yul\":6105:6107   */\n      0x20\n        /* \"#utility.yul\":6094:6103   */\n      dup3\n        /* \"#utility.yul\":6090:6108   */\n      add\n        /* \"#utility.yul\":6082:6108   */\n      swap1\n      pop\n        /* \"#utility.yul\":6154:6163   */\n      dup2\n        /* \"#utility.yul\":6148:6152   */\n      dup2\n        /* \"#utility.yul\":6144:6164   */\n      sub\n        /* \"#utility.yul\":6140:6141   */\n      0x00\n        /* \"#utility.yul\":6129:6138   */\n      dup4\n        /* \"#utility.yul\":6125:6142   */\n      add\n        /* \"#utility.yul\":6118:6165   */\n      mstore\n        /* \"#utility.yul\":6182:6313   */\n      tag_155\n        /* \"#utility.yul\":6308:6312   */\n      dup2\n        /* \"#utility.yul\":6182:6313   */\n      tag_82\n      jump\t// in\n    tag_155:\n        /* \"#utility.yul\":6174:6313   */\n      swap1\n      pop\n        /* \"#utility.yul\":5901:6320   */\n      swap2\n      swap1\n      pop\n      jump\t// out\n        /* \"#utility.yul\":6326:6517   */\n    tag_53:\n        /* \"#utility.yul\":6366:6369   */\n      0x00\n        /* \"#utility.yul\":6385:6405   */\n      tag_157\n        /* \"#utility.yul\":6403:6404   */\n      dup3\n        /* \"#utility.yul\":6385:6405   */\n      tag_63\n      jump\t// in\n    tag_157:\n        /* \"#utility.yul\":6380:6405   */\n      swap2\n      pop\n        /* \"#utility.yul\":6419:6439   */\n      tag_158\n        /* \"#utility.yul\":6437:6438   */\n      dup4\n        /* \"#utility.yul\":6419:6439   */\n      tag_63\n      jump\t// in\n    tag_158:\n        /* \"#utility.yul\":6414:6439   */\n      swap3\n      pop\n        /* \"#utility.yul\":6462:6463   */\n      dup3\n        /* \"#utility.yul\":6459:6460   */\n      dup3\n        /* \"#utility.yul\":6455:6464   */\n      add\n        /* \"#utility.yul\":6448:6464   */\n      swap1\n      pop\n        /* \"#utility.yul\":6483:6486   */\n      dup1\n        /* \"#utility.yul\":6480:6481   */\n      dup3\n        /* \"#utility.yul\":6477:6487   */\n      gt\n        /* \"#utility.yul\":6474:6510   */\n      iszero\n      tag_159\n      jumpi\n        /* \"#utility.yul\":6490:6508   */\n      tag_160\n      tag_79\n      jump\t// in\n    tag_160:\n        /* \"#utility.yul\":6474:6510   */\n    tag_159:\n        /* \"#utility.yul\":6326:6517   */\n      swap3\n      swap2\n      pop\n      pop\n      jump\t// out\n        /* \"#utility.yul\":6523:6933   */\n    tag_57:\n        /* \"#utility.yul\":6563:6570   */\n      0x00\n        /* \"#utility.yul\":6586:6606   */\n      tag_162\n        /* \"#utility.yul\":6604:6605   */\n      dup3\n        /* \"#utility.yul\":6586:6606   */\n      tag_63\n      jump\t// in\n    tag_162:\n        /* \"#utility.yul\":6581:6606   */\n      swap2\n      pop\n        /* \"#utility.yul\":6620:6640   */\n      tag_163\n        /* \"#utility.yul\":6638:6639   */\n      dup4\n        /* \"#utility.yul\":6620:6640   */\n      tag_63\n      jump\t// in\n    tag_163:\n        /* \"#utility.yul\":6615:6640   */\n      swap3\n      pop\n        /* \"#utility.yul\":6675:6676   */\n      dup3\n        /* \"#utility.yul\":6672:6673   */\n      dup3\n        /* \"#utility.yul\":6668:6677   */\n      mul\n        /* \"#utility.yul\":6697:6727   */\n      tag_164\n        /* \"#utility.yul\":6715:6726   */\n      dup2\n        /* \"#utility.yul\":6697:6727   */\n      tag_63\n      jump\t// in\n    tag_164:\n        /* \"#utility.yul\":6686:6727   */\n      swap2\n      pop\n        /* \"#utility.yul\":6876:6877   */\n      dup3\n        /* \"#utility.yul\":6867:6874   */\n      dup3\n        /* \"#utility.yul\":6863:6878   */\n      div\n        /* \"#utility.yul\":6860:6861   */\n      dup5\n        /* \"#utility.yul\":6857:6879   */\n      eq\n        /* \"#utility.yul\":6837:6838   */\n      dup4\n        /* \"#utility.yul\":6830:6839   */\n      iszero\n        /* \"#utility.yul\":6810:6893   */\n      or\n        /* \"#utility.yul\":6787:6926   */\n      tag_165\n      jumpi\n        /* \"#utility.yul\":6906:6924   */\n      tag_166\n      tag_79\n      jump\t// in\n    tag_166:\n        /* \"#utility.yul\":6787:6926   */\n    tag_165:\n        /* \"#utility.yul\":6571:6933   */\n      pop\n        /* \"#utility.yul\":6523:6933   */\n      swap3\n      swap2\n      pop\n      pop\n      jump\t// out\n        /* \"#utility.yul\":6939:7119   */\n    tag_83:\n        /* \"#utility.yul\":6987:7064   */\n      0x4e487b7100000000000000000000000000000000000000000000000000000000\n        /* \"#utility.yul\":6984:6985   */\n      0x00\n        /* \"#utility.yul\":6977:7065   */\n      mstore\n        /* \"#utility.yul\":7084:7088   */\n      0x12\n        /* \"#utility.yul\":7081:7082   */\n      0x04\n        /* \"#utility.yul\":7074:7089   */\n      mstore\n        /* \"#utility.yul\":7108:7112   */\n      0x24\n        /* \"#utility.yul\":7105:7106   */\n      0x00\n        /* \"#utility.yul\":7098:7113   */\n      revert\n        /* \"#utility.yul\":7125:7310   */\n    tag_59:\n        /* \"#utility.yul\":7165:7166   */\n      0x00\n        /* \"#utility.yul\":7182:7202   */\n      tag_169\n        /* \"#utility.yul\":7200:7201   */\n      dup3\n        /* \"#utility.yul\":7182:7202   */\n      tag_63\n      jump\t// in\n    tag_169:\n        /* \"#utility.yul\":7177:7202   */\n      swap2\n      pop\n        /* \"#utility.yul\":7216:7236   */\n      tag_170\n        /* \"#utility.yul\":7234:7235   */\n      dup4\n        /* \"#utility.yul\":7216:7236   */\n      tag_63\n      jump\t// in\n    tag_170:\n        /* \"#utility.yul\":7211:7236   */\n      swap3\n      pop\n        /* \"#utility.yul\":7255:7256   */\n      dup3\n        /* \"#utility.yul\":7245:7280   */\n      tag_171\n      jumpi\n        /* \"#utility.yul\":7260:7278   */\n      tag_172\n      tag_83\n      jump\t// in\n    tag_172:\n        /* \"#utility.yul\":7245:7280   */\n    tag_171:\n        /* \"#utility.yul\":7302:7303   */\n      dup3\n        /* \"#utility.yul\":7299:7300   */\n      dup3\n        /* \"#utility.yul\":7295:7304   */\n      div\n        /* \"#utility.yul\":7290:7304   */\n      swap1\n      pop\n        /* \"#utility.yul\":7125:7310   */\n      swap3\n      swap2\n      pop\n      pop\n      jump\t// out\n\n    auxdata: 0xa264697066735822122036b43f8e6da6b0d7e0e8a2f4a00a64ecd3dfd95b9fdf631e9edacc4c25f5b11c64736f6c63430008180033\n}\n",
				"bytecode": {
					"linkReferences": {},
					"object": "6080604052674563918244f400005f5534801561001a575f80fd5b5061082c806100285f395ff3fe608060405260043610610054575f3560e01c806332c35cdc1461005857806398d5fdca14610094578063a6878279146100be578063b60d4288146100fa578063eb2aae5c14610104578063f8b6f7781461012e575b5f80fd5b348015610063575f80fd5b5061007e6004803603810190610079919061040d565b61016a565b60405161008b9190610477565b60405180910390f35b34801561009f575f80fd5b506100a86101a5565b6040516100b5919061049f565b60405180910390f35b3480156100c9575f80fd5b506100e460048036038101906100df91906104e2565b61024d565b6040516100f1919061049f565b60405180910390f35b610102610262565b005b34801561010f575f80fd5b50610118610399565b604051610125919061049f565b60405180910390f35b348015610139575f80fd5b50610154600480360381019061014f919061040d565b61039e565b604051610161919061049f565b60405180910390f35b60018181548110610179575f80fd5b905f5260205f20015f915054906101000a900473ffffffffffffffffffffffffffffffffffffffff1681565b5f8073694aa1769357215de4fac081bf1f309adc32530690505f8173ffffffffffffffffffffffffffffffffffffffff1663feaf968c6040518163ffffffff1660e01b815260040160a060405180830381865afa158015610208573d5f803e3d5ffd5b505050506040513d601f19601f8201168201806040525081019061022c9190610593565b505050915050670de0b6b3a7640000816102469190610637565b9250505090565b6002602052805f5260405f205f915090505481565b5f5461026d3461039e565b116102ad576040517f08c379a00000000000000000000000000000000000000000000000000000000081526004016102a490610707565b60405180910390fd5b600133908060018154018082558091505060019003905f5260205f20015f9091909190916101000a81548173ffffffffffffffffffffffffffffffffffffffff021916908373ffffffffffffffffffffffffffffffffffffffff1602179055503460025f3373ffffffffffffffffffffffffffffffffffffffff1673ffffffffffffffffffffffffffffffffffffffff1681526020019081526020015f20546103569190610725565b60025f3373ffffffffffffffffffffffffffffffffffffffff1673ffffffffffffffffffffffffffffffffffffffff1681526020019081526020015f2081905550565b5f5481565b5f806103a86101a5565b90505f670de0b6b3a764000082856103c09190610758565b6103ca91906107c6565b90508092505050919050565b5f80fd5b5f819050919050565b6103ec816103da565b81146103f6575f80fd5b50565b5f81359050610407816103e3565b92915050565b5f60208284031215610422576104216103d6565b5b5f61042f848285016103f9565b91505092915050565b5f73ffffffffffffffffffffffffffffffffffffffff82169050919050565b5f61046182610438565b9050919050565b61047181610457565b82525050565b5f60208201905061048a5f830184610468565b92915050565b610499816103da565b82525050565b5f6020820190506104b25f830184610490565b92915050565b6104c181610457565b81146104cb575f80fd5b50565b5f813590506104dc816104b8565b92915050565b5f602082840312156104f7576104f66103d6565b5b5f610504848285016104ce565b91505092915050565b5f69ffffffffffffffffffff82169050919050565b61052b8161050d565b8114610535575f80fd5b50565b5f8151905061054681610522565b92915050565b5f819050919050565b61055e8161054c565b8114610568575f80fd5b50565b5f8151905061057981610555565b92915050565b5f8151905061058d816103e3565b92915050565b5f805f805f60a086880312156105ac576105ab6103d6565b5b5f6105b988828901610538565b95505060206105ca8882890161056b565b94505060406105db8882890161057f565b93505060606105ec8882890161057f565b92505060806105fd88828901610538565b9150509295509295909350565b7f4e487b71000000000000000000000000000000000000000000000000000000005f52601160045260245ffd5b5f6106418261054c565b915061064c8361054c565b925082820261065a8161054c565b91507f800000000000000000000000000000000000000000000000000000000000000084145f841216156106915761069061060a565b5b82820584148315176106a6576106a561060a565b5b5092915050565b5f82825260208201905092915050565b7f455448206e6f7420656e6f7567680000000000000000000000000000000000005f82015250565b5f6106f1600e836106ad565b91506106fc826106bd565b602082019050919050565b5f6020820190508181035f83015261071e816106e5565b9050919050565b5f61072f826103da565b915061073a836103da565b92508282019050808211156107525761075161060a565b5b92915050565b5f610762826103da565b915061076d836103da565b925082820261077b816103da565b915082820484148315176107925761079161060a565b5b5092915050565b7f4e487b71000000000000000000000000000000000000000000000000000000005f52601260045260245ffd5b5f6107d0826103da565b91506107db836103da565b9250826107eb576107ea610799565b5b82820490509291505056fea264697066735822122036b43f8e6da6b0d7e0e8a2f4a00a64ecd3dfd95b9fdf631e9edacc4c25f5b11c64736f6c63430008180033",
					"opcodes": "PUSH1 0x80 PUSH1 0x40 MSTORE PUSH8 0x4563918244F40000 PUSH0 SSTORE CALLVALUE DUP1 ISZERO PUSH2 0x1A JUMPI PUSH0 DUP1 REVERT JUMPDEST POP PUSH2 0x82C DUP1 PUSH2 0x28 PUSH0 CODECOPY PUSH0 RETURN INVALID PUSH1 0x80 PUSH1 0x40 MSTORE PUSH1 0x4 CALLDATASIZE LT PUSH2 0x54 JUMPI PUSH0 CALLDATALOAD PUSH1 0xE0 SHR DUP1 PUSH4 0x32C35CDC EQ PUSH2 0x58 JUMPI DUP1 PUSH4 0x98D5FDCA EQ PUSH2 0x94 JUMPI DUP1 PUSH4 0xA6878279 EQ PUSH2 0xBE JUMPI DUP1 PUSH4 0xB60D4288 EQ PUSH2 0xFA JUMPI DUP1 PUSH4 0xEB2AAE5C EQ PUSH2 0x104 JUMPI DUP1 PUSH4 0xF8B6F778 EQ PUSH2 0x12E JUMPI JUMPDEST PUSH0 DUP1 REVERT JUMPDEST CALLVALUE DUP1 ISZERO PUSH2 0x63 JUMPI PUSH0 DUP1 REVERT JUMPDEST POP PUSH2 0x7E PUSH1 0x4 DUP1 CALLDATASIZE SUB DUP2 ADD SWAP1 PUSH2 0x79 SWAP2 SWAP1 PUSH2 0x40D JUMP JUMPDEST PUSH2 0x16A JUMP JUMPDEST PUSH1 0x40 MLOAD PUSH2 0x8B SWAP2 SWAP1 PUSH2 0x477 JUMP JUMPDEST PUSH1 0x40 MLOAD DUP1 SWAP2 SUB SWAP1 RETURN JUMPDEST CALLVALUE DUP1 ISZERO PUSH2 0x9F JUMPI PUSH0 DUP1 REVERT JUMPDEST POP PUSH2 0xA8 PUSH2 0x1A5 JUMP JUMPDEST PUSH1 0x40 MLOAD PUSH2 0xB5 SWAP2 SWAP1 PUSH2 0x49F JUMP JUMPDEST PUSH1 0x40 MLOAD DUP1 SWAP2 SUB SWAP1 RETURN JUMPDEST CALLVALUE DUP1 ISZERO PUSH2 0xC9 JUMPI PUSH0 DUP1 REVERT JUMPDEST POP PUSH2 0xE4 PUSH1 0x4 DUP1 CALLDATASIZE SUB DUP2 ADD SWAP1 PUSH2 0xDF SWAP2 SWAP1 PUSH2 0x4E2 JUMP JUMPDEST PUSH2 0x24D JUMP JUMPDEST PUSH1 0x40 MLOAD PUSH2 0xF1 SWAP2 SWAP1 PUSH2 0x49F JUMP JUMPDEST PUSH1 0x40 MLOAD DUP1 SWAP2 SUB SWAP1 RETURN JUMPDEST PUSH2 0x102 PUSH2 0x262 JUMP JUMPDEST STOP JUMPDEST CALLVALUE DUP1 ISZERO PUSH2 0x10F JUMPI PUSH0 DUP1 REVERT JUMPDEST POP PUSH2 0x118 PUSH2 0x399 JUMP JUMPDEST PUSH1 0x40 MLOAD PUSH2 0x125 SWAP2 SWAP1 PUSH2 0x49F JUMP JUMPDEST PUSH1 0x40 MLOAD DUP1 SWAP2 SUB SWAP1 RETURN JUMPDEST CALLVALUE DUP1 ISZERO PUSH2 0x139 JUMPI PUSH0 DUP1 REVERT JUMPDEST POP PUSH2 0x154 PUSH1 0x4 DUP1 CALLDATASIZE SUB DUP2 ADD SWAP1 PUSH2 0x14F SWAP2 SWAP1 PUSH2 0x40D JUMP JUMPDEST PUSH2 0x39E JUMP JUMPDEST PUSH1 0x40 MLOAD PUSH2 0x161 SWAP2 SWAP1 PUSH2 0x49F JUMP JUMPDEST PUSH1 0x40 MLOAD DUP1 SWAP2 SUB SWAP1 RETURN JUMPDEST PUSH1 0x1 DUP2 DUP2 SLOAD DUP2 LT PUSH2 0x179 JUMPI PUSH0 DUP1 REVERT JUMPDEST SWAP1 PUSH0 MSTORE PUSH1 0x20 PUSH0 KECCAK256 ADD PUSH0 SWAP2 POP SLOAD SWAP1 PUSH2 0x100 EXP SWAP1 DIV PUSH20 0xFFFFFFFFFFFFFFFFFFFFFFFFFFFFFFFFFFFFFFFF AND DUP2 JUMP JUMPDEST PUSH0 DUP1 PUSH20 0x694AA1769357215DE4FAC081BF1F309ADC325306 SWAP1 POP PUSH0 DUP2 PUSH20 0xFFFFFFFFFFFFFFFFFFFFFFFFFFFFFFFFFFFFFFFF AND PUSH4 0xFEAF968C PUSH1 0x40 MLOAD DUP2 PUSH4 0xFFFFFFFF AND PUSH1 0xE0 SHL DUP2 MSTORE PUSH1 0x4 ADD PUSH1 0xA0 PUSH1 0x40 MLOAD DUP1 DUP4 SUB DUP2 DUP7 GAS STATICCALL ISZERO DUP1 ISZERO PUSH2 0x208 JUMPI RETURNDATASIZE PUSH0 DUP1 RETURNDATACOPY RETURNDATASIZE PUSH0 REVERT JUMPDEST POP POP POP POP PUSH1 0x40 MLOAD RETURNDATASIZE PUSH1 0x1F NOT PUSH1 0x1F DUP3 ADD AND DUP3 ADD DUP1 PUSH1 0x40 MSTORE POP DUP2 ADD SWAP1 PUSH2 0x22C SWAP2 SWAP1 PUSH2 0x593 JUMP JUMPDEST POP POP POP SWAP2 POP POP PUSH8 0xDE0B6B3A7640000 DUP2 PUSH2 0x246 SWAP2 SWAP1 PUSH2 0x637 JUMP JUMPDEST SWAP3 POP POP POP SWAP1 JUMP JUMPDEST PUSH1 0x2 PUSH1 0x20 MSTORE DUP1 PUSH0 MSTORE PUSH1 0x40 PUSH0 KECCAK256 PUSH0 SWAP2 POP SWAP1 POP SLOAD DUP2 JUMP JUMPDEST PUSH0 SLOAD PUSH2 0x26D CALLVALUE PUSH2 0x39E JUMP JUMPDEST GT PUSH2 0x2AD JUMPI PUSH1 0x40 MLOAD PUSH32 0x8C379A000000000000000000000000000000000000000000000000000000000 DUP2 MSTORE PUSH1 0x4 ADD PUSH2 0x2A4 SWAP1 PUSH2 0x707 JUMP JUMPDEST PUSH1 0x40 MLOAD DUP1 SWAP2 SUB SWAP1 REVERT JUMPDEST PUSH1 0x1 CALLER SWAP1 DUP1 PUSH1 0x1 DUP2 SLOAD ADD DUP1 DUP3 SSTORE DUP1 SWAP2 POP POP PUSH1 0x1 SWAP1 SUB SWAP1 PUSH0 MSTORE PUSH1 0x20 PUSH0 KECCAK256 ADD PUSH0 SWAP1 SWAP2 SWAP1 SWAP2 SWAP1 SWAP2 PUSH2 0x100 EXP DUP2 SLOAD DUP2 PUSH20 0xFFFFFFFFFFFFFFFFFFFFFFFFFFFFFFFFFFFFFFFF MUL NOT AND SWAP1 DUP4 PUSH20 0xFFFFFFFFFFFFFFFFFFFFFFFFFFFFFFFFFFFFFFFF AND MUL OR SWAP1 SSTORE POP CALLVALUE PUSH1 0x2 PUSH0 CALLER PUSH20 0xFFFFFFFFFFFFFFFFFFFFFFFFFFFFFFFFFFFFFFFF AND PUSH20 0xFFFFFFFFFFFFFFFFFFFFFFFFFFFFFFFFFFFFFFFF AND DUP2 MSTORE PUSH1 0x20 ADD SWAP1 DUP2 MSTORE PUSH1 0x20 ADD PUSH0 KECCAK256 SLOAD PUSH2 0x356 SWAP2 SWAP1 PUSH2 0x725 JUMP JUMPDEST PUSH1 0x2 PUSH0 CALLER PUSH20 0xFFFFFFFFFFFFFFFFFFFFFFFFFFFFFFFFFFFFFFFF AND PUSH20 0xFFFFFFFFFFFFFFFFFFFFFFFFFFFFFFFFFFFFFFFF AND DUP2 MSTORE PUSH1 0x20 ADD SWAP1 DUP2 MSTORE PUSH1 0x20 ADD PUSH0 KECCAK256 DUP2 SWAP1 SSTORE POP JUMP JUMPDEST PUSH0 SLOAD DUP2 JUMP JUMPDEST PUSH0 DUP1 PUSH2 0x3A8 PUSH2 0x1A5 JUMP JUMPDEST SWAP1 POP PUSH0 PUSH8 0xDE0B6B3A7640000 DUP3 DUP6 PUSH2 0x3C0 SWAP2 SWAP1 PUSH2 0x758 JUMP JUMPDEST PUSH2 0x3CA SWAP2 SWAP1 PUSH2 0x7C6 JUMP JUMPDEST SWAP1 POP DUP1 SWAP3 POP POP POP SWAP2 SWAP1 POP JUMP JUMPDEST PUSH0 DUP1 REVERT JUMPDEST PUSH0 DUP2 SWAP1 POP SWAP2 SWAP1 POP JUMP JUMPDEST PUSH2 0x3EC DUP2 PUSH2 0x3DA JUMP JUMPDEST DUP2 EQ PUSH2 0x3F6 JUMPI PUSH0 DUP1 REVERT JUMPDEST POP JUMP JUMPDEST PUSH0 DUP2 CALLDATALOAD SWAP1 POP PUSH2 0x407 DUP2 PUSH2 0x3E3 JUMP JUMPDEST SWAP3 SWAP2 POP POP JUMP JUMPDEST PUSH0 PUSH1 0x20 DUP3 DUP5 SUB SLT ISZERO PUSH2 0x422 JUMPI PUSH2 0x421 PUSH2 0x3D6 JUMP JUMPDEST JUMPDEST PUSH0 PUSH2 0x42F DUP5 DUP3 DUP6 ADD PUSH2 0x3F9 JUMP JUMPDEST SWAP2 POP POP SWAP3 SWAP2 POP POP JUMP JUMPDEST PUSH0 PUSH20 0xFFFFFFFFFFFFFFFFFFFFFFFFFFFFFFFFFFFFFFFF DUP3 AND SWAP1 POP SWAP2 SWAP1 POP JUMP JUMPDEST PUSH0 PUSH2 0x461 DUP3 PUSH2 0x438 JUMP JUMPDEST SWAP1 POP SWAP2 SWAP1 POP JUMP JUMPDEST PUSH2 0x471 DUP2 PUSH2 0x457 JUMP JUMPDEST DUP3 MSTORE POP POP JUMP JUMPDEST PUSH0 PUSH1 0x20 DUP3 ADD SWAP1 POP PUSH2 0x48A PUSH0 DUP4 ADD DUP5 PUSH2 0x468 JUMP JUMPDEST SWAP3 SWAP2 POP POP JUMP JUMPDEST PUSH2 0x499 DUP2 PUSH2 0x3DA JUMP JUMPDEST DUP3 MSTORE POP POP JUMP JUMPDEST PUSH0 PUSH1 0x20 DUP3 ADD SWAP1 POP PUSH2 0x4B2 PUSH0 DUP4 ADD DUP5 PUSH2 0x490 JUMP JUMPDEST SWAP3 SWAP2 POP POP JUMP JUMPDEST PUSH2 0x4C1 DUP2 PUSH2 0x457 JUMP JUMPDEST DUP2 EQ PUSH2 0x4CB JUMPI PUSH0 DUP1 REVERT JUMPDEST POP JUMP JUMPDEST PUSH0 DUP2 CALLDATALOAD SWAP1 POP PUSH2 0x4DC DUP2 PUSH2 0x4B8 JUMP JUMPDEST SWAP3 SWAP2 POP POP JUMP JUMPDEST PUSH0 PUSH1 0x20 DUP3 DUP5 SUB SLT ISZERO PUSH2 0x4F7 JUMPI PUSH2 0x4F6 PUSH2 0x3D6 JUMP JUMPDEST JUMPDEST PUSH0 PUSH2 0x504 DUP5 DUP3 DUP6 ADD PUSH2 0x4CE JUMP JUMPDEST SWAP2 POP POP SWAP3 SWAP2 POP POP JUMP JUMPDEST PUSH0 PUSH10 0xFFFFFFFFFFFFFFFFFFFF DUP3 AND SWAP1 POP SWAP2 SWAP1 POP JUMP JUMPDEST PUSH2 0x52B DUP2 PUSH2 0x50D JUMP JUMPDEST DUP2 EQ PUSH2 0x535 JUMPI PUSH0 DUP1 REVERT JUMPDEST POP JUMP JUMPDEST PUSH0 DUP2 MLOAD SWAP1 POP PUSH2 0x546 DUP2 PUSH2 0x522 JUMP JUMPDEST SWAP3 SWAP2 POP POP JUMP JUMPDEST PUSH0 DUP2 SWAP1 POP SWAP2 SWAP1 POP JUMP JUMPDEST PUSH2 0x55E DUP2 PUSH2 0x54C JUMP JUMPDEST DUP2 EQ PUSH2 0x568 JUMPI PUSH0 DUP1 REVERT JUMPDEST POP JUMP JUMPDEST PUSH0 DUP2 MLOAD SWAP1 POP PUSH2 0x579 DUP2 PUSH2 0x555 JUMP JUMPDEST SWAP3 SWAP2 POP POP JUMP JUMPDEST PUSH0 DUP2 MLOAD SWAP1 POP PUSH2 0x58D DUP2 PUSH2 0x3E3 JUMP JUMPDEST SWAP3 SWAP2 POP POP JUMP JUMPDEST PUSH0 DUP1 PUSH0 DUP1 PUSH0 PUSH1 0xA0 DUP7 DUP9 SUB SLT ISZERO PUSH2 0x5AC JUMPI PUSH2 0x5AB PUSH2 0x3D6 JUMP JUMPDEST JUMPDEST PUSH0 PUSH2 0x5B9 DUP9 DUP3 DUP10 ADD PUSH2 0x538 JUMP JUMPDEST SWAP6 POP POP PUSH1 0x20 PUSH2 0x5CA DUP9 DUP3 DUP10 ADD PUSH2 0x56B JUMP JUMPDEST SWAP5 POP POP PUSH1 0x40 PUSH2 0x5DB DUP9 DUP3 DUP10 ADD PUSH2 0x57F JUMP JUMPDEST SWAP4 POP POP PUSH1 0x60 PUSH2 0x5EC DUP9 DUP3 DUP10 ADD PUSH2 0x57F JUMP JUMPDEST SWAP3 POP POP PUSH1 0x80 PUSH2 0x5FD DUP9 DUP3 DUP10 ADD PUSH2 0x538 JUMP JUMPDEST SWAP2 POP POP SWAP3 SWAP6 POP SWAP3 SWAP6 SWAP1 SWAP4 POP JUMP JUMPDEST PUSH32 0x4E487B7100000000000000000000000000000000000000000000000000000000 PUSH0 MSTORE PUSH1 0x11 PUSH1 0x4 MSTORE PUSH1 0x24 PUSH0 REVERT JUMPDEST PUSH0 PUSH2 0x641 DUP3 PUSH2 0x54C JUMP JUMPDEST SWAP2 POP PUSH2 0x64C DUP4 PUSH2 0x54C JUMP JUMPDEST SWAP3 POP DUP3 DUP3 MUL PUSH2 0x65A DUP2 PUSH2 0x54C JUMP JUMPDEST SWAP2 POP PUSH32 0x8000000000000000000000000000000000000000000000000000000000000000 DUP5 EQ PUSH0 DUP5 SLT AND ISZERO PUSH2 0x691 JUMPI PUSH2 0x690 PUSH2 0x60A JUMP JUMPDEST JUMPDEST DUP3 DUP3 SDIV DUP5 EQ DUP4 ISZERO OR PUSH2 0x6A6 JUMPI PUSH2 0x6A5 PUSH2 0x60A JUMP JUMPDEST JUMPDEST POP SWAP3 SWAP2 POP POP JUMP JUMPDEST PUSH0 DUP3 DUP3 MSTORE PUSH1 0x20 DUP3 ADD SWAP1 POP SWAP3 SWAP2 POP POP JUMP JUMPDEST PUSH32 0x455448206E6F7420656E6F756768000000000000000000000000000000000000 PUSH0 DUP3 ADD MSTORE POP JUMP JUMPDEST PUSH0 PUSH2 0x6F1 PUSH1 0xE DUP4 PUSH2 0x6AD JUMP JUMPDEST SWAP2 POP PUSH2 0x6FC DUP3 PUSH2 0x6BD JUMP JUMPDEST PUSH1 0x20 DUP3 ADD SWAP1 POP SWAP2 SWAP1 POP JUMP JUMPDEST PUSH0 PUSH1 0x20 DUP3 ADD SWAP1 POP DUP2 DUP2 SUB PUSH0 DUP4 ADD MSTORE PUSH2 0x71E DUP2 PUSH2 0x6E5 JUMP JUMPDEST SWAP1 POP SWAP2 SWAP1 POP JUMP JUMPDEST PUSH0 PUSH2 0x72F DUP3 PUSH2 0x3DA JUMP JUMPDEST SWAP2 POP PUSH2 0x73A DUP4 PUSH2 0x3DA JUMP JUMPDEST SWAP3 POP DUP3 DUP3 ADD SWAP1 POP DUP1 DUP3 GT ISZERO PUSH2 0x752 JUMPI PUSH2 0x751 PUSH2 0x60A JUMP JUMPDEST JUMPDEST SWAP3 SWAP2 POP POP JUMP JUMPDEST PUSH0 PUSH2 0x762 DUP3 PUSH2 0x3DA JUMP JUMPDEST SWAP2 POP PUSH2 0x76D DUP4 PUSH2 0x3DA JUMP JUMPDEST SWAP3 POP DUP3 DUP3 MUL PUSH2 0x77B DUP2 PUSH2 0x3DA JUMP JUMPDEST SWAP2 POP DUP3 DUP3 DIV DUP5 EQ DUP4 ISZERO OR PUSH2 0x792 JUMPI PUSH2 0x791 PUSH2 0x60A JUMP JUMPDEST JUMPDEST POP SWAP3 SWAP2 POP POP JUMP JUMPDEST PUSH32 0x4E487B7100000000000000000000000000000000000000000000000000000000 PUSH0 MSTORE PUSH1 0x12 PUSH1 0x4 MSTORE PUSH1 0x24 PUSH0 REVERT JUMPDEST PUSH0 PUSH2 0x7D0 DUP3 PUSH2 0x3DA JUMP JUMPDEST SWAP2 POP PUSH2 0x7DB DUP4 PUSH2 0x3DA JUMP JUMPDEST SWAP3 POP DUP3 PUSH2 0x7EB JUMPI PUSH2 0x7EA PUSH2 0x799 JUMP JUMPDEST JUMPDEST DUP3 DUP3 DIV SWAP1 POP SWAP3 SWAP2 POP POP JUMP INVALID LOG2 PUSH5 0x6970667358 0x22 SLT KECCAK256 CALLDATASIZE 0xB4 EXTCODEHASH DUP15 PUSH14 0xA6B0D7E0E8A2F4A00A64ECD3DFD9 JUMPDEST SWAP16 0xDF PUSH4 0x1E9EDACC 0x4C 0x25 CREATE2 0xB1 SHR PUSH5 0x736F6C6343 STOP ADDMOD XOR STOP CALLER "
				},
				"gasEstimates": {
					"creation": {
						"codeDepositCost": "418400",
						"executionCost": "22558",
						"totalCost": "440958"
					},
					"external": {
						"address_to_amount(address)": "2824",
						"fund()": "infinite",
						"getConvertion(uint256)": "infinite",
						"getPrice()": "infinite",
						"min_USD()": "2490",
						"sender_Adresses(uint256)": "4922"
					}
				},
				"methodIdentifiers": {
					"address_to_amount(address)": "a6878279",
					"fund()": "b60d4288",
					"getConvertion(uint256)": "f8b6f778",
					"getPrice()": "98d5fdca",
					"min_USD()": "eb2aae5c",
					"sender_Adresses(uint256)": "32c35cdc"
				}
			},
			"storageLayout": {
				"storage": [
					{
						"astId": 54,
						"contract": "fund_me/A3.sol:FundMeA3",
						"label": "min_USD",
						"offset": 0,
						"slot": "0",
						"type": "t_uint256"
					},
					{
						"astId": 57,
						"contract": "fund_me/A3.sol:FundMeA3",
						"label": "sender_Adresses",
						"offset": 0,
						"slot": "1",
						"type": "t_array(t_address)dyn_storage"
					},
					{
						"astId": 61,
						"contract": "fund_me/A3.sol:FundMeA3",
						"label": "address_to_amount",
						"offset": 0,
						"slot": "2",
						"type": "t_mapping(t_address,t_uint256)"
					}
				],
				"types": {
					"t_address": {
						"encoding": "inplace",
						"label": "address",
						"numberOfBytes": "20"
					},
					"t_array(t_address)dyn_storage": {
						"base": "t_address",
						"encoding": "dynamic_array",
						"label": "address[]",
						"numberOfBytes": "32"
					},
					"t_mapping(t_address,t_uint256)": {
						"encoding": "mapping",
						"key": "t_address",
						"label": "mapping(address => uint256)",
						"numberOfBytes": "32",
						"value": "t_uint256"
					},
					"t_uint256": {
						"encoding": "inplace",
						"label": "uint256",
						"numberOfBytes": "32"
					}
				}
			},
			"userdoc": {
				"kind": "user",
				"methods": {},
				"version": 1
			}
		}
	}
}